{
  "_format": "hh-sol-artifact-1",
  "contractName": "Gemesis",
  "sourceName": "contracts/gemstones.sol",
  "abi": [
    {
      "inputs": [
        {
          "internalType": "string",
          "name": "_name",
          "type": "string"
        },
        {
          "internalType": "string",
          "name": "_symbol",
          "type": "string"
        },
        {
          "internalType": "string",
          "name": "_initBaseURI",
          "type": "string"
        },
        {
          "internalType": "string",
          "name": "_initNotRevealedUri",
          "type": "string"
        }
      ],
      "stateMutability": "nonpayable",
      "type": "constructor"
    },
    {
      "anonymous": false,
      "inputs": [
        {
          "indexed": true,
          "internalType": "address",
          "name": "owner",
          "type": "address"
        },
        {
          "indexed": true,
          "internalType": "address",
          "name": "approved",
          "type": "address"
        },
        {
          "indexed": true,
          "internalType": "uint256",
          "name": "tokenId",
          "type": "uint256"
        }
      ],
      "name": "Approval",
      "type": "event"
    },
    {
      "anonymous": false,
      "inputs": [
        {
          "indexed": true,
          "internalType": "address",
          "name": "owner",
          "type": "address"
        },
        {
          "indexed": true,
          "internalType": "address",
          "name": "operator",
          "type": "address"
        },
        {
          "indexed": false,
          "internalType": "bool",
          "name": "approved",
          "type": "bool"
        }
      ],
      "name": "ApprovalForAll",
      "type": "event"
    },
    {
      "anonymous": false,
      "inputs": [
        {
          "indexed": true,
          "internalType": "address",
          "name": "previousOwner",
          "type": "address"
        },
        {
          "indexed": true,
          "internalType": "address",
          "name": "newOwner",
          "type": "address"
        }
      ],
      "name": "OwnershipTransferred",
      "type": "event"
    },
    {
      "anonymous": false,
      "inputs": [
        {
          "indexed": true,
          "internalType": "address",
          "name": "from",
          "type": "address"
        },
        {
          "indexed": true,
          "internalType": "address",
          "name": "to",
          "type": "address"
        },
        {
          "indexed": true,
          "internalType": "uint256",
          "name": "tokenId",
          "type": "uint256"
        }
      ],
      "name": "Transfer",
      "type": "event"
    },
    {
      "inputs": [
        {
          "internalType": "address",
          "name": "to",
          "type": "address"
        },
        {
          "internalType": "uint256",
          "name": "tokenId",
          "type": "uint256"
        }
      ],
      "name": "approve",
      "outputs": [],
      "stateMutability": "nonpayable",
      "type": "function"
    },
    {
      "inputs": [
        {
          "internalType": "address",
          "name": "owner",
          "type": "address"
        }
      ],
      "name": "balanceOf",
      "outputs": [
        {
          "internalType": "uint256",
          "name": "",
          "type": "uint256"
        }
      ],
      "stateMutability": "view",
      "type": "function"
    },
    {
      "inputs": [],
      "name": "baseExtension",
      "outputs": [
        {
          "internalType": "string",
          "name": "",
          "type": "string"
        }
      ],
      "stateMutability": "view",
      "type": "function"
    },
    {
      "inputs": [],
      "name": "baseURI",
      "outputs": [
        {
          "internalType": "string",
          "name": "",
          "type": "string"
        }
      ],
      "stateMutability": "view",
      "type": "function"
    },
    {
      "inputs": [],
      "name": "cost",
      "outputs": [
        {
          "internalType": "uint256",
          "name": "",
          "type": "uint256"
        }
      ],
      "stateMutability": "view",
      "type": "function"
    },
    {
      "inputs": [],
      "name": "eternalMint",
      "outputs": [],
      "stateMutability": "nonpayable",
      "type": "function"
    },
    {
      "inputs": [
        {
          "internalType": "uint256",
          "name": "tokenId",
          "type": "uint256"
        }
      ],
      "name": "getApproved",
      "outputs": [
        {
          "internalType": "address",
          "name": "",
          "type": "address"
        }
      ],
      "stateMutability": "view",
      "type": "function"
    },
    {
      "inputs": [
        {
          "internalType": "address",
          "name": "owner",
          "type": "address"
        },
        {
          "internalType": "address",
          "name": "operator",
          "type": "address"
        }
      ],
      "name": "isApprovedForAll",
      "outputs": [
        {
          "internalType": "bool",
          "name": "",
          "type": "bool"
        }
      ],
      "stateMutability": "view",
      "type": "function"
    },
    {
      "inputs": [],
      "name": "maxMintAmount",
      "outputs": [
        {
          "internalType": "uint256",
          "name": "",
          "type": "uint256"
        }
      ],
      "stateMutability": "view",
      "type": "function"
    },
    {
      "inputs": [],
      "name": "maxSupply",
      "outputs": [
        {
          "internalType": "uint256",
          "name": "",
          "type": "uint256"
        }
      ],
      "stateMutability": "view",
      "type": "function"
    },
    {
      "inputs": [
        {
          "internalType": "uint256",
          "name": "_mintAmount",
          "type": "uint256"
        }
      ],
      "name": "mint",
      "outputs": [],
      "stateMutability": "payable",
      "type": "function"
    },
    {
      "inputs": [],
      "name": "name",
      "outputs": [
        {
          "internalType": "string",
          "name": "",
          "type": "string"
        }
      ],
      "stateMutability": "view",
      "type": "function"
    },
    {
      "inputs": [],
      "name": "nftPerAddressLimit",
      "outputs": [
        {
          "internalType": "uint256",
          "name": "",
          "type": "uint256"
        }
      ],
      "stateMutability": "view",
      "type": "function"
    },
    {
      "inputs": [],
      "name": "notRevealedURI",
      "outputs": [
        {
          "internalType": "string",
          "name": "",
          "type": "string"
        }
      ],
      "stateMutability": "view",
      "type": "function"
    },
    {
      "inputs": [
        {
          "internalType": "uint256",
          "name": "addressLastMintTimestamp",
          "type": "uint256"
        }
      ],
      "name": "oneHourHasPassed",
      "outputs": [
        {
          "internalType": "bool",
          "name": "",
          "type": "bool"
        }
      ],
      "stateMutability": "view",
      "type": "function"
    },
    {
      "inputs": [],
      "name": "onlyWhitelisted",
      "outputs": [
        {
          "internalType": "bool",
          "name": "",
          "type": "bool"
        }
      ],
      "stateMutability": "view",
      "type": "function"
    },
    {
      "inputs": [],
      "name": "owner",
      "outputs": [
        {
          "internalType": "address",
          "name": "",
          "type": "address"
        }
      ],
      "stateMutability": "view",
      "type": "function"
    },
    {
      "inputs": [
        {
          "internalType": "uint256",
          "name": "tokenId",
          "type": "uint256"
        }
      ],
      "name": "ownerOf",
      "outputs": [
        {
          "internalType": "address",
          "name": "",
          "type": "address"
        }
      ],
      "stateMutability": "view",
      "type": "function"
    },
    {
      "inputs": [
        {
          "internalType": "bool",
          "name": "_state",
          "type": "bool"
        }
      ],
      "name": "pause",
      "outputs": [],
      "stateMutability": "nonpayable",
      "type": "function"
    },
    {
      "inputs": [],
      "name": "paused",
      "outputs": [
        {
          "internalType": "bool",
          "name": "",
          "type": "bool"
        }
      ],
      "stateMutability": "view",
      "type": "function"
    },
    {
      "inputs": [],
      "name": "payments",
      "outputs": [
        {
          "internalType": "address payable",
          "name": "",
          "type": "address"
        }
      ],
      "stateMutability": "view",
      "type": "function"
    },
    {
      "inputs": [
        {
          "internalType": "address",
          "name": "_user",
          "type": "address"
        }
      ],
      "name": "removeWhitelistUser",
      "outputs": [],
      "stateMutability": "nonpayable",
      "type": "function"
    },
    {
      "inputs": [],
      "name": "renounceOwnership",
      "outputs": [],
      "stateMutability": "nonpayable",
      "type": "function"
    },
    {
      "inputs": [],
      "name": "reveal",
      "outputs": [],
      "stateMutability": "nonpayable",
      "type": "function"
    },
    {
      "inputs": [],
      "name": "revealed",
      "outputs": [
        {
          "internalType": "bool",
          "name": "",
          "type": "bool"
        }
      ],
      "stateMutability": "view",
      "type": "function"
    },
    {
      "inputs": [
        {
          "internalType": "address",
          "name": "from",
          "type": "address"
        },
        {
          "internalType": "address",
          "name": "to",
          "type": "address"
        },
        {
          "internalType": "uint256",
          "name": "tokenId",
          "type": "uint256"
        }
      ],
      "name": "safeTransferFrom",
      "outputs": [],
      "stateMutability": "nonpayable",
      "type": "function"
    },
    {
      "inputs": [
        {
          "internalType": "address",
          "name": "from",
          "type": "address"
        },
        {
          "internalType": "address",
          "name": "to",
          "type": "address"
        },
        {
          "internalType": "uint256",
          "name": "tokenId",
          "type": "uint256"
        },
        {
          "internalType": "bytes",
          "name": "_data",
          "type": "bytes"
        }
      ],
      "name": "safeTransferFrom",
      "outputs": [],
      "stateMutability": "nonpayable",
      "type": "function"
    },
    {
      "inputs": [
        {
          "internalType": "address",
          "name": "operator",
          "type": "address"
        },
        {
          "internalType": "bool",
          "name": "approved",
          "type": "bool"
        }
      ],
      "name": "setApprovalForAll",
      "outputs": [],
      "stateMutability": "nonpayable",
      "type": "function"
    },
    {
      "inputs": [
        {
          "internalType": "string",
          "name": "_newBaseExtension",
          "type": "string"
        }
      ],
      "name": "setBaseExtension",
      "outputs": [],
      "stateMutability": "nonpayable",
      "type": "function"
    },
    {
      "inputs": [
        {
          "internalType": "string",
          "name": "_newBaseURI",
          "type": "string"
        }
      ],
      "name": "setBaseURI",
      "outputs": [],
      "stateMutability": "nonpayable",
      "type": "function"
    },
    {
      "inputs": [
        {
          "internalType": "uint256",
          "name": "_newCost",
          "type": "uint256"
        }
      ],
      "name": "setCost",
      "outputs": [],
      "stateMutability": "nonpayable",
      "type": "function"
    },
    {
      "inputs": [
        {
          "internalType": "uint256",
          "name": "_limit",
          "type": "uint256"
        }
      ],
      "name": "setNftPerAddressLimit",
      "outputs": [],
      "stateMutability": "nonpayable",
      "type": "function"
    },
    {
      "inputs": [
        {
          "internalType": "string",
          "name": "_notRevealedURI",
          "type": "string"
        }
      ],
      "name": "setNotRevealedURI",
      "outputs": [],
      "stateMutability": "nonpayable",
      "type": "function"
    },
    {
      "inputs": [
        {
          "internalType": "bool",
          "name": "_state",
          "type": "bool"
        }
      ],
      "name": "setOnlyWhitelisted",
      "outputs": [],
      "stateMutability": "nonpayable",
      "type": "function"
    },
    {
      "inputs": [
        {
          "internalType": "uint256",
          "name": "_newmaxMintAmount",
          "type": "uint256"
        }
      ],
      "name": "setmaxMintAmount",
      "outputs": [],
      "stateMutability": "nonpayable",
      "type": "function"
    },
    {
      "inputs": [
        {
          "internalType": "bytes4",
          "name": "interfaceId",
          "type": "bytes4"
        }
      ],
      "name": "supportsInterface",
      "outputs": [
        {
          "internalType": "bool",
          "name": "",
          "type": "bool"
        }
      ],
      "stateMutability": "view",
      "type": "function"
    },
    {
      "inputs": [],
      "name": "symbol",
      "outputs": [
        {
          "internalType": "string",
          "name": "",
          "type": "string"
        }
      ],
      "stateMutability": "view",
      "type": "function"
    },
    {
      "inputs": [
        {
          "internalType": "uint256",
          "name": "index",
          "type": "uint256"
        }
      ],
      "name": "tokenByIndex",
      "outputs": [
        {
          "internalType": "uint256",
          "name": "",
          "type": "uint256"
        }
      ],
      "stateMutability": "view",
      "type": "function"
    },
    {
      "inputs": [
        {
          "internalType": "address",
          "name": "owner",
          "type": "address"
        },
        {
          "internalType": "uint256",
          "name": "index",
          "type": "uint256"
        }
      ],
      "name": "tokenOfOwnerByIndex",
      "outputs": [
        {
          "internalType": "uint256",
          "name": "",
          "type": "uint256"
        }
      ],
      "stateMutability": "view",
      "type": "function"
    },
    {
      "inputs": [
        {
          "internalType": "uint256",
          "name": "tokenId",
          "type": "uint256"
        }
      ],
      "name": "tokenURI",
      "outputs": [
        {
          "internalType": "string",
          "name": "",
          "type": "string"
        }
      ],
      "stateMutability": "view",
      "type": "function"
    },
    {
      "inputs": [],
      "name": "totalSupply",
      "outputs": [
        {
          "internalType": "uint256",
          "name": "",
          "type": "uint256"
        }
      ],
      "stateMutability": "view",
      "type": "function"
    },
    {
      "inputs": [
        {
          "internalType": "address",
          "name": "from",
          "type": "address"
        },
        {
          "internalType": "address",
          "name": "to",
          "type": "address"
        },
        {
          "internalType": "uint256",
          "name": "tokenId",
          "type": "uint256"
        }
      ],
      "name": "transferFrom",
      "outputs": [],
      "stateMutability": "nonpayable",
      "type": "function"
    },
    {
      "inputs": [
        {
          "internalType": "address",
          "name": "newOwner",
          "type": "address"
        }
      ],
      "name": "transferOwnership",
      "outputs": [],
      "stateMutability": "nonpayable",
      "type": "function"
    },
    {
      "inputs": [
        {
          "internalType": "address",
          "name": "_user",
          "type": "address"
        }
      ],
      "name": "whitelistUser",
      "outputs": [],
      "stateMutability": "nonpayable",
      "type": "function"
    },
    {
      "inputs": [
        {
          "internalType": "address",
          "name": "",
          "type": "address"
        }
      ],
      "name": "whitelisted",
      "outputs": [
        {
          "internalType": "bool",
          "name": "",
          "type": "bool"
        }
      ],
      "stateMutability": "view",
      "type": "function"
    },
    {
      "inputs": [
        {
          "internalType": "uint256",
          "name": "",
          "type": "uint256"
        }
      ],
      "name": "whitelistedAddresses",
      "outputs": [
        {
          "internalType": "address",
          "name": "",
          "type": "address"
        }
      ],
      "stateMutability": "view",
      "type": "function"
    },
    {
      "inputs": [],
      "name": "withdraw",
      "outputs": [],
      "stateMutability": "payable",
      "type": "function"
    }
  ],
  "bytecode": "0x60806040526040518060400160405280600581526020017f2e6a736f6e000000000000000000000000000000000000000000000000000000815250600d908051906020019062000051929190620003bf565b5060646010556014601155655af3107a400060125560146013556000601460006101000a81548160ff0219169083151502179055506000601460016101000a81548160ff0219169083151502179055506001601460026101000a81548160ff021916908315150217905550348015620000c957600080fd5b5060405162005126380380620051268339818101604052810190620000ef9190620004e1565b8383816000908051906020019062000109929190620003bf565b50806001908051906020019062000122929190620003bf565b50505062000145620001396200017160201b60201c565b6200017960201b60201c565b62000156826200023f60201b60201c565b6200016781620002ea60201b60201c565b5050505062000757565b600033905090565b6000600a60009054906101000a900473ffffffffffffffffffffffffffffffffffffffff16905081600a60006101000a81548173ffffffffffffffffffffffffffffffffffffffff021916908373ffffffffffffffffffffffffffffffffffffffff1602179055508173ffffffffffffffffffffffffffffffffffffffff168173ffffffffffffffffffffffffffffffffffffffff167f8be0079c531659141344cd1fd0a4f28419497f9722a3daafe3b4186f6b6457e060405160405180910390a35050565b6200024f6200017160201b60201c565b73ffffffffffffffffffffffffffffffffffffffff16620002756200039560201b60201c565b73ffffffffffffffffffffffffffffffffffffffff1614620002ce576040517f08c379a0000000000000000000000000000000000000000000000000000000008152600401620002c590620005f3565b60405180910390fd5b80600c9080519060200190620002e6929190620003bf565b5050565b620002fa6200017160201b60201c565b73ffffffffffffffffffffffffffffffffffffffff16620003206200039560201b60201c565b73ffffffffffffffffffffffffffffffffffffffff161462000379576040517f08c379a00000000000000000000000000000000000000000000000000000000081526004016200037090620005f3565b60405180910390fd5b80600e908051906020019062000391929190620003bf565b5050565b6000600a60009054906101000a900473ffffffffffffffffffffffffffffffffffffffff16905090565b828054620003cd90620006c3565b90600052602060002090601f016020900481019282620003f157600085556200043d565b82601f106200040c57805160ff19168380011785556200043d565b828001600101855582156200043d579182015b828111156200043c5782518255916020019190600101906200041f565b5b5090506200044c919062000450565b5090565b5b808211156200046b57600081600090555060010162000451565b5090565b600062000486620004808462000649565b62000615565b9050828152602081018484840111156200049f57600080fd5b620004ac8482856200068d565b509392505050565b600082601f830112620004c657600080fd5b8151620004d88482602086016200046f565b91505092915050565b60008060008060808587031215620004f857600080fd5b600085015167ffffffffffffffff8111156200051357600080fd5b6200052187828801620004b4565b945050602085015167ffffffffffffffff8111156200053f57600080fd5b6200054d87828801620004b4565b935050604085015167ffffffffffffffff8111156200056b57600080fd5b6200057987828801620004b4565b925050606085015167ffffffffffffffff8111156200059757600080fd5b620005a587828801620004b4565b91505092959194509250565b6000620005c06020836200067c565b91507f4f776e61626c653a2063616c6c6572206973206e6f7420746865206f776e65726000830152602082019050919050565b600060208201905081810360008301526200060e81620005b1565b9050919050565b6000604051905081810181811067ffffffffffffffff821117156200063f576200063e62000728565b5b8060405250919050565b600067ffffffffffffffff82111562000667576200066662000728565b5b601f19601f8301169050602081019050919050565b600082825260208201905092915050565b60005b83811015620006ad57808201518184015260208101905062000690565b83811115620006bd576000848401525b50505050565b60006002820490506001821680620006dc57607f821691505b60208210811415620006f357620006f2620006f9565b5b50919050565b7f4e487b7100000000000000000000000000000000000000000000000000000000600052602260045260246000fd5b7f4e487b7100000000000000000000000000000000000000000000000000000000600052604160045260246000fd5b6149bf80620007676000396000f3fe6080604052600436106102885760003560e01c8063715018a61161015a578063ba4e5c49116100c1578063d936547e1161007a578063d936547e146109a0578063d981776e146109dd578063da3ef23f146109f4578063e985e9c514610a1d578063f2c4ce1e14610a5a578063f2fde38b14610a8357610288565b8063ba4e5c491461087c578063ba7d2c76146108b9578063c6682862146108e4578063c87b56dd1461090f578063d0eb26b01461094c578063d5abeb011461097557610288565b8063a0712d6811610113578063a0712d681461078f578063a22cb465146107ab578063a475b5dd146107d4578063a6d23e10146107eb578063b1655bc714610816578063b88d4fde1461085357610288565b8063715018a6146106a357806372250380146106ba5780637f00c7a6146106e55780638da5cb5b1461070e57806395d89b41146107395780639c70b5121461076457610288565b80633c952764116101fe57806351830227116101b7578063518302271461057f57806355f804b3146105aa5780635c975abb146105d35780636352211e146105fe5780636c0360eb1461063b57806370a082311461066657610288565b80633c952764146104945780633ccfd60b146104bd57806342842e0e146104c757806344a0d68a146104f05780634a4c560d146105195780634f6ccce71461054257610288565b806313faede61161025057806313faede61461038457806318160ddd146103af578063239c70ae146103da57806323b872dd146104055780632f745c591461042e57806330cc7ae01461046b57610288565b806301ffc9a71461028d57806302329a29146102ca57806306fdde03146102f3578063081812fc1461031e578063095ea7b31461035b575b600080fd5b34801561029957600080fd5b506102b460048036038101906102af919061384a565b610aac565b6040516102c1919061425a565b60405180910390f35b3480156102d657600080fd5b506102f160048036038101906102ec9190613821565b610b26565b005b3480156102ff57600080fd5b50610308610bbf565b6040516103159190614275565b60405180910390f35b34801561032a57600080fd5b50610345600480360381019061034091906138dd565b610c51565b60405161035291906141d8565b60405180910390f35b34801561036757600080fd5b50610382600480360381019061037d91906137e5565b610cd6565b005b34801561039057600080fd5b50610399610dee565b6040516103a69190614537565b60405180910390f35b3480156103bb57600080fd5b506103c4610df4565b6040516103d19190614537565b60405180910390f35b3480156103e657600080fd5b506103ef610e01565b6040516103fc9190614537565b60405180910390f35b34801561041157600080fd5b5061042c600480360381019061042791906136df565b610e07565b005b34801561043a57600080fd5b50610455600480360381019061045091906137e5565b610e67565b6040516104629190614537565b60405180910390f35b34801561047757600080fd5b50610492600480360381019061048d919061367a565b610f0c565b005b3480156104a057600080fd5b506104bb60048036038101906104b69190613821565b610fe3565b005b6104c561107c565b005b3480156104d357600080fd5b506104ee60048036038101906104e991906136df565b611171565b005b3480156104fc57600080fd5b50610517600480360381019061051291906138dd565b611191565b005b34801561052557600080fd5b50610540600480360381019061053b919061367a565b611217565b005b34801561054e57600080fd5b50610569600480360381019061056491906138dd565b6112ee565b6040516105769190614537565b60405180910390f35b34801561058b57600080fd5b50610594611385565b6040516105a1919061425a565b60405180910390f35b3480156105b657600080fd5b506105d160048036038101906105cc919061389c565b611398565b005b3480156105df57600080fd5b506105e861142e565b6040516105f5919061425a565b60405180910390f35b34801561060a57600080fd5b50610625600480360381019061062091906138dd565b611441565b60405161063291906141d8565b60405180910390f35b34801561064757600080fd5b506106506114f3565b60405161065d9190614275565b60405180910390f35b34801561067257600080fd5b5061068d6004803603810190610688919061367a565b611581565b60405161069a9190614537565b60405180910390f35b3480156106af57600080fd5b506106b8611639565b005b3480156106c657600080fd5b506106cf6116c1565b6040516106dc9190614275565b60405180910390f35b3480156106f157600080fd5b5061070c600480360381019061070791906138dd565b61174f565b005b34801561071a57600080fd5b506107236117d5565b60405161073091906141d8565b60405180910390f35b34801561074557600080fd5b5061074e6117ff565b60405161075b9190614275565b60405180910390f35b34801561077057600080fd5b50610779611891565b604051610786919061425a565b60405180910390f35b6107a960048036038101906107a491906138dd565b6118a4565b005b3480156107b757600080fd5b506107d260048036038101906107cd91906137a9565b611a5f565b005b3480156107e057600080fd5b506107e9611be0565b005b3480156107f757600080fd5b50610800611c79565b60405161080d91906141f3565b60405180910390f35b34801561082257600080fd5b5061083d600480360381019061083891906138dd565b611c9f565b60405161084a919061425a565b60405180910390f35b34801561085f57600080fd5b5061087a6004803603810190610875919061372e565b611cb8565b005b34801561088857600080fd5b506108a3600480360381019061089e91906138dd565b611d1a565b6040516108b091906141d8565b60405180910390f35b3480156108c557600080fd5b506108ce611d59565b6040516108db9190614537565b60405180910390f35b3480156108f057600080fd5b506108f9611d5f565b6040516109069190614275565b60405180910390f35b34801561091b57600080fd5b50610936600480360381019061093191906138dd565b611ded565b6040516109439190614275565b60405180910390f35b34801561095857600080fd5b50610973600480360381019061096e91906138dd565b611f60565b005b34801561098157600080fd5b5061098a611fe6565b6040516109979190614537565b60405180910390f35b3480156109ac57600080fd5b506109c760048036038101906109c2919061367a565b611fec565b6040516109d4919061425a565b60405180910390f35b3480156109e957600080fd5b506109f261200c565b005b348015610a0057600080fd5b50610a1b6004803603810190610a16919061389c565b6120a7565b005b348015610a2957600080fd5b50610a446004803603810190610a3f91906136a3565b61213d565b604051610a51919061425a565b60405180910390f35b348015610a6657600080fd5b50610a816004803603810190610a7c919061389c565b6121d1565b005b348015610a8f57600080fd5b50610aaa6004803603810190610aa5919061367a565b612267565b005b60007f780e9d63000000000000000000000000000000000000000000000000000000007bffffffffffffffffffffffffffffffffffffffffffffffffffffffff1916827bffffffffffffffffffffffffffffffffffffffffffffffffffffffff19161480610b1f5750610b1e8261235f565b5b9050919050565b610b2e612441565b73ffffffffffffffffffffffffffffffffffffffff16610b4c6117d5565b73ffffffffffffffffffffffffffffffffffffffff1614610ba2576040517f08c379a0000000000000000000000000000000000000000000000000000000008152600401610b9990614437565b60405180910390fd5b80601460006101000a81548160ff02191690831515021790555050565b606060008054610bce906147b4565b80601f0160208091040260200160405190810160405280929190818152602001828054610bfa906147b4565b8015610c475780601f10610c1c57610100808354040283529160200191610c47565b820191906000526020600020905b815481529060010190602001808311610c2a57829003601f168201915b5050505050905090565b6000610c5c82612449565b610c9b576040517f08c379a0000000000000000000000000000000000000000000000000000000008152600401610c9290614417565b60405180910390fd5b6004600083815260200190815260200160002060009054906101000a900473ffffffffffffffffffffffffffffffffffffffff169050919050565b6000610ce182611441565b90508073ffffffffffffffffffffffffffffffffffffffff168373ffffffffffffffffffffffffffffffffffffffff161415610d52576040517f08c379a0000000000000000000000000000000000000000000000000000000008152600401610d49906144b7565b60405180910390fd5b8073ffffffffffffffffffffffffffffffffffffffff16610d71612441565b73ffffffffffffffffffffffffffffffffffffffff161480610da05750610d9f81610d9a612441565b61213d565b5b610ddf576040517f08c379a0000000000000000000000000000000000000000000000000000000008152600401610dd690614377565b60405180910390fd5b610de983836124b5565b505050565b60125481565b6000600880549050905090565b60115481565b610e18610e12612441565b8261256e565b610e57576040517f08c379a0000000000000000000000000000000000000000000000000000000008152600401610e4e906144d7565b60405180910390fd5b610e6283838361264c565b505050565b6000610e7283611581565b8210610eb3576040517f08c379a0000000000000000000000000000000000000000000000000000000008152600401610eaa90614297565b60405180910390fd5b600660008473ffffffffffffffffffffffffffffffffffffffff1673ffffffffffffffffffffffffffffffffffffffff168152602001908152602001600020600083815260200190815260200160002054905092915050565b610f14612441565b73ffffffffffffffffffffffffffffffffffffffff16610f326117d5565b73ffffffffffffffffffffffffffffffffffffffff1614610f88576040517f08c379a0000000000000000000000000000000000000000000000000000000008152600401610f7f90614437565b60405180910390fd5b6000601660008373ffffffffffffffffffffffffffffffffffffffff1673ffffffffffffffffffffffffffffffffffffffff16815260200190815260200160002060006101000a81548160ff02191690831515021790555050565b610feb612441565b73ffffffffffffffffffffffffffffffffffffffff166110096117d5565b73ffffffffffffffffffffffffffffffffffffffff161461105f576040517f08c379a000000000000000000000000000000000000000000000000000000000815260040161105690614437565b60405180910390fd5b80601460026101000a81548160ff02191690831515021790555050565b611084612441565b73ffffffffffffffffffffffffffffffffffffffff166110a26117d5565b73ffffffffffffffffffffffffffffffffffffffff16146110f8576040517f08c379a00000000000000000000000000000000000000000000000000000000081526004016110ef90614437565b60405180910390fd5b60003373ffffffffffffffffffffffffffffffffffffffff164760405161111e906141c3565b60006040518083038185875af1925050503d806000811461115b576040519150601f19603f3d011682016040523d82523d6000602084013e611160565b606091505b505090508061116e57600080fd5b50565b61118c83838360405180602001604052806000815250611cb8565b505050565b611199612441565b73ffffffffffffffffffffffffffffffffffffffff166111b76117d5565b73ffffffffffffffffffffffffffffffffffffffff161461120d576040517f08c379a000000000000000000000000000000000000000000000000000000000815260040161120490614437565b60405180910390fd5b8060128190555050565b61121f612441565b73ffffffffffffffffffffffffffffffffffffffff1661123d6117d5565b73ffffffffffffffffffffffffffffffffffffffff1614611293576040517f08c379a000000000000000000000000000000000000000000000000000000000815260040161128a90614437565b60405180910390fd5b6001601660008373ffffffffffffffffffffffffffffffffffffffff1673ffffffffffffffffffffffffffffffffffffffff16815260200190815260200160002060006101000a81548160ff02191690831515021790555050565b60006112f8610df4565b8210611339576040517f08c379a0000000000000000000000000000000000000000000000000000000008152600401611330906144f7565b60405180910390fd5b60088281548110611373577f4e487b7100000000000000000000000000000000000000000000000000000000600052603260045260246000fd5b90600052602060002001549050919050565b601460019054906101000a900460ff1681565b6113a0612441565b73ffffffffffffffffffffffffffffffffffffffff166113be6117d5565b73ffffffffffffffffffffffffffffffffffffffff1614611414576040517f08c379a000000000000000000000000000000000000000000000000000000000815260040161140b90614437565b60405180910390fd5b80600c908051906020019061142a92919061349e565b5050565b601460009054906101000a900460ff1681565b6000806002600084815260200190815260200160002060009054906101000a900473ffffffffffffffffffffffffffffffffffffffff169050600073ffffffffffffffffffffffffffffffffffffffff168173ffffffffffffffffffffffffffffffffffffffff1614156114ea576040517f08c379a00000000000000000000000000000000000000000000000000000000081526004016114e1906143b7565b60405180910390fd5b80915050919050565b600c8054611500906147b4565b80601f016020809104026020016040519081016040528092919081815260200182805461152c906147b4565b80156115795780601f1061154e57610100808354040283529160200191611579565b820191906000526020600020905b81548152906001019060200180831161155c57829003601f168201915b505050505081565b60008073ffffffffffffffffffffffffffffffffffffffff168273ffffffffffffffffffffffffffffffffffffffff1614156115f2576040517f08c379a00000000000000000000000000000000000000000000000000000000081526004016115e990614397565b60405180910390fd5b600360008373ffffffffffffffffffffffffffffffffffffffff1673ffffffffffffffffffffffffffffffffffffffff168152602001908152602001600020549050919050565b611641612441565b73ffffffffffffffffffffffffffffffffffffffff1661165f6117d5565b73ffffffffffffffffffffffffffffffffffffffff16146116b5576040517f08c379a00000000000000000000000000000000000000000000000000000000081526004016116ac90614437565b60405180910390fd5b6116bf60006128a8565b565b600e80546116ce906147b4565b80601f01602080910402602001604051908101604052809291908181526020018280546116fa906147b4565b80156117475780601f1061171c57610100808354040283529160200191611747565b820191906000526020600020905b81548152906001019060200180831161172a57829003601f168201915b505050505081565b611757612441565b73ffffffffffffffffffffffffffffffffffffffff166117756117d5565b73ffffffffffffffffffffffffffffffffffffffff16146117cb576040517f08c379a00000000000000000000000000000000000000000000000000000000081526004016117c290614437565b60405180910390fd5b8060118190555050565b6000600a60009054906101000a900473ffffffffffffffffffffffffffffffffffffffff16905090565b60606001805461180e906147b4565b80601f016020809104026020016040519081016040528092919081815260200182805461183a906147b4565b80156118875780601f1061185c57610100808354040283529160200191611887565b820191906000526020600020905b81548152906001019060200180831161186a57829003601f168201915b5050505050905090565b601460029054906101000a900460ff1681565b60006118ae610df4565b9050601460009054906101000a900460ff16156118ca57600080fd5b600082116118d757600080fd5b6011548211156118e657600080fd5b60105482826118f59190614631565b10611935576040517f08c379a000000000000000000000000000000000000000000000000000000000815260040161192c90614457565b60405180910390fd5b61197d601860003373ffffffffffffffffffffffffffffffffffffffff1673ffffffffffffffffffffffffffffffffffffffff16815260200190815260200160002054611c9f565b6119bc576040517f08c379a00000000000000000000000000000000000000000000000000000000081526004016119b3906143f7565b60405180910390fd5b601254341015611a01576040517f08c379a00000000000000000000000000000000000000000000000000000000081526004016119f890614517565b60405180910390fd5b611a1733600183611a129190614631565b61296e565b42601860003373ffffffffffffffffffffffffffffffffffffffff1673ffffffffffffffffffffffffffffffffffffffff168152602001908152602001600020819055505050565b611a67612441565b73ffffffffffffffffffffffffffffffffffffffff168273ffffffffffffffffffffffffffffffffffffffff161415611ad5576040517f08c379a0000000000000000000000000000000000000000000000000000000008152600401611acc90614337565b60405180910390fd5b8060056000611ae2612441565b73ffffffffffffffffffffffffffffffffffffffff1673ffffffffffffffffffffffffffffffffffffffff16815260200190815260200160002060008473ffffffffffffffffffffffffffffffffffffffff1673ffffffffffffffffffffffffffffffffffffffff16815260200190815260200160002060006101000a81548160ff0219169083151502179055508173ffffffffffffffffffffffffffffffffffffffff16611b8f612441565b73ffffffffffffffffffffffffffffffffffffffff167f17307eab39ab6107e8899845ad3d59bd9653f200f220920489ca2b5937696c3183604051611bd4919061425a565b60405180910390a35050565b611be8612441565b73ffffffffffffffffffffffffffffffffffffffff16611c066117d5565b73ffffffffffffffffffffffffffffffffffffffff1614611c5c576040517f08c379a0000000000000000000000000000000000000000000000000000000008152600401611c5390614437565b60405180910390fd5b6001601460016101000a81548160ff021916908315150217905550565b601760009054906101000a900473ffffffffffffffffffffffffffffffffffffffff1681565b6000607882611cae9190614631565b4210159050919050565b611cc9611cc3612441565b8361256e565b611d08576040517f08c379a0000000000000000000000000000000000000000000000000000000008152600401611cff906144d7565b60405180910390fd5b611d148484848461298c565b50505050565b60158181548110611d2a57600080fd5b906000526020600020016000915054906101000a900473ffffffffffffffffffffffffffffffffffffffff1681565b60135481565b600d8054611d6c906147b4565b80601f0160208091040260200160405190810160405280929190818152602001828054611d98906147b4565b8015611de55780601f10611dba57610100808354040283529160200191611de5565b820191906000526020600020905b815481529060010190602001808311611dc857829003601f168201915b505050505081565b6060611df882612449565b611e37576040517f08c379a0000000000000000000000000000000000000000000000000000000008152600401611e2e90614497565b60405180910390fd5b6000601960008481526020019081526020016000208054611e57906147b4565b80601f0160208091040260200160405190810160405280929190818152602001828054611e83906147b4565b8015611ed05780601f10611ea557610100808354040283529160200191611ed0565b820191906000526020600020905b815481529060010190602001808311611eb357829003601f168201915b505050505090506000611ee16129e8565b9050600081511415611ef7578192505050611f5b565b600082511115611f2c578082604051602001611f1492919061419f565b60405160208183030381529060405292505050611f5b565b80611f36856129ff565b604051602001611f4792919061419f565b604051602081830303815290604052925050505b919050565b611f68612441565b73ffffffffffffffffffffffffffffffffffffffff16611f866117d5565b73ffffffffffffffffffffffffffffffffffffffff1614611fdc576040517f08c379a0000000000000000000000000000000000000000000000000000000008152600401611fd390614437565b60405180910390fd5b8060138190555050565b60105481565b60166020528060005260406000206000915054906101000a900460ff1681565b612014612441565b73ffffffffffffffffffffffffffffffffffffffff166120326117d5565b73ffffffffffffffffffffffffffffffffffffffff1614612088576040517f08c379a000000000000000000000000000000000000000000000000000000000815260040161207f90614437565b60405180910390fd5b612092600b612bac565b6120a5336120a0600b612bc2565b61296e565b565b6120af612441565b73ffffffffffffffffffffffffffffffffffffffff166120cd6117d5565b73ffffffffffffffffffffffffffffffffffffffff1614612123576040517f08c379a000000000000000000000000000000000000000000000000000000000815260040161211a90614437565b60405180910390fd5b80600d908051906020019061213992919061349e565b5050565b6000600560008473ffffffffffffffffffffffffffffffffffffffff1673ffffffffffffffffffffffffffffffffffffffff16815260200190815260200160002060008373ffffffffffffffffffffffffffffffffffffffff1673ffffffffffffffffffffffffffffffffffffffff16815260200190815260200160002060009054906101000a900460ff16905092915050565b6121d9612441565b73ffffffffffffffffffffffffffffffffffffffff166121f76117d5565b73ffffffffffffffffffffffffffffffffffffffff161461224d576040517f08c379a000000000000000000000000000000000000000000000000000000000815260040161224490614437565b60405180910390fd5b80600e908051906020019061226392919061349e565b5050565b61226f612441565b73ffffffffffffffffffffffffffffffffffffffff1661228d6117d5565b73ffffffffffffffffffffffffffffffffffffffff16146122e3576040517f08c379a00000000000000000000000000000000000000000000000000000000081526004016122da90614437565b60405180910390fd5b600073ffffffffffffffffffffffffffffffffffffffff168173ffffffffffffffffffffffffffffffffffffffff161415612353576040517f08c379a000000000000000000000000000000000000000000000000000000000815260040161234a906142d7565b60405180910390fd5b61235c816128a8565b50565b60007f80ac58cd000000000000000000000000000000000000000000000000000000007bffffffffffffffffffffffffffffffffffffffffffffffffffffffff1916827bffffffffffffffffffffffffffffffffffffffffffffffffffffffff1916148061242a57507f5b5e139f000000000000000000000000000000000000000000000000000000007bffffffffffffffffffffffffffffffffffffffffffffffffffffffff1916827bffffffffffffffffffffffffffffffffffffffffffffffffffffffff1916145b8061243a575061243982612bd0565b5b9050919050565b600033905090565b60008073ffffffffffffffffffffffffffffffffffffffff166002600084815260200190815260200160002060009054906101000a900473ffffffffffffffffffffffffffffffffffffffff1673ffffffffffffffffffffffffffffffffffffffff1614159050919050565b816004600083815260200190815260200160002060006101000a81548173ffffffffffffffffffffffffffffffffffffffff021916908373ffffffffffffffffffffffffffffffffffffffff160217905550808273ffffffffffffffffffffffffffffffffffffffff1661252883611441565b73ffffffffffffffffffffffffffffffffffffffff167f8c5be1e5ebec7d5bd14f71427d1e84f3dd0314c0f7b2291e5b200ac8c7c3b92560405160405180910390a45050565b600061257982612449565b6125b8576040517f08c379a00000000000000000000000000000000000000000000000000000000081526004016125af90614357565b60405180910390fd5b60006125c383611441565b90508073ffffffffffffffffffffffffffffffffffffffff168473ffffffffffffffffffffffffffffffffffffffff16148061263257508373ffffffffffffffffffffffffffffffffffffffff1661261a84610c51565b73ffffffffffffffffffffffffffffffffffffffff16145b806126435750612642818561213d565b5b91505092915050565b8273ffffffffffffffffffffffffffffffffffffffff1661266c82611441565b73ffffffffffffffffffffffffffffffffffffffff16146126c2576040517f08c379a00000000000000000000000000000000000000000000000000000000081526004016126b990614477565b60405180910390fd5b600073ffffffffffffffffffffffffffffffffffffffff168273ffffffffffffffffffffffffffffffffffffffff161415612732576040517f08c379a000000000000000000000000000000000000000000000000000000000815260040161272990614317565b60405180910390fd5b61273d838383612c3a565b6127486000826124b5565b6001600360008573ffffffffffffffffffffffffffffffffffffffff1673ffffffffffffffffffffffffffffffffffffffff168152602001908152602001600020600082825461279891906146b8565b925050819055506001600360008473ffffffffffffffffffffffffffffffffffffffff1673ffffffffffffffffffffffffffffffffffffffff16815260200190815260200160002060008282546127ef9190614631565b92505081905550816002600083815260200190815260200160002060006101000a81548173ffffffffffffffffffffffffffffffffffffffff021916908373ffffffffffffffffffffffffffffffffffffffff160217905550808273ffffffffffffffffffffffffffffffffffffffff168473ffffffffffffffffffffffffffffffffffffffff167fddf252ad1be2c89b69c2b068fc378daa952ba7f163c4a11628f55a4df523b3ef60405160405180910390a4505050565b6000600a60009054906101000a900473ffffffffffffffffffffffffffffffffffffffff16905081600a60006101000a81548173ffffffffffffffffffffffffffffffffffffffff021916908373ffffffffffffffffffffffffffffffffffffffff1602179055508173ffffffffffffffffffffffffffffffffffffffff168173ffffffffffffffffffffffffffffffffffffffff167f8be0079c531659141344cd1fd0a4f28419497f9722a3daafe3b4186f6b6457e060405160405180910390a35050565b612988828260405180602001604052806000815250612d4e565b5050565b61299784848461264c565b6129a384848484612da9565b6129e2576040517f08c379a00000000000000000000000000000000000000000000000000000000081526004016129d9906142b7565b60405180910390fd5b50505050565b606060405180602001604052806000815250905090565b60606000821415612a47576040518060400160405280600181526020017f30000000000000000000000000000000000000000000000000000000000000008152509050612ba7565b600082905060005b60008214612a79578080612a62906147e6565b915050600a82612a729190614687565b9150612a4f565b60008167ffffffffffffffff811115612abb577f4e487b7100000000000000000000000000000000000000000000000000000000600052604160045260246000fd5b6040519080825280601f01601f191660200182016040528015612aed5781602001600182028036833780820191505090505b5090505b60008514612ba057600182612b0691906146b8565b9150600a85612b15919061482f565b6030612b219190614631565b60f81b818381518110612b5d577f4e487b7100000000000000000000000000000000000000000000000000000000600052603260045260246000fd5b60200101907effffffffffffffffffffffffffffffffffffffffffffffffffffffffffffff1916908160001a905350600a85612b999190614687565b9450612af1565b8093505050505b919050565b6001816000016000828254019250508190555050565b600081600001549050919050565b60007f01ffc9a7000000000000000000000000000000000000000000000000000000007bffffffffffffffffffffffffffffffffffffffffffffffffffffffff1916827bffffffffffffffffffffffffffffffffffffffffffffffffffffffff1916149050919050565b612c45838383612f40565b600073ffffffffffffffffffffffffffffffffffffffff168373ffffffffffffffffffffffffffffffffffffffff161415612c8857612c8381612f45565b612cc7565b8173ffffffffffffffffffffffffffffffffffffffff168373ffffffffffffffffffffffffffffffffffffffff1614612cc657612cc58382612f8e565b5b5b600073ffffffffffffffffffffffffffffffffffffffff168273ffffffffffffffffffffffffffffffffffffffff161415612d0a57612d05816130fb565b612d49565b8273ffffffffffffffffffffffffffffffffffffffff168273ffffffffffffffffffffffffffffffffffffffff1614612d4857612d47828261323e565b5b5b505050565b612d5883836132bd565b612d656000848484612da9565b612da4576040517f08c379a0000000000000000000000000000000000000000000000000000000008152600401612d9b906142b7565b60405180910390fd5b505050565b6000612dca8473ffffffffffffffffffffffffffffffffffffffff1661348b565b15612f33578373ffffffffffffffffffffffffffffffffffffffff1663150b7a02612df3612441565b8786866040518563ffffffff1660e01b8152600401612e15949392919061420e565b602060405180830381600087803b158015612e2f57600080fd5b505af1925050508015612e6057506040513d601f19601f82011682018060405250810190612e5d9190613873565b60015b612ee3573d8060008114612e90576040519150601f19603f3d011682016040523d82523d6000602084013e612e95565b606091505b50600081511415612edb576040517f08c379a0000000000000000000000000000000000000000000000000000000008152600401612ed2906142b7565b60405180910390fd5b805181602001fd5b63150b7a0260e01b7bffffffffffffffffffffffffffffffffffffffffffffffffffffffff1916817bffffffffffffffffffffffffffffffffffffffffffffffffffffffff191614915050612f38565b600190505b949350505050565b505050565b6008805490506009600083815260200190815260200160002081905550600881908060018154018082558091505060019003906000526020600020016000909190919091505550565b60006001612f9b84611581565b612fa591906146b8565b905060006007600084815260200190815260200160002054905081811461308a576000600660008673ffffffffffffffffffffffffffffffffffffffff1673ffffffffffffffffffffffffffffffffffffffff168152602001908152602001600020600084815260200190815260200160002054905080600660008773ffffffffffffffffffffffffffffffffffffffff1673ffffffffffffffffffffffffffffffffffffffff168152602001908152602001600020600084815260200190815260200160002081905550816007600083815260200190815260200160002081905550505b6007600084815260200190815260200160002060009055600660008573ffffffffffffffffffffffffffffffffffffffff1673ffffffffffffffffffffffffffffffffffffffff16815260200190815260200160002060008381526020019081526020016000206000905550505050565b6000600160088054905061310f91906146b8565b9050600060096000848152602001908152602001600020549050600060088381548110613165577f4e487b7100000000000000000000000000000000000000000000000000000000600052603260045260246000fd5b9060005260206000200154905080600883815481106131ad577f4e487b7100000000000000000000000000000000000000000000000000000000600052603260045260246000fd5b906000526020600020018190555081600960008381526020019081526020016000208190555060096000858152602001908152602001600020600090556008805480613222577f4e487b7100000000000000000000000000000000000000000000000000000000600052603160045260246000fd5b6001900381819060005260206000200160009055905550505050565b600061324983611581565b905081600660008573ffffffffffffffffffffffffffffffffffffffff1673ffffffffffffffffffffffffffffffffffffffff168152602001908152602001600020600083815260200190815260200160002081905550806007600084815260200190815260200160002081905550505050565b600073ffffffffffffffffffffffffffffffffffffffff168273ffffffffffffffffffffffffffffffffffffffff16141561332d576040517f08c379a0000000000000000000000000000000000000000000000000000000008152600401613324906143d7565b60405180910390fd5b61333681612449565b15613376576040517f08c379a000000000000000000000000000000000000000000000000000000000815260040161336d906142f7565b60405180910390fd5b61338260008383612c3a565b6001600360008473ffffffffffffffffffffffffffffffffffffffff1673ffffffffffffffffffffffffffffffffffffffff16815260200190815260200160002060008282546133d29190614631565b92505081905550816002600083815260200190815260200160002060006101000a81548173ffffffffffffffffffffffffffffffffffffffff021916908373ffffffffffffffffffffffffffffffffffffffff160217905550808273ffffffffffffffffffffffffffffffffffffffff16600073ffffffffffffffffffffffffffffffffffffffff167fddf252ad1be2c89b69c2b068fc378daa952ba7f163c4a11628f55a4df523b3ef60405160405180910390a45050565b600080823b905060008111915050919050565b8280546134aa906147b4565b90600052602060002090601f0160209004810192826134cc5760008555613513565b82601f106134e557805160ff1916838001178555613513565b82800160010185558215613513579182015b828111156135125782518255916020019190600101906134f7565b5b5090506135209190613524565b5090565b5b8082111561353d576000816000905550600101613525565b5090565b600061355461354f84614583565b614552565b90508281526020810184848401111561356c57600080fd5b613577848285614772565b509392505050565b600061359261358d846145b3565b614552565b9050828152602081018484840111156135aa57600080fd5b6135b5848285614772565b509392505050565b6000813590506135cc8161492d565b92915050565b6000813590506135e181614944565b92915050565b6000813590506135f68161495b565b92915050565b60008151905061360b8161495b565b92915050565b600082601f83011261362257600080fd5b8135613632848260208601613541565b91505092915050565b600082601f83011261364c57600080fd5b813561365c84826020860161357f565b91505092915050565b60008135905061367481614972565b92915050565b60006020828403121561368c57600080fd5b600061369a848285016135bd565b91505092915050565b600080604083850312156136b657600080fd5b60006136c4858286016135bd565b92505060206136d5858286016135bd565b9150509250929050565b6000806000606084860312156136f457600080fd5b6000613702868287016135bd565b9350506020613713868287016135bd565b925050604061372486828701613665565b9150509250925092565b6000806000806080858703121561374457600080fd5b6000613752878288016135bd565b9450506020613763878288016135bd565b935050604061377487828801613665565b925050606085013567ffffffffffffffff81111561379157600080fd5b61379d87828801613611565b91505092959194509250565b600080604083850312156137bc57600080fd5b60006137ca858286016135bd565b92505060206137db858286016135d2565b9150509250929050565b600080604083850312156137f857600080fd5b6000613806858286016135bd565b925050602061381785828601613665565b9150509250929050565b60006020828403121561383357600080fd5b6000613841848285016135d2565b91505092915050565b60006020828403121561385c57600080fd5b600061386a848285016135e7565b91505092915050565b60006020828403121561388557600080fd5b6000613893848285016135fc565b91505092915050565b6000602082840312156138ae57600080fd5b600082013567ffffffffffffffff8111156138c857600080fd5b6138d48482850161363b565b91505092915050565b6000602082840312156138ef57600080fd5b60006138fd84828501613665565b91505092915050565b61390f816146fe565b82525050565b61391e816146ec565b82525050565b61392d81614710565b82525050565b600061393e826145e3565b61394881856145f9565b9350613958818560208601614781565b6139618161491c565b840191505092915050565b6000613977826145ee565b6139818185614615565b9350613991818560208601614781565b61399a8161491c565b840191505092915050565b60006139b0826145ee565b6139ba8185614626565b93506139ca818560208601614781565b80840191505092915050565b60006139e3602b83614615565b91507f455243373231456e756d657261626c653a206f776e657220696e646578206f7560008301527f74206f6620626f756e64730000000000000000000000000000000000000000006020830152604082019050919050565b6000613a49603283614615565b91507f4552433732313a207472616e7366657220746f206e6f6e20455243373231526560008301527f63656976657220696d706c656d656e74657200000000000000000000000000006020830152604082019050919050565b6000613aaf602683614615565b91507f4f776e61626c653a206e6577206f776e657220697320746865207a65726f206160008301527f64647265737300000000000000000000000000000000000000000000000000006020830152604082019050919050565b6000613b15601c83614615565b91507f4552433732313a20746f6b656e20616c7265616479206d696e746564000000006000830152602082019050919050565b6000613b55602483614615565b91507f4552433732313a207472616e7366657220746f20746865207a65726f2061646460008301527f72657373000000000000000000000000000000000000000000000000000000006020830152604082019050919050565b6000613bbb601983614615565b91507f4552433732313a20617070726f766520746f2063616c6c6572000000000000006000830152602082019050919050565b6000613bfb602c83614615565b91507f4552433732313a206f70657261746f7220717565727920666f72206e6f6e657860008301527f697374656e7420746f6b656e00000000000000000000000000000000000000006020830152604082019050919050565b6000613c61603883614615565b91507f4552433732313a20617070726f76652063616c6c6572206973206e6f74206f7760008301527f6e6572206e6f7220617070726f76656420666f7220616c6c00000000000000006020830152604082019050919050565b6000613cc7602a83614615565b91507f4552433732313a2062616c616e636520717565727920666f7220746865207a6560008301527f726f2061646472657373000000000000000000000000000000000000000000006020830152604082019050919050565b6000613d2d602983614615565b91507f4552433732313a206f776e657220717565727920666f72206e6f6e657869737460008301527f656e7420746f6b656e00000000000000000000000000000000000000000000006020830152604082019050919050565b6000613d93602083614615565b91507f4552433732313a206d696e7420746f20746865207a65726f20616464726573736000830152602082019050919050565b6000613dd3603f83614615565b91507f596f7572204d696e74636f6f6c646f776e20686173206e6f742072657365746560008301527f64207965742c2069742077696c6c206265207265736574206174202e2e2e2e006020830152604082019050919050565b6000613e39602c83614615565b91507f4552433732313a20617070726f76656420717565727920666f72206e6f6e657860008301527f697374656e7420746f6b656e00000000000000000000000000000000000000006020830152604082019050919050565b6000613e9f602083614615565b91507f4f776e61626c653a2063616c6c6572206973206e6f7420746865206f776e65726000830152602082019050919050565b6000613edf601a83614615565b91507f416c6c204e465427732068617665206265656e206d696e7465640000000000006000830152602082019050919050565b6000613f1f602983614615565b91507f4552433732313a207472616e73666572206f6620746f6b656e2074686174206960008301527f73206e6f74206f776e00000000000000000000000000000000000000000000006020830152604082019050919050565b6000613f85602f83614615565b91507f4552433732314d657461646174613a2055524920717565727920666f72206e6f60008301527f6e6578697374656e7420746f6b656e00000000000000000000000000000000006020830152604082019050919050565b6000613feb602183614615565b91507f4552433732313a20617070726f76616c20746f2063757272656e74206f776e6560008301527f72000000000000000000000000000000000000000000000000000000000000006020830152604082019050919050565b600061405160008361460a565b9150600082019050919050565b600061406b603183614615565b91507f4552433732313a207472616e736665722063616c6c6572206973206e6f74206f60008301527f776e6572206e6f7220617070726f7665640000000000000000000000000000006020830152604082019050919050565b60006140d1602c83614615565b91507f455243373231456e756d657261626c653a20676c6f62616c20696e646578206f60008301527f7574206f6620626f756e647300000000000000000000000000000000000000006020830152604082019050919050565b6000614137602183614615565b91507f4e6f7420656e6f756768204554482073656e743b20636865636b20707269636560008301527f21000000000000000000000000000000000000000000000000000000000000006020830152604082019050919050565b61419981614768565b82525050565b60006141ab82856139a5565b91506141b782846139a5565b91508190509392505050565b60006141ce82614044565b9150819050919050565b60006020820190506141ed6000830184613915565b92915050565b60006020820190506142086000830184613906565b92915050565b60006080820190506142236000830187613915565b6142306020830186613915565b61423d6040830185614190565b818103606083015261424f8184613933565b905095945050505050565b600060208201905061426f6000830184613924565b92915050565b6000602082019050818103600083015261428f818461396c565b905092915050565b600060208201905081810360008301526142b0816139d6565b9050919050565b600060208201905081810360008301526142d081613a3c565b9050919050565b600060208201905081810360008301526142f081613aa2565b9050919050565b6000602082019050818103600083015261431081613b08565b9050919050565b6000602082019050818103600083015261433081613b48565b9050919050565b6000602082019050818103600083015261435081613bae565b9050919050565b6000602082019050818103600083015261437081613bee565b9050919050565b6000602082019050818103600083015261439081613c54565b9050919050565b600060208201905081810360008301526143b081613cba565b9050919050565b600060208201905081810360008301526143d081613d20565b9050919050565b600060208201905081810360008301526143f081613d86565b9050919050565b6000602082019050818103600083015261441081613dc6565b9050919050565b6000602082019050818103600083015261443081613e2c565b9050919050565b6000602082019050818103600083015261445081613e92565b9050919050565b6000602082019050818103600083015261447081613ed2565b9050919050565b6000602082019050818103600083015261449081613f12565b9050919050565b600060208201905081810360008301526144b081613f78565b9050919050565b600060208201905081810360008301526144d081613fde565b9050919050565b600060208201905081810360008301526144f08161405e565b9050919050565b60006020820190508181036000830152614510816140c4565b9050919050565b600060208201905081810360008301526145308161412a565b9050919050565b600060208201905061454c6000830184614190565b92915050565b6000604051905081810181811067ffffffffffffffff82111715614579576145786148ed565b5b8060405250919050565b600067ffffffffffffffff82111561459e5761459d6148ed565b5b601f19601f8301169050602081019050919050565b600067ffffffffffffffff8211156145ce576145cd6148ed565b5b601f19601f8301169050602081019050919050565b600081519050919050565b600081519050919050565b600082825260208201905092915050565b600081905092915050565b600082825260208201905092915050565b600081905092915050565b600061463c82614768565b915061464783614768565b9250827fffffffffffffffffffffffffffffffffffffffffffffffffffffffffffffffff0382111561467c5761467b614860565b5b828201905092915050565b600061469282614768565b915061469d83614768565b9250826146ad576146ac61488f565b5b828204905092915050565b60006146c382614768565b91506146ce83614768565b9250828210156146e1576146e0614860565b5b828203905092915050565b60006146f782614748565b9050919050565b600061470982614748565b9050919050565b60008115159050919050565b60007fffffffff0000000000000000000000000000000000000000000000000000000082169050919050565b600073ffffffffffffffffffffffffffffffffffffffff82169050919050565b6000819050919050565b82818337600083830152505050565b60005b8381101561479f578082015181840152602081019050614784565b838111156147ae576000848401525b50505050565b600060028204905060018216806147cc57607f821691505b602082108114156147e0576147df6148be565b5b50919050565b60006147f182614768565b91507fffffffffffffffffffffffffffffffffffffffffffffffffffffffffffffffff82141561482457614823614860565b5b600182019050919050565b600061483a82614768565b915061484583614768565b9250826148555761485461488f565b5b828206905092915050565b7f4e487b7100000000000000000000000000000000000000000000000000000000600052601160045260246000fd5b7f4e487b7100000000000000000000000000000000000000000000000000000000600052601260045260246000fd5b7f4e487b7100000000000000000000000000000000000000000000000000000000600052602260045260246000fd5b7f4e487b7100000000000000000000000000000000000000000000000000000000600052604160045260246000fd5b6000601f19601f8301169050919050565b614936816146ec565b811461494157600080fd5b50565b61494d81614710565b811461495857600080fd5b50565b6149648161471c565b811461496f57600080fd5b50565b61497b81614768565b811461498657600080fd5b5056fea26469706673582212200b5adf9bf33d53929069f2f7670975bfb96c40cd2e517f32c39ce64ed72dd81964736f6c63430008000033",
  "linkReferences": {},
  "deployedLinkReferences": {}
}