{
  "_format": "hh-sol-artifact-1",
  "contractName": "Gemesis",
  "sourceName": "contracts/gemstones.sol",
  "abi": [
    {
      "inputs": [
        {
          "internalType": "string",
          "name": "_name",
          "type": "string"
        },
        {
          "internalType": "string",
          "name": "_symbol",
          "type": "string"
        }
      ],
      "stateMutability": "nonpayable",
      "type": "constructor"
    },
    {
      "anonymous": false,
      "inputs": [
        {
          "indexed": true,
          "internalType": "address",
          "name": "owner",
          "type": "address"
        },
        {
          "indexed": true,
          "internalType": "address",
          "name": "approved",
          "type": "address"
        },
        {
          "indexed": true,
          "internalType": "uint256",
          "name": "tokenId",
          "type": "uint256"
        }
      ],
      "name": "Approval",
      "type": "event"
    },
    {
      "anonymous": false,
      "inputs": [
        {
          "indexed": true,
          "internalType": "address",
          "name": "owner",
          "type": "address"
        },
        {
          "indexed": true,
          "internalType": "address",
          "name": "operator",
          "type": "address"
        },
        {
          "indexed": false,
          "internalType": "bool",
          "name": "approved",
          "type": "bool"
        }
      ],
      "name": "ApprovalForAll",
      "type": "event"
    },
    {
      "anonymous": false,
      "inputs": [
        {
          "indexed": true,
          "internalType": "address",
          "name": "previousOwner",
          "type": "address"
        },
        {
          "indexed": true,
          "internalType": "address",
          "name": "newOwner",
          "type": "address"
        }
      ],
      "name": "OwnershipTransferred",
      "type": "event"
    },
    {
      "anonymous": false,
      "inputs": [
        {
          "indexed": true,
          "internalType": "address",
          "name": "from",
          "type": "address"
        },
        {
          "indexed": true,
          "internalType": "address",
          "name": "to",
          "type": "address"
        },
        {
          "indexed": true,
          "internalType": "uint256",
          "name": "tokenId",
          "type": "uint256"
        }
      ],
      "name": "Transfer",
      "type": "event"
    },
    {
      "inputs": [
        {
          "internalType": "address",
          "name": "to",
          "type": "address"
        },
        {
          "internalType": "uint256",
          "name": "tokenId",
          "type": "uint256"
        }
      ],
      "name": "approve",
      "outputs": [],
      "stateMutability": "nonpayable",
      "type": "function"
    },
    {
      "inputs": [
        {
          "internalType": "address",
          "name": "owner",
          "type": "address"
        }
      ],
      "name": "balanceOf",
      "outputs": [
        {
          "internalType": "uint256",
          "name": "",
          "type": "uint256"
        }
      ],
      "stateMutability": "view",
      "type": "function"
    },
    {
      "inputs": [],
      "name": "cost",
      "outputs": [
        {
          "internalType": "uint256",
          "name": "",
          "type": "uint256"
        }
      ],
      "stateMutability": "view",
      "type": "function"
    },
    {
      "inputs": [
        {
          "internalType": "address",
          "name": "_to",
          "type": "address"
        },
        {
          "internalType": "string",
          "name": "tokenURI_",
          "type": "string"
        }
      ],
      "name": "eternalMint",
      "outputs": [],
      "stateMutability": "nonpayable",
      "type": "function"
    },
    {
      "inputs": [
        {
          "internalType": "uint256",
          "name": "tokenId",
          "type": "uint256"
        }
      ],
      "name": "getApproved",
      "outputs": [
        {
          "internalType": "address",
          "name": "",
          "type": "address"
        }
      ],
      "stateMutability": "view",
      "type": "function"
    },
    {
      "inputs": [
        {
          "internalType": "address",
          "name": "owner",
          "type": "address"
        },
        {
          "internalType": "address",
          "name": "operator",
          "type": "address"
        }
      ],
      "name": "isApprovedForAll",
      "outputs": [
        {
          "internalType": "bool",
          "name": "",
          "type": "bool"
        }
      ],
      "stateMutability": "view",
      "type": "function"
    },
    {
      "inputs": [
        {
          "internalType": "address",
          "name": "_to",
          "type": "address"
        },
        {
          "internalType": "string",
          "name": "tokenURI_",
          "type": "string"
        }
      ],
      "name": "mint",
      "outputs": [],
      "stateMutability": "payable",
      "type": "function"
    },
    {
      "inputs": [],
      "name": "name",
      "outputs": [
        {
          "internalType": "string",
          "name": "",
          "type": "string"
        }
      ],
      "stateMutability": "view",
      "type": "function"
    },
    {
      "inputs": [
        {
          "internalType": "uint256",
          "name": "addressLastMintTimestamp",
          "type": "uint256"
        }
      ],
      "name": "oneHourHasPassed",
      "outputs": [
        {
          "internalType": "bool",
          "name": "",
          "type": "bool"
        }
      ],
      "stateMutability": "view",
      "type": "function"
    },
    {
      "inputs": [],
      "name": "owner",
      "outputs": [
        {
          "internalType": "address",
          "name": "",
          "type": "address"
        }
      ],
      "stateMutability": "view",
      "type": "function"
    },
    {
      "inputs": [
        {
          "internalType": "uint256",
          "name": "tokenId",
          "type": "uint256"
        }
      ],
      "name": "ownerOf",
      "outputs": [
        {
          "internalType": "address",
          "name": "",
          "type": "address"
        }
      ],
      "stateMutability": "view",
      "type": "function"
    },
    {
      "inputs": [],
      "name": "renounceOwnership",
      "outputs": [],
      "stateMutability": "nonpayable",
      "type": "function"
    },
    {
      "inputs": [
        {
          "internalType": "address",
          "name": "from",
          "type": "address"
        },
        {
          "internalType": "address",
          "name": "to",
          "type": "address"
        },
        {
          "internalType": "uint256",
          "name": "tokenId",
          "type": "uint256"
        }
      ],
      "name": "safeTransferFrom",
      "outputs": [],
      "stateMutability": "nonpayable",
      "type": "function"
    },
    {
      "inputs": [
        {
          "internalType": "address",
          "name": "from",
          "type": "address"
        },
        {
          "internalType": "address",
          "name": "to",
          "type": "address"
        },
        {
          "internalType": "uint256",
          "name": "tokenId",
          "type": "uint256"
        },
        {
          "internalType": "bytes",
          "name": "_data",
          "type": "bytes"
        }
      ],
      "name": "safeTransferFrom",
      "outputs": [],
      "stateMutability": "nonpayable",
      "type": "function"
    },
    {
      "inputs": [
        {
          "internalType": "address",
          "name": "operator",
          "type": "address"
        },
        {
          "internalType": "bool",
          "name": "approved",
          "type": "bool"
        }
      ],
      "name": "setApprovalForAll",
      "outputs": [],
      "stateMutability": "nonpayable",
      "type": "function"
    },
    {
      "inputs": [
        {
          "internalType": "string",
          "name": "baseURI_",
          "type": "string"
        }
      ],
      "name": "setBaseURI",
      "outputs": [],
      "stateMutability": "nonpayable",
      "type": "function"
    },
    {
      "inputs": [
        {
          "internalType": "bytes4",
          "name": "interfaceId",
          "type": "bytes4"
        }
      ],
      "name": "supportsInterface",
      "outputs": [
        {
          "internalType": "bool",
          "name": "",
          "type": "bool"
        }
      ],
      "stateMutability": "view",
      "type": "function"
    },
    {
      "inputs": [],
      "name": "symbol",
      "outputs": [
        {
          "internalType": "string",
          "name": "",
          "type": "string"
        }
      ],
      "stateMutability": "view",
      "type": "function"
    },
    {
      "inputs": [
        {
          "internalType": "uint256",
          "name": "index",
          "type": "uint256"
        }
      ],
      "name": "tokenByIndex",
      "outputs": [
        {
          "internalType": "uint256",
          "name": "",
          "type": "uint256"
        }
      ],
      "stateMutability": "view",
      "type": "function"
    },
    {
      "inputs": [
        {
          "internalType": "address",
          "name": "owner",
          "type": "address"
        },
        {
          "internalType": "uint256",
          "name": "index",
          "type": "uint256"
        }
      ],
      "name": "tokenOfOwnerByIndex",
      "outputs": [
        {
          "internalType": "uint256",
          "name": "",
          "type": "uint256"
        }
      ],
      "stateMutability": "view",
      "type": "function"
    },
    {
      "inputs": [
        {
          "internalType": "uint256",
          "name": "tokenId",
          "type": "uint256"
        }
      ],
      "name": "tokenURI",
      "outputs": [
        {
          "internalType": "string",
          "name": "",
          "type": "string"
        }
      ],
      "stateMutability": "view",
      "type": "function"
    },
    {
      "inputs": [],
      "name": "totalSupply",
      "outputs": [
        {
          "internalType": "uint256",
          "name": "",
          "type": "uint256"
        }
      ],
      "stateMutability": "view",
      "type": "function"
    },
    {
      "inputs": [
        {
          "internalType": "address",
          "name": "from",
          "type": "address"
        },
        {
          "internalType": "address",
          "name": "to",
          "type": "address"
        },
        {
          "internalType": "uint256",
          "name": "tokenId",
          "type": "uint256"
        }
      ],
      "name": "transferFrom",
      "outputs": [],
      "stateMutability": "nonpayable",
      "type": "function"
    },
    {
      "inputs": [
        {
          "internalType": "address",
          "name": "newOwner",
          "type": "address"
        }
      ],
      "name": "transferOwnership",
      "outputs": [],
      "stateMutability": "nonpayable",
      "type": "function"
    },
    {
      "inputs": [],
      "name": "updateTimestamp",
      "outputs": [],
      "stateMutability": "nonpayable",
      "type": "function"
    }
  ],
  "bytecode": "0x60806040526003600d55655af3107a4000600e553480156200002057600080fd5b50604051620040cd380380620040cd833981810160405281019062000046919062000294565b818181600090805190602001906200006092919062000172565b5080600190805190602001906200007992919062000172565b5050506200009c62000090620000a460201b60201c565b620000ac60201b60201c565b505062000438565b600033905090565b6000600a60009054906101000a900473ffffffffffffffffffffffffffffffffffffffff16905081600a60006101000a81548173ffffffffffffffffffffffffffffffffffffffff021916908373ffffffffffffffffffffffffffffffffffffffff1602179055508173ffffffffffffffffffffffffffffffffffffffff168173ffffffffffffffffffffffffffffffffffffffff167f8be0079c531659141344cd1fd0a4f28419497f9722a3daafe3b4186f6b6457e060405160405180910390a35050565b8280546200018090620003a4565b90600052602060002090601f016020900481019282620001a45760008555620001f0565b82601f10620001bf57805160ff1916838001178555620001f0565b82800160010185558215620001f0579182015b82811115620001ef578251825591602001919060010190620001d2565b5b509050620001ff919062000203565b5090565b5b808211156200021e57600081600090555060010162000204565b5090565b60006200023962000233846200033b565b62000307565b9050828152602081018484840111156200025257600080fd5b6200025f8482856200036e565b509392505050565b600082601f8301126200027957600080fd5b81516200028b84826020860162000222565b91505092915050565b60008060408385031215620002a857600080fd5b600083015167ffffffffffffffff811115620002c357600080fd5b620002d18582860162000267565b925050602083015167ffffffffffffffff811115620002ef57600080fd5b620002fd8582860162000267565b9150509250929050565b6000604051905081810181811067ffffffffffffffff8211171562000331576200033062000409565b5b8060405250919050565b600067ffffffffffffffff82111562000359576200035862000409565b5b601f19601f8301169050602081019050919050565b60005b838110156200038e57808201518184015260208101905062000371565b838111156200039e576000848401525b50505050565b60006002820490506001821680620003bd57607f821691505b60208210811415620003d457620003d3620003da565b5b50919050565b7f4e487b7100000000000000000000000000000000000000000000000000000000600052602260045260246000fd5b7f4e487b7100000000000000000000000000000000000000000000000000000000600052604160045260246000fd5b613c8580620004486000396000f3fe6080604052600436106101665760003560e01c80636352211e116100d1578063b1655bc71161008a578063c87b56dd11610064578063c87b56dd1461053a578063d0def52114610577578063e985e9c514610593578063f2fde38b146105d057610166565b8063b1655bc7146104ab578063b88d4fde146104e8578063c025f45a1461051157610166565b80636352211e1461039b57806370a08231146103d8578063715018a6146104155780638da5cb5b1461042c57806395d89b4114610457578063a22cb4651461048257610166565b80631c5be3d7116101235780631c5be3d71461028f57806323b872dd146102a65780632f745c59146102cf57806342842e0e1461030c5780634f6ccce71461033557806355f804b31461037257610166565b806301ffc9a71461016b57806306fdde03146101a8578063081812fc146101d3578063095ea7b31461021057806313faede61461023957806318160ddd14610264575b600080fd5b34801561017757600080fd5b50610192600480360381019061018d9190612b00565b6105f9565b60405161019f919061351d565b60405180910390f35b3480156101b457600080fd5b506101bd610673565b6040516101ca9190613538565b60405180910390f35b3480156101df57600080fd5b506101fa60048036038101906101f59190612b93565b610705565b60405161020791906134b6565b60405180910390f35b34801561021c57600080fd5b5061023760048036038101906102329190612ac4565b61078a565b005b34801561024557600080fd5b5061024e6108a2565b60405161025b919061381a565b60405180910390f35b34801561027057600080fd5b506102796108a8565b604051610286919061381a565b60405180910390f35b34801561029b57600080fd5b506102a46108b5565b005b3480156102b257600080fd5b506102cd60048036038101906102c8919061296a565b6108be565b005b3480156102db57600080fd5b506102f660048036038101906102f19190612ac4565b61091e565b604051610303919061381a565b60405180910390f35b34801561031857600080fd5b50610333600480360381019061032e919061296a565b6109c3565b005b34801561034157600080fd5b5061035c60048036038101906103579190612b93565b6109e3565b604051610369919061381a565b60405180910390f35b34801561037e57600080fd5b5061039960048036038101906103949190612b52565b610a7a565b005b3480156103a757600080fd5b506103c260048036038101906103bd9190612b93565b610b10565b6040516103cf91906134b6565b60405180910390f35b3480156103e457600080fd5b506103ff60048036038101906103fa9190612905565b610bc2565b60405161040c919061381a565b60405180910390f35b34801561042157600080fd5b5061042a610c7a565b005b34801561043857600080fd5b50610441610d02565b60405161044e91906134b6565b60405180910390f35b34801561046357600080fd5b5061046c610d2c565b6040516104799190613538565b60405180910390f35b34801561048e57600080fd5b506104a960048036038101906104a49190612a34565b610dbe565b005b3480156104b757600080fd5b506104d260048036038101906104cd9190612b93565b610f3f565b6040516104df919061351d565b60405180910390f35b3480156104f457600080fd5b5061050f600480360381019061050a91906129b9565b610f58565b005b34801561051d57600080fd5b5061053860048036038101906105339190612a70565b610fba565b005b34801561054657600080fd5b50610561600480360381019061055c9190612b93565b61106a565b60405161056e9190613538565b60405180910390f35b610591600480360381019061058c9190612a70565b6111dd565b005b34801561059f57600080fd5b506105ba60048036038101906105b5919061292e565b61136f565b6040516105c7919061351d565b60405180910390f35b3480156105dc57600080fd5b506105f760048036038101906105f29190612905565b611403565b005b60007f780e9d63000000000000000000000000000000000000000000000000000000007bffffffffffffffffffffffffffffffffffffffffffffffffffffffff1916827bffffffffffffffffffffffffffffffffffffffffffffffffffffffff1916148061066c575061066b826114fb565b5b9050919050565b60606000805461068290613a7a565b80601f01602080910402602001604051908101604052809291908181526020018280546106ae90613a7a565b80156106fb5780601f106106d0576101008083540402835291602001916106fb565b820191906000526020600020905b8154815290600101906020018083116106de57829003601f168201915b5050505050905090565b6000610710826115dd565b61074f576040517f08c379a0000000000000000000000000000000000000000000000000000000008152600401610746906136da565b60405180910390fd5b6004600083815260200190815260200160002060009054906101000a900473ffffffffffffffffffffffffffffffffffffffff169050919050565b600061079582610b10565b90508073ffffffffffffffffffffffffffffffffffffffff168373ffffffffffffffffffffffffffffffffffffffff161415610806576040517f08c379a00000000000000000000000000000000000000000000000000000000081526004016107fd9061379a565b60405180910390fd5b8073ffffffffffffffffffffffffffffffffffffffff16610825611649565b73ffffffffffffffffffffffffffffffffffffffff16148061085457506108538161084e611649565b61136f565b5b610893576040517f08c379a000000000000000000000000000000000000000000000000000000000815260040161088a9061363a565b60405180910390fd5b61089d8383611651565b505050565b600e5481565b6000600880549050905090565b42600c81905550565b6108cf6108c9611649565b8261170a565b61090e576040517f08c379a0000000000000000000000000000000000000000000000000000000008152600401610905906137ba565b60405180910390fd5b6109198383836117e8565b505050565b600061092983610bc2565b821061096a576040517f08c379a00000000000000000000000000000000000000000000000000000000081526004016109619061355a565b60405180910390fd5b600660008473ffffffffffffffffffffffffffffffffffffffff1673ffffffffffffffffffffffffffffffffffffffff168152602001908152602001600020600083815260200190815260200160002054905092915050565b6109de83838360405180602001604052806000815250610f58565b505050565b60006109ed6108a8565b8210610a2e576040517f08c379a0000000000000000000000000000000000000000000000000000000008152600401610a25906137da565b60405180910390fd5b60088281548110610a68577f4e487b7100000000000000000000000000000000000000000000000000000000600052603260045260246000fd5b90600052602060002001549050919050565b610a82611649565b73ffffffffffffffffffffffffffffffffffffffff16610aa0610d02565b73ffffffffffffffffffffffffffffffffffffffff1614610af6576040517f08c379a0000000000000000000000000000000000000000000000000000000008152600401610aed9061371a565b60405180910390fd5b8060119080519060200190610b0c929190612729565b5050565b6000806002600084815260200190815260200160002060009054906101000a900473ffffffffffffffffffffffffffffffffffffffff169050600073ffffffffffffffffffffffffffffffffffffffff168173ffffffffffffffffffffffffffffffffffffffff161415610bb9576040517f08c379a0000000000000000000000000000000000000000000000000000000008152600401610bb09061367a565b60405180910390fd5b80915050919050565b60008073ffffffffffffffffffffffffffffffffffffffff168273ffffffffffffffffffffffffffffffffffffffff161415610c33576040517f08c379a0000000000000000000000000000000000000000000000000000000008152600401610c2a9061365a565b60405180910390fd5b600360008373ffffffffffffffffffffffffffffffffffffffff1673ffffffffffffffffffffffffffffffffffffffff168152602001908152602001600020549050919050565b610c82611649565b73ffffffffffffffffffffffffffffffffffffffff16610ca0610d02565b73ffffffffffffffffffffffffffffffffffffffff1614610cf6576040517f08c379a0000000000000000000000000000000000000000000000000000000008152600401610ced9061371a565b60405180910390fd5b610d006000611a44565b565b6000600a60009054906101000a900473ffffffffffffffffffffffffffffffffffffffff16905090565b606060018054610d3b90613a7a565b80601f0160208091040260200160405190810160405280929190818152602001828054610d6790613a7a565b8015610db45780601f10610d8957610100808354040283529160200191610db4565b820191906000526020600020905b815481529060010190602001808311610d9757829003601f168201915b5050505050905090565b610dc6611649565b73ffffffffffffffffffffffffffffffffffffffff168273ffffffffffffffffffffffffffffffffffffffff161415610e34576040517f08c379a0000000000000000000000000000000000000000000000000000000008152600401610e2b906135fa565b60405180910390fd5b8060056000610e41611649565b73ffffffffffffffffffffffffffffffffffffffff1673ffffffffffffffffffffffffffffffffffffffff16815260200190815260200160002060008473ffffffffffffffffffffffffffffffffffffffff1673ffffffffffffffffffffffffffffffffffffffff16815260200190815260200160002060006101000a81548160ff0219169083151502179055508173ffffffffffffffffffffffffffffffffffffffff16610eee611649565b73ffffffffffffffffffffffffffffffffffffffff167f17307eab39ab6107e8899845ad3d59bd9653f200f220920489ca2b5937696c3183604051610f33919061351d565b60405180910390a35050565b6000607882610f4e9190613909565b4210159050919050565b610f69610f63611649565b8361170a565b610fa8576040517f08c379a0000000000000000000000000000000000000000000000000000000008152600401610f9f906137ba565b60405180910390fd5b610fb484848484611b0a565b50505050565b610fc2611649565b73ffffffffffffffffffffffffffffffffffffffff16610fe0610d02565b73ffffffffffffffffffffffffffffffffffffffff1614611036576040517f08c379a000000000000000000000000000000000000000000000000000000000815260040161102d9061371a565b60405180910390fd5b611040600b611b66565b6110538261104e600b611b7c565b611b8a565b611066611060600b611b7c565b82611ba8565b5050565b6060611075826115dd565b6110b4576040517f08c379a00000000000000000000000000000000000000000000000000000000081526004016110ab9061377a565b60405180910390fd5b60006010600084815260200190815260200160002080546110d490613a7a565b80601f016020809104026020016040519081016040528092919081815260200182805461110090613a7a565b801561114d5780601f106111225761010080835404028352916020019161114d565b820191906000526020600020905b81548152906001019060200180831161113057829003601f168201915b50505050509050600061115e611c1c565b90506000815114156111745781925050506111d8565b6000825111156111a9578082604051602001611191929190613492565b604051602081830303815290604052925050506111d8565b806111b385611cae565b6040516020016111c4929190613492565b604051602081830303815290604052925050505b919050565b60006111e76108a8565b9050600d54811061122d576040517f08c379a00000000000000000000000000000000000000000000000000000000081526004016112249061373a565b60405180910390fd5b611275600f60008573ffffffffffffffffffffffffffffffffffffffff1673ffffffffffffffffffffffffffffffffffffffff16815260200190815260200160002054610f3f565b6112b4576040517f08c379a00000000000000000000000000000000000000000000000000000000081526004016112ab906136ba565b60405180910390fd5b600e543410156112f9576040517f08c379a00000000000000000000000000000000000000000000000000000000081526004016112f0906137fa565b60405180910390fd5b611303600b611b66565b600061130f600b611b7c565b905061131b8482611b8a565b6113258184611ba8565b42600f60008673ffffffffffffffffffffffffffffffffffffffff1673ffffffffffffffffffffffffffffffffffffffff1681526020019081526020016000208190555050505050565b6000600560008473ffffffffffffffffffffffffffffffffffffffff1673ffffffffffffffffffffffffffffffffffffffff16815260200190815260200160002060008373ffffffffffffffffffffffffffffffffffffffff1673ffffffffffffffffffffffffffffffffffffffff16815260200190815260200160002060009054906101000a900460ff16905092915050565b61140b611649565b73ffffffffffffffffffffffffffffffffffffffff16611429610d02565b73ffffffffffffffffffffffffffffffffffffffff161461147f576040517f08c379a00000000000000000000000000000000000000000000000000000000081526004016114769061371a565b60405180910390fd5b600073ffffffffffffffffffffffffffffffffffffffff168173ffffffffffffffffffffffffffffffffffffffff1614156114ef576040517f08c379a00000000000000000000000000000000000000000000000000000000081526004016114e69061359a565b60405180910390fd5b6114f881611a44565b50565b60007f80ac58cd000000000000000000000000000000000000000000000000000000007bffffffffffffffffffffffffffffffffffffffffffffffffffffffff1916827bffffffffffffffffffffffffffffffffffffffffffffffffffffffff191614806115c657507f5b5e139f000000000000000000000000000000000000000000000000000000007bffffffffffffffffffffffffffffffffffffffffffffffffffffffff1916827bffffffffffffffffffffffffffffffffffffffffffffffffffffffff1916145b806115d657506115d582611e5b565b5b9050919050565b60008073ffffffffffffffffffffffffffffffffffffffff166002600084815260200190815260200160002060009054906101000a900473ffffffffffffffffffffffffffffffffffffffff1673ffffffffffffffffffffffffffffffffffffffff1614159050919050565b600033905090565b816004600083815260200190815260200160002060006101000a81548173ffffffffffffffffffffffffffffffffffffffff021916908373ffffffffffffffffffffffffffffffffffffffff160217905550808273ffffffffffffffffffffffffffffffffffffffff166116c483610b10565b73ffffffffffffffffffffffffffffffffffffffff167f8c5be1e5ebec7d5bd14f71427d1e84f3dd0314c0f7b2291e5b200ac8c7c3b92560405160405180910390a45050565b6000611715826115dd565b611754576040517f08c379a000000000000000000000000000000000000000000000000000000000815260040161174b9061361a565b60405180910390fd5b600061175f83610b10565b90508073ffffffffffffffffffffffffffffffffffffffff168473ffffffffffffffffffffffffffffffffffffffff1614806117ce57508373ffffffffffffffffffffffffffffffffffffffff166117b684610705565b73ffffffffffffffffffffffffffffffffffffffff16145b806117df57506117de818561136f565b5b91505092915050565b8273ffffffffffffffffffffffffffffffffffffffff1661180882610b10565b73ffffffffffffffffffffffffffffffffffffffff161461185e576040517f08c379a00000000000000000000000000000000000000000000000000000000081526004016118559061375a565b60405180910390fd5b600073ffffffffffffffffffffffffffffffffffffffff168273ffffffffffffffffffffffffffffffffffffffff1614156118ce576040517f08c379a00000000000000000000000000000000000000000000000000000000081526004016118c5906135da565b60405180910390fd5b6118d9838383611ec5565b6118e4600082611651565b6001600360008573ffffffffffffffffffffffffffffffffffffffff1673ffffffffffffffffffffffffffffffffffffffff16815260200190815260200160002060008282546119349190613990565b925050819055506001600360008473ffffffffffffffffffffffffffffffffffffffff1673ffffffffffffffffffffffffffffffffffffffff168152602001908152602001600020600082825461198b9190613909565b92505081905550816002600083815260200190815260200160002060006101000a81548173ffffffffffffffffffffffffffffffffffffffff021916908373ffffffffffffffffffffffffffffffffffffffff160217905550808273ffffffffffffffffffffffffffffffffffffffff168473ffffffffffffffffffffffffffffffffffffffff167fddf252ad1be2c89b69c2b068fc378daa952ba7f163c4a11628f55a4df523b3ef60405160405180910390a4505050565b6000600a60009054906101000a900473ffffffffffffffffffffffffffffffffffffffff16905081600a60006101000a81548173ffffffffffffffffffffffffffffffffffffffff021916908373ffffffffffffffffffffffffffffffffffffffff1602179055508173ffffffffffffffffffffffffffffffffffffffff168173ffffffffffffffffffffffffffffffffffffffff167f8be0079c531659141344cd1fd0a4f28419497f9722a3daafe3b4186f6b6457e060405160405180910390a35050565b611b158484846117e8565b611b2184848484611fd9565b611b60576040517f08c379a0000000000000000000000000000000000000000000000000000000008152600401611b579061357a565b60405180910390fd5b50505050565b6001816000016000828254019250508190555050565b600081600001549050919050565b611ba4828260405180602001604052806000815250612170565b5050565b611bb1826115dd565b611bf0576040517f08c379a0000000000000000000000000000000000000000000000000000000008152600401611be7906136fa565b60405180910390fd5b80601060008481526020019081526020016000209080519060200190611c17929190612729565b505050565b606060118054611c2b90613a7a565b80601f0160208091040260200160405190810160405280929190818152602001828054611c5790613a7a565b8015611ca45780601f10611c7957610100808354040283529160200191611ca4565b820191906000526020600020905b815481529060010190602001808311611c8757829003601f168201915b5050505050905090565b60606000821415611cf6576040518060400160405280600181526020017f30000000000000000000000000000000000000000000000000000000000000008152509050611e56565b600082905060005b60008214611d28578080611d1190613aac565b915050600a82611d21919061395f565b9150611cfe565b60008167ffffffffffffffff811115611d6a577f4e487b7100000000000000000000000000000000000000000000000000000000600052604160045260246000fd5b6040519080825280601f01601f191660200182016040528015611d9c5781602001600182028036833780820191505090505b5090505b60008514611e4f57600182611db59190613990565b9150600a85611dc49190613af5565b6030611dd09190613909565b60f81b818381518110611e0c577f4e487b7100000000000000000000000000000000000000000000000000000000600052603260045260246000fd5b60200101907effffffffffffffffffffffffffffffffffffffffffffffffffffffffffffff1916908160001a905350600a85611e48919061395f565b9450611da0565b8093505050505b919050565b60007f01ffc9a7000000000000000000000000000000000000000000000000000000007bffffffffffffffffffffffffffffffffffffffffffffffffffffffff1916827bffffffffffffffffffffffffffffffffffffffffffffffffffffffff1916149050919050565b611ed08383836121cb565b600073ffffffffffffffffffffffffffffffffffffffff168373ffffffffffffffffffffffffffffffffffffffff161415611f1357611f0e816121d0565b611f52565b8173ffffffffffffffffffffffffffffffffffffffff168373ffffffffffffffffffffffffffffffffffffffff1614611f5157611f508382612219565b5b5b600073ffffffffffffffffffffffffffffffffffffffff168273ffffffffffffffffffffffffffffffffffffffff161415611f9557611f9081612386565b611fd4565b8273ffffffffffffffffffffffffffffffffffffffff168273ffffffffffffffffffffffffffffffffffffffff1614611fd357611fd282826124c9565b5b5b505050565b6000611ffa8473ffffffffffffffffffffffffffffffffffffffff16612548565b15612163578373ffffffffffffffffffffffffffffffffffffffff1663150b7a02612023611649565b8786866040518563ffffffff1660e01b815260040161204594939291906134d1565b602060405180830381600087803b15801561205f57600080fd5b505af192505050801561209057506040513d601f19601f8201168201806040525081019061208d9190612b29565b60015b612113573d80600081146120c0576040519150601f19603f3d011682016040523d82523d6000602084013e6120c5565b606091505b5060008151141561210b576040517f08c379a00000000000000000000000000000000000000000000000000000000081526004016121029061357a565b60405180910390fd5b805181602001fd5b63150b7a0260e01b7bffffffffffffffffffffffffffffffffffffffffffffffffffffffff1916817bffffffffffffffffffffffffffffffffffffffffffffffffffffffff191614915050612168565b600190505b949350505050565b61217a838361255b565b6121876000848484611fd9565b6121c6576040517f08c379a00000000000000000000000000000000000000000000000000000000081526004016121bd9061357a565b60405180910390fd5b505050565b505050565b6008805490506009600083815260200190815260200160002081905550600881908060018154018082558091505060019003906000526020600020016000909190919091505550565b6000600161222684610bc2565b6122309190613990565b9050600060076000848152602001908152602001600020549050818114612315576000600660008673ffffffffffffffffffffffffffffffffffffffff1673ffffffffffffffffffffffffffffffffffffffff168152602001908152602001600020600084815260200190815260200160002054905080600660008773ffffffffffffffffffffffffffffffffffffffff1673ffffffffffffffffffffffffffffffffffffffff168152602001908152602001600020600084815260200190815260200160002081905550816007600083815260200190815260200160002081905550505b6007600084815260200190815260200160002060009055600660008573ffffffffffffffffffffffffffffffffffffffff1673ffffffffffffffffffffffffffffffffffffffff16815260200190815260200160002060008381526020019081526020016000206000905550505050565b6000600160088054905061239a9190613990565b90506000600960008481526020019081526020016000205490506000600883815481106123f0577f4e487b7100000000000000000000000000000000000000000000000000000000600052603260045260246000fd5b906000526020600020015490508060088381548110612438577f4e487b7100000000000000000000000000000000000000000000000000000000600052603260045260246000fd5b9060005260206000200181905550816009600083815260200190815260200160002081905550600960008581526020019081526020016000206000905560088054806124ad577f4e487b7100000000000000000000000000000000000000000000000000000000600052603160045260246000fd5b6001900381819060005260206000200160009055905550505050565b60006124d483610bc2565b905081600660008573ffffffffffffffffffffffffffffffffffffffff1673ffffffffffffffffffffffffffffffffffffffff168152602001908152602001600020600083815260200190815260200160002081905550806007600084815260200190815260200160002081905550505050565b600080823b905060008111915050919050565b600073ffffffffffffffffffffffffffffffffffffffff168273ffffffffffffffffffffffffffffffffffffffff1614156125cb576040517f08c379a00000000000000000000000000000000000000000000000000000000081526004016125c29061369a565b60405180910390fd5b6125d4816115dd565b15612614576040517f08c379a000000000000000000000000000000000000000000000000000000000815260040161260b906135ba565b60405180910390fd5b61262060008383611ec5565b6001600360008473ffffffffffffffffffffffffffffffffffffffff1673ffffffffffffffffffffffffffffffffffffffff16815260200190815260200160002060008282546126709190613909565b92505081905550816002600083815260200190815260200160002060006101000a81548173ffffffffffffffffffffffffffffffffffffffff021916908373ffffffffffffffffffffffffffffffffffffffff160217905550808273ffffffffffffffffffffffffffffffffffffffff16600073ffffffffffffffffffffffffffffffffffffffff167fddf252ad1be2c89b69c2b068fc378daa952ba7f163c4a11628f55a4df523b3ef60405160405180910390a45050565b82805461273590613a7a565b90600052602060002090601f016020900481019282612757576000855561279e565b82601f1061277057805160ff191683800117855561279e565b8280016001018555821561279e579182015b8281111561279d578251825591602001919060010190612782565b5b5090506127ab91906127af565b5090565b5b808211156127c85760008160009055506001016127b0565b5090565b60006127df6127da84613866565b613835565b9050828152602081018484840111156127f757600080fd5b612802848285613a38565b509392505050565b600061281d61281884613896565b613835565b90508281526020810184848401111561283557600080fd5b612840848285613a38565b509392505050565b60008135905061285781613bf3565b92915050565b60008135905061286c81613c0a565b92915050565b60008135905061288181613c21565b92915050565b60008151905061289681613c21565b92915050565b600082601f8301126128ad57600080fd5b81356128bd8482602086016127cc565b91505092915050565b600082601f8301126128d757600080fd5b81356128e784826020860161280a565b91505092915050565b6000813590506128ff81613c38565b92915050565b60006020828403121561291757600080fd5b600061292584828501612848565b91505092915050565b6000806040838503121561294157600080fd5b600061294f85828601612848565b925050602061296085828601612848565b9150509250929050565b60008060006060848603121561297f57600080fd5b600061298d86828701612848565b935050602061299e86828701612848565b92505060406129af868287016128f0565b9150509250925092565b600080600080608085870312156129cf57600080fd5b60006129dd87828801612848565b94505060206129ee87828801612848565b93505060406129ff878288016128f0565b925050606085013567ffffffffffffffff811115612a1c57600080fd5b612a288782880161289c565b91505092959194509250565b60008060408385031215612a4757600080fd5b6000612a5585828601612848565b9250506020612a668582860161285d565b9150509250929050565b60008060408385031215612a8357600080fd5b6000612a9185828601612848565b925050602083013567ffffffffffffffff811115612aae57600080fd5b612aba858286016128c6565b9150509250929050565b60008060408385031215612ad757600080fd5b6000612ae585828601612848565b9250506020612af6858286016128f0565b9150509250929050565b600060208284031215612b1257600080fd5b6000612b2084828501612872565b91505092915050565b600060208284031215612b3b57600080fd5b6000612b4984828501612887565b91505092915050565b600060208284031215612b6457600080fd5b600082013567ffffffffffffffff811115612b7e57600080fd5b612b8a848285016128c6565b91505092915050565b600060208284031215612ba557600080fd5b6000612bb3848285016128f0565b91505092915050565b612bc5816139c4565b82525050565b612bd4816139d6565b82525050565b6000612be5826138c6565b612bef81856138dc565b9350612bff818560208601613a47565b612c0881613be2565b840191505092915050565b6000612c1e826138d1565b612c2881856138ed565b9350612c38818560208601613a47565b612c4181613be2565b840191505092915050565b6000612c57826138d1565b612c6181856138fe565b9350612c71818560208601613a47565b80840191505092915050565b6000612c8a602b836138ed565b91507f455243373231456e756d657261626c653a206f776e657220696e646578206f7560008301527f74206f6620626f756e64730000000000000000000000000000000000000000006020830152604082019050919050565b6000612cf06032836138ed565b91507f4552433732313a207472616e7366657220746f206e6f6e20455243373231526560008301527f63656976657220696d706c656d656e74657200000000000000000000000000006020830152604082019050919050565b6000612d566026836138ed565b91507f4f776e61626c653a206e6577206f776e657220697320746865207a65726f206160008301527f64647265737300000000000000000000000000000000000000000000000000006020830152604082019050919050565b6000612dbc601c836138ed565b91507f4552433732313a20746f6b656e20616c7265616479206d696e746564000000006000830152602082019050919050565b6000612dfc6024836138ed565b91507f4552433732313a207472616e7366657220746f20746865207a65726f2061646460008301527f72657373000000000000000000000000000000000000000000000000000000006020830152604082019050919050565b6000612e626019836138ed565b91507f4552433732313a20617070726f766520746f2063616c6c6572000000000000006000830152602082019050919050565b6000612ea2602c836138ed565b91507f4552433732313a206f70657261746f7220717565727920666f72206e6f6e657860008301527f697374656e7420746f6b656e00000000000000000000000000000000000000006020830152604082019050919050565b6000612f086038836138ed565b91507f4552433732313a20617070726f76652063616c6c6572206973206e6f74206f7760008301527f6e6572206e6f7220617070726f76656420666f7220616c6c00000000000000006020830152604082019050919050565b6000612f6e602a836138ed565b91507f4552433732313a2062616c616e636520717565727920666f7220746865207a6560008301527f726f2061646472657373000000000000000000000000000000000000000000006020830152604082019050919050565b6000612fd46029836138ed565b91507f4552433732313a206f776e657220717565727920666f72206e6f6e657869737460008301527f656e7420746f6b656e00000000000000000000000000000000000000000000006020830152604082019050919050565b600061303a6020836138ed565b91507f4552433732313a206d696e7420746f20746865207a65726f20616464726573736000830152602082019050919050565b600061307a603f836138ed565b91507f596f7572204d696e74636f6f6c646f776e20686173206e6f742072657365746560008301527f64207965742c2069742077696c6c206265207265736574206174202e2e2e2e006020830152604082019050919050565b60006130e0602c836138ed565b91507f4552433732313a20617070726f76656420717565727920666f72206e6f6e657860008301527f697374656e7420746f6b656e00000000000000000000000000000000000000006020830152604082019050919050565b6000613146602c836138ed565b91507f4552433732314d657461646174613a2055524920736574206f66206e6f6e657860008301527f697374656e7420746f6b656e00000000000000000000000000000000000000006020830152604082019050919050565b60006131ac6020836138ed565b91507f4f776e61626c653a2063616c6c6572206973206e6f7420746865206f776e65726000830152602082019050919050565b60006131ec601a836138ed565b91507f416c6c204e465427732068617665206265656e206d696e7465640000000000006000830152602082019050919050565b600061322c6029836138ed565b91507f4552433732313a207472616e73666572206f6620746f6b656e2074686174206960008301527f73206e6f74206f776e00000000000000000000000000000000000000000000006020830152604082019050919050565b6000613292602f836138ed565b91507f4552433732314d657461646174613a2055524920717565727920666f72206e6f60008301527f6e6578697374656e7420746f6b656e00000000000000000000000000000000006020830152604082019050919050565b60006132f86021836138ed565b91507f4552433732313a20617070726f76616c20746f2063757272656e74206f776e6560008301527f72000000000000000000000000000000000000000000000000000000000000006020830152604082019050919050565b600061335e6031836138ed565b91507f4552433732313a207472616e736665722063616c6c6572206973206e6f74206f60008301527f776e6572206e6f7220617070726f7665640000000000000000000000000000006020830152604082019050919050565b60006133c4602c836138ed565b91507f455243373231456e756d657261626c653a20676c6f62616c20696e646578206f60008301527f7574206f6620626f756e647300000000000000000000000000000000000000006020830152604082019050919050565b600061342a6021836138ed565b91507f4e6f7420656e6f756768204554482073656e743b20636865636b20707269636560008301527f21000000000000000000000000000000000000000000000000000000000000006020830152604082019050919050565b61348c81613a2e565b82525050565b600061349e8285612c4c565b91506134aa8284612c4c565b91508190509392505050565b60006020820190506134cb6000830184612bbc565b92915050565b60006080820190506134e66000830187612bbc565b6134f36020830186612bbc565b6135006040830185613483565b81810360608301526135128184612bda565b905095945050505050565b60006020820190506135326000830184612bcb565b92915050565b600060208201905081810360008301526135528184612c13565b905092915050565b6000602082019050818103600083015261357381612c7d565b9050919050565b6000602082019050818103600083015261359381612ce3565b9050919050565b600060208201905081810360008301526135b381612d49565b9050919050565b600060208201905081810360008301526135d381612daf565b9050919050565b600060208201905081810360008301526135f381612def565b9050919050565b6000602082019050818103600083015261361381612e55565b9050919050565b6000602082019050818103600083015261363381612e95565b9050919050565b6000602082019050818103600083015261365381612efb565b9050919050565b6000602082019050818103600083015261367381612f61565b9050919050565b6000602082019050818103600083015261369381612fc7565b9050919050565b600060208201905081810360008301526136b38161302d565b9050919050565b600060208201905081810360008301526136d38161306d565b9050919050565b600060208201905081810360008301526136f3816130d3565b9050919050565b6000602082019050818103600083015261371381613139565b9050919050565b600060208201905081810360008301526137338161319f565b9050919050565b60006020820190508181036000830152613753816131df565b9050919050565b600060208201905081810360008301526137738161321f565b9050919050565b6000602082019050818103600083015261379381613285565b9050919050565b600060208201905081810360008301526137b3816132eb565b9050919050565b600060208201905081810360008301526137d381613351565b9050919050565b600060208201905081810360008301526137f3816133b7565b9050919050565b600060208201905081810360008301526138138161341d565b9050919050565b600060208201905061382f6000830184613483565b92915050565b6000604051905081810181811067ffffffffffffffff8211171561385c5761385b613bb3565b5b8060405250919050565b600067ffffffffffffffff82111561388157613880613bb3565b5b601f19601f8301169050602081019050919050565b600067ffffffffffffffff8211156138b1576138b0613bb3565b5b601f19601f8301169050602081019050919050565b600081519050919050565b600081519050919050565b600082825260208201905092915050565b600082825260208201905092915050565b600081905092915050565b600061391482613a2e565b915061391f83613a2e565b9250827fffffffffffffffffffffffffffffffffffffffffffffffffffffffffffffffff0382111561395457613953613b26565b5b828201905092915050565b600061396a82613a2e565b915061397583613a2e565b92508261398557613984613b55565b5b828204905092915050565b600061399b82613a2e565b91506139a683613a2e565b9250828210156139b9576139b8613b26565b5b828203905092915050565b60006139cf82613a0e565b9050919050565b60008115159050919050565b60007fffffffff0000000000000000000000000000000000000000000000000000000082169050919050565b600073ffffffffffffffffffffffffffffffffffffffff82169050919050565b6000819050919050565b82818337600083830152505050565b60005b83811015613a65578082015181840152602081019050613a4a565b83811115613a74576000848401525b50505050565b60006002820490506001821680613a9257607f821691505b60208210811415613aa657613aa5613b84565b5b50919050565b6000613ab782613a2e565b91507fffffffffffffffffffffffffffffffffffffffffffffffffffffffffffffffff821415613aea57613ae9613b26565b5b600182019050919050565b6000613b0082613a2e565b9150613b0b83613a2e565b925082613b1b57613b1a613b55565b5b828206905092915050565b7f4e487b7100000000000000000000000000000000000000000000000000000000600052601160045260246000fd5b7f4e487b7100000000000000000000000000000000000000000000000000000000600052601260045260246000fd5b7f4e487b7100000000000000000000000000000000000000000000000000000000600052602260045260246000fd5b7f4e487b7100000000000000000000000000000000000000000000000000000000600052604160045260246000fd5b6000601f19601f8301169050919050565b613bfc816139c4565b8114613c0757600080fd5b50565b613c13816139d6565b8114613c1e57600080fd5b50565b613c2a816139e2565b8114613c3557600080fd5b50565b613c4181613a2e565b8114613c4c57600080fd5b5056fea2646970667358221220019d5cd8577b4cedbb54e5c6f5fe58686bbda386836b065d705cf4e71fbed4d564736f6c63430008000033",
  "linkReferences": {},
  "deployedLinkReferences": {}
}