{
  "_format": "hh-sol-artifact-1",
  "contractName": "MyNFT",
  "sourceName": "contracts/gemstones.sol",
  "abi": [
    {
      "inputs": [
        {
          "internalType": "string",
          "name": "_name",
          "type": "string"
        },
        {
          "internalType": "string",
          "name": "_symbol",
          "type": "string"
        }
      ],
      "stateMutability": "nonpayable",
      "type": "constructor"
    },
    {
      "anonymous": false,
      "inputs": [
        {
          "indexed": true,
          "internalType": "address",
          "name": "owner",
          "type": "address"
        },
        {
          "indexed": true,
          "internalType": "address",
          "name": "approved",
          "type": "address"
        },
        {
          "indexed": true,
          "internalType": "uint256",
          "name": "tokenId",
          "type": "uint256"
        }
      ],
      "name": "Approval",
      "type": "event"
    },
    {
      "anonymous": false,
      "inputs": [
        {
          "indexed": true,
          "internalType": "address",
          "name": "owner",
          "type": "address"
        },
        {
          "indexed": true,
          "internalType": "address",
          "name": "operator",
          "type": "address"
        },
        {
          "indexed": false,
          "internalType": "bool",
          "name": "approved",
          "type": "bool"
        }
      ],
      "name": "ApprovalForAll",
      "type": "event"
    },
    {
      "anonymous": false,
      "inputs": [
        {
          "indexed": true,
          "internalType": "address",
          "name": "previousOwner",
          "type": "address"
        },
        {
          "indexed": true,
          "internalType": "address",
          "name": "newOwner",
          "type": "address"
        }
      ],
      "name": "OwnershipTransferred",
      "type": "event"
    },
    {
      "anonymous": false,
      "inputs": [
        {
          "indexed": true,
          "internalType": "address",
          "name": "from",
          "type": "address"
        },
        {
          "indexed": true,
          "internalType": "address",
          "name": "to",
          "type": "address"
        },
        {
          "indexed": true,
          "internalType": "uint256",
          "name": "tokenId",
          "type": "uint256"
        }
      ],
      "name": "Transfer",
      "type": "event"
    },
    {
      "inputs": [
        {
          "internalType": "address",
          "name": "to",
          "type": "address"
        },
        {
          "internalType": "uint256",
          "name": "tokenId",
          "type": "uint256"
        }
      ],
      "name": "approve",
      "outputs": [],
      "stateMutability": "nonpayable",
      "type": "function"
    },
    {
      "inputs": [
        {
          "internalType": "address",
          "name": "owner",
          "type": "address"
        }
      ],
      "name": "balanceOf",
      "outputs": [
        {
          "internalType": "uint256",
          "name": "",
          "type": "uint256"
        }
      ],
      "stateMutability": "view",
      "type": "function"
    },
    {
      "inputs": [
        {
          "internalType": "uint256",
          "name": "tokenId",
          "type": "uint256"
        }
      ],
      "name": "getApproved",
      "outputs": [
        {
          "internalType": "address",
          "name": "",
          "type": "address"
        }
      ],
      "stateMutability": "view",
      "type": "function"
    },
    {
      "inputs": [
        {
          "internalType": "address",
          "name": "owner",
          "type": "address"
        },
        {
          "internalType": "address",
          "name": "operator",
          "type": "address"
        }
      ],
      "name": "isApprovedForAll",
      "outputs": [
        {
          "internalType": "bool",
          "name": "",
          "type": "bool"
        }
      ],
      "stateMutability": "view",
      "type": "function"
    },
    {
      "inputs": [
        {
          "internalType": "address",
          "name": "_to",
          "type": "address"
        },
        {
          "internalType": "uint256",
          "name": "_tokenId",
          "type": "uint256"
        },
        {
          "internalType": "string",
          "name": "tokenURI_",
          "type": "string"
        }
      ],
      "name": "mint",
      "outputs": [],
      "stateMutability": "nonpayable",
      "type": "function"
    },
    {
      "inputs": [
        {
          "internalType": "address",
          "name": "recipient",
          "type": "address"
        },
        {
          "internalType": "string",
          "name": "tokenURI",
          "type": "string"
        }
      ],
      "name": "mintNFT",
      "outputs": [
        {
          "internalType": "uint256",
          "name": "",
          "type": "uint256"
        }
      ],
      "stateMutability": "nonpayable",
      "type": "function"
    },
    {
      "inputs": [],
      "name": "name",
      "outputs": [
        {
          "internalType": "string",
          "name": "",
          "type": "string"
        }
      ],
      "stateMutability": "view",
      "type": "function"
    },
    {
      "inputs": [],
      "name": "owner",
      "outputs": [
        {
          "internalType": "address",
          "name": "",
          "type": "address"
        }
      ],
      "stateMutability": "view",
      "type": "function"
    },
    {
      "inputs": [
        {
          "internalType": "uint256",
          "name": "tokenId",
          "type": "uint256"
        }
      ],
      "name": "ownerOf",
      "outputs": [
        {
          "internalType": "address",
          "name": "",
          "type": "address"
        }
      ],
      "stateMutability": "view",
      "type": "function"
    },
    {
      "inputs": [],
      "name": "renounceOwnership",
      "outputs": [],
      "stateMutability": "nonpayable",
      "type": "function"
    },
    {
      "inputs": [
        {
          "internalType": "address",
          "name": "from",
          "type": "address"
        },
        {
          "internalType": "address",
          "name": "to",
          "type": "address"
        },
        {
          "internalType": "uint256",
          "name": "tokenId",
          "type": "uint256"
        }
      ],
      "name": "safeTransferFrom",
      "outputs": [],
      "stateMutability": "nonpayable",
      "type": "function"
    },
    {
      "inputs": [
        {
          "internalType": "address",
          "name": "from",
          "type": "address"
        },
        {
          "internalType": "address",
          "name": "to",
          "type": "address"
        },
        {
          "internalType": "uint256",
          "name": "tokenId",
          "type": "uint256"
        },
        {
          "internalType": "bytes",
          "name": "_data",
          "type": "bytes"
        }
      ],
      "name": "safeTransferFrom",
      "outputs": [],
      "stateMutability": "nonpayable",
      "type": "function"
    },
    {
      "inputs": [
        {
          "internalType": "address",
          "name": "operator",
          "type": "address"
        },
        {
          "internalType": "bool",
          "name": "approved",
          "type": "bool"
        }
      ],
      "name": "setApprovalForAll",
      "outputs": [],
      "stateMutability": "nonpayable",
      "type": "function"
    },
    {
      "inputs": [
        {
          "internalType": "string",
          "name": "baseURI_",
          "type": "string"
        }
      ],
      "name": "setBaseURI",
      "outputs": [],
      "stateMutability": "nonpayable",
      "type": "function"
    },
    {
      "inputs": [
        {
          "internalType": "bytes4",
          "name": "interfaceId",
          "type": "bytes4"
        }
      ],
      "name": "supportsInterface",
      "outputs": [
        {
          "internalType": "bool",
          "name": "",
          "type": "bool"
        }
      ],
      "stateMutability": "view",
      "type": "function"
    },
    {
      "inputs": [],
      "name": "symbol",
      "outputs": [
        {
          "internalType": "string",
          "name": "",
          "type": "string"
        }
      ],
      "stateMutability": "view",
      "type": "function"
    },
    {
      "inputs": [
        {
          "internalType": "uint256",
          "name": "tokenId",
          "type": "uint256"
        }
      ],
      "name": "tokenURI",
      "outputs": [
        {
          "internalType": "string",
          "name": "",
          "type": "string"
        }
      ],
      "stateMutability": "view",
      "type": "function"
    },
    {
      "inputs": [
        {
          "internalType": "address",
          "name": "from",
          "type": "address"
        },
        {
          "internalType": "address",
          "name": "to",
          "type": "address"
        },
        {
          "internalType": "uint256",
          "name": "tokenId",
          "type": "uint256"
        }
      ],
      "name": "transferFrom",
      "outputs": [],
      "stateMutability": "nonpayable",
      "type": "function"
    },
    {
      "inputs": [
        {
          "internalType": "address",
          "name": "newOwner",
          "type": "address"
        }
      ],
      "name": "transferOwnership",
      "outputs": [],
      "stateMutability": "nonpayable",
      "type": "function"
    }
  ],
  "bytecode": "0x60806040523480156200001157600080fd5b506040516200348538038062003485833981810160405281019062000037919062000285565b818181600090805190602001906200005192919062000163565b5080600190805190602001906200006a92919062000163565b5050506200008d620000816200009560201b60201c565b6200009d60201b60201c565b505062000429565b600033905090565b6000600660009054906101000a900473ffffffffffffffffffffffffffffffffffffffff16905081600660006101000a81548173ffffffffffffffffffffffffffffffffffffffff021916908373ffffffffffffffffffffffffffffffffffffffff1602179055508173ffffffffffffffffffffffffffffffffffffffff168173ffffffffffffffffffffffffffffffffffffffff167f8be0079c531659141344cd1fd0a4f28419497f9722a3daafe3b4186f6b6457e060405160405180910390a35050565b828054620001719062000395565b90600052602060002090601f016020900481019282620001955760008555620001e1565b82601f10620001b057805160ff1916838001178555620001e1565b82800160010185558215620001e1579182015b82811115620001e0578251825591602001919060010190620001c3565b5b509050620001f09190620001f4565b5090565b5b808211156200020f576000816000905550600101620001f5565b5090565b60006200022a62000224846200032c565b620002f8565b9050828152602081018484840111156200024357600080fd5b620002508482856200035f565b509392505050565b600082601f8301126200026a57600080fd5b81516200027c84826020860162000213565b91505092915050565b600080604083850312156200029957600080fd5b600083015167ffffffffffffffff811115620002b457600080fd5b620002c28582860162000258565b925050602083015167ffffffffffffffff811115620002e057600080fd5b620002ee8582860162000258565b9150509250929050565b6000604051905081810181811067ffffffffffffffff82111715620003225762000321620003fa565b5b8060405250919050565b600067ffffffffffffffff8211156200034a5762000349620003fa565b5b601f19601f8301169050602081019050919050565b60005b838110156200037f57808201518184015260208101905062000362565b838111156200038f576000848401525b50505050565b60006002820490506001821680620003ae57607f821691505b60208210811415620003c557620003c4620003cb565b5b50919050565b7f4e487b7100000000000000000000000000000000000000000000000000000000600052602260045260246000fd5b7f4e487b7100000000000000000000000000000000000000000000000000000000600052604160045260246000fd5b61304c80620004396000396000f3fe608060405234801561001057600080fd5b50600436106101215760003560e01c8063715018a6116100ad578063c87b56dd11610071578063c87b56dd146102f2578063d3fc986414610322578063e985e9c51461033e578063eacabe141461036e578063f2fde38b1461039e57610121565b8063715018a6146102745780638da5cb5b1461027e57806395d89b411461029c578063a22cb465146102ba578063b88d4fde146102d657610121565b806323b872dd116100f457806323b872dd146101c057806342842e0e146101dc57806355f804b3146101f85780636352211e1461021457806370a082311461024457610121565b806301ffc9a71461012657806306fdde0314610156578063081812fc14610174578063095ea7b3146101a4575b600080fd5b610140600480360381019061013b919061213f565b6103ba565b60405161014d9190612984565b60405180910390f35b61015e61049c565b60405161016b919061299f565b60405180910390f35b61018e600480360381019061018991906121d2565b61052e565b60405161019b919061291d565b60405180910390f35b6101be60048036038101906101b9919061209c565b6105b3565b005b6101da60048036038101906101d59190611f42565b6106cb565b005b6101f660048036038101906101f19190611f42565b61072b565b005b610212600480360381019061020d9190612191565b61074b565b005b61022e600480360381019061022991906121d2565b6107e1565b60405161023b919061291d565b60405180910390f35b61025e60048036038101906102599190611edd565b610893565b60405161026b9190612be1565b60405180910390f35b61027c61094b565b005b6102866109d3565b604051610293919061291d565b60405180910390f35b6102a46109fd565b6040516102b1919061299f565b60405180910390f35b6102d460048036038101906102cf919061200c565b610a8f565b005b6102f060048036038101906102eb9190611f91565b610c10565b005b61030c600480360381019061030791906121d2565b610c72565b604051610319919061299f565b60405180910390f35b61033c600480360381019061033791906120d8565b610de5565b005b61035860048036038101906103539190611f06565b610e7a565b6040516103659190612984565b60405180910390f35b61038860048036038101906103839190612048565b610f0e565b6040516103959190612be1565b60405180910390f35b6103b860048036038101906103b39190611edd565b610fc2565b005b60007f80ac58cd000000000000000000000000000000000000000000000000000000007bffffffffffffffffffffffffffffffffffffffffffffffffffffffff1916827bffffffffffffffffffffffffffffffffffffffffffffffffffffffff1916148061048557507f5b5e139f000000000000000000000000000000000000000000000000000000007bffffffffffffffffffffffffffffffffffffffffffffffffffffffff1916827bffffffffffffffffffffffffffffffffffffffffffffffffffffffff1916145b806104955750610494826110ba565b5b9050919050565b6060600080546104ab90612e41565b80601f01602080910402602001604051908101604052809291908181526020018280546104d790612e41565b80156105245780601f106104f957610100808354040283529160200191610524565b820191906000526020600020905b81548152906001019060200180831161050757829003601f168201915b5050505050905090565b600061053982611124565b610578576040517f08c379a000000000000000000000000000000000000000000000000000000000815260040161056f90612b01565b60405180910390fd5b6004600083815260200190815260200160002060009054906101000a900473ffffffffffffffffffffffffffffffffffffffff169050919050565b60006105be826107e1565b90508073ffffffffffffffffffffffffffffffffffffffff168373ffffffffffffffffffffffffffffffffffffffff16141561062f576040517f08c379a000000000000000000000000000000000000000000000000000000000815260040161062690612ba1565b60405180910390fd5b8073ffffffffffffffffffffffffffffffffffffffff1661064e611190565b73ffffffffffffffffffffffffffffffffffffffff16148061067d575061067c81610677611190565b610e7a565b5b6106bc576040517f08c379a00000000000000000000000000000000000000000000000000000000081526004016106b390612a81565b60405180910390fd5b6106c68383611198565b505050565b6106dc6106d6611190565b82611251565b61071b576040517f08c379a000000000000000000000000000000000000000000000000000000000815260040161071290612bc1565b60405180910390fd5b61072683838361132f565b505050565b61074683838360405180602001604052806000815250610c10565b505050565b610753611190565b73ffffffffffffffffffffffffffffffffffffffff166107716109d3565b73ffffffffffffffffffffffffffffffffffffffff16146107c7576040517f08c379a00000000000000000000000000000000000000000000000000000000081526004016107be90612b41565b60405180910390fd5b80600990805190602001906107dd929190611d01565b5050565b6000806002600084815260200190815260200160002060009054906101000a900473ffffffffffffffffffffffffffffffffffffffff169050600073ffffffffffffffffffffffffffffffffffffffff168173ffffffffffffffffffffffffffffffffffffffff16141561088a576040517f08c379a000000000000000000000000000000000000000000000000000000000815260040161088190612ac1565b60405180910390fd5b80915050919050565b60008073ffffffffffffffffffffffffffffffffffffffff168273ffffffffffffffffffffffffffffffffffffffff161415610904576040517f08c379a00000000000000000000000000000000000000000000000000000000081526004016108fb90612aa1565b60405180910390fd5b600360008373ffffffffffffffffffffffffffffffffffffffff1673ffffffffffffffffffffffffffffffffffffffff168152602001908152602001600020549050919050565b610953611190565b73ffffffffffffffffffffffffffffffffffffffff166109716109d3565b73ffffffffffffffffffffffffffffffffffffffff16146109c7576040517f08c379a00000000000000000000000000000000000000000000000000000000081526004016109be90612b41565b60405180910390fd5b6109d1600061158b565b565b6000600660009054906101000a900473ffffffffffffffffffffffffffffffffffffffff16905090565b606060018054610a0c90612e41565b80601f0160208091040260200160405190810160405280929190818152602001828054610a3890612e41565b8015610a855780601f10610a5a57610100808354040283529160200191610a85565b820191906000526020600020905b815481529060010190602001808311610a6857829003601f168201915b5050505050905090565b610a97611190565b73ffffffffffffffffffffffffffffffffffffffff168273ffffffffffffffffffffffffffffffffffffffff161415610b05576040517f08c379a0000000000000000000000000000000000000000000000000000000008152600401610afc90612a41565b60405180910390fd5b8060056000610b12611190565b73ffffffffffffffffffffffffffffffffffffffff1673ffffffffffffffffffffffffffffffffffffffff16815260200190815260200160002060008473ffffffffffffffffffffffffffffffffffffffff1673ffffffffffffffffffffffffffffffffffffffff16815260200190815260200160002060006101000a81548160ff0219169083151502179055508173ffffffffffffffffffffffffffffffffffffffff16610bbf611190565b73ffffffffffffffffffffffffffffffffffffffff167f17307eab39ab6107e8899845ad3d59bd9653f200f220920489ca2b5937696c3183604051610c049190612984565b60405180910390a35050565b610c21610c1b611190565b83611251565b610c60576040517f08c379a0000000000000000000000000000000000000000000000000000000008152600401610c5790612bc1565b60405180910390fd5b610c6c84848484611651565b50505050565b6060610c7d82611124565b610cbc576040517f08c379a0000000000000000000000000000000000000000000000000000000008152600401610cb390612b81565b60405180910390fd5b6000600860008481526020019081526020016000208054610cdc90612e41565b80601f0160208091040260200160405190810160405280929190818152602001828054610d0890612e41565b8015610d555780601f10610d2a57610100808354040283529160200191610d55565b820191906000526020600020905b815481529060010190602001808311610d3857829003601f168201915b505050505090506000610d666116ad565b9050600081511415610d7c578192505050610de0565b600082511115610db1578082604051602001610d999291906128f9565b60405160208183030381529060405292505050610de0565b80610dbb8561173f565b604051602001610dcc9291906128f9565b604051602081830303815290604052925050505b919050565b610ded611190565b73ffffffffffffffffffffffffffffffffffffffff16610e0b6109d3565b73ffffffffffffffffffffffffffffffffffffffff1614610e61576040517f08c379a0000000000000000000000000000000000000000000000000000000008152600401610e5890612b41565b60405180910390fd5b610e6b83836118ec565b610e758282611aba565b505050565b6000600560008473ffffffffffffffffffffffffffffffffffffffff1673ffffffffffffffffffffffffffffffffffffffff16815260200190815260200160002060008373ffffffffffffffffffffffffffffffffffffffff1673ffffffffffffffffffffffffffffffffffffffff16815260200190815260200160002060009054906101000a900460ff16905092915050565b6000610f18611190565b73ffffffffffffffffffffffffffffffffffffffff16610f366109d3565b73ffffffffffffffffffffffffffffffffffffffff1614610f8c576040517f08c379a0000000000000000000000000000000000000000000000000000000008152600401610f8390612b41565b60405180910390fd5b610f966007611b2e565b6000610fa26007611b44565b9050610fae84826118ec565b610fb88184611aba565b8091505092915050565b610fca611190565b73ffffffffffffffffffffffffffffffffffffffff16610fe86109d3565b73ffffffffffffffffffffffffffffffffffffffff161461103e576040517f08c379a000000000000000000000000000000000000000000000000000000000815260040161103590612b41565b60405180910390fd5b600073ffffffffffffffffffffffffffffffffffffffff168173ffffffffffffffffffffffffffffffffffffffff1614156110ae576040517f08c379a00000000000000000000000000000000000000000000000000000000081526004016110a5906129e1565b60405180910390fd5b6110b78161158b565b50565b60007f01ffc9a7000000000000000000000000000000000000000000000000000000007bffffffffffffffffffffffffffffffffffffffffffffffffffffffff1916827bffffffffffffffffffffffffffffffffffffffffffffffffffffffff1916149050919050565b60008073ffffffffffffffffffffffffffffffffffffffff166002600084815260200190815260200160002060009054906101000a900473ffffffffffffffffffffffffffffffffffffffff1673ffffffffffffffffffffffffffffffffffffffff1614159050919050565b600033905090565b816004600083815260200190815260200160002060006101000a81548173ffffffffffffffffffffffffffffffffffffffff021916908373ffffffffffffffffffffffffffffffffffffffff160217905550808273ffffffffffffffffffffffffffffffffffffffff1661120b836107e1565b73ffffffffffffffffffffffffffffffffffffffff167f8c5be1e5ebec7d5bd14f71427d1e84f3dd0314c0f7b2291e5b200ac8c7c3b92560405160405180910390a45050565b600061125c82611124565b61129b576040517f08c379a000000000000000000000000000000000000000000000000000000000815260040161129290612a61565b60405180910390fd5b60006112a6836107e1565b90508073ffffffffffffffffffffffffffffffffffffffff168473ffffffffffffffffffffffffffffffffffffffff16148061131557508373ffffffffffffffffffffffffffffffffffffffff166112fd8461052e565b73ffffffffffffffffffffffffffffffffffffffff16145b8061132657506113258185610e7a565b5b91505092915050565b8273ffffffffffffffffffffffffffffffffffffffff1661134f826107e1565b73ffffffffffffffffffffffffffffffffffffffff16146113a5576040517f08c379a000000000000000000000000000000000000000000000000000000000815260040161139c90612b61565b60405180910390fd5b600073ffffffffffffffffffffffffffffffffffffffff168273ffffffffffffffffffffffffffffffffffffffff161415611415576040517f08c379a000000000000000000000000000000000000000000000000000000000815260040161140c90612a21565b60405180910390fd5b611420838383611b52565b61142b600082611198565b6001600360008573ffffffffffffffffffffffffffffffffffffffff1673ffffffffffffffffffffffffffffffffffffffff168152602001908152602001600020600082825461147b9190612d57565b925050819055506001600360008473ffffffffffffffffffffffffffffffffffffffff1673ffffffffffffffffffffffffffffffffffffffff16815260200190815260200160002060008282546114d29190612cd0565b92505081905550816002600083815260200190815260200160002060006101000a81548173ffffffffffffffffffffffffffffffffffffffff021916908373ffffffffffffffffffffffffffffffffffffffff160217905550808273ffffffffffffffffffffffffffffffffffffffff168473ffffffffffffffffffffffffffffffffffffffff167fddf252ad1be2c89b69c2b068fc378daa952ba7f163c4a11628f55a4df523b3ef60405160405180910390a4505050565b6000600660009054906101000a900473ffffffffffffffffffffffffffffffffffffffff16905081600660006101000a81548173ffffffffffffffffffffffffffffffffffffffff021916908373ffffffffffffffffffffffffffffffffffffffff1602179055508173ffffffffffffffffffffffffffffffffffffffff168173ffffffffffffffffffffffffffffffffffffffff167f8be0079c531659141344cd1fd0a4f28419497f9722a3daafe3b4186f6b6457e060405160405180910390a35050565b61165c84848461132f565b61166884848484611b57565b6116a7576040517f08c379a000000000000000000000000000000000000000000000000000000000815260040161169e906129c1565b60405180910390fd5b50505050565b6060600980546116bc90612e41565b80601f01602080910402602001604051908101604052809291908181526020018280546116e890612e41565b80156117355780601f1061170a57610100808354040283529160200191611735565b820191906000526020600020905b81548152906001019060200180831161171857829003601f168201915b5050505050905090565b60606000821415611787576040518060400160405280600181526020017f300000000000000000000000000000000000000000000000000000000000000081525090506118e7565b600082905060005b600082146117b95780806117a290612e73565b915050600a826117b29190612d26565b915061178f565b60008167ffffffffffffffff8111156117fb577f4e487b7100000000000000000000000000000000000000000000000000000000600052604160045260246000fd5b6040519080825280601f01601f19166020018201604052801561182d5781602001600182028036833780820191505090505b5090505b600085146118e0576001826118469190612d57565b9150600a856118559190612ebc565b60306118619190612cd0565b60f81b81838151811061189d577f4e487b7100000000000000000000000000000000000000000000000000000000600052603260045260246000fd5b60200101907effffffffffffffffffffffffffffffffffffffffffffffffffffffffffffff1916908160001a905350600a856118d99190612d26565b9450611831565b8093505050505b919050565b600073ffffffffffffffffffffffffffffffffffffffff168273ffffffffffffffffffffffffffffffffffffffff16141561195c576040517f08c379a000000000000000000000000000000000000000000000000000000000815260040161195390612ae1565b60405180910390fd5b61196581611124565b156119a5576040517f08c379a000000000000000000000000000000000000000000000000000000000815260040161199c90612a01565b60405180910390fd5b6119b160008383611b52565b6001600360008473ffffffffffffffffffffffffffffffffffffffff1673ffffffffffffffffffffffffffffffffffffffff1681526020019081526020016000206000828254611a019190612cd0565b92505081905550816002600083815260200190815260200160002060006101000a81548173ffffffffffffffffffffffffffffffffffffffff021916908373ffffffffffffffffffffffffffffffffffffffff160217905550808273ffffffffffffffffffffffffffffffffffffffff16600073ffffffffffffffffffffffffffffffffffffffff167fddf252ad1be2c89b69c2b068fc378daa952ba7f163c4a11628f55a4df523b3ef60405160405180910390a45050565b611ac382611124565b611b02576040517f08c379a0000000000000000000000000000000000000000000000000000000008152600401611af990612b21565b60405180910390fd5b80600860008481526020019081526020016000209080519060200190611b29929190611d01565b505050565b6001816000016000828254019250508190555050565b600081600001549050919050565b505050565b6000611b788473ffffffffffffffffffffffffffffffffffffffff16611cee565b15611ce1578373ffffffffffffffffffffffffffffffffffffffff1663150b7a02611ba1611190565b8786866040518563ffffffff1660e01b8152600401611bc39493929190612938565b602060405180830381600087803b158015611bdd57600080fd5b505af1925050508015611c0e57506040513d601f19601f82011682018060405250810190611c0b9190612168565b60015b611c91573d8060008114611c3e576040519150601f19603f3d011682016040523d82523d6000602084013e611c43565b606091505b50600081511415611c89576040517f08c379a0000000000000000000000000000000000000000000000000000000008152600401611c80906129c1565b60405180910390fd5b805181602001fd5b63150b7a0260e01b7bffffffffffffffffffffffffffffffffffffffffffffffffffffffff1916817bffffffffffffffffffffffffffffffffffffffffffffffffffffffff191614915050611ce6565b600190505b949350505050565b600080823b905060008111915050919050565b828054611d0d90612e41565b90600052602060002090601f016020900481019282611d2f5760008555611d76565b82601f10611d4857805160ff1916838001178555611d76565b82800160010185558215611d76579182015b82811115611d75578251825591602001919060010190611d5a565b5b509050611d839190611d87565b5090565b5b80821115611da0576000816000905550600101611d88565b5090565b6000611db7611db284612c2d565b612bfc565b905082815260208101848484011115611dcf57600080fd5b611dda848285612dff565b509392505050565b6000611df5611df084612c5d565b612bfc565b905082815260208101848484011115611e0d57600080fd5b611e18848285612dff565b509392505050565b600081359050611e2f81612fba565b92915050565b600081359050611e4481612fd1565b92915050565b600081359050611e5981612fe8565b92915050565b600081519050611e6e81612fe8565b92915050565b600082601f830112611e8557600080fd5b8135611e95848260208601611da4565b91505092915050565b600082601f830112611eaf57600080fd5b8135611ebf848260208601611de2565b91505092915050565b600081359050611ed781612fff565b92915050565b600060208284031215611eef57600080fd5b6000611efd84828501611e20565b91505092915050565b60008060408385031215611f1957600080fd5b6000611f2785828601611e20565b9250506020611f3885828601611e20565b9150509250929050565b600080600060608486031215611f5757600080fd5b6000611f6586828701611e20565b9350506020611f7686828701611e20565b9250506040611f8786828701611ec8565b9150509250925092565b60008060008060808587031215611fa757600080fd5b6000611fb587828801611e20565b9450506020611fc687828801611e20565b9350506040611fd787828801611ec8565b925050606085013567ffffffffffffffff811115611ff457600080fd5b61200087828801611e74565b91505092959194509250565b6000806040838503121561201f57600080fd5b600061202d85828601611e20565b925050602061203e85828601611e35565b9150509250929050565b6000806040838503121561205b57600080fd5b600061206985828601611e20565b925050602083013567ffffffffffffffff81111561208657600080fd5b61209285828601611e9e565b9150509250929050565b600080604083850312156120af57600080fd5b60006120bd85828601611e20565b92505060206120ce85828601611ec8565b9150509250929050565b6000806000606084860312156120ed57600080fd5b60006120fb86828701611e20565b935050602061210c86828701611ec8565b925050604084013567ffffffffffffffff81111561212957600080fd5b61213586828701611e9e565b9150509250925092565b60006020828403121561215157600080fd5b600061215f84828501611e4a565b91505092915050565b60006020828403121561217a57600080fd5b600061218884828501611e5f565b91505092915050565b6000602082840312156121a357600080fd5b600082013567ffffffffffffffff8111156121bd57600080fd5b6121c984828501611e9e565b91505092915050565b6000602082840312156121e457600080fd5b60006121f284828501611ec8565b91505092915050565b61220481612d8b565b82525050565b61221381612d9d565b82525050565b600061222482612c8d565b61222e8185612ca3565b935061223e818560208601612e0e565b61224781612fa9565b840191505092915050565b600061225d82612c98565b6122678185612cb4565b9350612277818560208601612e0e565b61228081612fa9565b840191505092915050565b600061229682612c98565b6122a08185612cc5565b93506122b0818560208601612e0e565b80840191505092915050565b60006122c9603283612cb4565b91507f4552433732313a207472616e7366657220746f206e6f6e20455243373231526560008301527f63656976657220696d706c656d656e74657200000000000000000000000000006020830152604082019050919050565b600061232f602683612cb4565b91507f4f776e61626c653a206e6577206f776e657220697320746865207a65726f206160008301527f64647265737300000000000000000000000000000000000000000000000000006020830152604082019050919050565b6000612395601c83612cb4565b91507f4552433732313a20746f6b656e20616c7265616479206d696e746564000000006000830152602082019050919050565b60006123d5602483612cb4565b91507f4552433732313a207472616e7366657220746f20746865207a65726f2061646460008301527f72657373000000000000000000000000000000000000000000000000000000006020830152604082019050919050565b600061243b601983612cb4565b91507f4552433732313a20617070726f766520746f2063616c6c6572000000000000006000830152602082019050919050565b600061247b602c83612cb4565b91507f4552433732313a206f70657261746f7220717565727920666f72206e6f6e657860008301527f697374656e7420746f6b656e00000000000000000000000000000000000000006020830152604082019050919050565b60006124e1603883612cb4565b91507f4552433732313a20617070726f76652063616c6c6572206973206e6f74206f7760008301527f6e6572206e6f7220617070726f76656420666f7220616c6c00000000000000006020830152604082019050919050565b6000612547602a83612cb4565b91507f4552433732313a2062616c616e636520717565727920666f7220746865207a6560008301527f726f2061646472657373000000000000000000000000000000000000000000006020830152604082019050919050565b60006125ad602983612cb4565b91507f4552433732313a206f776e657220717565727920666f72206e6f6e657869737460008301527f656e7420746f6b656e00000000000000000000000000000000000000000000006020830152604082019050919050565b6000612613602083612cb4565b91507f4552433732313a206d696e7420746f20746865207a65726f20616464726573736000830152602082019050919050565b6000612653602c83612cb4565b91507f4552433732313a20617070726f76656420717565727920666f72206e6f6e657860008301527f697374656e7420746f6b656e00000000000000000000000000000000000000006020830152604082019050919050565b60006126b9602c83612cb4565b91507f4552433732314d657461646174613a2055524920736574206f66206e6f6e657860008301527f697374656e7420746f6b656e00000000000000000000000000000000000000006020830152604082019050919050565b600061271f602083612cb4565b91507f4f776e61626c653a2063616c6c6572206973206e6f7420746865206f776e65726000830152602082019050919050565b600061275f602983612cb4565b91507f4552433732313a207472616e73666572206f6620746f6b656e2074686174206960008301527f73206e6f74206f776e00000000000000000000000000000000000000000000006020830152604082019050919050565b60006127c5602f83612cb4565b91507f4552433732314d657461646174613a2055524920717565727920666f72206e6f60008301527f6e6578697374656e7420746f6b656e00000000000000000000000000000000006020830152604082019050919050565b600061282b602183612cb4565b91507f4552433732313a20617070726f76616c20746f2063757272656e74206f776e6560008301527f72000000000000000000000000000000000000000000000000000000000000006020830152604082019050919050565b6000612891603183612cb4565b91507f4552433732313a207472616e736665722063616c6c6572206973206e6f74206f60008301527f776e6572206e6f7220617070726f7665640000000000000000000000000000006020830152604082019050919050565b6128f381612df5565b82525050565b6000612905828561228b565b9150612911828461228b565b91508190509392505050565b600060208201905061293260008301846121fb565b92915050565b600060808201905061294d60008301876121fb565b61295a60208301866121fb565b61296760408301856128ea565b81810360608301526129798184612219565b905095945050505050565b6000602082019050612999600083018461220a565b92915050565b600060208201905081810360008301526129b98184612252565b905092915050565b600060208201905081810360008301526129da816122bc565b9050919050565b600060208201905081810360008301526129fa81612322565b9050919050565b60006020820190508181036000830152612a1a81612388565b9050919050565b60006020820190508181036000830152612a3a816123c8565b9050919050565b60006020820190508181036000830152612a5a8161242e565b9050919050565b60006020820190508181036000830152612a7a8161246e565b9050919050565b60006020820190508181036000830152612a9a816124d4565b9050919050565b60006020820190508181036000830152612aba8161253a565b9050919050565b60006020820190508181036000830152612ada816125a0565b9050919050565b60006020820190508181036000830152612afa81612606565b9050919050565b60006020820190508181036000830152612b1a81612646565b9050919050565b60006020820190508181036000830152612b3a816126ac565b9050919050565b60006020820190508181036000830152612b5a81612712565b9050919050565b60006020820190508181036000830152612b7a81612752565b9050919050565b60006020820190508181036000830152612b9a816127b8565b9050919050565b60006020820190508181036000830152612bba8161281e565b9050919050565b60006020820190508181036000830152612bda81612884565b9050919050565b6000602082019050612bf660008301846128ea565b92915050565b6000604051905081810181811067ffffffffffffffff82111715612c2357612c22612f7a565b5b8060405250919050565b600067ffffffffffffffff821115612c4857612c47612f7a565b5b601f19601f8301169050602081019050919050565b600067ffffffffffffffff821115612c7857612c77612f7a565b5b601f19601f8301169050602081019050919050565b600081519050919050565b600081519050919050565b600082825260208201905092915050565b600082825260208201905092915050565b600081905092915050565b6000612cdb82612df5565b9150612ce683612df5565b9250827fffffffffffffffffffffffffffffffffffffffffffffffffffffffffffffffff03821115612d1b57612d1a612eed565b5b828201905092915050565b6000612d3182612df5565b9150612d3c83612df5565b925082612d4c57612d4b612f1c565b5b828204905092915050565b6000612d6282612df5565b9150612d6d83612df5565b925082821015612d8057612d7f612eed565b5b828203905092915050565b6000612d9682612dd5565b9050919050565b60008115159050919050565b60007fffffffff0000000000000000000000000000000000000000000000000000000082169050919050565b600073ffffffffffffffffffffffffffffffffffffffff82169050919050565b6000819050919050565b82818337600083830152505050565b60005b83811015612e2c578082015181840152602081019050612e11565b83811115612e3b576000848401525b50505050565b60006002820490506001821680612e5957607f821691505b60208210811415612e6d57612e6c612f4b565b5b50919050565b6000612e7e82612df5565b91507fffffffffffffffffffffffffffffffffffffffffffffffffffffffffffffffff821415612eb157612eb0612eed565b5b600182019050919050565b6000612ec782612df5565b9150612ed283612df5565b925082612ee257612ee1612f1c565b5b828206905092915050565b7f4e487b7100000000000000000000000000000000000000000000000000000000600052601160045260246000fd5b7f4e487b7100000000000000000000000000000000000000000000000000000000600052601260045260246000fd5b7f4e487b7100000000000000000000000000000000000000000000000000000000600052602260045260246000fd5b7f4e487b7100000000000000000000000000000000000000000000000000000000600052604160045260246000fd5b6000601f19601f8301169050919050565b612fc381612d8b565b8114612fce57600080fd5b50565b612fda81612d9d565b8114612fe557600080fd5b50565b612ff181612da9565b8114612ffc57600080fd5b50565b61300881612df5565b811461301357600080fd5b5056fea26469706673582212201742ef37d3ce6ae65dcce726ba27e7896cc16cbd454d9b3ec9338e23737eaeab64736f6c63430008000033",
  "linkReferences": {},
  "deployedLinkReferences": {}
}