{
  "_format": "hh-sol-artifact-1",
  "contractName": "MyNFT",
  "sourceName": "contracts/gemstones.sol",
  "abi": [
    {
      "inputs": [
        {
          "internalType": "string",
          "name": "_name",
          "type": "string"
        },
        {
          "internalType": "string",
          "name": "_symbol",
          "type": "string"
        }
      ],
      "stateMutability": "nonpayable",
      "type": "constructor"
    },
    {
      "anonymous": false,
      "inputs": [
        {
          "indexed": true,
          "internalType": "address",
          "name": "owner",
          "type": "address"
        },
        {
          "indexed": true,
          "internalType": "address",
          "name": "approved",
          "type": "address"
        },
        {
          "indexed": true,
          "internalType": "uint256",
          "name": "tokenId",
          "type": "uint256"
        }
      ],
      "name": "Approval",
      "type": "event"
    },
    {
      "anonymous": false,
      "inputs": [
        {
          "indexed": true,
          "internalType": "address",
          "name": "owner",
          "type": "address"
        },
        {
          "indexed": true,
          "internalType": "address",
          "name": "operator",
          "type": "address"
        },
        {
          "indexed": false,
          "internalType": "bool",
          "name": "approved",
          "type": "bool"
        }
      ],
      "name": "ApprovalForAll",
      "type": "event"
    },
    {
      "anonymous": false,
      "inputs": [
        {
          "indexed": true,
          "internalType": "address",
          "name": "previousOwner",
          "type": "address"
        },
        {
          "indexed": true,
          "internalType": "address",
          "name": "newOwner",
          "type": "address"
        }
      ],
      "name": "OwnershipTransferred",
      "type": "event"
    },
    {
      "anonymous": false,
      "inputs": [
        {
          "indexed": true,
          "internalType": "address",
          "name": "from",
          "type": "address"
        },
        {
          "indexed": true,
          "internalType": "address",
          "name": "to",
          "type": "address"
        },
        {
          "indexed": true,
          "internalType": "uint256",
          "name": "tokenId",
          "type": "uint256"
        }
      ],
      "name": "Transfer",
      "type": "event"
    },
    {
      "inputs": [
        {
          "internalType": "address",
          "name": "to",
          "type": "address"
        },
        {
          "internalType": "uint256",
          "name": "tokenId",
          "type": "uint256"
        }
      ],
      "name": "approve",
      "outputs": [],
      "stateMutability": "nonpayable",
      "type": "function"
    },
    {
      "inputs": [
        {
          "internalType": "address",
          "name": "owner",
          "type": "address"
        }
      ],
      "name": "balanceOf",
      "outputs": [
        {
          "internalType": "uint256",
          "name": "",
          "type": "uint256"
        }
      ],
      "stateMutability": "view",
      "type": "function"
    },
    {
      "inputs": [
        {
          "internalType": "uint256",
          "name": "tokenId",
          "type": "uint256"
        }
      ],
      "name": "getApproved",
      "outputs": [
        {
          "internalType": "address",
          "name": "",
          "type": "address"
        }
      ],
      "stateMutability": "view",
      "type": "function"
    },
    {
      "inputs": [
        {
          "internalType": "address",
          "name": "owner",
          "type": "address"
        },
        {
          "internalType": "address",
          "name": "operator",
          "type": "address"
        }
      ],
      "name": "isApprovedForAll",
      "outputs": [
        {
          "internalType": "bool",
          "name": "",
          "type": "bool"
        }
      ],
      "stateMutability": "view",
      "type": "function"
    },
    {
      "inputs": [
        {
          "internalType": "address",
          "name": "_to",
          "type": "address"
        },
        {
          "internalType": "uint256",
          "name": "_tokenId",
          "type": "uint256"
        },
        {
          "internalType": "string",
          "name": "tokenURI_",
          "type": "string"
        }
      ],
      "name": "mint",
      "outputs": [],
      "stateMutability": "nonpayable",
      "type": "function"
    },
    {
      "inputs": [],
      "name": "name",
      "outputs": [
        {
          "internalType": "string",
          "name": "",
          "type": "string"
        }
      ],
      "stateMutability": "view",
      "type": "function"
    },
    {
      "inputs": [],
      "name": "owner",
      "outputs": [
        {
          "internalType": "address",
          "name": "",
          "type": "address"
        }
      ],
      "stateMutability": "view",
      "type": "function"
    },
    {
      "inputs": [
        {
          "internalType": "uint256",
          "name": "tokenId",
          "type": "uint256"
        }
      ],
      "name": "ownerOf",
      "outputs": [
        {
          "internalType": "address",
          "name": "",
          "type": "address"
        }
      ],
      "stateMutability": "view",
      "type": "function"
    },
    {
      "inputs": [],
      "name": "renounceOwnership",
      "outputs": [],
      "stateMutability": "nonpayable",
      "type": "function"
    },
    {
      "inputs": [
        {
          "internalType": "address",
          "name": "from",
          "type": "address"
        },
        {
          "internalType": "address",
          "name": "to",
          "type": "address"
        },
        {
          "internalType": "uint256",
          "name": "tokenId",
          "type": "uint256"
        }
      ],
      "name": "safeTransferFrom",
      "outputs": [],
      "stateMutability": "nonpayable",
      "type": "function"
    },
    {
      "inputs": [
        {
          "internalType": "address",
          "name": "from",
          "type": "address"
        },
        {
          "internalType": "address",
          "name": "to",
          "type": "address"
        },
        {
          "internalType": "uint256",
          "name": "tokenId",
          "type": "uint256"
        },
        {
          "internalType": "bytes",
          "name": "_data",
          "type": "bytes"
        }
      ],
      "name": "safeTransferFrom",
      "outputs": [],
      "stateMutability": "nonpayable",
      "type": "function"
    },
    {
      "inputs": [
        {
          "internalType": "address",
          "name": "operator",
          "type": "address"
        },
        {
          "internalType": "bool",
          "name": "approved",
          "type": "bool"
        }
      ],
      "name": "setApprovalForAll",
      "outputs": [],
      "stateMutability": "nonpayable",
      "type": "function"
    },
    {
      "inputs": [
        {
          "internalType": "string",
          "name": "baseURI_",
          "type": "string"
        }
      ],
      "name": "setBaseURI",
      "outputs": [],
      "stateMutability": "nonpayable",
      "type": "function"
    },
    {
      "inputs": [
        {
          "internalType": "bytes4",
          "name": "interfaceId",
          "type": "bytes4"
        }
      ],
      "name": "supportsInterface",
      "outputs": [
        {
          "internalType": "bool",
          "name": "",
          "type": "bool"
        }
      ],
      "stateMutability": "view",
      "type": "function"
    },
    {
      "inputs": [],
      "name": "symbol",
      "outputs": [
        {
          "internalType": "string",
          "name": "",
          "type": "string"
        }
      ],
      "stateMutability": "view",
      "type": "function"
    },
    {
      "inputs": [
        {
          "internalType": "uint256",
          "name": "tokenId",
          "type": "uint256"
        }
      ],
      "name": "tokenURI",
      "outputs": [
        {
          "internalType": "string",
          "name": "",
          "type": "string"
        }
      ],
      "stateMutability": "view",
      "type": "function"
    },
    {
      "inputs": [
        {
          "internalType": "address",
          "name": "from",
          "type": "address"
        },
        {
          "internalType": "address",
          "name": "to",
          "type": "address"
        },
        {
          "internalType": "uint256",
          "name": "tokenId",
          "type": "uint256"
        }
      ],
      "name": "transferFrom",
      "outputs": [],
      "stateMutability": "nonpayable",
      "type": "function"
    },
    {
      "inputs": [
        {
          "internalType": "address",
          "name": "newOwner",
          "type": "address"
        }
      ],
      "name": "transferOwnership",
      "outputs": [],
      "stateMutability": "nonpayable",
      "type": "function"
    }
  ],
  "bytecode": "0x60806040523480156200001157600080fd5b506040516200306b3803806200306b833981810160405281019062000037919062000285565b818181600090805190602001906200005192919062000163565b5080600190805190602001906200006a92919062000163565b5050506200008d620000816200009560201b60201c565b6200009d60201b60201c565b505062000429565b600033905090565b6000600660009054906101000a900473ffffffffffffffffffffffffffffffffffffffff16905081600660006101000a81548173ffffffffffffffffffffffffffffffffffffffff021916908373ffffffffffffffffffffffffffffffffffffffff1602179055508173ffffffffffffffffffffffffffffffffffffffff168173ffffffffffffffffffffffffffffffffffffffff167f8be0079c531659141344cd1fd0a4f28419497f9722a3daafe3b4186f6b6457e060405160405180910390a35050565b828054620001719062000395565b90600052602060002090601f016020900481019282620001955760008555620001e1565b82601f10620001b057805160ff1916838001178555620001e1565b82800160010185558215620001e1579182015b82811115620001e0578251825591602001919060010190620001c3565b5b509050620001f09190620001f4565b5090565b5b808211156200020f576000816000905550600101620001f5565b5090565b60006200022a62000224846200032c565b620002f8565b9050828152602081018484840111156200024357600080fd5b620002508482856200035f565b509392505050565b600082601f8301126200026a57600080fd5b81516200027c84826020860162000213565b91505092915050565b600080604083850312156200029957600080fd5b600083015167ffffffffffffffff811115620002b457600080fd5b620002c28582860162000258565b925050602083015167ffffffffffffffff811115620002e057600080fd5b620002ee8582860162000258565b9150509250929050565b6000604051905081810181811067ffffffffffffffff82111715620003225762000321620003fa565b5b8060405250919050565b600067ffffffffffffffff8211156200034a5762000349620003fa565b5b601f19601f8301169050602081019050919050565b60005b838110156200037f57808201518184015260208101905062000362565b838111156200038f576000848401525b50505050565b60006002820490506001821680620003ae57607f821691505b60208210811415620003c557620003c4620003cb565b5b50919050565b7f4e487b7100000000000000000000000000000000000000000000000000000000600052602260045260246000fd5b7f4e487b7100000000000000000000000000000000000000000000000000000000600052604160045260246000fd5b612c3280620004396000396000f3fe608060405234801561001057600080fd5b50600436106101165760003560e01c8063715018a6116100a2578063b88d4fde11610071578063b88d4fde146102cb578063c87b56dd146102e7578063d3fc986414610317578063e985e9c514610333578063f2fde38b1461036357610116565b8063715018a6146102695780638da5cb5b1461027357806395d89b4114610291578063a22cb465146102af57610116565b806323b872dd116100e957806323b872dd146101b557806342842e0e146101d157806355f804b3146101ed5780636352211e1461020957806370a082311461023957610116565b806301ffc9a71461011b57806306fdde031461014b578063081812fc14610169578063095ea7b314610199575b600080fd5b61013560048036038101906101309190611dff565b61037f565b6040516101429190612644565b60405180910390f35b610153610461565b604051610160919061265f565b60405180910390f35b610183600480360381019061017e9190611e92565b6104f3565b60405161019091906125dd565b60405180910390f35b6101b360048036038101906101ae9190611d5c565b610578565b005b6101cf60048036038101906101ca9190611c56565b610690565b005b6101eb60048036038101906101e69190611c56565b6106f0565b005b61020760048036038101906102029190611e51565b610710565b005b610223600480360381019061021e9190611e92565b6107a6565b60405161023091906125dd565b60405180910390f35b610253600480360381019061024e9190611bf1565b610858565b60405161026091906128a1565b60405180910390f35b610271610910565b005b61027b610998565b60405161028891906125dd565b60405180910390f35b6102996109c2565b6040516102a6919061265f565b60405180910390f35b6102c960048036038101906102c49190611d20565b610a54565b005b6102e560048036038101906102e09190611ca5565b610bd5565b005b61030160048036038101906102fc9190611e92565b610c37565b60405161030e919061265f565b60405180910390f35b610331600480360381019061032c9190611d98565b610d7e565b005b61034d60048036038101906103489190611c1a565b610e13565b60405161035a9190612644565b60405180910390f35b61037d60048036038101906103789190611bf1565b610ea7565b005b60007f80ac58cd000000000000000000000000000000000000000000000000000000007bffffffffffffffffffffffffffffffffffffffffffffffffffffffff1916827bffffffffffffffffffffffffffffffffffffffffffffffffffffffff1916148061044a57507f5b5e139f000000000000000000000000000000000000000000000000000000007bffffffffffffffffffffffffffffffffffffffffffffffffffffffff1916827bffffffffffffffffffffffffffffffffffffffffffffffffffffffff1916145b8061045a575061045982610f9f565b5b9050919050565b60606000805461047090612ad0565b80601f016020809104026020016040519081016040528092919081815260200182805461049c90612ad0565b80156104e95780601f106104be576101008083540402835291602001916104e9565b820191906000526020600020905b8154815290600101906020018083116104cc57829003601f168201915b5050505050905090565b60006104fe82611009565b61053d576040517f08c379a0000000000000000000000000000000000000000000000000000000008152600401610534906127c1565b60405180910390fd5b6004600083815260200190815260200160002060009054906101000a900473ffffffffffffffffffffffffffffffffffffffff169050919050565b6000610583826107a6565b90508073ffffffffffffffffffffffffffffffffffffffff168373ffffffffffffffffffffffffffffffffffffffff1614156105f4576040517f08c379a00000000000000000000000000000000000000000000000000000000081526004016105eb90612861565b60405180910390fd5b8073ffffffffffffffffffffffffffffffffffffffff16610613611075565b73ffffffffffffffffffffffffffffffffffffffff16148061064257506106418161063c611075565b610e13565b5b610681576040517f08c379a000000000000000000000000000000000000000000000000000000000815260040161067890612741565b60405180910390fd5b61068b838361107d565b505050565b6106a161069b611075565b82611136565b6106e0576040517f08c379a00000000000000000000000000000000000000000000000000000000081526004016106d790612881565b60405180910390fd5b6106eb838383611214565b505050565b61070b83838360405180602001604052806000815250610bd5565b505050565b610718611075565b73ffffffffffffffffffffffffffffffffffffffff16610736610998565b73ffffffffffffffffffffffffffffffffffffffff161461078c576040517f08c379a000000000000000000000000000000000000000000000000000000000815260040161078390612801565b60405180910390fd5b80600990805190602001906107a2929190611a15565b5050565b6000806002600084815260200190815260200160002060009054906101000a900473ffffffffffffffffffffffffffffffffffffffff169050600073ffffffffffffffffffffffffffffffffffffffff168173ffffffffffffffffffffffffffffffffffffffff16141561084f576040517f08c379a000000000000000000000000000000000000000000000000000000000815260040161084690612781565b60405180910390fd5b80915050919050565b60008073ffffffffffffffffffffffffffffffffffffffff168273ffffffffffffffffffffffffffffffffffffffff1614156108c9576040517f08c379a00000000000000000000000000000000000000000000000000000000081526004016108c090612761565b60405180910390fd5b600360008373ffffffffffffffffffffffffffffffffffffffff1673ffffffffffffffffffffffffffffffffffffffff168152602001908152602001600020549050919050565b610918611075565b73ffffffffffffffffffffffffffffffffffffffff16610936610998565b73ffffffffffffffffffffffffffffffffffffffff161461098c576040517f08c379a000000000000000000000000000000000000000000000000000000000815260040161098390612801565b60405180910390fd5b6109966000611470565b565b6000600660009054906101000a900473ffffffffffffffffffffffffffffffffffffffff16905090565b6060600180546109d190612ad0565b80601f01602080910402602001604051908101604052809291908181526020018280546109fd90612ad0565b8015610a4a5780601f10610a1f57610100808354040283529160200191610a4a565b820191906000526020600020905b815481529060010190602001808311610a2d57829003601f168201915b5050505050905090565b610a5c611075565b73ffffffffffffffffffffffffffffffffffffffff168273ffffffffffffffffffffffffffffffffffffffff161415610aca576040517f08c379a0000000000000000000000000000000000000000000000000000000008152600401610ac190612701565b60405180910390fd5b8060056000610ad7611075565b73ffffffffffffffffffffffffffffffffffffffff1673ffffffffffffffffffffffffffffffffffffffff16815260200190815260200160002060008473ffffffffffffffffffffffffffffffffffffffff1673ffffffffffffffffffffffffffffffffffffffff16815260200190815260200160002060006101000a81548160ff0219169083151502179055508173ffffffffffffffffffffffffffffffffffffffff16610b84611075565b73ffffffffffffffffffffffffffffffffffffffff167f17307eab39ab6107e8899845ad3d59bd9653f200f220920489ca2b5937696c3183604051610bc99190612644565b60405180910390a35050565b610be6610be0611075565b83611136565b610c25576040517f08c379a0000000000000000000000000000000000000000000000000000000008152600401610c1c90612881565b60405180910390fd5b610c3184848484611536565b50505050565b6060610c4282611009565b610c81576040517f08c379a0000000000000000000000000000000000000000000000000000000008152600401610c7890612841565b60405180910390fd5b6000600860008481526020019081526020016000208054610ca190612ad0565b80601f0160208091040260200160405190810160405280929190818152602001828054610ccd90612ad0565b8015610d1a5780601f10610cef57610100808354040283529160200191610d1a565b820191906000526020600020905b815481529060010190602001808311610cfd57829003601f168201915b505050505090506000610d2b611592565b9050600081511415610d41578192505050610d79565b600082511115610d76578082604051602001610d5e9291906125b9565b60405160208183030381529060405292505050610d79565b50505b919050565b610d86611075565b73ffffffffffffffffffffffffffffffffffffffff16610da4610998565b73ffffffffffffffffffffffffffffffffffffffff1614610dfa576040517f08c379a0000000000000000000000000000000000000000000000000000000008152600401610df190612801565b60405180910390fd5b610e048383611624565b610e0e82826117f2565b505050565b6000600560008473ffffffffffffffffffffffffffffffffffffffff1673ffffffffffffffffffffffffffffffffffffffff16815260200190815260200160002060008373ffffffffffffffffffffffffffffffffffffffff1673ffffffffffffffffffffffffffffffffffffffff16815260200190815260200160002060009054906101000a900460ff16905092915050565b610eaf611075565b73ffffffffffffffffffffffffffffffffffffffff16610ecd610998565b73ffffffffffffffffffffffffffffffffffffffff1614610f23576040517f08c379a0000000000000000000000000000000000000000000000000000000008152600401610f1a90612801565b60405180910390fd5b600073ffffffffffffffffffffffffffffffffffffffff168173ffffffffffffffffffffffffffffffffffffffff161415610f93576040517f08c379a0000000000000000000000000000000000000000000000000000000008152600401610f8a906126a1565b60405180910390fd5b610f9c81611470565b50565b60007f01ffc9a7000000000000000000000000000000000000000000000000000000007bffffffffffffffffffffffffffffffffffffffffffffffffffffffff1916827bffffffffffffffffffffffffffffffffffffffffffffffffffffffff1916149050919050565b60008073ffffffffffffffffffffffffffffffffffffffff166002600084815260200190815260200160002060009054906101000a900473ffffffffffffffffffffffffffffffffffffffff1673ffffffffffffffffffffffffffffffffffffffff1614159050919050565b600033905090565b816004600083815260200190815260200160002060006101000a81548173ffffffffffffffffffffffffffffffffffffffff021916908373ffffffffffffffffffffffffffffffffffffffff160217905550808273ffffffffffffffffffffffffffffffffffffffff166110f0836107a6565b73ffffffffffffffffffffffffffffffffffffffff167f8c5be1e5ebec7d5bd14f71427d1e84f3dd0314c0f7b2291e5b200ac8c7c3b92560405160405180910390a45050565b600061114182611009565b611180576040517f08c379a000000000000000000000000000000000000000000000000000000000815260040161117790612721565b60405180910390fd5b600061118b836107a6565b90508073ffffffffffffffffffffffffffffffffffffffff168473ffffffffffffffffffffffffffffffffffffffff1614806111fa57508373ffffffffffffffffffffffffffffffffffffffff166111e2846104f3565b73ffffffffffffffffffffffffffffffffffffffff16145b8061120b575061120a8185610e13565b5b91505092915050565b8273ffffffffffffffffffffffffffffffffffffffff16611234826107a6565b73ffffffffffffffffffffffffffffffffffffffff161461128a576040517f08c379a000000000000000000000000000000000000000000000000000000000815260040161128190612821565b60405180910390fd5b600073ffffffffffffffffffffffffffffffffffffffff168273ffffffffffffffffffffffffffffffffffffffff1614156112fa576040517f08c379a00000000000000000000000000000000000000000000000000000000081526004016112f1906126e1565b60405180910390fd5b611305838383611866565b61131060008261107d565b6001600360008573ffffffffffffffffffffffffffffffffffffffff1673ffffffffffffffffffffffffffffffffffffffff168152602001908152602001600020600082825461136091906129e6565b925050819055506001600360008473ffffffffffffffffffffffffffffffffffffffff1673ffffffffffffffffffffffffffffffffffffffff16815260200190815260200160002060008282546113b79190612990565b92505081905550816002600083815260200190815260200160002060006101000a81548173ffffffffffffffffffffffffffffffffffffffff021916908373ffffffffffffffffffffffffffffffffffffffff160217905550808273ffffffffffffffffffffffffffffffffffffffff168473ffffffffffffffffffffffffffffffffffffffff167fddf252ad1be2c89b69c2b068fc378daa952ba7f163c4a11628f55a4df523b3ef60405160405180910390a4505050565b6000600660009054906101000a900473ffffffffffffffffffffffffffffffffffffffff16905081600660006101000a81548173ffffffffffffffffffffffffffffffffffffffff021916908373ffffffffffffffffffffffffffffffffffffffff1602179055508173ffffffffffffffffffffffffffffffffffffffff168173ffffffffffffffffffffffffffffffffffffffff167f8be0079c531659141344cd1fd0a4f28419497f9722a3daafe3b4186f6b6457e060405160405180910390a35050565b611541848484611214565b61154d8484848461186b565b61158c576040517f08c379a000000000000000000000000000000000000000000000000000000000815260040161158390612681565b60405180910390fd5b50505050565b6060600980546115a190612ad0565b80601f01602080910402602001604051908101604052809291908181526020018280546115cd90612ad0565b801561161a5780601f106115ef5761010080835404028352916020019161161a565b820191906000526020600020905b8154815290600101906020018083116115fd57829003601f168201915b5050505050905090565b600073ffffffffffffffffffffffffffffffffffffffff168273ffffffffffffffffffffffffffffffffffffffff161415611694576040517f08c379a000000000000000000000000000000000000000000000000000000000815260040161168b906127a1565b60405180910390fd5b61169d81611009565b156116dd576040517f08c379a00000000000000000000000000000000000000000000000000000000081526004016116d4906126c1565b60405180910390fd5b6116e960008383611866565b6001600360008473ffffffffffffffffffffffffffffffffffffffff1673ffffffffffffffffffffffffffffffffffffffff16815260200190815260200160002060008282546117399190612990565b92505081905550816002600083815260200190815260200160002060006101000a81548173ffffffffffffffffffffffffffffffffffffffff021916908373ffffffffffffffffffffffffffffffffffffffff160217905550808273ffffffffffffffffffffffffffffffffffffffff16600073ffffffffffffffffffffffffffffffffffffffff167fddf252ad1be2c89b69c2b068fc378daa952ba7f163c4a11628f55a4df523b3ef60405160405180910390a45050565b6117fb82611009565b61183a576040517f08c379a0000000000000000000000000000000000000000000000000000000008152600401611831906127e1565b60405180910390fd5b80600860008481526020019081526020016000209080519060200190611861929190611a15565b505050565b505050565b600061188c8473ffffffffffffffffffffffffffffffffffffffff16611a02565b156119f5578373ffffffffffffffffffffffffffffffffffffffff1663150b7a026118b5611075565b8786866040518563ffffffff1660e01b81526004016118d794939291906125f8565b602060405180830381600087803b1580156118f157600080fd5b505af192505050801561192257506040513d601f19601f8201168201806040525081019061191f9190611e28565b60015b6119a5573d8060008114611952576040519150601f19603f3d011682016040523d82523d6000602084013e611957565b606091505b5060008151141561199d576040517f08c379a000000000000000000000000000000000000000000000000000000000815260040161199490612681565b60405180910390fd5b805181602001fd5b63150b7a0260e01b7bffffffffffffffffffffffffffffffffffffffffffffffffffffffff1916817bffffffffffffffffffffffffffffffffffffffffffffffffffffffff1916149150506119fa565b600190505b949350505050565b600080823b905060008111915050919050565b828054611a2190612ad0565b90600052602060002090601f016020900481019282611a435760008555611a8a565b82601f10611a5c57805160ff1916838001178555611a8a565b82800160010185558215611a8a579182015b82811115611a89578251825591602001919060010190611a6e565b5b509050611a979190611a9b565b5090565b5b80821115611ab4576000816000905550600101611a9c565b5090565b6000611acb611ac6846128ed565b6128bc565b905082815260208101848484011115611ae357600080fd5b611aee848285612a8e565b509392505050565b6000611b09611b048461291d565b6128bc565b905082815260208101848484011115611b2157600080fd5b611b2c848285612a8e565b509392505050565b600081359050611b4381612ba0565b92915050565b600081359050611b5881612bb7565b92915050565b600081359050611b6d81612bce565b92915050565b600081519050611b8281612bce565b92915050565b600082601f830112611b9957600080fd5b8135611ba9848260208601611ab8565b91505092915050565b600082601f830112611bc357600080fd5b8135611bd3848260208601611af6565b91505092915050565b600081359050611beb81612be5565b92915050565b600060208284031215611c0357600080fd5b6000611c1184828501611b34565b91505092915050565b60008060408385031215611c2d57600080fd5b6000611c3b85828601611b34565b9250506020611c4c85828601611b34565b9150509250929050565b600080600060608486031215611c6b57600080fd5b6000611c7986828701611b34565b9350506020611c8a86828701611b34565b9250506040611c9b86828701611bdc565b9150509250925092565b60008060008060808587031215611cbb57600080fd5b6000611cc987828801611b34565b9450506020611cda87828801611b34565b9350506040611ceb87828801611bdc565b925050606085013567ffffffffffffffff811115611d0857600080fd5b611d1487828801611b88565b91505092959194509250565b60008060408385031215611d3357600080fd5b6000611d4185828601611b34565b9250506020611d5285828601611b49565b9150509250929050565b60008060408385031215611d6f57600080fd5b6000611d7d85828601611b34565b9250506020611d8e85828601611bdc565b9150509250929050565b600080600060608486031215611dad57600080fd5b6000611dbb86828701611b34565b9350506020611dcc86828701611bdc565b925050604084013567ffffffffffffffff811115611de957600080fd5b611df586828701611bb2565b9150509250925092565b600060208284031215611e1157600080fd5b6000611e1f84828501611b5e565b91505092915050565b600060208284031215611e3a57600080fd5b6000611e4884828501611b73565b91505092915050565b600060208284031215611e6357600080fd5b600082013567ffffffffffffffff811115611e7d57600080fd5b611e8984828501611bb2565b91505092915050565b600060208284031215611ea457600080fd5b6000611eb284828501611bdc565b91505092915050565b611ec481612a1a565b82525050565b611ed381612a2c565b82525050565b6000611ee48261294d565b611eee8185612963565b9350611efe818560208601612a9d565b611f0781612b8f565b840191505092915050565b6000611f1d82612958565b611f278185612974565b9350611f37818560208601612a9d565b611f4081612b8f565b840191505092915050565b6000611f5682612958565b611f608185612985565b9350611f70818560208601612a9d565b80840191505092915050565b6000611f89603283612974565b91507f4552433732313a207472616e7366657220746f206e6f6e20455243373231526560008301527f63656976657220696d706c656d656e74657200000000000000000000000000006020830152604082019050919050565b6000611fef602683612974565b91507f4f776e61626c653a206e6577206f776e657220697320746865207a65726f206160008301527f64647265737300000000000000000000000000000000000000000000000000006020830152604082019050919050565b6000612055601c83612974565b91507f4552433732313a20746f6b656e20616c7265616479206d696e746564000000006000830152602082019050919050565b6000612095602483612974565b91507f4552433732313a207472616e7366657220746f20746865207a65726f2061646460008301527f72657373000000000000000000000000000000000000000000000000000000006020830152604082019050919050565b60006120fb601983612974565b91507f4552433732313a20617070726f766520746f2063616c6c6572000000000000006000830152602082019050919050565b600061213b602c83612974565b91507f4552433732313a206f70657261746f7220717565727920666f72206e6f6e657860008301527f697374656e7420746f6b656e00000000000000000000000000000000000000006020830152604082019050919050565b60006121a1603883612974565b91507f4552433732313a20617070726f76652063616c6c6572206973206e6f74206f7760008301527f6e6572206e6f7220617070726f76656420666f7220616c6c00000000000000006020830152604082019050919050565b6000612207602a83612974565b91507f4552433732313a2062616c616e636520717565727920666f7220746865207a6560008301527f726f2061646472657373000000000000000000000000000000000000000000006020830152604082019050919050565b600061226d602983612974565b91507f4552433732313a206f776e657220717565727920666f72206e6f6e657869737460008301527f656e7420746f6b656e00000000000000000000000000000000000000000000006020830152604082019050919050565b60006122d3602083612974565b91507f4552433732313a206d696e7420746f20746865207a65726f20616464726573736000830152602082019050919050565b6000612313602c83612974565b91507f4552433732313a20617070726f76656420717565727920666f72206e6f6e657860008301527f697374656e7420746f6b656e00000000000000000000000000000000000000006020830152604082019050919050565b6000612379602c83612974565b91507f4552433732314d657461646174613a2055524920736574206f66206e6f6e657860008301527f697374656e7420746f6b656e00000000000000000000000000000000000000006020830152604082019050919050565b60006123df602083612974565b91507f4f776e61626c653a2063616c6c6572206973206e6f7420746865206f776e65726000830152602082019050919050565b600061241f602983612974565b91507f4552433732313a207472616e73666572206f6620746f6b656e2074686174206960008301527f73206e6f74206f776e00000000000000000000000000000000000000000000006020830152604082019050919050565b6000612485602f83612974565b91507f4552433732314d657461646174613a2055524920717565727920666f72206e6f60008301527f6e6578697374656e7420746f6b656e00000000000000000000000000000000006020830152604082019050919050565b60006124eb602183612974565b91507f4552433732313a20617070726f76616c20746f2063757272656e74206f776e6560008301527f72000000000000000000000000000000000000000000000000000000000000006020830152604082019050919050565b6000612551603183612974565b91507f4552433732313a207472616e736665722063616c6c6572206973206e6f74206f60008301527f776e6572206e6f7220617070726f7665640000000000000000000000000000006020830152604082019050919050565b6125b381612a84565b82525050565b60006125c58285611f4b565b91506125d18284611f4b565b91508190509392505050565b60006020820190506125f26000830184611ebb565b92915050565b600060808201905061260d6000830187611ebb565b61261a6020830186611ebb565b61262760408301856125aa565b81810360608301526126398184611ed9565b905095945050505050565b60006020820190506126596000830184611eca565b92915050565b600060208201905081810360008301526126798184611f12565b905092915050565b6000602082019050818103600083015261269a81611f7c565b9050919050565b600060208201905081810360008301526126ba81611fe2565b9050919050565b600060208201905081810360008301526126da81612048565b9050919050565b600060208201905081810360008301526126fa81612088565b9050919050565b6000602082019050818103600083015261271a816120ee565b9050919050565b6000602082019050818103600083015261273a8161212e565b9050919050565b6000602082019050818103600083015261275a81612194565b9050919050565b6000602082019050818103600083015261277a816121fa565b9050919050565b6000602082019050818103600083015261279a81612260565b9050919050565b600060208201905081810360008301526127ba816122c6565b9050919050565b600060208201905081810360008301526127da81612306565b9050919050565b600060208201905081810360008301526127fa8161236c565b9050919050565b6000602082019050818103600083015261281a816123d2565b9050919050565b6000602082019050818103600083015261283a81612412565b9050919050565b6000602082019050818103600083015261285a81612478565b9050919050565b6000602082019050818103600083015261287a816124de565b9050919050565b6000602082019050818103600083015261289a81612544565b9050919050565b60006020820190506128b660008301846125aa565b92915050565b6000604051905081810181811067ffffffffffffffff821117156128e3576128e2612b60565b5b8060405250919050565b600067ffffffffffffffff82111561290857612907612b60565b5b601f19601f8301169050602081019050919050565b600067ffffffffffffffff82111561293857612937612b60565b5b601f19601f8301169050602081019050919050565b600081519050919050565b600081519050919050565b600082825260208201905092915050565b600082825260208201905092915050565b600081905092915050565b600061299b82612a84565b91506129a683612a84565b9250827fffffffffffffffffffffffffffffffffffffffffffffffffffffffffffffffff038211156129db576129da612b02565b5b828201905092915050565b60006129f182612a84565b91506129fc83612a84565b925082821015612a0f57612a0e612b02565b5b828203905092915050565b6000612a2582612a64565b9050919050565b60008115159050919050565b60007fffffffff0000000000000000000000000000000000000000000000000000000082169050919050565b600073ffffffffffffffffffffffffffffffffffffffff82169050919050565b6000819050919050565b82818337600083830152505050565b60005b83811015612abb578082015181840152602081019050612aa0565b83811115612aca576000848401525b50505050565b60006002820490506001821680612ae857607f821691505b60208210811415612afc57612afb612b31565b5b50919050565b7f4e487b7100000000000000000000000000000000000000000000000000000000600052601160045260246000fd5b7f4e487b7100000000000000000000000000000000000000000000000000000000600052602260045260246000fd5b7f4e487b7100000000000000000000000000000000000000000000000000000000600052604160045260246000fd5b6000601f19601f8301169050919050565b612ba981612a1a565b8114612bb457600080fd5b50565b612bc081612a2c565b8114612bcb57600080fd5b50565b612bd781612a38565b8114612be257600080fd5b50565b612bee81612a84565b8114612bf957600080fd5b5056fea264697066735822122056f04b3bfd3f1929bfa6eb7384f84906daf2d85c16d7ef219be3853385c76a8a64736f6c63430008000033",
  "linkReferences": {},
  "deployedLinkReferences": {}
}