{
  "_format": "hh-sol-artifact-1",
  "contractName": "MyNFT",
  "sourceName": "contracts/gemstones.sol",
  "abi": [
    {
      "inputs": [
        {
          "internalType": "string",
          "name": "_name",
          "type": "string"
        },
        {
          "internalType": "string",
          "name": "_symbol",
          "type": "string"
        }
      ],
      "stateMutability": "nonpayable",
      "type": "constructor"
    },
    {
      "anonymous": false,
      "inputs": [
        {
          "indexed": true,
          "internalType": "address",
          "name": "owner",
          "type": "address"
        },
        {
          "indexed": true,
          "internalType": "address",
          "name": "approved",
          "type": "address"
        },
        {
          "indexed": true,
          "internalType": "uint256",
          "name": "tokenId",
          "type": "uint256"
        }
      ],
      "name": "Approval",
      "type": "event"
    },
    {
      "anonymous": false,
      "inputs": [
        {
          "indexed": true,
          "internalType": "address",
          "name": "owner",
          "type": "address"
        },
        {
          "indexed": true,
          "internalType": "address",
          "name": "operator",
          "type": "address"
        },
        {
          "indexed": false,
          "internalType": "bool",
          "name": "approved",
          "type": "bool"
        }
      ],
      "name": "ApprovalForAll",
      "type": "event"
    },
    {
      "anonymous": false,
      "inputs": [
        {
          "indexed": true,
          "internalType": "address",
          "name": "previousOwner",
          "type": "address"
        },
        {
          "indexed": true,
          "internalType": "address",
          "name": "newOwner",
          "type": "address"
        }
      ],
      "name": "OwnershipTransferred",
      "type": "event"
    },
    {
      "anonymous": false,
      "inputs": [
        {
          "indexed": true,
          "internalType": "address",
          "name": "from",
          "type": "address"
        },
        {
          "indexed": true,
          "internalType": "address",
          "name": "to",
          "type": "address"
        },
        {
          "indexed": true,
          "internalType": "uint256",
          "name": "tokenId",
          "type": "uint256"
        }
      ],
      "name": "Transfer",
      "type": "event"
    },
    {
      "inputs": [
        {
          "internalType": "address",
          "name": "to",
          "type": "address"
        },
        {
          "internalType": "uint256",
          "name": "tokenId",
          "type": "uint256"
        }
      ],
      "name": "approve",
      "outputs": [],
      "stateMutability": "nonpayable",
      "type": "function"
    },
    {
      "inputs": [
        {
          "internalType": "address",
          "name": "owner",
          "type": "address"
        }
      ],
      "name": "balanceOf",
      "outputs": [
        {
          "internalType": "uint256",
          "name": "",
          "type": "uint256"
        }
      ],
      "stateMutability": "view",
      "type": "function"
    },
    {
      "inputs": [
        {
          "internalType": "uint256",
          "name": "tokenId",
          "type": "uint256"
        }
      ],
      "name": "getApproved",
      "outputs": [
        {
          "internalType": "address",
          "name": "",
          "type": "address"
        }
      ],
      "stateMutability": "view",
      "type": "function"
    },
    {
      "inputs": [
        {
          "internalType": "address",
          "name": "owner",
          "type": "address"
        },
        {
          "internalType": "address",
          "name": "operator",
          "type": "address"
        }
      ],
      "name": "isApprovedForAll",
      "outputs": [
        {
          "internalType": "bool",
          "name": "",
          "type": "bool"
        }
      ],
      "stateMutability": "view",
      "type": "function"
    },
    {
      "inputs": [
        {
          "internalType": "address",
          "name": "_to",
          "type": "address"
        },
        {
          "internalType": "uint256",
          "name": "_tokenId",
          "type": "uint256"
        },
        {
          "internalType": "string",
          "name": "tokenURI_",
          "type": "string"
        }
      ],
      "name": "mint",
      "outputs": [],
      "stateMutability": "nonpayable",
      "type": "function"
    },
    {
      "inputs": [],
      "name": "name",
      "outputs": [
        {
          "internalType": "string",
          "name": "",
          "type": "string"
        }
      ],
      "stateMutability": "view",
      "type": "function"
    },
    {
      "inputs": [],
      "name": "owner",
      "outputs": [
        {
          "internalType": "address",
          "name": "",
          "type": "address"
        }
      ],
      "stateMutability": "view",
      "type": "function"
    },
    {
      "inputs": [
        {
          "internalType": "uint256",
          "name": "tokenId",
          "type": "uint256"
        }
      ],
      "name": "ownerOf",
      "outputs": [
        {
          "internalType": "address",
          "name": "",
          "type": "address"
        }
      ],
      "stateMutability": "view",
      "type": "function"
    },
    {
      "inputs": [],
      "name": "renounceOwnership",
      "outputs": [],
      "stateMutability": "nonpayable",
      "type": "function"
    },
    {
      "inputs": [
        {
          "internalType": "address",
          "name": "from",
          "type": "address"
        },
        {
          "internalType": "address",
          "name": "to",
          "type": "address"
        },
        {
          "internalType": "uint256",
          "name": "tokenId",
          "type": "uint256"
        }
      ],
      "name": "safeTransferFrom",
      "outputs": [],
      "stateMutability": "nonpayable",
      "type": "function"
    },
    {
      "inputs": [
        {
          "internalType": "address",
          "name": "from",
          "type": "address"
        },
        {
          "internalType": "address",
          "name": "to",
          "type": "address"
        },
        {
          "internalType": "uint256",
          "name": "tokenId",
          "type": "uint256"
        },
        {
          "internalType": "bytes",
          "name": "_data",
          "type": "bytes"
        }
      ],
      "name": "safeTransferFrom",
      "outputs": [],
      "stateMutability": "nonpayable",
      "type": "function"
    },
    {
      "inputs": [
        {
          "internalType": "address",
          "name": "operator",
          "type": "address"
        },
        {
          "internalType": "bool",
          "name": "approved",
          "type": "bool"
        }
      ],
      "name": "setApprovalForAll",
      "outputs": [],
      "stateMutability": "nonpayable",
      "type": "function"
    },
    {
      "inputs": [
        {
          "internalType": "string",
          "name": "baseURI_",
          "type": "string"
        }
      ],
      "name": "setBaseURI",
      "outputs": [],
      "stateMutability": "nonpayable",
      "type": "function"
    },
    {
      "inputs": [
        {
          "internalType": "bytes4",
          "name": "interfaceId",
          "type": "bytes4"
        }
      ],
      "name": "supportsInterface",
      "outputs": [
        {
          "internalType": "bool",
          "name": "",
          "type": "bool"
        }
      ],
      "stateMutability": "view",
      "type": "function"
    },
    {
      "inputs": [],
      "name": "symbol",
      "outputs": [
        {
          "internalType": "string",
          "name": "",
          "type": "string"
        }
      ],
      "stateMutability": "view",
      "type": "function"
    },
    {
      "inputs": [
        {
          "internalType": "uint256",
          "name": "tokenId",
          "type": "uint256"
        }
      ],
      "name": "tokenURI",
      "outputs": [
        {
          "internalType": "string",
          "name": "",
          "type": "string"
        }
      ],
      "stateMutability": "view",
      "type": "function"
    },
    {
      "inputs": [
        {
          "internalType": "address",
          "name": "from",
          "type": "address"
        },
        {
          "internalType": "address",
          "name": "to",
          "type": "address"
        },
        {
          "internalType": "uint256",
          "name": "tokenId",
          "type": "uint256"
        }
      ],
      "name": "transferFrom",
      "outputs": [],
      "stateMutability": "nonpayable",
      "type": "function"
    },
    {
      "inputs": [
        {
          "internalType": "address",
          "name": "newOwner",
          "type": "address"
        }
      ],
      "name": "transferOwnership",
      "outputs": [],
      "stateMutability": "nonpayable",
      "type": "function"
    }
  ],
  "bytecode": "0x60806040523480156200001157600080fd5b506040516200331e3803806200331e833981810160405281019062000037919062000285565b818181600090805190602001906200005192919062000163565b5080600190805190602001906200006a92919062000163565b5050506200008d620000816200009560201b60201c565b6200009d60201b60201c565b505062000429565b600033905090565b6000600660009054906101000a900473ffffffffffffffffffffffffffffffffffffffff16905081600660006101000a81548173ffffffffffffffffffffffffffffffffffffffff021916908373ffffffffffffffffffffffffffffffffffffffff1602179055508173ffffffffffffffffffffffffffffffffffffffff168173ffffffffffffffffffffffffffffffffffffffff167f8be0079c531659141344cd1fd0a4f28419497f9722a3daafe3b4186f6b6457e060405160405180910390a35050565b828054620001719062000395565b90600052602060002090601f016020900481019282620001955760008555620001e1565b82601f10620001b057805160ff1916838001178555620001e1565b82800160010185558215620001e1579182015b82811115620001e0578251825591602001919060010190620001c3565b5b509050620001f09190620001f4565b5090565b5b808211156200020f576000816000905550600101620001f5565b5090565b60006200022a62000224846200032c565b620002f8565b9050828152602081018484840111156200024357600080fd5b620002508482856200035f565b509392505050565b600082601f8301126200026a57600080fd5b81516200027c84826020860162000213565b91505092915050565b600080604083850312156200029957600080fd5b600083015167ffffffffffffffff811115620002b457600080fd5b620002c28582860162000258565b925050602083015167ffffffffffffffff811115620002e057600080fd5b620002ee8582860162000258565b9150509250929050565b6000604051905081810181811067ffffffffffffffff82111715620003225762000321620003fa565b5b8060405250919050565b600067ffffffffffffffff8211156200034a5762000349620003fa565b5b601f19601f8301169050602081019050919050565b60005b838110156200037f57808201518184015260208101905062000362565b838111156200038f576000848401525b50505050565b60006002820490506001821680620003ae57607f821691505b60208210811415620003c557620003c4620003cb565b5b50919050565b7f4e487b7100000000000000000000000000000000000000000000000000000000600052602260045260246000fd5b7f4e487b7100000000000000000000000000000000000000000000000000000000600052604160045260246000fd5b612ee580620004396000396000f3fe608060405234801561001057600080fd5b50600436106101165760003560e01c8063715018a6116100a2578063b88d4fde11610071578063b88d4fde146102cb578063c87b56dd146102e7578063d3fc986414610317578063e985e9c514610333578063f2fde38b1461036357610116565b8063715018a6146102695780638da5cb5b1461027357806395d89b4114610291578063a22cb465146102af57610116565b806323b872dd116100e957806323b872dd146101b557806342842e0e146101d157806355f804b3146101ed5780636352211e1461020957806370a082311461023957610116565b806301ffc9a71461011b57806306fdde031461014b578063081812fc14610169578063095ea7b314610199575b600080fd5b61013560048036038101906101309190611fd8565b61037f565b604051610142919061281d565b60405180910390f35b610153610461565b6040516101609190612838565b60405180910390f35b610183600480360381019061017e919061206b565b6104f3565b60405161019091906127b6565b60405180910390f35b6101b360048036038101906101ae9190611f35565b610578565b005b6101cf60048036038101906101ca9190611e2f565b610690565b005b6101eb60048036038101906101e69190611e2f565b6106f0565b005b6102076004803603810190610202919061202a565b610710565b005b610223600480360381019061021e919061206b565b6107a6565b60405161023091906127b6565b60405180910390f35b610253600480360381019061024e9190611dca565b610858565b6040516102609190612a7a565b60405180910390f35b610271610910565b005b61027b610998565b60405161028891906127b6565b60405180910390f35b6102996109c2565b6040516102a69190612838565b60405180910390f35b6102c960048036038101906102c49190611ef9565b610a54565b005b6102e560048036038101906102e09190611e7e565b610bd5565b005b61030160048036038101906102fc919061206b565b610c37565b60405161030e9190612838565b60405180910390f35b610331600480360381019061032c9190611f71565b610daa565b005b61034d60048036038101906103489190611df3565b610e3f565b60405161035a919061281d565b60405180910390f35b61037d60048036038101906103789190611dca565b610ed3565b005b60007f80ac58cd000000000000000000000000000000000000000000000000000000007bffffffffffffffffffffffffffffffffffffffffffffffffffffffff1916827bffffffffffffffffffffffffffffffffffffffffffffffffffffffff1916148061044a57507f5b5e139f000000000000000000000000000000000000000000000000000000007bffffffffffffffffffffffffffffffffffffffffffffffffffffffff1916827bffffffffffffffffffffffffffffffffffffffffffffffffffffffff1916145b8061045a575061045982610fcb565b5b9050919050565b60606000805461047090612cda565b80601f016020809104026020016040519081016040528092919081815260200182805461049c90612cda565b80156104e95780601f106104be576101008083540402835291602001916104e9565b820191906000526020600020905b8154815290600101906020018083116104cc57829003601f168201915b5050505050905090565b60006104fe82611035565b61053d576040517f08c379a00000000000000000000000000000000000000000000000000000000081526004016105349061299a565b60405180910390fd5b6004600083815260200190815260200160002060009054906101000a900473ffffffffffffffffffffffffffffffffffffffff169050919050565b6000610583826107a6565b90508073ffffffffffffffffffffffffffffffffffffffff168373ffffffffffffffffffffffffffffffffffffffff1614156105f4576040517f08c379a00000000000000000000000000000000000000000000000000000000081526004016105eb90612a3a565b60405180910390fd5b8073ffffffffffffffffffffffffffffffffffffffff166106136110a1565b73ffffffffffffffffffffffffffffffffffffffff16148061064257506106418161063c6110a1565b610e3f565b5b610681576040517f08c379a00000000000000000000000000000000000000000000000000000000081526004016106789061291a565b60405180910390fd5b61068b83836110a9565b505050565b6106a161069b6110a1565b82611162565b6106e0576040517f08c379a00000000000000000000000000000000000000000000000000000000081526004016106d790612a5a565b60405180910390fd5b6106eb838383611240565b505050565b61070b83838360405180602001604052806000815250610bd5565b505050565b6107186110a1565b73ffffffffffffffffffffffffffffffffffffffff16610736610998565b73ffffffffffffffffffffffffffffffffffffffff161461078c576040517f08c379a0000000000000000000000000000000000000000000000000000000008152600401610783906129da565b60405180910390fd5b80600990805190602001906107a2929190611bee565b5050565b6000806002600084815260200190815260200160002060009054906101000a900473ffffffffffffffffffffffffffffffffffffffff169050600073ffffffffffffffffffffffffffffffffffffffff168173ffffffffffffffffffffffffffffffffffffffff16141561084f576040517f08c379a00000000000000000000000000000000000000000000000000000000081526004016108469061295a565b60405180910390fd5b80915050919050565b60008073ffffffffffffffffffffffffffffffffffffffff168273ffffffffffffffffffffffffffffffffffffffff1614156108c9576040517f08c379a00000000000000000000000000000000000000000000000000000000081526004016108c09061293a565b60405180910390fd5b600360008373ffffffffffffffffffffffffffffffffffffffff1673ffffffffffffffffffffffffffffffffffffffff168152602001908152602001600020549050919050565b6109186110a1565b73ffffffffffffffffffffffffffffffffffffffff16610936610998565b73ffffffffffffffffffffffffffffffffffffffff161461098c576040517f08c379a0000000000000000000000000000000000000000000000000000000008152600401610983906129da565b60405180910390fd5b610996600061149c565b565b6000600660009054906101000a900473ffffffffffffffffffffffffffffffffffffffff16905090565b6060600180546109d190612cda565b80601f01602080910402602001604051908101604052809291908181526020018280546109fd90612cda565b8015610a4a5780601f10610a1f57610100808354040283529160200191610a4a565b820191906000526020600020905b815481529060010190602001808311610a2d57829003601f168201915b5050505050905090565b610a5c6110a1565b73ffffffffffffffffffffffffffffffffffffffff168273ffffffffffffffffffffffffffffffffffffffff161415610aca576040517f08c379a0000000000000000000000000000000000000000000000000000000008152600401610ac1906128da565b60405180910390fd5b8060056000610ad76110a1565b73ffffffffffffffffffffffffffffffffffffffff1673ffffffffffffffffffffffffffffffffffffffff16815260200190815260200160002060008473ffffffffffffffffffffffffffffffffffffffff1673ffffffffffffffffffffffffffffffffffffffff16815260200190815260200160002060006101000a81548160ff0219169083151502179055508173ffffffffffffffffffffffffffffffffffffffff16610b846110a1565b73ffffffffffffffffffffffffffffffffffffffff167f17307eab39ab6107e8899845ad3d59bd9653f200f220920489ca2b5937696c3183604051610bc9919061281d565b60405180910390a35050565b610be6610be06110a1565b83611162565b610c25576040517f08c379a0000000000000000000000000000000000000000000000000000000008152600401610c1c90612a5a565b60405180910390fd5b610c3184848484611562565b50505050565b6060610c4282611035565b610c81576040517f08c379a0000000000000000000000000000000000000000000000000000000008152600401610c7890612a1a565b60405180910390fd5b6000600860008481526020019081526020016000208054610ca190612cda565b80601f0160208091040260200160405190810160405280929190818152602001828054610ccd90612cda565b8015610d1a5780601f10610cef57610100808354040283529160200191610d1a565b820191906000526020600020905b815481529060010190602001808311610cfd57829003601f168201915b505050505090506000610d2b6115be565b9050600081511415610d41578192505050610da5565b600082511115610d76578082604051602001610d5e929190612792565b60405160208183030381529060405292505050610da5565b80610d8085611650565b604051602001610d91929190612792565b604051602081830303815290604052925050505b919050565b610db26110a1565b73ffffffffffffffffffffffffffffffffffffffff16610dd0610998565b73ffffffffffffffffffffffffffffffffffffffff1614610e26576040517f08c379a0000000000000000000000000000000000000000000000000000000008152600401610e1d906129da565b60405180910390fd5b610e3083836117fd565b610e3a82826119cb565b505050565b6000600560008473ffffffffffffffffffffffffffffffffffffffff1673ffffffffffffffffffffffffffffffffffffffff16815260200190815260200160002060008373ffffffffffffffffffffffffffffffffffffffff1673ffffffffffffffffffffffffffffffffffffffff16815260200190815260200160002060009054906101000a900460ff16905092915050565b610edb6110a1565b73ffffffffffffffffffffffffffffffffffffffff16610ef9610998565b73ffffffffffffffffffffffffffffffffffffffff1614610f4f576040517f08c379a0000000000000000000000000000000000000000000000000000000008152600401610f46906129da565b60405180910390fd5b600073ffffffffffffffffffffffffffffffffffffffff168173ffffffffffffffffffffffffffffffffffffffff161415610fbf576040517f08c379a0000000000000000000000000000000000000000000000000000000008152600401610fb69061287a565b60405180910390fd5b610fc88161149c565b50565b60007f01ffc9a7000000000000000000000000000000000000000000000000000000007bffffffffffffffffffffffffffffffffffffffffffffffffffffffff1916827bffffffffffffffffffffffffffffffffffffffffffffffffffffffff1916149050919050565b60008073ffffffffffffffffffffffffffffffffffffffff166002600084815260200190815260200160002060009054906101000a900473ffffffffffffffffffffffffffffffffffffffff1673ffffffffffffffffffffffffffffffffffffffff1614159050919050565b600033905090565b816004600083815260200190815260200160002060006101000a81548173ffffffffffffffffffffffffffffffffffffffff021916908373ffffffffffffffffffffffffffffffffffffffff160217905550808273ffffffffffffffffffffffffffffffffffffffff1661111c836107a6565b73ffffffffffffffffffffffffffffffffffffffff167f8c5be1e5ebec7d5bd14f71427d1e84f3dd0314c0f7b2291e5b200ac8c7c3b92560405160405180910390a45050565b600061116d82611035565b6111ac576040517f08c379a00000000000000000000000000000000000000000000000000000000081526004016111a3906128fa565b60405180910390fd5b60006111b7836107a6565b90508073ffffffffffffffffffffffffffffffffffffffff168473ffffffffffffffffffffffffffffffffffffffff16148061122657508373ffffffffffffffffffffffffffffffffffffffff1661120e846104f3565b73ffffffffffffffffffffffffffffffffffffffff16145b8061123757506112368185610e3f565b5b91505092915050565b8273ffffffffffffffffffffffffffffffffffffffff16611260826107a6565b73ffffffffffffffffffffffffffffffffffffffff16146112b6576040517f08c379a00000000000000000000000000000000000000000000000000000000081526004016112ad906129fa565b60405180910390fd5b600073ffffffffffffffffffffffffffffffffffffffff168273ffffffffffffffffffffffffffffffffffffffff161415611326576040517f08c379a000000000000000000000000000000000000000000000000000000000815260040161131d906128ba565b60405180910390fd5b611331838383611a3f565b61133c6000826110a9565b6001600360008573ffffffffffffffffffffffffffffffffffffffff1673ffffffffffffffffffffffffffffffffffffffff168152602001908152602001600020600082825461138c9190612bf0565b925050819055506001600360008473ffffffffffffffffffffffffffffffffffffffff1673ffffffffffffffffffffffffffffffffffffffff16815260200190815260200160002060008282546113e39190612b69565b92505081905550816002600083815260200190815260200160002060006101000a81548173ffffffffffffffffffffffffffffffffffffffff021916908373ffffffffffffffffffffffffffffffffffffffff160217905550808273ffffffffffffffffffffffffffffffffffffffff168473ffffffffffffffffffffffffffffffffffffffff167fddf252ad1be2c89b69c2b068fc378daa952ba7f163c4a11628f55a4df523b3ef60405160405180910390a4505050565b6000600660009054906101000a900473ffffffffffffffffffffffffffffffffffffffff16905081600660006101000a81548173ffffffffffffffffffffffffffffffffffffffff021916908373ffffffffffffffffffffffffffffffffffffffff1602179055508173ffffffffffffffffffffffffffffffffffffffff168173ffffffffffffffffffffffffffffffffffffffff167f8be0079c531659141344cd1fd0a4f28419497f9722a3daafe3b4186f6b6457e060405160405180910390a35050565b61156d848484611240565b61157984848484611a44565b6115b8576040517f08c379a00000000000000000000000000000000000000000000000000000000081526004016115af9061285a565b60405180910390fd5b50505050565b6060600980546115cd90612cda565b80601f01602080910402602001604051908101604052809291908181526020018280546115f990612cda565b80156116465780601f1061161b57610100808354040283529160200191611646565b820191906000526020600020905b81548152906001019060200180831161162957829003601f168201915b5050505050905090565b60606000821415611698576040518060400160405280600181526020017f300000000000000000000000000000000000000000000000000000000000000081525090506117f8565b600082905060005b600082146116ca5780806116b390612d0c565b915050600a826116c39190612bbf565b91506116a0565b60008167ffffffffffffffff81111561170c577f4e487b7100000000000000000000000000000000000000000000000000000000600052604160045260246000fd5b6040519080825280601f01601f19166020018201604052801561173e5781602001600182028036833780820191505090505b5090505b600085146117f1576001826117579190612bf0565b9150600a856117669190612d55565b60306117729190612b69565b60f81b8183815181106117ae577f4e487b7100000000000000000000000000000000000000000000000000000000600052603260045260246000fd5b60200101907effffffffffffffffffffffffffffffffffffffffffffffffffffffffffffff1916908160001a905350600a856117ea9190612bbf565b9450611742565b8093505050505b919050565b600073ffffffffffffffffffffffffffffffffffffffff168273ffffffffffffffffffffffffffffffffffffffff16141561186d576040517f08c379a00000000000000000000000000000000000000000000000000000000081526004016118649061297a565b60405180910390fd5b61187681611035565b156118b6576040517f08c379a00000000000000000000000000000000000000000000000000000000081526004016118ad9061289a565b60405180910390fd5b6118c260008383611a3f565b6001600360008473ffffffffffffffffffffffffffffffffffffffff1673ffffffffffffffffffffffffffffffffffffffff16815260200190815260200160002060008282546119129190612b69565b92505081905550816002600083815260200190815260200160002060006101000a81548173ffffffffffffffffffffffffffffffffffffffff021916908373ffffffffffffffffffffffffffffffffffffffff160217905550808273ffffffffffffffffffffffffffffffffffffffff16600073ffffffffffffffffffffffffffffffffffffffff167fddf252ad1be2c89b69c2b068fc378daa952ba7f163c4a11628f55a4df523b3ef60405160405180910390a45050565b6119d482611035565b611a13576040517f08c379a0000000000000000000000000000000000000000000000000000000008152600401611a0a906129ba565b60405180910390fd5b80600860008481526020019081526020016000209080519060200190611a3a929190611bee565b505050565b505050565b6000611a658473ffffffffffffffffffffffffffffffffffffffff16611bdb565b15611bce578373ffffffffffffffffffffffffffffffffffffffff1663150b7a02611a8e6110a1565b8786866040518563ffffffff1660e01b8152600401611ab094939291906127d1565b602060405180830381600087803b158015611aca57600080fd5b505af1925050508015611afb57506040513d601f19601f82011682018060405250810190611af89190612001565b60015b611b7e573d8060008114611b2b576040519150601f19603f3d011682016040523d82523d6000602084013e611b30565b606091505b50600081511415611b76576040517f08c379a0000000000000000000000000000000000000000000000000000000008152600401611b6d9061285a565b60405180910390fd5b805181602001fd5b63150b7a0260e01b7bffffffffffffffffffffffffffffffffffffffffffffffffffffffff1916817bffffffffffffffffffffffffffffffffffffffffffffffffffffffff191614915050611bd3565b600190505b949350505050565b600080823b905060008111915050919050565b828054611bfa90612cda565b90600052602060002090601f016020900481019282611c1c5760008555611c63565b82601f10611c3557805160ff1916838001178555611c63565b82800160010185558215611c63579182015b82811115611c62578251825591602001919060010190611c47565b5b509050611c709190611c74565b5090565b5b80821115611c8d576000816000905550600101611c75565b5090565b6000611ca4611c9f84612ac6565b612a95565b905082815260208101848484011115611cbc57600080fd5b611cc7848285612c98565b509392505050565b6000611ce2611cdd84612af6565b612a95565b905082815260208101848484011115611cfa57600080fd5b611d05848285612c98565b509392505050565b600081359050611d1c81612e53565b92915050565b600081359050611d3181612e6a565b92915050565b600081359050611d4681612e81565b92915050565b600081519050611d5b81612e81565b92915050565b600082601f830112611d7257600080fd5b8135611d82848260208601611c91565b91505092915050565b600082601f830112611d9c57600080fd5b8135611dac848260208601611ccf565b91505092915050565b600081359050611dc481612e98565b92915050565b600060208284031215611ddc57600080fd5b6000611dea84828501611d0d565b91505092915050565b60008060408385031215611e0657600080fd5b6000611e1485828601611d0d565b9250506020611e2585828601611d0d565b9150509250929050565b600080600060608486031215611e4457600080fd5b6000611e5286828701611d0d565b9350506020611e6386828701611d0d565b9250506040611e7486828701611db5565b9150509250925092565b60008060008060808587031215611e9457600080fd5b6000611ea287828801611d0d565b9450506020611eb387828801611d0d565b9350506040611ec487828801611db5565b925050606085013567ffffffffffffffff811115611ee157600080fd5b611eed87828801611d61565b91505092959194509250565b60008060408385031215611f0c57600080fd5b6000611f1a85828601611d0d565b9250506020611f2b85828601611d22565b9150509250929050565b60008060408385031215611f4857600080fd5b6000611f5685828601611d0d565b9250506020611f6785828601611db5565b9150509250929050565b600080600060608486031215611f8657600080fd5b6000611f9486828701611d0d565b9350506020611fa586828701611db5565b925050604084013567ffffffffffffffff811115611fc257600080fd5b611fce86828701611d8b565b9150509250925092565b600060208284031215611fea57600080fd5b6000611ff884828501611d37565b91505092915050565b60006020828403121561201357600080fd5b600061202184828501611d4c565b91505092915050565b60006020828403121561203c57600080fd5b600082013567ffffffffffffffff81111561205657600080fd5b61206284828501611d8b565b91505092915050565b60006020828403121561207d57600080fd5b600061208b84828501611db5565b91505092915050565b61209d81612c24565b82525050565b6120ac81612c36565b82525050565b60006120bd82612b26565b6120c78185612b3c565b93506120d7818560208601612ca7565b6120e081612e42565b840191505092915050565b60006120f682612b31565b6121008185612b4d565b9350612110818560208601612ca7565b61211981612e42565b840191505092915050565b600061212f82612b31565b6121398185612b5e565b9350612149818560208601612ca7565b80840191505092915050565b6000612162603283612b4d565b91507f4552433732313a207472616e7366657220746f206e6f6e20455243373231526560008301527f63656976657220696d706c656d656e74657200000000000000000000000000006020830152604082019050919050565b60006121c8602683612b4d565b91507f4f776e61626c653a206e6577206f776e657220697320746865207a65726f206160008301527f64647265737300000000000000000000000000000000000000000000000000006020830152604082019050919050565b600061222e601c83612b4d565b91507f4552433732313a20746f6b656e20616c7265616479206d696e746564000000006000830152602082019050919050565b600061226e602483612b4d565b91507f4552433732313a207472616e7366657220746f20746865207a65726f2061646460008301527f72657373000000000000000000000000000000000000000000000000000000006020830152604082019050919050565b60006122d4601983612b4d565b91507f4552433732313a20617070726f766520746f2063616c6c6572000000000000006000830152602082019050919050565b6000612314602c83612b4d565b91507f4552433732313a206f70657261746f7220717565727920666f72206e6f6e657860008301527f697374656e7420746f6b656e00000000000000000000000000000000000000006020830152604082019050919050565b600061237a603883612b4d565b91507f4552433732313a20617070726f76652063616c6c6572206973206e6f74206f7760008301527f6e6572206e6f7220617070726f76656420666f7220616c6c00000000000000006020830152604082019050919050565b60006123e0602a83612b4d565b91507f4552433732313a2062616c616e636520717565727920666f7220746865207a6560008301527f726f2061646472657373000000000000000000000000000000000000000000006020830152604082019050919050565b6000612446602983612b4d565b91507f4552433732313a206f776e657220717565727920666f72206e6f6e657869737460008301527f656e7420746f6b656e00000000000000000000000000000000000000000000006020830152604082019050919050565b60006124ac602083612b4d565b91507f4552433732313a206d696e7420746f20746865207a65726f20616464726573736000830152602082019050919050565b60006124ec602c83612b4d565b91507f4552433732313a20617070726f76656420717565727920666f72206e6f6e657860008301527f697374656e7420746f6b656e00000000000000000000000000000000000000006020830152604082019050919050565b6000612552602c83612b4d565b91507f4552433732314d657461646174613a2055524920736574206f66206e6f6e657860008301527f697374656e7420746f6b656e00000000000000000000000000000000000000006020830152604082019050919050565b60006125b8602083612b4d565b91507f4f776e61626c653a2063616c6c6572206973206e6f7420746865206f776e65726000830152602082019050919050565b60006125f8602983612b4d565b91507f4552433732313a207472616e73666572206f6620746f6b656e2074686174206960008301527f73206e6f74206f776e00000000000000000000000000000000000000000000006020830152604082019050919050565b600061265e602f83612b4d565b91507f4552433732314d657461646174613a2055524920717565727920666f72206e6f60008301527f6e6578697374656e7420746f6b656e00000000000000000000000000000000006020830152604082019050919050565b60006126c4602183612b4d565b91507f4552433732313a20617070726f76616c20746f2063757272656e74206f776e6560008301527f72000000000000000000000000000000000000000000000000000000000000006020830152604082019050919050565b600061272a603183612b4d565b91507f4552433732313a207472616e736665722063616c6c6572206973206e6f74206f60008301527f776e6572206e6f7220617070726f7665640000000000000000000000000000006020830152604082019050919050565b61278c81612c8e565b82525050565b600061279e8285612124565b91506127aa8284612124565b91508190509392505050565b60006020820190506127cb6000830184612094565b92915050565b60006080820190506127e66000830187612094565b6127f36020830186612094565b6128006040830185612783565b818103606083015261281281846120b2565b905095945050505050565b600060208201905061283260008301846120a3565b92915050565b6000602082019050818103600083015261285281846120eb565b905092915050565b6000602082019050818103600083015261287381612155565b9050919050565b60006020820190508181036000830152612893816121bb565b9050919050565b600060208201905081810360008301526128b381612221565b9050919050565b600060208201905081810360008301526128d381612261565b9050919050565b600060208201905081810360008301526128f3816122c7565b9050919050565b6000602082019050818103600083015261291381612307565b9050919050565b600060208201905081810360008301526129338161236d565b9050919050565b60006020820190508181036000830152612953816123d3565b9050919050565b6000602082019050818103600083015261297381612439565b9050919050565b600060208201905081810360008301526129938161249f565b9050919050565b600060208201905081810360008301526129b3816124df565b9050919050565b600060208201905081810360008301526129d381612545565b9050919050565b600060208201905081810360008301526129f3816125ab565b9050919050565b60006020820190508181036000830152612a13816125eb565b9050919050565b60006020820190508181036000830152612a3381612651565b9050919050565b60006020820190508181036000830152612a53816126b7565b9050919050565b60006020820190508181036000830152612a738161271d565b9050919050565b6000602082019050612a8f6000830184612783565b92915050565b6000604051905081810181811067ffffffffffffffff82111715612abc57612abb612e13565b5b8060405250919050565b600067ffffffffffffffff821115612ae157612ae0612e13565b5b601f19601f8301169050602081019050919050565b600067ffffffffffffffff821115612b1157612b10612e13565b5b601f19601f8301169050602081019050919050565b600081519050919050565b600081519050919050565b600082825260208201905092915050565b600082825260208201905092915050565b600081905092915050565b6000612b7482612c8e565b9150612b7f83612c8e565b9250827fffffffffffffffffffffffffffffffffffffffffffffffffffffffffffffffff03821115612bb457612bb3612d86565b5b828201905092915050565b6000612bca82612c8e565b9150612bd583612c8e565b925082612be557612be4612db5565b5b828204905092915050565b6000612bfb82612c8e565b9150612c0683612c8e565b925082821015612c1957612c18612d86565b5b828203905092915050565b6000612c2f82612c6e565b9050919050565b60008115159050919050565b60007fffffffff0000000000000000000000000000000000000000000000000000000082169050919050565b600073ffffffffffffffffffffffffffffffffffffffff82169050919050565b6000819050919050565b82818337600083830152505050565b60005b83811015612cc5578082015181840152602081019050612caa565b83811115612cd4576000848401525b50505050565b60006002820490506001821680612cf257607f821691505b60208210811415612d0657612d05612de4565b5b50919050565b6000612d1782612c8e565b91507fffffffffffffffffffffffffffffffffffffffffffffffffffffffffffffffff821415612d4a57612d49612d86565b5b600182019050919050565b6000612d6082612c8e565b9150612d6b83612c8e565b925082612d7b57612d7a612db5565b5b828206905092915050565b7f4e487b7100000000000000000000000000000000000000000000000000000000600052601160045260246000fd5b7f4e487b7100000000000000000000000000000000000000000000000000000000600052601260045260246000fd5b7f4e487b7100000000000000000000000000000000000000000000000000000000600052602260045260246000fd5b7f4e487b7100000000000000000000000000000000000000000000000000000000600052604160045260246000fd5b6000601f19601f8301169050919050565b612e5c81612c24565b8114612e6757600080fd5b50565b612e7381612c36565b8114612e7e57600080fd5b50565b612e8a81612c42565b8114612e9557600080fd5b50565b612ea181612c8e565b8114612eac57600080fd5b5056fea2646970667358221220184b3ff377941c7fcd0b12ff05b7fba01a54a92c8ea35622e32c9329ff82ebaf64736f6c63430008000033",
  "linkReferences": {},
  "deployedLinkReferences": {}
}