{
	"data": {
		"bytecode": {
			"linkReferences": {
				"remix_accounts.sol": {
					"TestsAccounts": [
						{
							"length": 20,
							"start": 1211
						}
					]
				},
				"remix_tests.sol": {
					"Assert": [
						{
							"length": 20,
							"start": 257
						},
						{
							"length": 20,
							"start": 386
						},
						{
							"length": 20,
							"start": 516
						},
						{
							"length": 20,
							"start": 922
						},
						{
							"length": 20,
							"start": 1053
						},
						{
							"length": 20,
							"start": 1184
						},
						{
							"length": 20,
							"start": 1437
						}
					]
				}
			},
			"object": "608060405234801561001057600080fd5b50616ab2806100206000396000f3fe608060405260043610620000505760003560e01c8063011e6492146200005557806312d487ea146200006f57806336c00656146200009f5780637fea0d4b14620000b95780639074416d14620000d3575b600080fd5b3480156200006257600080fd5b506200006d620000df565b005b3480156200007c57600080fd5b50620000876200036f565b60405162000096919062000629565b60405180910390f35b348015620000ac57600080fd5b50620000b762000378565b005b348015620000c657600080fd5b50620000d1620003fb565b005b620000dd6200047e565b005b73__$acbfb1c35000d78352310b16a054a6b106$__6339df137f600280146040518263ffffffff1660e01b81526004016200011b9190620006b8565b602060405180830381865af415801562000139573d6000803e3d6000fd5b505050506040513d601f19601f820116820180604052508101906200015f919062000720565b5073__$acbfb1c35000d78352310b16a054a6b106$__63a079f1a3600260016040518363ffffffff1660e01b81526004016200019d929190620007bd565b602060405180830381865af4158015620001bb573d6000803e3d6000fd5b505050506040513d601f19601f82011682018060405250810190620001e1919062000720565b5073__$acbfb1c35000d78352310b16a054a6b106$__63aea88952600260036040518363ffffffff1660e01b81526004016200021f9291906200084f565b602060405180830381865af41580156200023d573d6000803e3d6000fd5b505050506040513d601f19601f8201168201806040525081019062000263919062000720565b506040516200027290620005fe565b6200027d906200096c565b604051809103906000f0801580156200029a573d6000803e3d6000fd5b506000806101000a81548173ffffffffffffffffffffffffffffffffffffffff021916908373ffffffffffffffffffffffffffffffffffffffff16021790555060008054906101000a900473ffffffffffffffffffffffffffffffffffffffff1673ffffffffffffffffffffffffffffffffffffffff1663dbdff2c16040518163ffffffff1660e01b8152600401602060405180830381865afa15801562000346573d6000803e3d6000fd5b505050506040513d601f19601f820116820180604052508101906200036c9190620009fe565b50565b60006001905090565b73__$acbfb1c35000d78352310b16a054a6b106$__63561015e26001806040518363ffffffff1660e01b8152600401620003b492919062000a80565b602060405180830381865af4158015620003d2573d6000803e3d6000fd5b505050506040513d601f19601f82011682018060405250810190620003f8919062000720565b50565b73__$acbfb1c35000d78352310b16a054a6b106$__63abcd79606001806040518363ffffffff1660e01b81526004016200043792919062000b12565b602060405180830381865af415801562000455573d6000803e3d6000fd5b505050506040513d601f19601f820116820180604052508101906200047b919062000720565b50565b73__$acbfb1c35000d78352310b16a054a6b106$__63bfba5dd63373__$1068a87eb54ed04c4e435de35b2ebf536f$__63ce88b14560016040518263ffffffff1660e01b8152600401620004d3919062000ba1565b602060405180830381865af4158015620004f1573d6000803e3d6000fd5b505050506040513d601f19601f8201168201806040525081019062000517919062000c23565b6040518363ffffffff1660e01b81526004016200053692919062000cb6565b602060405180830381865af415801562000554573d6000803e3d6000fd5b505050506040513d601f19601f820116820180604052508101906200057a919062000720565b5073__$acbfb1c35000d78352310b16a054a6b106$__63abcd79603460646040518363ffffffff1660e01b8152600401620005b792919062000d8b565b602060405180830381865af4158015620005d5573d6000803e3d6000fd5b505050506040513d601f19601f82011682018060405250810190620005fb919062000720565b50565b615caf8062000dce83390190565b60008115159050919050565b62000623816200060c565b82525050565b600060208201905062000640600083018462000618565b92915050565b62000651816200060c565b82525050565b600082825260208201905092915050565b7f73686f756c642062652074727565000000000000000000000000000000000000600082015250565b6000620006a0600e8362000657565b9150620006ad8262000668565b602082019050919050565b6000604082019050620006cf600083018462000646565b8181036020830152620006e28162000691565b905092915050565b600080fd5b620006fa816200060c565b81146200070657600080fd5b50565b6000815190506200071a81620006ef565b92915050565b600060208284031215620007395762000738620006ea565b5b6000620007498482850162000709565b91505092915050565b6000819050919050565b620007678162000752565b82525050565b7f322073686f756c642062652067726561746572207468616e20746f2031000000600082015250565b6000620007a5601d8362000657565b9150620007b2826200076d565b602082019050919050565b6000606082019050620007d460008301856200075c565b620007e360208301846200075c565b8181036040830152620007f68162000796565b90509392505050565b7f322073686f756c64206265206c6573736572207468616e20746f203300000000600082015250565b600062000837601c8362000657565b91506200084482620007ff565b602082019050919050565b60006060820190506200086660008301856200075c565b6200087560208301846200075c565b8181036040830152620008888162000828565b90509392505050565b600082825260208201905092915050565b7f47656d6573697300000000000000000000000000000000000000000000000000600082015250565b6000620008da60078362000891565b9150620008e782620008a2565b602082019050919050565b7f67656d0000000000000000000000000000000000000000000000000000000000600082015250565b60006200092a60038362000891565b91506200093782620008f2565b602082019050919050565b50565b60006200095460008362000891565b9150620009618262000942565b600082019050919050565b600060808201905081810360008301526200098781620008cb565b905081810360208301526200099c816200091b565b90508181036040830152620009b18162000945565b90508181036060830152620009c68162000945565b9050919050565b620009d88162000752565b8114620009e457600080fd5b50565b600081519050620009f881620009cd565b92915050565b60006020828403121562000a175762000a16620006ea565b5b600062000a2784828501620009e7565b91505092915050565b7f312073686f756c64206e6f7420626520657175616c20746f2031000000000000600082015250565b600062000a68601a8362000657565b915062000a758262000a30565b602082019050919050565b600060608201905062000a9760008301856200075c565b62000aa660208301846200075c565b818103604083015262000ab98162000a59565b90509392505050565b7f312073686f756c6420626520657175616c20746f203100000000000000000000600082015250565b600062000afa60168362000657565b915062000b078262000ac2565b602082019050919050565b600060608201905062000b2960008301856200075c565b62000b3860208301846200075c565b818103604083015262000b4b8162000aeb565b90509392505050565b6000819050919050565b6000819050919050565b600062000b8962000b8362000b7d8462000b54565b62000b5e565b62000752565b9050919050565b62000b9b8162000b68565b82525050565b600060208201905062000bb8600083018462000b90565b92915050565b600073ffffffffffffffffffffffffffffffffffffffff82169050919050565b600062000beb8262000bbe565b9050919050565b62000bfd8162000bde565b811462000c0957600080fd5b50565b60008151905062000c1d8162000bf2565b92915050565b60006020828403121562000c3c5762000c3b620006ea565b5b600062000c4c8482850162000c0c565b91505092915050565b62000c608162000bde565b82525050565b7f496e76616c69642073656e646572000000000000000000000000000000000000600082015250565b600062000c9e600e8362000657565b915062000cab8262000c66565b602082019050919050565b600060608201905062000ccd600083018562000c55565b62000cdc602083018462000c55565b818103604083015262000cef8162000c8f565b90509392505050565b6000819050919050565b600062000d2362000d1d62000d178462000cf8565b62000b5e565b62000752565b9050919050565b62000d358162000d02565b82525050565b7f496e76616c69642076616c756500000000000000000000000000000000000000600082015250565b600062000d73600d8362000657565b915062000d808262000d3b565b602082019050919050565b600060608201905062000da260008301856200075c565b62000db1602083018462000d2a565b818103604083015262000dc48162000d64565b9050939250505056fe60806040526040518060400160405280600581526020017f2e6a736f6e0000000000000000000000000000000000000000000000000000008152506010908051906020019062000051929190620003ed565b506125c560125560146013556509184e72a0006014556000601560006101000a81548160ff0219169083151502179055506000601560016101000a81548160ff0219169083151502179055506001601560026101000a81548160ff021916908315150217905550348015620000c557600080fd5b5060405162005caf38038062005caf8339818101604052810190620000eb91906200063a565b8383816000908051906020019062000105929190620003ed565b5080600190805190602001906200011e929190620003ed565b50505062000141620001356200019f60201b60201c565b620001a760201b60201c565b6200016b60405180608001604052806051815260200162005c0e605191396200026d60201b60201c565b6200019560405180608001604052806050815260200162005c5f605091396200031860201b60201c565b5050505062000810565b600033905090565b6000600a60009054906101000a900473ffffffffffffffffffffffffffffffffffffffff16905081600a60006101000a81548173ffffffffffffffffffffffffffffffffffffffff021916908373ffffffffffffffffffffffffffffffffffffffff1602179055508173ffffffffffffffffffffffffffffffffffffffff168173ffffffffffffffffffffffffffffffffffffffff167f8be0079c531659141344cd1fd0a4f28419497f9722a3daafe3b4186f6b6457e060405160405180910390a35050565b6200027d6200019f60201b60201c565b73ffffffffffffffffffffffffffffffffffffffff16620002a3620003c360201b60201c565b73ffffffffffffffffffffffffffffffffffffffff1614620002fc576040517f08c379a0000000000000000000000000000000000000000000000000000000008152600401620002f39062000789565b60405180910390fd5b80600f908051906020019062000314929190620003ed565b5050565b620003286200019f60201b60201c565b73ffffffffffffffffffffffffffffffffffffffff166200034e620003c360201b60201c565b73ffffffffffffffffffffffffffffffffffffffff1614620003a7576040517f08c379a00000000000000000000000000000000000000000000000000000000081526004016200039e9062000789565b60405180910390fd5b8060119080519060200190620003bf929190620003ed565b5050565b6000600a60009054906101000a900473ffffffffffffffffffffffffffffffffffffffff16905090565b828054620003fb90620007da565b90600052602060002090601f0160209004810192826200041f57600085556200046b565b82601f106200043a57805160ff19168380011785556200046b565b828001600101855582156200046b579182015b828111156200046a5782518255916020019190600101906200044d565b5b5090506200047a91906200047e565b5090565b5b80821115620004995760008160009055506001016200047f565b5090565b6000604051905090565b600080fd5b600080fd5b600080fd5b600080fd5b6000601f19601f8301169050919050565b7f4e487b7100000000000000000000000000000000000000000000000000000000600052604160045260246000fd5b6200050682620004bb565b810181811067ffffffffffffffff82111715620005285762000527620004cc565b5b80604052505050565b60006200053d6200049d565b90506200054b8282620004fb565b919050565b600067ffffffffffffffff8211156200056e576200056d620004cc565b5b6200057982620004bb565b9050602081019050919050565b60005b83811015620005a657808201518184015260208101905062000589565b83811115620005b6576000848401525b50505050565b6000620005d3620005cd8462000550565b62000531565b905082815260208101848484011115620005f257620005f1620004b6565b5b620005ff84828562000586565b509392505050565b600082601f8301126200061f576200061e620004b1565b5b815162000631848260208601620005bc565b91505092915050565b60008060008060808587031215620006575762000656620004a7565b5b600085015167ffffffffffffffff811115620006785762000677620004ac565b5b620006868782880162000607565b945050602085015167ffffffffffffffff811115620006aa57620006a9620004ac565b5b620006b88782880162000607565b935050604085015167ffffffffffffffff811115620006dc57620006db620004ac565b5b620006ea8782880162000607565b925050606085015167ffffffffffffffff8111156200070e576200070d620004ac565b5b6200071c8782880162000607565b91505092959194509250565b600082825260208201905092915050565b7f4f776e61626c653a2063616c6c6572206973206e6f7420746865206f776e6572600082015250565b60006200077160208362000728565b91506200077e8262000739565b602082019050919050565b60006020820190508181036000830152620007a48162000762565b9050919050565b7f4e487b7100000000000000000000000000000000000000000000000000000000600052602260045260246000fd5b60006002820490506001821680620007f357607f821691505b602082108114156200080a5762000809620007ab565b5b50919050565b6153ee80620008206000396000f3fe6080604052600436106102ae5760003560e01c80636352211e11610175578063a665c4a4116100dc578063d5abeb0111610095578063dbdff2c11161006f578063dbdff2c114610aa4578063e985e9c514610acf578063f2c4ce1e14610b0c578063f2fde38b14610b35576102ae565b8063d5abeb0114610a13578063d936547e14610a3e578063da3ef23f14610a7b576102ae565b8063a665c4a4146108f1578063a6d23e101461092e578063b7b135df14610959578063b88d4fde14610982578063c6682862146109ab578063c87b56dd146109d6576102ae565b80637f00c7a61161012e5780637f00c7a6146108025780638da5cb5b1461082b57806395d89b41146108565780639c70b51214610881578063a0712d68146108ac578063a22cb465146108c8576102ae565b80636352211e146106f057806365102f341461072d5780636c0360eb1461075857806370a0823114610783578063715018a6146107c057806372250380146107d7576102ae565b80632a3f300c1161021957806344a0d68a116101d257806344a0d68a146105e25780634a4c560d1461060b5780634f6ccce714610634578063518302271461067157806355f804b31461069c5780635c975abb146106c5576102ae565b80632a3f300c146104e55780632e1a7d4d1461050e5780632f745c591461052a57806330cc7ae0146105675780633c9527641461059057806342842e0e146105b9576102ae565b806313faede61161026b57806313faede6146103c157806318160ddd146103ec57806318cae26914610417578063239c70ae1461045457806323b872dd1461047f57806329153cd9146104a8576102ae565b806301ffc9a7146102b357806302329a29146102f057806306fdde0314610319578063081812fc14610344578063095ea7b3146103815780630a16c9d7146103aa575b600080fd5b3480156102bf57600080fd5b506102da60048036038101906102d59190613abb565b610b5e565b6040516102e79190613b03565b60405180910390f35b3480156102fc57600080fd5b5061031760048036038101906103129190613b4a565b610bd8565b005b34801561032557600080fd5b5061032e610c71565b60405161033b9190613c10565b60405180910390f35b34801561035057600080fd5b5061036b60048036038101906103669190613c68565b610d03565b6040516103789190613cd6565b60405180910390f35b34801561038d57600080fd5b506103a860048036038101906103a39190613d1d565b610d88565b005b3480156103b657600080fd5b506103bf610ea0565b005b3480156103cd57600080fd5b506103d6610fba565b6040516103e39190613d6c565b60405180910390f35b3480156103f857600080fd5b50610401610fc0565b60405161040e9190613d6c565b60405180910390f35b34801561042357600080fd5b5061043e60048036038101906104399190613d87565b610fcd565b60405161044b9190613d6c565b60405180910390f35b34801561046057600080fd5b50610469610fe5565b6040516104769190613d6c565b60405180910390f35b34801561048b57600080fd5b506104a660048036038101906104a19190613db4565b610feb565b005b3480156104b457600080fd5b506104cf60048036038101906104ca9190613c68565b61104b565b6040516104dc9190613d6c565b60405180910390f35b3480156104f157600080fd5b5061050c60048036038101906105079190613b4a565b611063565b005b61052860048036038101906105239190613c68565b6110fc565b005b34801561053657600080fd5b50610551600480360381019061054c9190613d1d565b611228565b60405161055e9190613d6c565b60405180910390f35b34801561057357600080fd5b5061058e60048036038101906105899190613d87565b6112cd565b005b34801561059c57600080fd5b506105b760048036038101906105b29190613b4a565b6113a4565b005b3480156105c557600080fd5b506105e060048036038101906105db9190613db4565b61143d565b005b3480156105ee57600080fd5b5061060960048036038101906106049190613c68565b61145d565b005b34801561061757600080fd5b50610632600480360381019061062d9190613d87565b6114e3565b005b34801561064057600080fd5b5061065b60048036038101906106569190613c68565b6115ba565b6040516106689190613d6c565b60405180910390f35b34801561067d57600080fd5b5061068661162b565b6040516106939190613b03565b60405180910390f35b3480156106a857600080fd5b506106c360048036038101906106be9190613f3c565b61163e565b005b3480156106d157600080fd5b506106da6116d4565b6040516106e79190613b03565b60405180910390f35b3480156106fc57600080fd5b5061071760048036038101906107129190613c68565b6116e7565b6040516107249190613cd6565b60405180910390f35b34801561073957600080fd5b50610742611799565b60405161074f9190613cd6565b60405180910390f35b34801561076457600080fd5b5061076d6117bf565b60405161077a9190613c10565b60405180910390f35b34801561078f57600080fd5b506107aa60048036038101906107a59190613d87565b61184d565b6040516107b79190613d6c565b60405180910390f35b3480156107cc57600080fd5b506107d5611905565b005b3480156107e357600080fd5b506107ec61198d565b6040516107f99190613c10565b60405180910390f35b34801561080e57600080fd5b5061082960048036038101906108249190613c68565b611a1b565b005b34801561083757600080fd5b50610840611aa1565b60405161084d9190613cd6565b60405180910390f35b34801561086257600080fd5b5061086b611acb565b6040516108789190613c10565b60405180910390f35b34801561088d57600080fd5b50610896611b5d565b6040516108a39190613b03565b60405180910390f35b6108c660048036038101906108c19190613c68565b611b70565b005b3480156108d457600080fd5b506108ef60048036038101906108ea9190613f85565b611dd2565b005b3480156108fd57600080fd5b5061091860048036038101906109139190613d87565b611f53565b6040516109259190613d6c565b60405180910390f35b34801561093a57600080fd5b50610943611f9c565b6040516109509190613fe6565b60405180910390f35b34801561096557600080fd5b50610980600480360381019061097b9190613d87565b611fc2565b005b34801561098e57600080fd5b506109a960048036038101906109a491906140a2565b612145565b005b3480156109b757600080fd5b506109c06121a7565b6040516109cd9190613c10565b60405180910390f35b3480156109e257600080fd5b506109fd60048036038101906109f89190613c68565b612235565b604051610a0a9190613c10565b60405180910390f35b348015610a1f57600080fd5b50610a286123a1565b604051610a359190613d6c565b60405180910390f35b348015610a4a57600080fd5b50610a656004803603810190610a609190613d87565b6123a7565b604051610a729190613b03565b60405180910390f35b348015610a8757600080fd5b50610aa26004803603810190610a9d9190613f3c565b6123c7565b005b348015610ab057600080fd5b50610ab961245d565b604051610ac69190613d6c565b60405180910390f35b348015610adb57600080fd5b50610af66004803603810190610af19190614125565b612571565b604051610b039190613b03565b60405180910390f35b348015610b1857600080fd5b50610b336004803603810190610b2e9190613f3c565b612605565b005b348015610b4157600080fd5b50610b5c6004803603810190610b579190613d87565b61269b565b005b60007f780e9d63000000000000000000000000000000000000000000000000000000007bffffffffffffffffffffffffffffffffffffffffffffffffffffffff1916827bffffffffffffffffffffffffffffffffffffffffffffffffffffffff19161480610bd15750610bd082612793565b5b9050919050565b610be0612875565b73ffffffffffffffffffffffffffffffffffffffff16610bfe611aa1565b73ffffffffffffffffffffffffffffffffffffffff1614610c54576040517f08c379a0000000000000000000000000000000000000000000000000000000008152600401610c4b906141b1565b60405180910390fd5b80601560006101000a81548160ff02191690831515021790555050565b606060008054610c8090614200565b80601f0160208091040260200160405190810160405280929190818152602001828054610cac90614200565b8015610cf95780601f10610cce57610100808354040283529160200191610cf9565b820191906000526020600020905b815481529060010190602001808311610cdc57829003601f168201915b5050505050905090565b6000610d0e8261287d565b610d4d576040517f08c379a0000000000000000000000000000000000000000000000000000000008152600401610d44906142a4565b60405180910390fd5b6004600083815260200190815260200160002060009054906101000a900473ffffffffffffffffffffffffffffffffffffffff169050919050565b6000610d93826116e7565b90508073ffffffffffffffffffffffffffffffffffffffff168373ffffffffffffffffffffffffffffffffffffffff161415610e04576040517f08c379a0000000000000000000000000000000000000000000000000000000008152600401610dfb90614336565b60405180910390fd5b8073ffffffffffffffffffffffffffffffffffffffff16610e23612875565b73ffffffffffffffffffffffffffffffffffffffff161480610e525750610e5181610e4c612875565b612571565b5b610e91576040517f08c379a0000000000000000000000000000000000000000000000000000000008152600401610e88906143c8565b60405180910390fd5b610e9b83836128e9565b505050565b610ea8612875565b73ffffffffffffffffffffffffffffffffffffffff16610ec6611aa1565b73ffffffffffffffffffffffffffffffffffffffff1614610f1c576040517f08c379a0000000000000000000000000000000000000000000000000000000008152600401610f13906141b1565b60405180910390fd5b610fb8600b60009054906101000a900473ffffffffffffffffffffffffffffffffffffffff1673ffffffffffffffffffffffffffffffffffffffff16637390c7866040518163ffffffff1660e01b8152600401602060405180830381865afa158015610f8c573d6000803e3d6000fd5b505050506040513d601f19601f82011682018060405250810190610fb091906143fd565b6012546129a2565b565b60145481565b6000600880549050905090565b60196020528060005260406000206000915090505481565b60135481565b610ffc610ff6612875565b82612af2565b61103b576040517f08c379a00000000000000000000000000000000000000000000000000000000081526004016110329061449c565b60405180910390fd5b611046838383612bd0565b505050565b600d6020528060005260406000206000915090505481565b61106b612875565b73ffffffffffffffffffffffffffffffffffffffff16611089611aa1565b73ffffffffffffffffffffffffffffffffffffffff16146110df576040517f08c379a00000000000000000000000000000000000000000000000000000000081526004016110d6906141b1565b60405180910390fd5b80601560016101000a81548160ff02191690831515021790555050565b611104612875565b73ffffffffffffffffffffffffffffffffffffffff16611122611aa1565b73ffffffffffffffffffffffffffffffffffffffff1614611178576040517f08c379a000000000000000000000000000000000000000000000000000000000815260040161116f906141b1565b60405180910390fd5b60003373ffffffffffffffffffffffffffffffffffffffff168260405161119e906144ed565b60006040518083038185875af1925050503d80600081146111db576040519150601f19603f3d011682016040523d82523d6000602084013e6111e0565b606091505b5050905080611224576040517f08c379a000000000000000000000000000000000000000000000000000000000815260040161121b9061454e565b60405180910390fd5b5050565b60006112338361184d565b8210611274576040517f08c379a000000000000000000000000000000000000000000000000000000000815260040161126b906145e0565b60405180910390fd5b600660008473ffffffffffffffffffffffffffffffffffffffff1673ffffffffffffffffffffffffffffffffffffffff168152602001908152602001600020600083815260200190815260200160002054905092915050565b6112d5612875565b73ffffffffffffffffffffffffffffffffffffffff166112f3611aa1565b73ffffffffffffffffffffffffffffffffffffffff1614611349576040517f08c379a0000000000000000000000000000000000000000000000000000000008152600401611340906141b1565b60405180910390fd5b6000601660008373ffffffffffffffffffffffffffffffffffffffff1673ffffffffffffffffffffffffffffffffffffffff16815260200190815260200160002060006101000a81548160ff02191690831515021790555050565b6113ac612875565b73ffffffffffffffffffffffffffffffffffffffff166113ca611aa1565b73ffffffffffffffffffffffffffffffffffffffff1614611420576040517f08c379a0000000000000000000000000000000000000000000000000000000008152600401611417906141b1565b60405180910390fd5b80601560026101000a81548160ff02191690831515021790555050565b61145883838360405180602001604052806000815250612145565b505050565b611465612875565b73ffffffffffffffffffffffffffffffffffffffff16611483611aa1565b73ffffffffffffffffffffffffffffffffffffffff16146114d9576040517f08c379a00000000000000000000000000000000000000000000000000000000081526004016114d0906141b1565b60405180910390fd5b8060148190555050565b6114eb612875565b73ffffffffffffffffffffffffffffffffffffffff16611509611aa1565b73ffffffffffffffffffffffffffffffffffffffff161461155f576040517f08c379a0000000000000000000000000000000000000000000000000000000008152600401611556906141b1565b60405180910390fd5b6001601660008373ffffffffffffffffffffffffffffffffffffffff1673ffffffffffffffffffffffffffffffffffffffff16815260200190815260200160002060006101000a81548160ff02191690831515021790555050565b60006115c4610fc0565b8210611605576040517f08c379a00000000000000000000000000000000000000000000000000000000081526004016115fc90614672565b60405180910390fd5b6008828154811061161957611618614692565b5b90600052602060002001549050919050565b601560019054906101000a900460ff1681565b611646612875565b73ffffffffffffffffffffffffffffffffffffffff16611664611aa1565b73ffffffffffffffffffffffffffffffffffffffff16146116ba576040517f08c379a00000000000000000000000000000000000000000000000000000000081526004016116b1906141b1565b60405180910390fd5b80600f90805190602001906116d09291906139ac565b5050565b601560009054906101000a900460ff1681565b6000806002600084815260200190815260200160002060009054906101000a900473ffffffffffffffffffffffffffffffffffffffff169050600073ffffffffffffffffffffffffffffffffffffffff168173ffffffffffffffffffffffffffffffffffffffff161415611790576040517f08c379a000000000000000000000000000000000000000000000000000000000815260040161178790614733565b60405180910390fd5b80915050919050565b600c60009054906101000a900473ffffffffffffffffffffffffffffffffffffffff1681565b600f80546117cc90614200565b80601f01602080910402602001604051908101604052809291908181526020018280546117f890614200565b80156118455780601f1061181a57610100808354040283529160200191611845565b820191906000526020600020905b81548152906001019060200180831161182857829003601f168201915b505050505081565b60008073ffffffffffffffffffffffffffffffffffffffff168273ffffffffffffffffffffffffffffffffffffffff1614156118be576040517f08c379a00000000000000000000000000000000000000000000000000000000081526004016118b5906147c5565b60405180910390fd5b600360008373ffffffffffffffffffffffffffffffffffffffff1673ffffffffffffffffffffffffffffffffffffffff168152602001908152602001600020549050919050565b61190d612875565b73ffffffffffffffffffffffffffffffffffffffff1661192b611aa1565b73ffffffffffffffffffffffffffffffffffffffff1614611981576040517f08c379a0000000000000000000000000000000000000000000000000000000008152600401611978906141b1565b60405180910390fd5b61198b6000612e2c565b565b6011805461199a90614200565b80601f01602080910402602001604051908101604052809291908181526020018280546119c690614200565b8015611a135780601f106119e857610100808354040283529160200191611a13565b820191906000526020600020905b8154815290600101906020018083116119f657829003601f168201915b505050505081565b611a23612875565b73ffffffffffffffffffffffffffffffffffffffff16611a41611aa1565b73ffffffffffffffffffffffffffffffffffffffff1614611a97576040517f08c379a0000000000000000000000000000000000000000000000000000000008152600401611a8e906141b1565b60405180910390fd5b8060138190555050565b6000600a60009054906101000a900473ffffffffffffffffffffffffffffffffffffffff16905090565b606060018054611ada90614200565b80601f0160208091040260200160405190810160405280929190818152602001828054611b0690614200565b8015611b535780601f10611b2857610100808354040283529160200191611b53565b820191906000526020600020905b815481529060010190602001808311611b3657829003601f168201915b5050505050905090565b601560029054906101000a900460ff1681565b601560009054906101000a900460ff1615611bc0576040517f08c379a0000000000000000000000000000000000000000000000000000000008152600401611bb790614831565b60405180910390fd5b6000611bca610fc0565b905060008211611c0f576040517f08c379a0000000000000000000000000000000000000000000000000000000008152600401611c06906148c3565b60405180910390fd5b6001601254611c1e9190614912565b8282611c2a9190614912565b10611c6a576040517f08c379a0000000000000000000000000000000000000000000000000000000008152600401611c61906149b4565b60405180910390fd5b611c72611aa1565b73ffffffffffffffffffffffffffffffffffffffff163373ffffffffffffffffffffffffffffffffffffffff1614611d3a57601354821115611ce9576040517f08c379a0000000000000000000000000000000000000000000000000000000008152600401611ce090614a46565b60405180910390fd5b81601454611cf79190614a66565b341015611d39576040517f08c379a0000000000000000000000000000000000000000000000000000000008152600401611d3090614b0c565b60405180910390fd5b5b60005b82811015611dcd57611d5b33600184611d569190614912565b612ef2565b601960003373ffffffffffffffffffffffffffffffffffffffff1673ffffffffffffffffffffffffffffffffffffffff1681526020019081526020016000206000815480929190611dab90614b2c565b9190505550611db8610fc0565b91508080611dc590614b2c565b915050611d3d565b505050565b611dda612875565b73ffffffffffffffffffffffffffffffffffffffff168273ffffffffffffffffffffffffffffffffffffffff161415611e48576040517f08c379a0000000000000000000000000000000000000000000000000000000008152600401611e3f90614bc1565b60405180910390fd5b8060056000611e55612875565b73ffffffffffffffffffffffffffffffffffffffff1673ffffffffffffffffffffffffffffffffffffffff16815260200190815260200160002060008473ffffffffffffffffffffffffffffffffffffffff1673ffffffffffffffffffffffffffffffffffffffff16815260200190815260200160002060006101000a81548160ff0219169083151502179055508173ffffffffffffffffffffffffffffffffffffffff16611f02612875565b73ffffffffffffffffffffffffffffffffffffffff167f17307eab39ab6107e8899845ad3d59bd9653f200f220920489ca2b5937696c3183604051611f479190613b03565b60405180910390a35050565b6000601960008373ffffffffffffffffffffffffffffffffffffffff1673ffffffffffffffffffffffffffffffffffffffff168152602001908152602001600020549050919050565b601a60009054906101000a900473ffffffffffffffffffffffffffffffffffffffff1681565b611fca612875565b73ffffffffffffffffffffffffffffffffffffffff16611fe8611aa1565b73ffffffffffffffffffffffffffffffffffffffff161461203e576040517f08c379a0000000000000000000000000000000000000000000000000000000008152600401612035906141b1565b60405180910390fd5b80600b60006101000a81548173ffffffffffffffffffffffffffffffffffffffff021916908373ffffffffffffffffffffffffffffffffffffffff16021790555080600c60006101000a81548173ffffffffffffffffffffffffffffffffffffffff021916908373ffffffffffffffffffffffffffffffffffffffff160217905550600b60009054906101000a900473ffffffffffffffffffffffffffffffffffffffff1673ffffffffffffffffffffffffffffffffffffffff1663dbdff2c16040518163ffffffff1660e01b8152600401600060405180830381600087803b15801561212a57600080fd5b505af115801561213e573d6000803e3d6000fd5b5050505050565b612156612150612875565b83612af2565b612195576040517f08c379a000000000000000000000000000000000000000000000000000000000815260040161218c9061449c565b60405180910390fd5b6121a184848484612f10565b50505050565b601080546121b490614200565b80601f01602080910402602001604051908101604052809291908181526020018280546121e090614200565b801561222d5780601f106122025761010080835404028352916020019161222d565b820191906000526020600020905b81548152906001019060200180831161221057829003601f168201915b505050505081565b60606122408261287d565b61227f576040517f08c379a000000000000000000000000000000000000000000000000000000000815260040161227690614c53565b60405180910390fd5b60001515601560019054906101000a900460ff161515141561232d57601180546122a890614200565b80601f01602080910402602001604051908101604052809291908181526020018280546122d490614200565b80156123215780601f106122f657610100808354040283529160200191612321565b820191906000526020600020905b81548152906001019060200180831161230457829003601f168201915b5050505050905061239c565b6000612337612f6c565b905060008151116123575760405180602001604052806000815250612398565b80612374600d600086815260200190815260200160002054612ffe565b601060405160200161238893929190614d43565b6040516020818303038152906040525b9150505b919050565b60125481565b60166020528060005260406000206000915054906101000a900460ff1681565b6123cf612875565b73ffffffffffffffffffffffffffffffffffffffff166123ed611aa1565b73ffffffffffffffffffffffffffffffffffffffff1614612443576040517f08c379a000000000000000000000000000000000000000000000000000000000815260040161243a906141b1565b60405180910390fd5b80601090805190602001906124599291906139ac565b5050565b6000612467612875565b73ffffffffffffffffffffffffffffffffffffffff16612485611aa1565b73ffffffffffffffffffffffffffffffffffffffff16146124db576040517f08c379a00000000000000000000000000000000000000000000000000000000081526004016124d2906141b1565b60405180910390fd5b600b60009054906101000a900473ffffffffffffffffffffffffffffffffffffffff1673ffffffffffffffffffffffffffffffffffffffff16637390c7866040518163ffffffff1660e01b8152600401602060405180830381865afa158015612548573d6000803e3d6000fd5b505050506040513d601f19601f8201168201806040525081019061256c91906143fd565b905090565b6000600560008473ffffffffffffffffffffffffffffffffffffffff1673ffffffffffffffffffffffffffffffffffffffff16815260200190815260200160002060008373ffffffffffffffffffffffffffffffffffffffff1673ffffffffffffffffffffffffffffffffffffffff16815260200190815260200160002060009054906101000a900460ff16905092915050565b61260d612875565b73ffffffffffffffffffffffffffffffffffffffff1661262b611aa1565b73ffffffffffffffffffffffffffffffffffffffff1614612681576040517f08c379a0000000000000000000000000000000000000000000000000000000008152600401612678906141b1565b60405180910390fd5b80601190805190602001906126979291906139ac565b5050565b6126a3612875565b73ffffffffffffffffffffffffffffffffffffffff166126c1611aa1565b73ffffffffffffffffffffffffffffffffffffffff1614612717576040517f08c379a000000000000000000000000000000000000000000000000000000000815260040161270e906141b1565b60405180910390fd5b600073ffffffffffffffffffffffffffffffffffffffff168173ffffffffffffffffffffffffffffffffffffffff161415612787576040517f08c379a000000000000000000000000000000000000000000000000000000000815260040161277e90614de6565b60405180910390fd5b61279081612e2c565b50565b60007f80ac58cd000000000000000000000000000000000000000000000000000000007bffffffffffffffffffffffffffffffffffffffffffffffffffffffff1916827bffffffffffffffffffffffffffffffffffffffffffffffffffffffff1916148061285e57507f5b5e139f000000000000000000000000000000000000000000000000000000007bffffffffffffffffffffffffffffffffffffffffffffffffffffffff1916827bffffffffffffffffffffffffffffffffffffffffffffffffffffffff1916145b8061286e575061286d8261315f565b5b9050919050565b600033905090565b60008073ffffffffffffffffffffffffffffffffffffffff166002600084815260200190815260200160002060009054906101000a900473ffffffffffffffffffffffffffffffffffffffff1673ffffffffffffffffffffffffffffffffffffffff1614159050919050565b816004600083815260200190815260200160002060006101000a81548173ffffffffffffffffffffffffffffffffffffffff021916908373ffffffffffffffffffffffffffffffffffffffff160217905550808273ffffffffffffffffffffffffffffffffffffffff1661295c836116e7565b73ffffffffffffffffffffffffffffffffffffffff167f8c5be1e5ebec7d5bd14f71427d1e84f3dd0314c0f7b2291e5b200ac8c7c3b92560405160405180910390a45050565b60008214156129e6576040517f08c379a00000000000000000000000000000000000000000000000000000000081526004016129dd90614e78565b60405180910390fd5b60008190506000805b82811015612aeb5760008582604051602001612a0c929190614e98565b6040516020818303038152906040528051906020012060001c905060018582612a359190614ef0565b612a3f9190614912565b9050600e600082815260200190815260200160002060009054906101000a900460ff16612aba576001600e600083815260200190815260200160002060006101000a81548160ff02191690831515021790555080600d60008585612aa39190614f21565b815260200190815260200160002081905550612ad7565b8280612ac590614b2c565b9350508380612ad390614b2c565b9450505b508080612ae390614b2c565b9150506129ef565b5050505050565b6000612afd8261287d565b612b3c576040517f08c379a0000000000000000000000000000000000000000000000000000000008152600401612b3390614fc7565b60405180910390fd5b6000612b47836116e7565b90508073ffffffffffffffffffffffffffffffffffffffff168473ffffffffffffffffffffffffffffffffffffffff161480612bb657508373ffffffffffffffffffffffffffffffffffffffff16612b9e84610d03565b73ffffffffffffffffffffffffffffffffffffffff16145b80612bc75750612bc68185612571565b5b91505092915050565b8273ffffffffffffffffffffffffffffffffffffffff16612bf0826116e7565b73ffffffffffffffffffffffffffffffffffffffff1614612c46576040517f08c379a0000000000000000000000000000000000000000000000000000000008152600401612c3d90615059565b60405180910390fd5b600073ffffffffffffffffffffffffffffffffffffffff168273ffffffffffffffffffffffffffffffffffffffff161415612cb6576040517f08c379a0000000000000000000000000000000000000000000000000000000008152600401612cad906150eb565b60405180910390fd5b612cc18383836131c9565b612ccc6000826128e9565b6001600360008573ffffffffffffffffffffffffffffffffffffffff1673ffffffffffffffffffffffffffffffffffffffff1681526020019081526020016000206000828254612d1c9190614f21565b925050819055506001600360008473ffffffffffffffffffffffffffffffffffffffff1673ffffffffffffffffffffffffffffffffffffffff1681526020019081526020016000206000828254612d739190614912565b92505081905550816002600083815260200190815260200160002060006101000a81548173ffffffffffffffffffffffffffffffffffffffff021916908373ffffffffffffffffffffffffffffffffffffffff160217905550808273ffffffffffffffffffffffffffffffffffffffff168473ffffffffffffffffffffffffffffffffffffffff167fddf252ad1be2c89b69c2b068fc378daa952ba7f163c4a11628f55a4df523b3ef60405160405180910390a4505050565b6000600a60009054906101000a900473ffffffffffffffffffffffffffffffffffffffff16905081600a60006101000a81548173ffffffffffffffffffffffffffffffffffffffff021916908373ffffffffffffffffffffffffffffffffffffffff1602179055508173ffffffffffffffffffffffffffffffffffffffff168173ffffffffffffffffffffffffffffffffffffffff167f8be0079c531659141344cd1fd0a4f28419497f9722a3daafe3b4186f6b6457e060405160405180910390a35050565b612f0c8282604051806020016040528060008152506132dd565b5050565b612f1b848484612bd0565b612f2784848484613338565b612f66576040517f08c379a0000000000000000000000000000000000000000000000000000000008152600401612f5d9061517d565b60405180910390fd5b50505050565b6060600f8054612f7b90614200565b80601f0160208091040260200160405190810160405280929190818152602001828054612fa790614200565b8015612ff45780601f10612fc957610100808354040283529160200191612ff4565b820191906000526020600020905b815481529060010190602001808311612fd757829003601f168201915b5050505050905090565b60606000821415613046576040518060400160405280600181526020017f3000000000000000000000000000000000000000000000000000000000000000815250905061315a565b600082905060005b6000821461307857808061306190614b2c565b915050600a82613071919061519d565b915061304e565b60008167ffffffffffffffff81111561309457613093613e11565b5b6040519080825280601f01601f1916602001820160405280156130c65781602001600182028036833780820191505090505b5090505b60008514613153576001826130df9190614f21565b9150600a856130ee9190614ef0565b60306130fa9190614912565b60f81b8183815181106131105761310f614692565b5b60200101907effffffffffffffffffffffffffffffffffffffffffffffffffffffffffffff1916908160001a905350600a8561314c919061519d565b94506130ca565b8093505050505b919050565b60007f01ffc9a7000000000000000000000000000000000000000000000000000000007bffffffffffffffffffffffffffffffffffffffffffffffffffffffff1916827bffffffffffffffffffffffffffffffffffffffffffffffffffffffff1916149050919050565b6131d48383836134c0565b600073ffffffffffffffffffffffffffffffffffffffff168373ffffffffffffffffffffffffffffffffffffffff16141561321757613212816134c5565b613256565b8173ffffffffffffffffffffffffffffffffffffffff168373ffffffffffffffffffffffffffffffffffffffff161461325557613254838261350e565b5b5b600073ffffffffffffffffffffffffffffffffffffffff168273ffffffffffffffffffffffffffffffffffffffff161415613299576132948161367b565b6132d8565b8273ffffffffffffffffffffffffffffffffffffffff168273ffffffffffffffffffffffffffffffffffffffff16146132d7576132d6828261374c565b5b5b505050565b6132e783836137cb565b6132f46000848484613338565b613333576040517f08c379a000000000000000000000000000000000000000000000000000000000815260040161332a9061517d565b60405180910390fd5b505050565b60006133598473ffffffffffffffffffffffffffffffffffffffff16613999565b156134b3578373ffffffffffffffffffffffffffffffffffffffff1663150b7a02613382612875565b8786866040518563ffffffff1660e01b81526004016133a49493929190615223565b6020604051808303816000875af19250505080156133e057506040513d601f19601f820116820180604052508101906133dd9190615284565b60015b613463573d8060008114613410576040519150601f19603f3d011682016040523d82523d6000602084013e613415565b606091505b5060008151141561345b576040517f08c379a00000000000000000000000000000000000000000000000000000000081526004016134529061517d565b60405180910390fd5b805181602001fd5b63150b7a0260e01b7bffffffffffffffffffffffffffffffffffffffffffffffffffffffff1916817bffffffffffffffffffffffffffffffffffffffffffffffffffffffff1916149150506134b8565b600190505b949350505050565b505050565b6008805490506009600083815260200190815260200160002081905550600881908060018154018082558091505060019003906000526020600020016000909190919091505550565b6000600161351b8461184d565b6135259190614f21565b905060006007600084815260200190815260200160002054905081811461360a576000600660008673ffffffffffffffffffffffffffffffffffffffff1673ffffffffffffffffffffffffffffffffffffffff168152602001908152602001600020600084815260200190815260200160002054905080600660008773ffffffffffffffffffffffffffffffffffffffff1673ffffffffffffffffffffffffffffffffffffffff168152602001908152602001600020600084815260200190815260200160002081905550816007600083815260200190815260200160002081905550505b6007600084815260200190815260200160002060009055600660008573ffffffffffffffffffffffffffffffffffffffff1673ffffffffffffffffffffffffffffffffffffffff16815260200190815260200160002060008381526020019081526020016000206000905550505050565b6000600160088054905061368f9190614f21565b90506000600960008481526020019081526020016000205490506000600883815481106136bf576136be614692565b5b9060005260206000200154905080600883815481106136e1576136e0614692565b5b9060005260206000200181905550816009600083815260200190815260200160002081905550600960008581526020019081526020016000206000905560088054806137305761372f6152b1565b5b6001900381819060005260206000200160009055905550505050565b60006137578361184d565b905081600660008573ffffffffffffffffffffffffffffffffffffffff1673ffffffffffffffffffffffffffffffffffffffff168152602001908152602001600020600083815260200190815260200160002081905550806007600084815260200190815260200160002081905550505050565b600073ffffffffffffffffffffffffffffffffffffffff168273ffffffffffffffffffffffffffffffffffffffff16141561383b576040517f08c379a00000000000000000000000000000000000000000000000000000000081526004016138329061532c565b60405180910390fd5b6138448161287d565b15613884576040517f08c379a000000000000000000000000000000000000000000000000000000000815260040161387b90615398565b60405180910390fd5b613890600083836131c9565b6001600360008473ffffffffffffffffffffffffffffffffffffffff1673ffffffffffffffffffffffffffffffffffffffff16815260200190815260200160002060008282546138e09190614912565b92505081905550816002600083815260200190815260200160002060006101000a81548173ffffffffffffffffffffffffffffffffffffffff021916908373ffffffffffffffffffffffffffffffffffffffff160217905550808273ffffffffffffffffffffffffffffffffffffffff16600073ffffffffffffffffffffffffffffffffffffffff167fddf252ad1be2c89b69c2b068fc378daa952ba7f163c4a11628f55a4df523b3ef60405160405180910390a45050565b600080823b905060008111915050919050565b8280546139b890614200565b90600052602060002090601f0160209004810192826139da5760008555613a21565b82601f106139f357805160ff1916838001178555613a21565b82800160010185558215613a21579182015b82811115613a20578251825591602001919060010190613a05565b5b509050613a2e9190613a32565b5090565b5b80821115613a4b576000816000905550600101613a33565b5090565b6000604051905090565b600080fd5b600080fd5b60007fffffffff0000000000000000000000000000000000000000000000000000000082169050919050565b613a9881613a63565b8114613aa357600080fd5b50565b600081359050613ab581613a8f565b92915050565b600060208284031215613ad157613ad0613a59565b5b6000613adf84828501613aa6565b91505092915050565b60008115159050919050565b613afd81613ae8565b82525050565b6000602082019050613b186000830184613af4565b92915050565b613b2781613ae8565b8114613b3257600080fd5b50565b600081359050613b4481613b1e565b92915050565b600060208284031215613b6057613b5f613a59565b5b6000613b6e84828501613b35565b91505092915050565b600081519050919050565b600082825260208201905092915050565b60005b83811015613bb1578082015181840152602081019050613b96565b83811115613bc0576000848401525b50505050565b6000601f19601f8301169050919050565b6000613be282613b77565b613bec8185613b82565b9350613bfc818560208601613b93565b613c0581613bc6565b840191505092915050565b60006020820190508181036000830152613c2a8184613bd7565b905092915050565b6000819050919050565b613c4581613c32565b8114613c5057600080fd5b50565b600081359050613c6281613c3c565b92915050565b600060208284031215613c7e57613c7d613a59565b5b6000613c8c84828501613c53565b91505092915050565b600073ffffffffffffffffffffffffffffffffffffffff82169050919050565b6000613cc082613c95565b9050919050565b613cd081613cb5565b82525050565b6000602082019050613ceb6000830184613cc7565b92915050565b613cfa81613cb5565b8114613d0557600080fd5b50565b600081359050613d1781613cf1565b92915050565b60008060408385031215613d3457613d33613a59565b5b6000613d4285828601613d08565b9250506020613d5385828601613c53565b9150509250929050565b613d6681613c32565b82525050565b6000602082019050613d816000830184613d5d565b92915050565b600060208284031215613d9d57613d9c613a59565b5b6000613dab84828501613d08565b91505092915050565b600080600060608486031215613dcd57613dcc613a59565b5b6000613ddb86828701613d08565b9350506020613dec86828701613d08565b9250506040613dfd86828701613c53565b9150509250925092565b600080fd5b600080fd5b7f4e487b7100000000000000000000000000000000000000000000000000000000600052604160045260246000fd5b613e4982613bc6565b810181811067ffffffffffffffff82111715613e6857613e67613e11565b5b80604052505050565b6000613e7b613a4f565b9050613e878282613e40565b919050565b600067ffffffffffffffff821115613ea757613ea6613e11565b5b613eb082613bc6565b9050602081019050919050565b82818337600083830152505050565b6000613edf613eda84613e8c565b613e71565b905082815260208101848484011115613efb57613efa613e0c565b5b613f06848285613ebd565b509392505050565b600082601f830112613f2357613f22613e07565b5b8135613f33848260208601613ecc565b91505092915050565b600060208284031215613f5257613f51613a59565b5b600082013567ffffffffffffffff811115613f7057613f6f613a5e565b5b613f7c84828501613f0e565b91505092915050565b60008060408385031215613f9c57613f9b613a59565b5b6000613faa85828601613d08565b9250506020613fbb85828601613b35565b9150509250929050565b6000613fd082613c95565b9050919050565b613fe081613fc5565b82525050565b6000602082019050613ffb6000830184613fd7565b92915050565b600067ffffffffffffffff82111561401c5761401b613e11565b5b61402582613bc6565b9050602081019050919050565b600061404561404084614001565b613e71565b90508281526020810184848401111561406157614060613e0c565b5b61406c848285613ebd565b509392505050565b600082601f83011261408957614088613e07565b5b8135614099848260208601614032565b91505092915050565b600080600080608085870312156140bc576140bb613a59565b5b60006140ca87828801613d08565b94505060206140db87828801613d08565b93505060406140ec87828801613c53565b925050606085013567ffffffffffffffff81111561410d5761410c613a5e565b5b61411987828801614074565b91505092959194509250565b6000806040838503121561413c5761413b613a59565b5b600061414a85828601613d08565b925050602061415b85828601613d08565b9150509250929050565b7f4f776e61626c653a2063616c6c6572206973206e6f7420746865206f776e6572600082015250565b600061419b602083613b82565b91506141a682614165565b602082019050919050565b600060208201905081810360008301526141ca8161418e565b9050919050565b7f4e487b7100000000000000000000000000000000000000000000000000000000600052602260045260246000fd5b6000600282049050600182168061421857607f821691505b6020821081141561422c5761422b6141d1565b5b50919050565b7f4552433732313a20617070726f76656420717565727920666f72206e6f6e657860008201527f697374656e7420746f6b656e0000000000000000000000000000000000000000602082015250565b600061428e602c83613b82565b915061429982614232565b604082019050919050565b600060208201905081810360008301526142bd81614281565b9050919050565b7f4552433732313a20617070726f76616c20746f2063757272656e74206f776e6560008201527f7200000000000000000000000000000000000000000000000000000000000000602082015250565b6000614320602183613b82565b915061432b826142c4565b604082019050919050565b6000602082019050818103600083015261434f81614313565b9050919050565b7f4552433732313a20617070726f76652063616c6c6572206973206e6f74206f7760008201527f6e6572206e6f7220617070726f76656420666f7220616c6c0000000000000000602082015250565b60006143b2603883613b82565b91506143bd82614356565b604082019050919050565b600060208201905081810360008301526143e1816143a5565b9050919050565b6000815190506143f781613c3c565b92915050565b60006020828403121561441357614412613a59565b5b6000614421848285016143e8565b91505092915050565b7f4552433732313a207472616e736665722063616c6c6572206973206e6f74206f60008201527f776e6572206e6f7220617070726f766564000000000000000000000000000000602082015250565b6000614486603183613b82565b91506144918261442a565b604082019050919050565b600060208201905081810360008301526144b581614479565b9050919050565b600081905092915050565b50565b60006144d76000836144bc565b91506144e2826144c7565b600082019050919050565b60006144f8826144ca565b9150819050919050565b7f4661696c656420746f2073656e64206574680000000000000000000000000000600082015250565b6000614538601283613b82565b915061454382614502565b602082019050919050565b600060208201905081810360008301526145678161452b565b9050919050565b7f455243373231456e756d657261626c653a206f776e657220696e646578206f7560008201527f74206f6620626f756e6473000000000000000000000000000000000000000000602082015250565b60006145ca602b83613b82565b91506145d58261456e565b604082019050919050565b600060208201905081810360008301526145f9816145bd565b9050919050565b7f455243373231456e756d657261626c653a20676c6f62616c20696e646578206f60008201527f7574206f6620626f756e64730000000000000000000000000000000000000000602082015250565b600061465c602c83613b82565b915061466782614600565b604082019050919050565b6000602082019050818103600083015261468b8161464f565b9050919050565b7f4e487b7100000000000000000000000000000000000000000000000000000000600052603260045260246000fd5b7f4552433732313a206f776e657220717565727920666f72206e6f6e657869737460008201527f656e7420746f6b656e0000000000000000000000000000000000000000000000602082015250565b600061471d602983613b82565b9150614728826146c1565b604082019050919050565b6000602082019050818103600083015261474c81614710565b9050919050565b7f4552433732313a2062616c616e636520717565727920666f7220746865207a6560008201527f726f206164647265737300000000000000000000000000000000000000000000602082015250565b60006147af602a83613b82565b91506147ba82614753565b604082019050919050565b600060208201905081810360008301526147de816147a2565b9050919050565b7f54686520636f6e74726163742069732070617573656400000000000000000000600082015250565b600061481b601683613b82565b9150614826826147e5565b602082019050919050565b6000602082019050818103600083015261484a8161480e565b9050919050565b7f596f752063616e6e6f74206d696e74206c657373207468656e2031204e46542760008201527f7300000000000000000000000000000000000000000000000000000000000000602082015250565b60006148ad602183613b82565b91506148b882614851565b604082019050919050565b600060208201905081810360008301526148dc816148a0565b9050919050565b7f4e487b7100000000000000000000000000000000000000000000000000000000600052601160045260246000fd5b600061491d82613c32565b915061492883613c32565b9250827fffffffffffffffffffffffffffffffffffffffffffffffffffffffffffffffff0382111561495d5761495c6148e3565b5b828201905092915050565b7f416c6c204e465427732068617665206265656e206d696e746564000000000000600082015250565b600061499e601a83613b82565b91506149a982614968565b602082019050919050565b600060208201905081810360008301526149cd81614991565b9050919050565b7f596f752063616e6e6f74206d696e742074686174206d616e79204e465427732060008201527f696e206f6e65206d696e74000000000000000000000000000000000000000000602082015250565b6000614a30602b83613b82565b9150614a3b826149d4565b604082019050919050565b60006020820190508181036000830152614a5f81614a23565b9050919050565b6000614a7182613c32565b9150614a7c83613c32565b9250817fffffffffffffffffffffffffffffffffffffffffffffffffffffffffffffffff0483118215151615614ab557614ab46148e3565b5b828202905092915050565b7f696e73756666696369656e742066756e64730000000000000000000000000000600082015250565b6000614af6601283613b82565b9150614b0182614ac0565b602082019050919050565b60006020820190508181036000830152614b2581614ae9565b9050919050565b6000614b3782613c32565b91507fffffffffffffffffffffffffffffffffffffffffffffffffffffffffffffffff821415614b6a57614b696148e3565b5b600182019050919050565b7f4552433732313a20617070726f766520746f2063616c6c657200000000000000600082015250565b6000614bab601983613b82565b9150614bb682614b75565b602082019050919050565b60006020820190508181036000830152614bda81614b9e565b9050919050565b7f4552433732314d657461646174613a2055524920717565727920666f72206e6f60008201527f6e6578697374656e7420746f6b656e0000000000000000000000000000000000602082015250565b6000614c3d602f83613b82565b9150614c4882614be1565b604082019050919050565b60006020820190508181036000830152614c6c81614c30565b9050919050565b600081905092915050565b6000614c8982613b77565b614c938185614c73565b9350614ca3818560208601613b93565b80840191505092915050565b60008190508160005260206000209050919050565b60008154614cd181614200565b614cdb8186614c73565b94506001821660008114614cf65760018114614d0757614d3a565b60ff19831686528186019350614d3a565b614d1085614caf565b60005b83811015614d3257815481890152600182019150602081019050614d13565b838801955050505b50505092915050565b6000614d4f8286614c7e565b9150614d5b8285614c7e565b9150614d678284614cc4565b9150819050949350505050565b7f4f776e61626c653a206e6577206f776e657220697320746865207a65726f206160008201527f6464726573730000000000000000000000000000000000000000000000000000602082015250565b6000614dd0602683613b82565b9150614ddb82614d74565b604082019050919050565b60006020820190508181036000830152614dff81614dc3565b9050919050565b7f52616e646f6d526573756c74206861736e74206172726976656420796574206f60008201527f7220697320302e00000000000000000000000000000000000000000000000000602082015250565b6000614e62602783613b82565b9150614e6d82614e06565b604082019050919050565b60006020820190508181036000830152614e9181614e55565b9050919050565b6000604082019050614ead6000830185613d5d565b614eba6020830184613d5d565b9392505050565b7f4e487b7100000000000000000000000000000000000000000000000000000000600052601260045260246000fd5b6000614efb82613c32565b9150614f0683613c32565b925082614f1657614f15614ec1565b5b828206905092915050565b6000614f2c82613c32565b9150614f3783613c32565b925082821015614f4a57614f496148e3565b5b828203905092915050565b7f4552433732313a206f70657261746f7220717565727920666f72206e6f6e657860008201527f697374656e7420746f6b656e0000000000000000000000000000000000000000602082015250565b6000614fb1602c83613b82565b9150614fbc82614f55565b604082019050919050565b60006020820190508181036000830152614fe081614fa4565b9050919050565b7f4552433732313a207472616e73666572206f6620746f6b656e2074686174206960008201527f73206e6f74206f776e0000000000000000000000000000000000000000000000602082015250565b6000615043602983613b82565b915061504e82614fe7565b604082019050919050565b6000602082019050818103600083015261507281615036565b9050919050565b7f4552433732313a207472616e7366657220746f20746865207a65726f2061646460008201527f7265737300000000000000000000000000000000000000000000000000000000602082015250565b60006150d5602483613b82565b91506150e082615079565b604082019050919050565b60006020820190508181036000830152615104816150c8565b9050919050565b7f4552433732313a207472616e7366657220746f206e6f6e20455243373231526560008201527f63656976657220696d706c656d656e7465720000000000000000000000000000602082015250565b6000615167603283613b82565b91506151728261510b565b604082019050919050565b600060208201905081810360008301526151968161515a565b9050919050565b60006151a882613c32565b91506151b383613c32565b9250826151c3576151c2614ec1565b5b828204905092915050565b600081519050919050565b600082825260208201905092915050565b60006151f5826151ce565b6151ff81856151d9565b935061520f818560208601613b93565b61521881613bc6565b840191505092915050565b60006080820190506152386000830187613cc7565b6152456020830186613cc7565b6152526040830185613d5d565b818103606083015261526481846151ea565b905095945050505050565b60008151905061527e81613a8f565b92915050565b60006020828403121561529a57615299613a59565b5b60006152a88482850161526f565b91505092915050565b7f4e487b7100000000000000000000000000000000000000000000000000000000600052603160045260246000fd5b7f4552433732313a206d696e7420746f20746865207a65726f2061646472657373600082015250565b6000615316602083613b82565b9150615321826152e0565b602082019050919050565b6000602082019050818103600083015261534581615309565b9050919050565b7f4552433732313a20746f6b656e20616c7265616479206d696e74656400000000600082015250565b6000615382601c83613b82565b915061538d8261534c565b602082019050919050565b600060208201905081810360008301526153b181615375565b905091905056fea2646970667358221220674236a6f8c55b12cc26bb600ac827478cc4ca3aab3b1e5bceee37ec21b3385064736f6c634300080a003368747470733a2f2f676174657761792e70696e6174612e636c6f75642f697066732f516d567a7544536b314a7a65574269713578426e36514c646b7547527361647734356132376271414c4b4b796e552f68747470733a2f2f676174657761792e70696e6174612e636c6f75642f697066732f516d615577336b35473536616a5443434d373341756e72534263574e5958757a4356626a50746678657132674e50a264697066735822122055004a1ad110a7b7ae2357fb7caa01d9a8767c2eee5b5f3bff0298bf3d6bb33264736f6c634300080a0033",
			"opcodes": "PUSH1 0x80 PUSH1 0x40 MSTORE CALLVALUE DUP1 ISZERO PUSH2 0x10 JUMPI PUSH1 0x0 DUP1 REVERT JUMPDEST POP PUSH2 0x6AB2 DUP1 PUSH2 0x20 PUSH1 0x0 CODECOPY PUSH1 0x0 RETURN INVALID PUSH1 0x80 PUSH1 0x40 MSTORE PUSH1 0x4 CALLDATASIZE LT PUSH3 0x50 JUMPI PUSH1 0x0 CALLDATALOAD PUSH1 0xE0 SHR DUP1 PUSH4 0x11E6492 EQ PUSH3 0x55 JUMPI DUP1 PUSH4 0x12D487EA EQ PUSH3 0x6F JUMPI DUP1 PUSH4 0x36C00656 EQ PUSH3 0x9F JUMPI DUP1 PUSH4 0x7FEA0D4B EQ PUSH3 0xB9 JUMPI DUP1 PUSH4 0x9074416D EQ PUSH3 0xD3 JUMPI JUMPDEST PUSH1 0x0 DUP1 REVERT JUMPDEST CALLVALUE DUP1 ISZERO PUSH3 0x62 JUMPI PUSH1 0x0 DUP1 REVERT JUMPDEST POP PUSH3 0x6D PUSH3 0xDF JUMP JUMPDEST STOP JUMPDEST CALLVALUE DUP1 ISZERO PUSH3 0x7C JUMPI PUSH1 0x0 DUP1 REVERT JUMPDEST POP PUSH3 0x87 PUSH3 0x36F JUMP JUMPDEST PUSH1 0x40 MLOAD PUSH3 0x96 SWAP2 SWAP1 PUSH3 0x629 JUMP JUMPDEST PUSH1 0x40 MLOAD DUP1 SWAP2 SUB SWAP1 RETURN JUMPDEST CALLVALUE DUP1 ISZERO PUSH3 0xAC JUMPI PUSH1 0x0 DUP1 REVERT JUMPDEST POP PUSH3 0xB7 PUSH3 0x378 JUMP JUMPDEST STOP JUMPDEST CALLVALUE DUP1 ISZERO PUSH3 0xC6 JUMPI PUSH1 0x0 DUP1 REVERT JUMPDEST POP PUSH3 0xD1 PUSH3 0x3FB JUMP JUMPDEST STOP JUMPDEST PUSH3 0xDD PUSH3 0x47E JUMP JUMPDEST STOP JUMPDEST PUSH20 0x0 PUSH4 0x39DF137F PUSH1 0x2 DUP1 EQ PUSH1 0x40 MLOAD DUP3 PUSH4 0xFFFFFFFF AND PUSH1 0xE0 SHL DUP2 MSTORE PUSH1 0x4 ADD PUSH3 0x11B SWAP2 SWAP1 PUSH3 0x6B8 JUMP JUMPDEST PUSH1 0x20 PUSH1 0x40 MLOAD DUP1 DUP4 SUB DUP2 DUP7 GAS DELEGATECALL ISZERO DUP1 ISZERO PUSH3 0x139 JUMPI RETURNDATASIZE PUSH1 0x0 DUP1 RETURNDATACOPY RETURNDATASIZE PUSH1 0x0 REVERT JUMPDEST POP POP POP POP PUSH1 0x40 MLOAD RETURNDATASIZE PUSH1 0x1F NOT PUSH1 0x1F DUP3 ADD AND DUP3 ADD DUP1 PUSH1 0x40 MSTORE POP DUP2 ADD SWAP1 PUSH3 0x15F SWAP2 SWAP1 PUSH3 0x720 JUMP JUMPDEST POP PUSH20 0x0 PUSH4 0xA079F1A3 PUSH1 0x2 PUSH1 0x1 PUSH1 0x40 MLOAD DUP4 PUSH4 0xFFFFFFFF AND PUSH1 0xE0 SHL DUP2 MSTORE PUSH1 0x4 ADD PUSH3 0x19D SWAP3 SWAP2 SWAP1 PUSH3 0x7BD JUMP JUMPDEST PUSH1 0x20 PUSH1 0x40 MLOAD DUP1 DUP4 SUB DUP2 DUP7 GAS DELEGATECALL ISZERO DUP1 ISZERO PUSH3 0x1BB JUMPI RETURNDATASIZE PUSH1 0x0 DUP1 RETURNDATACOPY RETURNDATASIZE PUSH1 0x0 REVERT JUMPDEST POP POP POP POP PUSH1 0x40 MLOAD RETURNDATASIZE PUSH1 0x1F NOT PUSH1 0x1F DUP3 ADD AND DUP3 ADD DUP1 PUSH1 0x40 MSTORE POP DUP2 ADD SWAP1 PUSH3 0x1E1 SWAP2 SWAP1 PUSH3 0x720 JUMP JUMPDEST POP PUSH20 0x0 PUSH4 0xAEA88952 PUSH1 0x2 PUSH1 0x3 PUSH1 0x40 MLOAD DUP4 PUSH4 0xFFFFFFFF AND PUSH1 0xE0 SHL DUP2 MSTORE PUSH1 0x4 ADD PUSH3 0x21F SWAP3 SWAP2 SWAP1 PUSH3 0x84F JUMP JUMPDEST PUSH1 0x20 PUSH1 0x40 MLOAD DUP1 DUP4 SUB DUP2 DUP7 GAS DELEGATECALL ISZERO DUP1 ISZERO PUSH3 0x23D JUMPI RETURNDATASIZE PUSH1 0x0 DUP1 RETURNDATACOPY RETURNDATASIZE PUSH1 0x0 REVERT JUMPDEST POP POP POP POP PUSH1 0x40 MLOAD RETURNDATASIZE PUSH1 0x1F NOT PUSH1 0x1F DUP3 ADD AND DUP3 ADD DUP1 PUSH1 0x40 MSTORE POP DUP2 ADD SWAP1 PUSH3 0x263 SWAP2 SWAP1 PUSH3 0x720 JUMP JUMPDEST POP PUSH1 0x40 MLOAD PUSH3 0x272 SWAP1 PUSH3 0x5FE JUMP JUMPDEST PUSH3 0x27D SWAP1 PUSH3 0x96C JUMP JUMPDEST PUSH1 0x40 MLOAD DUP1 SWAP2 SUB SWAP1 PUSH1 0x0 CREATE DUP1 ISZERO DUP1 ISZERO PUSH3 0x29A JUMPI RETURNDATASIZE PUSH1 0x0 DUP1 RETURNDATACOPY RETURNDATASIZE PUSH1 0x0 REVERT JUMPDEST POP PUSH1 0x0 DUP1 PUSH2 0x100 EXP DUP2 SLOAD DUP2 PUSH20 0xFFFFFFFFFFFFFFFFFFFFFFFFFFFFFFFFFFFFFFFF MUL NOT AND SWAP1 DUP4 PUSH20 0xFFFFFFFFFFFFFFFFFFFFFFFFFFFFFFFFFFFFFFFF AND MUL OR SWAP1 SSTORE POP PUSH1 0x0 DUP1 SLOAD SWAP1 PUSH2 0x100 EXP SWAP1 DIV PUSH20 0xFFFFFFFFFFFFFFFFFFFFFFFFFFFFFFFFFFFFFFFF AND PUSH20 0xFFFFFFFFFFFFFFFFFFFFFFFFFFFFFFFFFFFFFFFF AND PUSH4 0xDBDFF2C1 PUSH1 0x40 MLOAD DUP2 PUSH4 0xFFFFFFFF AND PUSH1 0xE0 SHL DUP2 MSTORE PUSH1 0x4 ADD PUSH1 0x20 PUSH1 0x40 MLOAD DUP1 DUP4 SUB DUP2 DUP7 GAS STATICCALL ISZERO DUP1 ISZERO PUSH3 0x346 JUMPI RETURNDATASIZE PUSH1 0x0 DUP1 RETURNDATACOPY RETURNDATASIZE PUSH1 0x0 REVERT JUMPDEST POP POP POP POP PUSH1 0x40 MLOAD RETURNDATASIZE PUSH1 0x1F NOT PUSH1 0x1F DUP3 ADD AND DUP3 ADD DUP1 PUSH1 0x40 MSTORE POP DUP2 ADD SWAP1 PUSH3 0x36C SWAP2 SWAP1 PUSH3 0x9FE JUMP JUMPDEST POP JUMP JUMPDEST PUSH1 0x0 PUSH1 0x1 SWAP1 POP SWAP1 JUMP JUMPDEST PUSH20 0x0 PUSH4 0x561015E2 PUSH1 0x1 DUP1 PUSH1 0x40 MLOAD DUP4 PUSH4 0xFFFFFFFF AND PUSH1 0xE0 SHL DUP2 MSTORE PUSH1 0x4 ADD PUSH3 0x3B4 SWAP3 SWAP2 SWAP1 PUSH3 0xA80 JUMP JUMPDEST PUSH1 0x20 PUSH1 0x40 MLOAD DUP1 DUP4 SUB DUP2 DUP7 GAS DELEGATECALL ISZERO DUP1 ISZERO PUSH3 0x3D2 JUMPI RETURNDATASIZE PUSH1 0x0 DUP1 RETURNDATACOPY RETURNDATASIZE PUSH1 0x0 REVERT JUMPDEST POP POP POP POP PUSH1 0x40 MLOAD RETURNDATASIZE PUSH1 0x1F NOT PUSH1 0x1F DUP3 ADD AND DUP3 ADD DUP1 PUSH1 0x40 MSTORE POP DUP2 ADD SWAP1 PUSH3 0x3F8 SWAP2 SWAP1 PUSH3 0x720 JUMP JUMPDEST POP JUMP JUMPDEST PUSH20 0x0 PUSH4 0xABCD7960 PUSH1 0x1 DUP1 PUSH1 0x40 MLOAD DUP4 PUSH4 0xFFFFFFFF AND PUSH1 0xE0 SHL DUP2 MSTORE PUSH1 0x4 ADD PUSH3 0x437 SWAP3 SWAP2 SWAP1 PUSH3 0xB12 JUMP JUMPDEST PUSH1 0x20 PUSH1 0x40 MLOAD DUP1 DUP4 SUB DUP2 DUP7 GAS DELEGATECALL ISZERO DUP1 ISZERO PUSH3 0x455 JUMPI RETURNDATASIZE PUSH1 0x0 DUP1 RETURNDATACOPY RETURNDATASIZE PUSH1 0x0 REVERT JUMPDEST POP POP POP POP PUSH1 0x40 MLOAD RETURNDATASIZE PUSH1 0x1F NOT PUSH1 0x1F DUP3 ADD AND DUP3 ADD DUP1 PUSH1 0x40 MSTORE POP DUP2 ADD SWAP1 PUSH3 0x47B SWAP2 SWAP1 PUSH3 0x720 JUMP JUMPDEST POP JUMP JUMPDEST PUSH20 0x0 PUSH4 0xBFBA5DD6 CALLER PUSH20 0x0 PUSH4 0xCE88B145 PUSH1 0x1 PUSH1 0x40 MLOAD DUP3 PUSH4 0xFFFFFFFF AND PUSH1 0xE0 SHL DUP2 MSTORE PUSH1 0x4 ADD PUSH3 0x4D3 SWAP2 SWAP1 PUSH3 0xBA1 JUMP JUMPDEST PUSH1 0x20 PUSH1 0x40 MLOAD DUP1 DUP4 SUB DUP2 DUP7 GAS DELEGATECALL ISZERO DUP1 ISZERO PUSH3 0x4F1 JUMPI RETURNDATASIZE PUSH1 0x0 DUP1 RETURNDATACOPY RETURNDATASIZE PUSH1 0x0 REVERT JUMPDEST POP POP POP POP PUSH1 0x40 MLOAD RETURNDATASIZE PUSH1 0x1F NOT PUSH1 0x1F DUP3 ADD AND DUP3 ADD DUP1 PUSH1 0x40 MSTORE POP DUP2 ADD SWAP1 PUSH3 0x517 SWAP2 SWAP1 PUSH3 0xC23 JUMP JUMPDEST PUSH1 0x40 MLOAD DUP4 PUSH4 0xFFFFFFFF AND PUSH1 0xE0 SHL DUP2 MSTORE PUSH1 0x4 ADD PUSH3 0x536 SWAP3 SWAP2 SWAP1 PUSH3 0xCB6 JUMP JUMPDEST PUSH1 0x20 PUSH1 0x40 MLOAD DUP1 DUP4 SUB DUP2 DUP7 GAS DELEGATECALL ISZERO DUP1 ISZERO PUSH3 0x554 JUMPI RETURNDATASIZE PUSH1 0x0 DUP1 RETURNDATACOPY RETURNDATASIZE PUSH1 0x0 REVERT JUMPDEST POP POP POP POP PUSH1 0x40 MLOAD RETURNDATASIZE PUSH1 0x1F NOT PUSH1 0x1F DUP3 ADD AND DUP3 ADD DUP1 PUSH1 0x40 MSTORE POP DUP2 ADD SWAP1 PUSH3 0x57A SWAP2 SWAP1 PUSH3 0x720 JUMP JUMPDEST POP PUSH20 0x0 PUSH4 0xABCD7960 CALLVALUE PUSH1 0x64 PUSH1 0x40 MLOAD DUP4 PUSH4 0xFFFFFFFF AND PUSH1 0xE0 SHL DUP2 MSTORE PUSH1 0x4 ADD PUSH3 0x5B7 SWAP3 SWAP2 SWAP1 PUSH3 0xD8B JUMP JUMPDEST PUSH1 0x20 PUSH1 0x40 MLOAD DUP1 DUP4 SUB DUP2 DUP7 GAS DELEGATECALL ISZERO DUP1 ISZERO PUSH3 0x5D5 JUMPI RETURNDATASIZE PUSH1 0x0 DUP1 RETURNDATACOPY RETURNDATASIZE PUSH1 0x0 REVERT JUMPDEST POP POP POP POP PUSH1 0x40 MLOAD RETURNDATASIZE PUSH1 0x1F NOT PUSH1 0x1F DUP3 ADD AND DUP3 ADD DUP1 PUSH1 0x40 MSTORE POP DUP2 ADD SWAP1 PUSH3 0x5FB SWAP2 SWAP1 PUSH3 0x720 JUMP JUMPDEST POP JUMP JUMPDEST PUSH2 0x5CAF DUP1 PUSH3 0xDCE DUP4 CODECOPY ADD SWAP1 JUMP JUMPDEST PUSH1 0x0 DUP2 ISZERO ISZERO SWAP1 POP SWAP2 SWAP1 POP JUMP JUMPDEST PUSH3 0x623 DUP2 PUSH3 0x60C JUMP JUMPDEST DUP3 MSTORE POP POP JUMP JUMPDEST PUSH1 0x0 PUSH1 0x20 DUP3 ADD SWAP1 POP PUSH3 0x640 PUSH1 0x0 DUP4 ADD DUP5 PUSH3 0x618 JUMP JUMPDEST SWAP3 SWAP2 POP POP JUMP JUMPDEST PUSH3 0x651 DUP2 PUSH3 0x60C JUMP JUMPDEST DUP3 MSTORE POP POP JUMP JUMPDEST PUSH1 0x0 DUP3 DUP3 MSTORE PUSH1 0x20 DUP3 ADD SWAP1 POP SWAP3 SWAP2 POP POP JUMP JUMPDEST PUSH32 0x73686F756C642062652074727565000000000000000000000000000000000000 PUSH1 0x0 DUP3 ADD MSTORE POP JUMP JUMPDEST PUSH1 0x0 PUSH3 0x6A0 PUSH1 0xE DUP4 PUSH3 0x657 JUMP JUMPDEST SWAP2 POP PUSH3 0x6AD DUP3 PUSH3 0x668 JUMP JUMPDEST PUSH1 0x20 DUP3 ADD SWAP1 POP SWAP2 SWAP1 POP JUMP JUMPDEST PUSH1 0x0 PUSH1 0x40 DUP3 ADD SWAP1 POP PUSH3 0x6CF PUSH1 0x0 DUP4 ADD DUP5 PUSH3 0x646 JUMP JUMPDEST DUP2 DUP2 SUB PUSH1 0x20 DUP4 ADD MSTORE PUSH3 0x6E2 DUP2 PUSH3 0x691 JUMP JUMPDEST SWAP1 POP SWAP3 SWAP2 POP POP JUMP JUMPDEST PUSH1 0x0 DUP1 REVERT JUMPDEST PUSH3 0x6FA DUP2 PUSH3 0x60C JUMP JUMPDEST DUP2 EQ PUSH3 0x706 JUMPI PUSH1 0x0 DUP1 REVERT JUMPDEST POP JUMP JUMPDEST PUSH1 0x0 DUP2 MLOAD SWAP1 POP PUSH3 0x71A DUP2 PUSH3 0x6EF JUMP JUMPDEST SWAP3 SWAP2 POP POP JUMP JUMPDEST PUSH1 0x0 PUSH1 0x20 DUP3 DUP5 SUB SLT ISZERO PUSH3 0x739 JUMPI PUSH3 0x738 PUSH3 0x6EA JUMP JUMPDEST JUMPDEST PUSH1 0x0 PUSH3 0x749 DUP5 DUP3 DUP6 ADD PUSH3 0x709 JUMP JUMPDEST SWAP2 POP POP SWAP3 SWAP2 POP POP JUMP JUMPDEST PUSH1 0x0 DUP2 SWAP1 POP SWAP2 SWAP1 POP JUMP JUMPDEST PUSH3 0x767 DUP2 PUSH3 0x752 JUMP JUMPDEST DUP3 MSTORE POP POP JUMP JUMPDEST PUSH32 0x322073686F756C642062652067726561746572207468616E20746F2031000000 PUSH1 0x0 DUP3 ADD MSTORE POP JUMP JUMPDEST PUSH1 0x0 PUSH3 0x7A5 PUSH1 0x1D DUP4 PUSH3 0x657 JUMP JUMPDEST SWAP2 POP PUSH3 0x7B2 DUP3 PUSH3 0x76D JUMP JUMPDEST PUSH1 0x20 DUP3 ADD SWAP1 POP SWAP2 SWAP1 POP JUMP JUMPDEST PUSH1 0x0 PUSH1 0x60 DUP3 ADD SWAP1 POP PUSH3 0x7D4 PUSH1 0x0 DUP4 ADD DUP6 PUSH3 0x75C JUMP JUMPDEST PUSH3 0x7E3 PUSH1 0x20 DUP4 ADD DUP5 PUSH3 0x75C JUMP JUMPDEST DUP2 DUP2 SUB PUSH1 0x40 DUP4 ADD MSTORE PUSH3 0x7F6 DUP2 PUSH3 0x796 JUMP JUMPDEST SWAP1 POP SWAP4 SWAP3 POP POP POP JUMP JUMPDEST PUSH32 0x322073686F756C64206265206C6573736572207468616E20746F203300000000 PUSH1 0x0 DUP3 ADD MSTORE POP JUMP JUMPDEST PUSH1 0x0 PUSH3 0x837 PUSH1 0x1C DUP4 PUSH3 0x657 JUMP JUMPDEST SWAP2 POP PUSH3 0x844 DUP3 PUSH3 0x7FF JUMP JUMPDEST PUSH1 0x20 DUP3 ADD SWAP1 POP SWAP2 SWAP1 POP JUMP JUMPDEST PUSH1 0x0 PUSH1 0x60 DUP3 ADD SWAP1 POP PUSH3 0x866 PUSH1 0x0 DUP4 ADD DUP6 PUSH3 0x75C JUMP JUMPDEST PUSH3 0x875 PUSH1 0x20 DUP4 ADD DUP5 PUSH3 0x75C JUMP JUMPDEST DUP2 DUP2 SUB PUSH1 0x40 DUP4 ADD MSTORE PUSH3 0x888 DUP2 PUSH3 0x828 JUMP JUMPDEST SWAP1 POP SWAP4 SWAP3 POP POP POP JUMP JUMPDEST PUSH1 0x0 DUP3 DUP3 MSTORE PUSH1 0x20 DUP3 ADD SWAP1 POP SWAP3 SWAP2 POP POP JUMP JUMPDEST PUSH32 0x47656D6573697300000000000000000000000000000000000000000000000000 PUSH1 0x0 DUP3 ADD MSTORE POP JUMP JUMPDEST PUSH1 0x0 PUSH3 0x8DA PUSH1 0x7 DUP4 PUSH3 0x891 JUMP JUMPDEST SWAP2 POP PUSH3 0x8E7 DUP3 PUSH3 0x8A2 JUMP JUMPDEST PUSH1 0x20 DUP3 ADD SWAP1 POP SWAP2 SWAP1 POP JUMP JUMPDEST PUSH32 0x67656D0000000000000000000000000000000000000000000000000000000000 PUSH1 0x0 DUP3 ADD MSTORE POP JUMP JUMPDEST PUSH1 0x0 PUSH3 0x92A PUSH1 0x3 DUP4 PUSH3 0x891 JUMP JUMPDEST SWAP2 POP PUSH3 0x937 DUP3 PUSH3 0x8F2 JUMP JUMPDEST PUSH1 0x20 DUP3 ADD SWAP1 POP SWAP2 SWAP1 POP JUMP JUMPDEST POP JUMP JUMPDEST PUSH1 0x0 PUSH3 0x954 PUSH1 0x0 DUP4 PUSH3 0x891 JUMP JUMPDEST SWAP2 POP PUSH3 0x961 DUP3 PUSH3 0x942 JUMP JUMPDEST PUSH1 0x0 DUP3 ADD SWAP1 POP SWAP2 SWAP1 POP JUMP JUMPDEST PUSH1 0x0 PUSH1 0x80 DUP3 ADD SWAP1 POP DUP2 DUP2 SUB PUSH1 0x0 DUP4 ADD MSTORE PUSH3 0x987 DUP2 PUSH3 0x8CB JUMP JUMPDEST SWAP1 POP DUP2 DUP2 SUB PUSH1 0x20 DUP4 ADD MSTORE PUSH3 0x99C DUP2 PUSH3 0x91B JUMP JUMPDEST SWAP1 POP DUP2 DUP2 SUB PUSH1 0x40 DUP4 ADD MSTORE PUSH3 0x9B1 DUP2 PUSH3 0x945 JUMP JUMPDEST SWAP1 POP DUP2 DUP2 SUB PUSH1 0x60 DUP4 ADD MSTORE PUSH3 0x9C6 DUP2 PUSH3 0x945 JUMP JUMPDEST SWAP1 POP SWAP2 SWAP1 POP JUMP JUMPDEST PUSH3 0x9D8 DUP2 PUSH3 0x752 JUMP JUMPDEST DUP2 EQ PUSH3 0x9E4 JUMPI PUSH1 0x0 DUP1 REVERT JUMPDEST POP JUMP JUMPDEST PUSH1 0x0 DUP2 MLOAD SWAP1 POP PUSH3 0x9F8 DUP2 PUSH3 0x9CD JUMP JUMPDEST SWAP3 SWAP2 POP POP JUMP JUMPDEST PUSH1 0x0 PUSH1 0x20 DUP3 DUP5 SUB SLT ISZERO PUSH3 0xA17 JUMPI PUSH3 0xA16 PUSH3 0x6EA JUMP JUMPDEST JUMPDEST PUSH1 0x0 PUSH3 0xA27 DUP5 DUP3 DUP6 ADD PUSH3 0x9E7 JUMP JUMPDEST SWAP2 POP POP SWAP3 SWAP2 POP POP JUMP JUMPDEST PUSH32 0x312073686F756C64206E6F7420626520657175616C20746F2031000000000000 PUSH1 0x0 DUP3 ADD MSTORE POP JUMP JUMPDEST PUSH1 0x0 PUSH3 0xA68 PUSH1 0x1A DUP4 PUSH3 0x657 JUMP JUMPDEST SWAP2 POP PUSH3 0xA75 DUP3 PUSH3 0xA30 JUMP JUMPDEST PUSH1 0x20 DUP3 ADD SWAP1 POP SWAP2 SWAP1 POP JUMP JUMPDEST PUSH1 0x0 PUSH1 0x60 DUP3 ADD SWAP1 POP PUSH3 0xA97 PUSH1 0x0 DUP4 ADD DUP6 PUSH3 0x75C JUMP JUMPDEST PUSH3 0xAA6 PUSH1 0x20 DUP4 ADD DUP5 PUSH3 0x75C JUMP JUMPDEST DUP2 DUP2 SUB PUSH1 0x40 DUP4 ADD MSTORE PUSH3 0xAB9 DUP2 PUSH3 0xA59 JUMP JUMPDEST SWAP1 POP SWAP4 SWAP3 POP POP POP JUMP JUMPDEST PUSH32 0x312073686F756C6420626520657175616C20746F203100000000000000000000 PUSH1 0x0 DUP3 ADD MSTORE POP JUMP JUMPDEST PUSH1 0x0 PUSH3 0xAFA PUSH1 0x16 DUP4 PUSH3 0x657 JUMP JUMPDEST SWAP2 POP PUSH3 0xB07 DUP3 PUSH3 0xAC2 JUMP JUMPDEST PUSH1 0x20 DUP3 ADD SWAP1 POP SWAP2 SWAP1 POP JUMP JUMPDEST PUSH1 0x0 PUSH1 0x60 DUP3 ADD SWAP1 POP PUSH3 0xB29 PUSH1 0x0 DUP4 ADD DUP6 PUSH3 0x75C JUMP JUMPDEST PUSH3 0xB38 PUSH1 0x20 DUP4 ADD DUP5 PUSH3 0x75C JUMP JUMPDEST DUP2 DUP2 SUB PUSH1 0x40 DUP4 ADD MSTORE PUSH3 0xB4B DUP2 PUSH3 0xAEB JUMP JUMPDEST SWAP1 POP SWAP4 SWAP3 POP POP POP JUMP JUMPDEST PUSH1 0x0 DUP2 SWAP1 POP SWAP2 SWAP1 POP JUMP JUMPDEST PUSH1 0x0 DUP2 SWAP1 POP SWAP2 SWAP1 POP JUMP JUMPDEST PUSH1 0x0 PUSH3 0xB89 PUSH3 0xB83 PUSH3 0xB7D DUP5 PUSH3 0xB54 JUMP JUMPDEST PUSH3 0xB5E JUMP JUMPDEST PUSH3 0x752 JUMP JUMPDEST SWAP1 POP SWAP2 SWAP1 POP JUMP JUMPDEST PUSH3 0xB9B DUP2 PUSH3 0xB68 JUMP JUMPDEST DUP3 MSTORE POP POP JUMP JUMPDEST PUSH1 0x0 PUSH1 0x20 DUP3 ADD SWAP1 POP PUSH3 0xBB8 PUSH1 0x0 DUP4 ADD DUP5 PUSH3 0xB90 JUMP JUMPDEST SWAP3 SWAP2 POP POP JUMP JUMPDEST PUSH1 0x0 PUSH20 0xFFFFFFFFFFFFFFFFFFFFFFFFFFFFFFFFFFFFFFFF DUP3 AND SWAP1 POP SWAP2 SWAP1 POP JUMP JUMPDEST PUSH1 0x0 PUSH3 0xBEB DUP3 PUSH3 0xBBE JUMP JUMPDEST SWAP1 POP SWAP2 SWAP1 POP JUMP JUMPDEST PUSH3 0xBFD DUP2 PUSH3 0xBDE JUMP JUMPDEST DUP2 EQ PUSH3 0xC09 JUMPI PUSH1 0x0 DUP1 REVERT JUMPDEST POP JUMP JUMPDEST PUSH1 0x0 DUP2 MLOAD SWAP1 POP PUSH3 0xC1D DUP2 PUSH3 0xBF2 JUMP JUMPDEST SWAP3 SWAP2 POP POP JUMP JUMPDEST PUSH1 0x0 PUSH1 0x20 DUP3 DUP5 SUB SLT ISZERO PUSH3 0xC3C JUMPI PUSH3 0xC3B PUSH3 0x6EA JUMP JUMPDEST JUMPDEST PUSH1 0x0 PUSH3 0xC4C DUP5 DUP3 DUP6 ADD PUSH3 0xC0C JUMP JUMPDEST SWAP2 POP POP SWAP3 SWAP2 POP POP JUMP JUMPDEST PUSH3 0xC60 DUP2 PUSH3 0xBDE JUMP JUMPDEST DUP3 MSTORE POP POP JUMP JUMPDEST PUSH32 0x496E76616C69642073656E646572000000000000000000000000000000000000 PUSH1 0x0 DUP3 ADD MSTORE POP JUMP JUMPDEST PUSH1 0x0 PUSH3 0xC9E PUSH1 0xE DUP4 PUSH3 0x657 JUMP JUMPDEST SWAP2 POP PUSH3 0xCAB DUP3 PUSH3 0xC66 JUMP JUMPDEST PUSH1 0x20 DUP3 ADD SWAP1 POP SWAP2 SWAP1 POP JUMP JUMPDEST PUSH1 0x0 PUSH1 0x60 DUP3 ADD SWAP1 POP PUSH3 0xCCD PUSH1 0x0 DUP4 ADD DUP6 PUSH3 0xC55 JUMP JUMPDEST PUSH3 0xCDC PUSH1 0x20 DUP4 ADD DUP5 PUSH3 0xC55 JUMP JUMPDEST DUP2 DUP2 SUB PUSH1 0x40 DUP4 ADD MSTORE PUSH3 0xCEF DUP2 PUSH3 0xC8F JUMP JUMPDEST SWAP1 POP SWAP4 SWAP3 POP POP POP JUMP JUMPDEST PUSH1 0x0 DUP2 SWAP1 POP SWAP2 SWAP1 POP JUMP JUMPDEST PUSH1 0x0 PUSH3 0xD23 PUSH3 0xD1D PUSH3 0xD17 DUP5 PUSH3 0xCF8 JUMP JUMPDEST PUSH3 0xB5E JUMP JUMPDEST PUSH3 0x752 JUMP JUMPDEST SWAP1 POP SWAP2 SWAP1 POP JUMP JUMPDEST PUSH3 0xD35 DUP2 PUSH3 0xD02 JUMP JUMPDEST DUP3 MSTORE POP POP JUMP JUMPDEST PUSH32 0x496E76616C69642076616C756500000000000000000000000000000000000000 PUSH1 0x0 DUP3 ADD MSTORE POP JUMP JUMPDEST PUSH1 0x0 PUSH3 0xD73 PUSH1 0xD DUP4 PUSH3 0x657 JUMP JUMPDEST SWAP2 POP PUSH3 0xD80 DUP3 PUSH3 0xD3B JUMP JUMPDEST PUSH1 0x20 DUP3 ADD SWAP1 POP SWAP2 SWAP1 POP JUMP JUMPDEST PUSH1 0x0 PUSH1 0x60 DUP3 ADD SWAP1 POP PUSH3 0xDA2 PUSH1 0x0 DUP4 ADD DUP6 PUSH3 0x75C JUMP JUMPDEST PUSH3 0xDB1 PUSH1 0x20 DUP4 ADD DUP5 PUSH3 0xD2A JUMP JUMPDEST DUP2 DUP2 SUB PUSH1 0x40 DUP4 ADD MSTORE PUSH3 0xDC4 DUP2 PUSH3 0xD64 JUMP JUMPDEST SWAP1 POP SWAP4 SWAP3 POP POP POP JUMP INVALID PUSH1 0x80 PUSH1 0x40 MSTORE PUSH1 0x40 MLOAD DUP1 PUSH1 0x40 ADD PUSH1 0x40 MSTORE DUP1 PUSH1 0x5 DUP2 MSTORE PUSH1 0x20 ADD PUSH32 0x2E6A736F6E000000000000000000000000000000000000000000000000000000 DUP2 MSTORE POP PUSH1 0x10 SWAP1 DUP1 MLOAD SWAP1 PUSH1 0x20 ADD SWAP1 PUSH3 0x51 SWAP3 SWAP2 SWAP1 PUSH3 0x3ED JUMP JUMPDEST POP PUSH2 0x25C5 PUSH1 0x12 SSTORE PUSH1 0x14 PUSH1 0x13 SSTORE PUSH6 0x9184E72A000 PUSH1 0x14 SSTORE PUSH1 0x0 PUSH1 0x15 PUSH1 0x0 PUSH2 0x100 EXP DUP2 SLOAD DUP2 PUSH1 0xFF MUL NOT AND SWAP1 DUP4 ISZERO ISZERO MUL OR SWAP1 SSTORE POP PUSH1 0x0 PUSH1 0x15 PUSH1 0x1 PUSH2 0x100 EXP DUP2 SLOAD DUP2 PUSH1 0xFF MUL NOT AND SWAP1 DUP4 ISZERO ISZERO MUL OR SWAP1 SSTORE POP PUSH1 0x1 PUSH1 0x15 PUSH1 0x2 PUSH2 0x100 EXP DUP2 SLOAD DUP2 PUSH1 0xFF MUL NOT AND SWAP1 DUP4 ISZERO ISZERO MUL OR SWAP1 SSTORE POP CALLVALUE DUP1 ISZERO PUSH3 0xC5 JUMPI PUSH1 0x0 DUP1 REVERT JUMPDEST POP PUSH1 0x40 MLOAD PUSH3 0x5CAF CODESIZE SUB DUP1 PUSH3 0x5CAF DUP4 CODECOPY DUP2 DUP2 ADD PUSH1 0x40 MSTORE DUP2 ADD SWAP1 PUSH3 0xEB SWAP2 SWAP1 PUSH3 0x63A JUMP JUMPDEST DUP4 DUP4 DUP2 PUSH1 0x0 SWAP1 DUP1 MLOAD SWAP1 PUSH1 0x20 ADD SWAP1 PUSH3 0x105 SWAP3 SWAP2 SWAP1 PUSH3 0x3ED JUMP JUMPDEST POP DUP1 PUSH1 0x1 SWAP1 DUP1 MLOAD SWAP1 PUSH1 0x20 ADD SWAP1 PUSH3 0x11E SWAP3 SWAP2 SWAP1 PUSH3 0x3ED JUMP JUMPDEST POP POP POP PUSH3 0x141 PUSH3 0x135 PUSH3 0x19F PUSH1 0x20 SHL PUSH1 0x20 SHR JUMP JUMPDEST PUSH3 0x1A7 PUSH1 0x20 SHL PUSH1 0x20 SHR JUMP JUMPDEST PUSH3 0x16B PUSH1 0x40 MLOAD DUP1 PUSH1 0x80 ADD PUSH1 0x40 MSTORE DUP1 PUSH1 0x51 DUP2 MSTORE PUSH1 0x20 ADD PUSH3 0x5C0E PUSH1 0x51 SWAP2 CODECOPY PUSH3 0x26D PUSH1 0x20 SHL PUSH1 0x20 SHR JUMP JUMPDEST PUSH3 0x195 PUSH1 0x40 MLOAD DUP1 PUSH1 0x80 ADD PUSH1 0x40 MSTORE DUP1 PUSH1 0x50 DUP2 MSTORE PUSH1 0x20 ADD PUSH3 0x5C5F PUSH1 0x50 SWAP2 CODECOPY PUSH3 0x318 PUSH1 0x20 SHL PUSH1 0x20 SHR JUMP JUMPDEST POP POP POP POP PUSH3 0x810 JUMP JUMPDEST PUSH1 0x0 CALLER SWAP1 POP SWAP1 JUMP JUMPDEST PUSH1 0x0 PUSH1 0xA PUSH1 0x0 SWAP1 SLOAD SWAP1 PUSH2 0x100 EXP SWAP1 DIV PUSH20 0xFFFFFFFFFFFFFFFFFFFFFFFFFFFFFFFFFFFFFFFF AND SWAP1 POP DUP2 PUSH1 0xA PUSH1 0x0 PUSH2 0x100 EXP DUP2 SLOAD DUP2 PUSH20 0xFFFFFFFFFFFFFFFFFFFFFFFFFFFFFFFFFFFFFFFF MUL NOT AND SWAP1 DUP4 PUSH20 0xFFFFFFFFFFFFFFFFFFFFFFFFFFFFFFFFFFFFFFFF AND MUL OR SWAP1 SSTORE POP DUP2 PUSH20 0xFFFFFFFFFFFFFFFFFFFFFFFFFFFFFFFFFFFFFFFF AND DUP2 PUSH20 0xFFFFFFFFFFFFFFFFFFFFFFFFFFFFFFFFFFFFFFFF AND PUSH32 0x8BE0079C531659141344CD1FD0A4F28419497F9722A3DAAFE3B4186F6B6457E0 PUSH1 0x40 MLOAD PUSH1 0x40 MLOAD DUP1 SWAP2 SUB SWAP1 LOG3 POP POP JUMP JUMPDEST PUSH3 0x27D PUSH3 0x19F PUSH1 0x20 SHL PUSH1 0x20 SHR JUMP JUMPDEST PUSH20 0xFFFFFFFFFFFFFFFFFFFFFFFFFFFFFFFFFFFFFFFF AND PUSH3 0x2A3 PUSH3 0x3C3 PUSH1 0x20 SHL PUSH1 0x20 SHR JUMP JUMPDEST PUSH20 0xFFFFFFFFFFFFFFFFFFFFFFFFFFFFFFFFFFFFFFFF AND EQ PUSH3 0x2FC JUMPI PUSH1 0x40 MLOAD PUSH32 0x8C379A000000000000000000000000000000000000000000000000000000000 DUP2 MSTORE PUSH1 0x4 ADD PUSH3 0x2F3 SWAP1 PUSH3 0x789 JUMP JUMPDEST PUSH1 0x40 MLOAD DUP1 SWAP2 SUB SWAP1 REVERT JUMPDEST DUP1 PUSH1 0xF SWAP1 DUP1 MLOAD SWAP1 PUSH1 0x20 ADD SWAP1 PUSH3 0x314 SWAP3 SWAP2 SWAP1 PUSH3 0x3ED JUMP JUMPDEST POP POP JUMP JUMPDEST PUSH3 0x328 PUSH3 0x19F PUSH1 0x20 SHL PUSH1 0x20 SHR JUMP JUMPDEST PUSH20 0xFFFFFFFFFFFFFFFFFFFFFFFFFFFFFFFFFFFFFFFF AND PUSH3 0x34E PUSH3 0x3C3 PUSH1 0x20 SHL PUSH1 0x20 SHR JUMP JUMPDEST PUSH20 0xFFFFFFFFFFFFFFFFFFFFFFFFFFFFFFFFFFFFFFFF AND EQ PUSH3 0x3A7 JUMPI PUSH1 0x40 MLOAD PUSH32 0x8C379A000000000000000000000000000000000000000000000000000000000 DUP2 MSTORE PUSH1 0x4 ADD PUSH3 0x39E SWAP1 PUSH3 0x789 JUMP JUMPDEST PUSH1 0x40 MLOAD DUP1 SWAP2 SUB SWAP1 REVERT JUMPDEST DUP1 PUSH1 0x11 SWAP1 DUP1 MLOAD SWAP1 PUSH1 0x20 ADD SWAP1 PUSH3 0x3BF SWAP3 SWAP2 SWAP1 PUSH3 0x3ED JUMP JUMPDEST POP POP JUMP JUMPDEST PUSH1 0x0 PUSH1 0xA PUSH1 0x0 SWAP1 SLOAD SWAP1 PUSH2 0x100 EXP SWAP1 DIV PUSH20 0xFFFFFFFFFFFFFFFFFFFFFFFFFFFFFFFFFFFFFFFF AND SWAP1 POP SWAP1 JUMP JUMPDEST DUP3 DUP1 SLOAD PUSH3 0x3FB SWAP1 PUSH3 0x7DA JUMP JUMPDEST SWAP1 PUSH1 0x0 MSTORE PUSH1 0x20 PUSH1 0x0 KECCAK256 SWAP1 PUSH1 0x1F ADD PUSH1 0x20 SWAP1 DIV DUP2 ADD SWAP3 DUP3 PUSH3 0x41F JUMPI PUSH1 0x0 DUP6 SSTORE PUSH3 0x46B JUMP JUMPDEST DUP3 PUSH1 0x1F LT PUSH3 0x43A JUMPI DUP1 MLOAD PUSH1 0xFF NOT AND DUP4 DUP1 ADD OR DUP6 SSTORE PUSH3 0x46B JUMP JUMPDEST DUP3 DUP1 ADD PUSH1 0x1 ADD DUP6 SSTORE DUP3 ISZERO PUSH3 0x46B JUMPI SWAP2 DUP3 ADD JUMPDEST DUP3 DUP2 GT ISZERO PUSH3 0x46A JUMPI DUP3 MLOAD DUP3 SSTORE SWAP2 PUSH1 0x20 ADD SWAP2 SWAP1 PUSH1 0x1 ADD SWAP1 PUSH3 0x44D JUMP JUMPDEST JUMPDEST POP SWAP1 POP PUSH3 0x47A SWAP2 SWAP1 PUSH3 0x47E JUMP JUMPDEST POP SWAP1 JUMP JUMPDEST JUMPDEST DUP1 DUP3 GT ISZERO PUSH3 0x499 JUMPI PUSH1 0x0 DUP2 PUSH1 0x0 SWAP1 SSTORE POP PUSH1 0x1 ADD PUSH3 0x47F JUMP JUMPDEST POP SWAP1 JUMP JUMPDEST PUSH1 0x0 PUSH1 0x40 MLOAD SWAP1 POP SWAP1 JUMP JUMPDEST PUSH1 0x0 DUP1 REVERT JUMPDEST PUSH1 0x0 DUP1 REVERT JUMPDEST PUSH1 0x0 DUP1 REVERT JUMPDEST PUSH1 0x0 DUP1 REVERT JUMPDEST PUSH1 0x0 PUSH1 0x1F NOT PUSH1 0x1F DUP4 ADD AND SWAP1 POP SWAP2 SWAP1 POP JUMP JUMPDEST PUSH32 0x4E487B7100000000000000000000000000000000000000000000000000000000 PUSH1 0x0 MSTORE PUSH1 0x41 PUSH1 0x4 MSTORE PUSH1 0x24 PUSH1 0x0 REVERT JUMPDEST PUSH3 0x506 DUP3 PUSH3 0x4BB JUMP JUMPDEST DUP2 ADD DUP2 DUP2 LT PUSH8 0xFFFFFFFFFFFFFFFF DUP3 GT OR ISZERO PUSH3 0x528 JUMPI PUSH3 0x527 PUSH3 0x4CC JUMP JUMPDEST JUMPDEST DUP1 PUSH1 0x40 MSTORE POP POP POP JUMP JUMPDEST PUSH1 0x0 PUSH3 0x53D PUSH3 0x49D JUMP JUMPDEST SWAP1 POP PUSH3 0x54B DUP3 DUP3 PUSH3 0x4FB JUMP JUMPDEST SWAP2 SWAP1 POP JUMP JUMPDEST PUSH1 0x0 PUSH8 0xFFFFFFFFFFFFFFFF DUP3 GT ISZERO PUSH3 0x56E JUMPI PUSH3 0x56D PUSH3 0x4CC JUMP JUMPDEST JUMPDEST PUSH3 0x579 DUP3 PUSH3 0x4BB JUMP JUMPDEST SWAP1 POP PUSH1 0x20 DUP2 ADD SWAP1 POP SWAP2 SWAP1 POP JUMP JUMPDEST PUSH1 0x0 JUMPDEST DUP4 DUP2 LT ISZERO PUSH3 0x5A6 JUMPI DUP1 DUP3 ADD MLOAD DUP2 DUP5 ADD MSTORE PUSH1 0x20 DUP2 ADD SWAP1 POP PUSH3 0x589 JUMP JUMPDEST DUP4 DUP2 GT ISZERO PUSH3 0x5B6 JUMPI PUSH1 0x0 DUP5 DUP5 ADD MSTORE JUMPDEST POP POP POP POP JUMP JUMPDEST PUSH1 0x0 PUSH3 0x5D3 PUSH3 0x5CD DUP5 PUSH3 0x550 JUMP JUMPDEST PUSH3 0x531 JUMP JUMPDEST SWAP1 POP DUP3 DUP2 MSTORE PUSH1 0x20 DUP2 ADD DUP5 DUP5 DUP5 ADD GT ISZERO PUSH3 0x5F2 JUMPI PUSH3 0x5F1 PUSH3 0x4B6 JUMP JUMPDEST JUMPDEST PUSH3 0x5FF DUP5 DUP3 DUP6 PUSH3 0x586 JUMP JUMPDEST POP SWAP4 SWAP3 POP POP POP JUMP JUMPDEST PUSH1 0x0 DUP3 PUSH1 0x1F DUP4 ADD SLT PUSH3 0x61F JUMPI PUSH3 0x61E PUSH3 0x4B1 JUMP JUMPDEST JUMPDEST DUP2 MLOAD PUSH3 0x631 DUP5 DUP3 PUSH1 0x20 DUP7 ADD PUSH3 0x5BC JUMP JUMPDEST SWAP2 POP POP SWAP3 SWAP2 POP POP JUMP JUMPDEST PUSH1 0x0 DUP1 PUSH1 0x0 DUP1 PUSH1 0x80 DUP6 DUP8 SUB SLT ISZERO PUSH3 0x657 JUMPI PUSH3 0x656 PUSH3 0x4A7 JUMP JUMPDEST JUMPDEST PUSH1 0x0 DUP6 ADD MLOAD PUSH8 0xFFFFFFFFFFFFFFFF DUP2 GT ISZERO PUSH3 0x678 JUMPI PUSH3 0x677 PUSH3 0x4AC JUMP JUMPDEST JUMPDEST PUSH3 0x686 DUP8 DUP3 DUP9 ADD PUSH3 0x607 JUMP JUMPDEST SWAP5 POP POP PUSH1 0x20 DUP6 ADD MLOAD PUSH8 0xFFFFFFFFFFFFFFFF DUP2 GT ISZERO PUSH3 0x6AA JUMPI PUSH3 0x6A9 PUSH3 0x4AC JUMP JUMPDEST JUMPDEST PUSH3 0x6B8 DUP8 DUP3 DUP9 ADD PUSH3 0x607 JUMP JUMPDEST SWAP4 POP POP PUSH1 0x40 DUP6 ADD MLOAD PUSH8 0xFFFFFFFFFFFFFFFF DUP2 GT ISZERO PUSH3 0x6DC JUMPI PUSH3 0x6DB PUSH3 0x4AC JUMP JUMPDEST JUMPDEST PUSH3 0x6EA DUP8 DUP3 DUP9 ADD PUSH3 0x607 JUMP JUMPDEST SWAP3 POP POP PUSH1 0x60 DUP6 ADD MLOAD PUSH8 0xFFFFFFFFFFFFFFFF DUP2 GT ISZERO PUSH3 0x70E JUMPI PUSH3 0x70D PUSH3 0x4AC JUMP JUMPDEST JUMPDEST PUSH3 0x71C DUP8 DUP3 DUP9 ADD PUSH3 0x607 JUMP JUMPDEST SWAP2 POP POP SWAP3 SWAP6 SWAP2 SWAP5 POP SWAP3 POP JUMP JUMPDEST PUSH1 0x0 DUP3 DUP3 MSTORE PUSH1 0x20 DUP3 ADD SWAP1 POP SWAP3 SWAP2 POP POP JUMP JUMPDEST PUSH32 0x4F776E61626C653A2063616C6C6572206973206E6F7420746865206F776E6572 PUSH1 0x0 DUP3 ADD MSTORE POP JUMP JUMPDEST PUSH1 0x0 PUSH3 0x771 PUSH1 0x20 DUP4 PUSH3 0x728 JUMP JUMPDEST SWAP2 POP PUSH3 0x77E DUP3 PUSH3 0x739 JUMP JUMPDEST PUSH1 0x20 DUP3 ADD SWAP1 POP SWAP2 SWAP1 POP JUMP JUMPDEST PUSH1 0x0 PUSH1 0x20 DUP3 ADD SWAP1 POP DUP2 DUP2 SUB PUSH1 0x0 DUP4 ADD MSTORE PUSH3 0x7A4 DUP2 PUSH3 0x762 JUMP JUMPDEST SWAP1 POP SWAP2 SWAP1 POP JUMP JUMPDEST PUSH32 0x4E487B7100000000000000000000000000000000000000000000000000000000 PUSH1 0x0 MSTORE PUSH1 0x22 PUSH1 0x4 MSTORE PUSH1 0x24 PUSH1 0x0 REVERT JUMPDEST PUSH1 0x0 PUSH1 0x2 DUP3 DIV SWAP1 POP PUSH1 0x1 DUP3 AND DUP1 PUSH3 0x7F3 JUMPI PUSH1 0x7F DUP3 AND SWAP2 POP JUMPDEST PUSH1 0x20 DUP3 LT DUP2 EQ ISZERO PUSH3 0x80A JUMPI PUSH3 0x809 PUSH3 0x7AB JUMP JUMPDEST JUMPDEST POP SWAP2 SWAP1 POP JUMP JUMPDEST PUSH2 0x53EE DUP1 PUSH3 0x820 PUSH1 0x0 CODECOPY PUSH1 0x0 RETURN INVALID PUSH1 0x80 PUSH1 0x40 MSTORE PUSH1 0x4 CALLDATASIZE LT PUSH2 0x2AE JUMPI PUSH1 0x0 CALLDATALOAD PUSH1 0xE0 SHR DUP1 PUSH4 0x6352211E GT PUSH2 0x175 JUMPI DUP1 PUSH4 0xA665C4A4 GT PUSH2 0xDC JUMPI DUP1 PUSH4 0xD5ABEB01 GT PUSH2 0x95 JUMPI DUP1 PUSH4 0xDBDFF2C1 GT PUSH2 0x6F JUMPI DUP1 PUSH4 0xDBDFF2C1 EQ PUSH2 0xAA4 JUMPI DUP1 PUSH4 0xE985E9C5 EQ PUSH2 0xACF JUMPI DUP1 PUSH4 0xF2C4CE1E EQ PUSH2 0xB0C JUMPI DUP1 PUSH4 0xF2FDE38B EQ PUSH2 0xB35 JUMPI PUSH2 0x2AE JUMP JUMPDEST DUP1 PUSH4 0xD5ABEB01 EQ PUSH2 0xA13 JUMPI DUP1 PUSH4 0xD936547E EQ PUSH2 0xA3E JUMPI DUP1 PUSH4 0xDA3EF23F EQ PUSH2 0xA7B JUMPI PUSH2 0x2AE JUMP JUMPDEST DUP1 PUSH4 0xA665C4A4 EQ PUSH2 0x8F1 JUMPI DUP1 PUSH4 0xA6D23E10 EQ PUSH2 0x92E JUMPI DUP1 PUSH4 0xB7B135DF EQ PUSH2 0x959 JUMPI DUP1 PUSH4 0xB88D4FDE EQ PUSH2 0x982 JUMPI DUP1 PUSH4 0xC6682862 EQ PUSH2 0x9AB JUMPI DUP1 PUSH4 0xC87B56DD EQ PUSH2 0x9D6 JUMPI PUSH2 0x2AE JUMP JUMPDEST DUP1 PUSH4 0x7F00C7A6 GT PUSH2 0x12E JUMPI DUP1 PUSH4 0x7F00C7A6 EQ PUSH2 0x802 JUMPI DUP1 PUSH4 0x8DA5CB5B EQ PUSH2 0x82B JUMPI DUP1 PUSH4 0x95D89B41 EQ PUSH2 0x856 JUMPI DUP1 PUSH4 0x9C70B512 EQ PUSH2 0x881 JUMPI DUP1 PUSH4 0xA0712D68 EQ PUSH2 0x8AC JUMPI DUP1 PUSH4 0xA22CB465 EQ PUSH2 0x8C8 JUMPI PUSH2 0x2AE JUMP JUMPDEST DUP1 PUSH4 0x6352211E EQ PUSH2 0x6F0 JUMPI DUP1 PUSH4 0x65102F34 EQ PUSH2 0x72D JUMPI DUP1 PUSH4 0x6C0360EB EQ PUSH2 0x758 JUMPI DUP1 PUSH4 0x70A08231 EQ PUSH2 0x783 JUMPI DUP1 PUSH4 0x715018A6 EQ PUSH2 0x7C0 JUMPI DUP1 PUSH4 0x72250380 EQ PUSH2 0x7D7 JUMPI PUSH2 0x2AE JUMP JUMPDEST DUP1 PUSH4 0x2A3F300C GT PUSH2 0x219 JUMPI DUP1 PUSH4 0x44A0D68A GT PUSH2 0x1D2 JUMPI DUP1 PUSH4 0x44A0D68A EQ PUSH2 0x5E2 JUMPI DUP1 PUSH4 0x4A4C560D EQ PUSH2 0x60B JUMPI DUP1 PUSH4 0x4F6CCCE7 EQ PUSH2 0x634 JUMPI DUP1 PUSH4 0x51830227 EQ PUSH2 0x671 JUMPI DUP1 PUSH4 0x55F804B3 EQ PUSH2 0x69C JUMPI DUP1 PUSH4 0x5C975ABB EQ PUSH2 0x6C5 JUMPI PUSH2 0x2AE JUMP JUMPDEST DUP1 PUSH4 0x2A3F300C EQ PUSH2 0x4E5 JUMPI DUP1 PUSH4 0x2E1A7D4D EQ PUSH2 0x50E JUMPI DUP1 PUSH4 0x2F745C59 EQ PUSH2 0x52A JUMPI DUP1 PUSH4 0x30CC7AE0 EQ PUSH2 0x567 JUMPI DUP1 PUSH4 0x3C952764 EQ PUSH2 0x590 JUMPI DUP1 PUSH4 0x42842E0E EQ PUSH2 0x5B9 JUMPI PUSH2 0x2AE JUMP JUMPDEST DUP1 PUSH4 0x13FAEDE6 GT PUSH2 0x26B JUMPI DUP1 PUSH4 0x13FAEDE6 EQ PUSH2 0x3C1 JUMPI DUP1 PUSH4 0x18160DDD EQ PUSH2 0x3EC JUMPI DUP1 PUSH4 0x18CAE269 EQ PUSH2 0x417 JUMPI DUP1 PUSH4 0x239C70AE EQ PUSH2 0x454 JUMPI DUP1 PUSH4 0x23B872DD EQ PUSH2 0x47F JUMPI DUP1 PUSH4 0x29153CD9 EQ PUSH2 0x4A8 JUMPI PUSH2 0x2AE JUMP JUMPDEST DUP1 PUSH4 0x1FFC9A7 EQ PUSH2 0x2B3 JUMPI DUP1 PUSH4 0x2329A29 EQ PUSH2 0x2F0 JUMPI DUP1 PUSH4 0x6FDDE03 EQ PUSH2 0x319 JUMPI DUP1 PUSH4 0x81812FC EQ PUSH2 0x344 JUMPI DUP1 PUSH4 0x95EA7B3 EQ PUSH2 0x381 JUMPI DUP1 PUSH4 0xA16C9D7 EQ PUSH2 0x3AA JUMPI JUMPDEST PUSH1 0x0 DUP1 REVERT JUMPDEST CALLVALUE DUP1 ISZERO PUSH2 0x2BF JUMPI PUSH1 0x0 DUP1 REVERT JUMPDEST POP PUSH2 0x2DA PUSH1 0x4 DUP1 CALLDATASIZE SUB DUP2 ADD SWAP1 PUSH2 0x2D5 SWAP2 SWAP1 PUSH2 0x3ABB JUMP JUMPDEST PUSH2 0xB5E JUMP JUMPDEST PUSH1 0x40 MLOAD PUSH2 0x2E7 SWAP2 SWAP1 PUSH2 0x3B03 JUMP JUMPDEST PUSH1 0x40 MLOAD DUP1 SWAP2 SUB SWAP1 RETURN JUMPDEST CALLVALUE DUP1 ISZERO PUSH2 0x2FC JUMPI PUSH1 0x0 DUP1 REVERT JUMPDEST POP PUSH2 0x317 PUSH1 0x4 DUP1 CALLDATASIZE SUB DUP2 ADD SWAP1 PUSH2 0x312 SWAP2 SWAP1 PUSH2 0x3B4A JUMP JUMPDEST PUSH2 0xBD8 JUMP JUMPDEST STOP JUMPDEST CALLVALUE DUP1 ISZERO PUSH2 0x325 JUMPI PUSH1 0x0 DUP1 REVERT JUMPDEST POP PUSH2 0x32E PUSH2 0xC71 JUMP JUMPDEST PUSH1 0x40 MLOAD PUSH2 0x33B SWAP2 SWAP1 PUSH2 0x3C10 JUMP JUMPDEST PUSH1 0x40 MLOAD DUP1 SWAP2 SUB SWAP1 RETURN JUMPDEST CALLVALUE DUP1 ISZERO PUSH2 0x350 JUMPI PUSH1 0x0 DUP1 REVERT JUMPDEST POP PUSH2 0x36B PUSH1 0x4 DUP1 CALLDATASIZE SUB DUP2 ADD SWAP1 PUSH2 0x366 SWAP2 SWAP1 PUSH2 0x3C68 JUMP JUMPDEST PUSH2 0xD03 JUMP JUMPDEST PUSH1 0x40 MLOAD PUSH2 0x378 SWAP2 SWAP1 PUSH2 0x3CD6 JUMP JUMPDEST PUSH1 0x40 MLOAD DUP1 SWAP2 SUB SWAP1 RETURN JUMPDEST CALLVALUE DUP1 ISZERO PUSH2 0x38D JUMPI PUSH1 0x0 DUP1 REVERT JUMPDEST POP PUSH2 0x3A8 PUSH1 0x4 DUP1 CALLDATASIZE SUB DUP2 ADD SWAP1 PUSH2 0x3A3 SWAP2 SWAP1 PUSH2 0x3D1D JUMP JUMPDEST PUSH2 0xD88 JUMP JUMPDEST STOP JUMPDEST CALLVALUE DUP1 ISZERO PUSH2 0x3B6 JUMPI PUSH1 0x0 DUP1 REVERT JUMPDEST POP PUSH2 0x3BF PUSH2 0xEA0 JUMP JUMPDEST STOP JUMPDEST CALLVALUE DUP1 ISZERO PUSH2 0x3CD JUMPI PUSH1 0x0 DUP1 REVERT JUMPDEST POP PUSH2 0x3D6 PUSH2 0xFBA JUMP JUMPDEST PUSH1 0x40 MLOAD PUSH2 0x3E3 SWAP2 SWAP1 PUSH2 0x3D6C JUMP JUMPDEST PUSH1 0x40 MLOAD DUP1 SWAP2 SUB SWAP1 RETURN JUMPDEST CALLVALUE DUP1 ISZERO PUSH2 0x3F8 JUMPI PUSH1 0x0 DUP1 REVERT JUMPDEST POP PUSH2 0x401 PUSH2 0xFC0 JUMP JUMPDEST PUSH1 0x40 MLOAD PUSH2 0x40E SWAP2 SWAP1 PUSH2 0x3D6C JUMP JUMPDEST PUSH1 0x40 MLOAD DUP1 SWAP2 SUB SWAP1 RETURN JUMPDEST CALLVALUE DUP1 ISZERO PUSH2 0x423 JUMPI PUSH1 0x0 DUP1 REVERT JUMPDEST POP PUSH2 0x43E PUSH1 0x4 DUP1 CALLDATASIZE SUB DUP2 ADD SWAP1 PUSH2 0x439 SWAP2 SWAP1 PUSH2 0x3D87 JUMP JUMPDEST PUSH2 0xFCD JUMP JUMPDEST PUSH1 0x40 MLOAD PUSH2 0x44B SWAP2 SWAP1 PUSH2 0x3D6C JUMP JUMPDEST PUSH1 0x40 MLOAD DUP1 SWAP2 SUB SWAP1 RETURN JUMPDEST CALLVALUE DUP1 ISZERO PUSH2 0x460 JUMPI PUSH1 0x0 DUP1 REVERT JUMPDEST POP PUSH2 0x469 PUSH2 0xFE5 JUMP JUMPDEST PUSH1 0x40 MLOAD PUSH2 0x476 SWAP2 SWAP1 PUSH2 0x3D6C JUMP JUMPDEST PUSH1 0x40 MLOAD DUP1 SWAP2 SUB SWAP1 RETURN JUMPDEST CALLVALUE DUP1 ISZERO PUSH2 0x48B JUMPI PUSH1 0x0 DUP1 REVERT JUMPDEST POP PUSH2 0x4A6 PUSH1 0x4 DUP1 CALLDATASIZE SUB DUP2 ADD SWAP1 PUSH2 0x4A1 SWAP2 SWAP1 PUSH2 0x3DB4 JUMP JUMPDEST PUSH2 0xFEB JUMP JUMPDEST STOP JUMPDEST CALLVALUE DUP1 ISZERO PUSH2 0x4B4 JUMPI PUSH1 0x0 DUP1 REVERT JUMPDEST POP PUSH2 0x4CF PUSH1 0x4 DUP1 CALLDATASIZE SUB DUP2 ADD SWAP1 PUSH2 0x4CA SWAP2 SWAP1 PUSH2 0x3C68 JUMP JUMPDEST PUSH2 0x104B JUMP JUMPDEST PUSH1 0x40 MLOAD PUSH2 0x4DC SWAP2 SWAP1 PUSH2 0x3D6C JUMP JUMPDEST PUSH1 0x40 MLOAD DUP1 SWAP2 SUB SWAP1 RETURN JUMPDEST CALLVALUE DUP1 ISZERO PUSH2 0x4F1 JUMPI PUSH1 0x0 DUP1 REVERT JUMPDEST POP PUSH2 0x50C PUSH1 0x4 DUP1 CALLDATASIZE SUB DUP2 ADD SWAP1 PUSH2 0x507 SWAP2 SWAP1 PUSH2 0x3B4A JUMP JUMPDEST PUSH2 0x1063 JUMP JUMPDEST STOP JUMPDEST PUSH2 0x528 PUSH1 0x4 DUP1 CALLDATASIZE SUB DUP2 ADD SWAP1 PUSH2 0x523 SWAP2 SWAP1 PUSH2 0x3C68 JUMP JUMPDEST PUSH2 0x10FC JUMP JUMPDEST STOP JUMPDEST CALLVALUE DUP1 ISZERO PUSH2 0x536 JUMPI PUSH1 0x0 DUP1 REVERT JUMPDEST POP PUSH2 0x551 PUSH1 0x4 DUP1 CALLDATASIZE SUB DUP2 ADD SWAP1 PUSH2 0x54C SWAP2 SWAP1 PUSH2 0x3D1D JUMP JUMPDEST PUSH2 0x1228 JUMP JUMPDEST PUSH1 0x40 MLOAD PUSH2 0x55E SWAP2 SWAP1 PUSH2 0x3D6C JUMP JUMPDEST PUSH1 0x40 MLOAD DUP1 SWAP2 SUB SWAP1 RETURN JUMPDEST CALLVALUE DUP1 ISZERO PUSH2 0x573 JUMPI PUSH1 0x0 DUP1 REVERT JUMPDEST POP PUSH2 0x58E PUSH1 0x4 DUP1 CALLDATASIZE SUB DUP2 ADD SWAP1 PUSH2 0x589 SWAP2 SWAP1 PUSH2 0x3D87 JUMP JUMPDEST PUSH2 0x12CD JUMP JUMPDEST STOP JUMPDEST CALLVALUE DUP1 ISZERO PUSH2 0x59C JUMPI PUSH1 0x0 DUP1 REVERT JUMPDEST POP PUSH2 0x5B7 PUSH1 0x4 DUP1 CALLDATASIZE SUB DUP2 ADD SWAP1 PUSH2 0x5B2 SWAP2 SWAP1 PUSH2 0x3B4A JUMP JUMPDEST PUSH2 0x13A4 JUMP JUMPDEST STOP JUMPDEST CALLVALUE DUP1 ISZERO PUSH2 0x5C5 JUMPI PUSH1 0x0 DUP1 REVERT JUMPDEST POP PUSH2 0x5E0 PUSH1 0x4 DUP1 CALLDATASIZE SUB DUP2 ADD SWAP1 PUSH2 0x5DB SWAP2 SWAP1 PUSH2 0x3DB4 JUMP JUMPDEST PUSH2 0x143D JUMP JUMPDEST STOP JUMPDEST CALLVALUE DUP1 ISZERO PUSH2 0x5EE JUMPI PUSH1 0x0 DUP1 REVERT JUMPDEST POP PUSH2 0x609 PUSH1 0x4 DUP1 CALLDATASIZE SUB DUP2 ADD SWAP1 PUSH2 0x604 SWAP2 SWAP1 PUSH2 0x3C68 JUMP JUMPDEST PUSH2 0x145D JUMP JUMPDEST STOP JUMPDEST CALLVALUE DUP1 ISZERO PUSH2 0x617 JUMPI PUSH1 0x0 DUP1 REVERT JUMPDEST POP PUSH2 0x632 PUSH1 0x4 DUP1 CALLDATASIZE SUB DUP2 ADD SWAP1 PUSH2 0x62D SWAP2 SWAP1 PUSH2 0x3D87 JUMP JUMPDEST PUSH2 0x14E3 JUMP JUMPDEST STOP JUMPDEST CALLVALUE DUP1 ISZERO PUSH2 0x640 JUMPI PUSH1 0x0 DUP1 REVERT JUMPDEST POP PUSH2 0x65B PUSH1 0x4 DUP1 CALLDATASIZE SUB DUP2 ADD SWAP1 PUSH2 0x656 SWAP2 SWAP1 PUSH2 0x3C68 JUMP JUMPDEST PUSH2 0x15BA JUMP JUMPDEST PUSH1 0x40 MLOAD PUSH2 0x668 SWAP2 SWAP1 PUSH2 0x3D6C JUMP JUMPDEST PUSH1 0x40 MLOAD DUP1 SWAP2 SUB SWAP1 RETURN JUMPDEST CALLVALUE DUP1 ISZERO PUSH2 0x67D JUMPI PUSH1 0x0 DUP1 REVERT JUMPDEST POP PUSH2 0x686 PUSH2 0x162B JUMP JUMPDEST PUSH1 0x40 MLOAD PUSH2 0x693 SWAP2 SWAP1 PUSH2 0x3B03 JUMP JUMPDEST PUSH1 0x40 MLOAD DUP1 SWAP2 SUB SWAP1 RETURN JUMPDEST CALLVALUE DUP1 ISZERO PUSH2 0x6A8 JUMPI PUSH1 0x0 DUP1 REVERT JUMPDEST POP PUSH2 0x6C3 PUSH1 0x4 DUP1 CALLDATASIZE SUB DUP2 ADD SWAP1 PUSH2 0x6BE SWAP2 SWAP1 PUSH2 0x3F3C JUMP JUMPDEST PUSH2 0x163E JUMP JUMPDEST STOP JUMPDEST CALLVALUE DUP1 ISZERO PUSH2 0x6D1 JUMPI PUSH1 0x0 DUP1 REVERT JUMPDEST POP PUSH2 0x6DA PUSH2 0x16D4 JUMP JUMPDEST PUSH1 0x40 MLOAD PUSH2 0x6E7 SWAP2 SWAP1 PUSH2 0x3B03 JUMP JUMPDEST PUSH1 0x40 MLOAD DUP1 SWAP2 SUB SWAP1 RETURN JUMPDEST CALLVALUE DUP1 ISZERO PUSH2 0x6FC JUMPI PUSH1 0x0 DUP1 REVERT JUMPDEST POP PUSH2 0x717 PUSH1 0x4 DUP1 CALLDATASIZE SUB DUP2 ADD SWAP1 PUSH2 0x712 SWAP2 SWAP1 PUSH2 0x3C68 JUMP JUMPDEST PUSH2 0x16E7 JUMP JUMPDEST PUSH1 0x40 MLOAD PUSH2 0x724 SWAP2 SWAP1 PUSH2 0x3CD6 JUMP JUMPDEST PUSH1 0x40 MLOAD DUP1 SWAP2 SUB SWAP1 RETURN JUMPDEST CALLVALUE DUP1 ISZERO PUSH2 0x739 JUMPI PUSH1 0x0 DUP1 REVERT JUMPDEST POP PUSH2 0x742 PUSH2 0x1799 JUMP JUMPDEST PUSH1 0x40 MLOAD PUSH2 0x74F SWAP2 SWAP1 PUSH2 0x3CD6 JUMP JUMPDEST PUSH1 0x40 MLOAD DUP1 SWAP2 SUB SWAP1 RETURN JUMPDEST CALLVALUE DUP1 ISZERO PUSH2 0x764 JUMPI PUSH1 0x0 DUP1 REVERT JUMPDEST POP PUSH2 0x76D PUSH2 0x17BF JUMP JUMPDEST PUSH1 0x40 MLOAD PUSH2 0x77A SWAP2 SWAP1 PUSH2 0x3C10 JUMP JUMPDEST PUSH1 0x40 MLOAD DUP1 SWAP2 SUB SWAP1 RETURN JUMPDEST CALLVALUE DUP1 ISZERO PUSH2 0x78F JUMPI PUSH1 0x0 DUP1 REVERT JUMPDEST POP PUSH2 0x7AA PUSH1 0x4 DUP1 CALLDATASIZE SUB DUP2 ADD SWAP1 PUSH2 0x7A5 SWAP2 SWAP1 PUSH2 0x3D87 JUMP JUMPDEST PUSH2 0x184D JUMP JUMPDEST PUSH1 0x40 MLOAD PUSH2 0x7B7 SWAP2 SWAP1 PUSH2 0x3D6C JUMP JUMPDEST PUSH1 0x40 MLOAD DUP1 SWAP2 SUB SWAP1 RETURN JUMPDEST CALLVALUE DUP1 ISZERO PUSH2 0x7CC JUMPI PUSH1 0x0 DUP1 REVERT JUMPDEST POP PUSH2 0x7D5 PUSH2 0x1905 JUMP JUMPDEST STOP JUMPDEST CALLVALUE DUP1 ISZERO PUSH2 0x7E3 JUMPI PUSH1 0x0 DUP1 REVERT JUMPDEST POP PUSH2 0x7EC PUSH2 0x198D JUMP JUMPDEST PUSH1 0x40 MLOAD PUSH2 0x7F9 SWAP2 SWAP1 PUSH2 0x3C10 JUMP JUMPDEST PUSH1 0x40 MLOAD DUP1 SWAP2 SUB SWAP1 RETURN JUMPDEST CALLVALUE DUP1 ISZERO PUSH2 0x80E JUMPI PUSH1 0x0 DUP1 REVERT JUMPDEST POP PUSH2 0x829 PUSH1 0x4 DUP1 CALLDATASIZE SUB DUP2 ADD SWAP1 PUSH2 0x824 SWAP2 SWAP1 PUSH2 0x3C68 JUMP JUMPDEST PUSH2 0x1A1B JUMP JUMPDEST STOP JUMPDEST CALLVALUE DUP1 ISZERO PUSH2 0x837 JUMPI PUSH1 0x0 DUP1 REVERT JUMPDEST POP PUSH2 0x840 PUSH2 0x1AA1 JUMP JUMPDEST PUSH1 0x40 MLOAD PUSH2 0x84D SWAP2 SWAP1 PUSH2 0x3CD6 JUMP JUMPDEST PUSH1 0x40 MLOAD DUP1 SWAP2 SUB SWAP1 RETURN JUMPDEST CALLVALUE DUP1 ISZERO PUSH2 0x862 JUMPI PUSH1 0x0 DUP1 REVERT JUMPDEST POP PUSH2 0x86B PUSH2 0x1ACB JUMP JUMPDEST PUSH1 0x40 MLOAD PUSH2 0x878 SWAP2 SWAP1 PUSH2 0x3C10 JUMP JUMPDEST PUSH1 0x40 MLOAD DUP1 SWAP2 SUB SWAP1 RETURN JUMPDEST CALLVALUE DUP1 ISZERO PUSH2 0x88D JUMPI PUSH1 0x0 DUP1 REVERT JUMPDEST POP PUSH2 0x896 PUSH2 0x1B5D JUMP JUMPDEST PUSH1 0x40 MLOAD PUSH2 0x8A3 SWAP2 SWAP1 PUSH2 0x3B03 JUMP JUMPDEST PUSH1 0x40 MLOAD DUP1 SWAP2 SUB SWAP1 RETURN JUMPDEST PUSH2 0x8C6 PUSH1 0x4 DUP1 CALLDATASIZE SUB DUP2 ADD SWAP1 PUSH2 0x8C1 SWAP2 SWAP1 PUSH2 0x3C68 JUMP JUMPDEST PUSH2 0x1B70 JUMP JUMPDEST STOP JUMPDEST CALLVALUE DUP1 ISZERO PUSH2 0x8D4 JUMPI PUSH1 0x0 DUP1 REVERT JUMPDEST POP PUSH2 0x8EF PUSH1 0x4 DUP1 CALLDATASIZE SUB DUP2 ADD SWAP1 PUSH2 0x8EA SWAP2 SWAP1 PUSH2 0x3F85 JUMP JUMPDEST PUSH2 0x1DD2 JUMP JUMPDEST STOP JUMPDEST CALLVALUE DUP1 ISZERO PUSH2 0x8FD JUMPI PUSH1 0x0 DUP1 REVERT JUMPDEST POP PUSH2 0x918 PUSH1 0x4 DUP1 CALLDATASIZE SUB DUP2 ADD SWAP1 PUSH2 0x913 SWAP2 SWAP1 PUSH2 0x3D87 JUMP JUMPDEST PUSH2 0x1F53 JUMP JUMPDEST PUSH1 0x40 MLOAD PUSH2 0x925 SWAP2 SWAP1 PUSH2 0x3D6C JUMP JUMPDEST PUSH1 0x40 MLOAD DUP1 SWAP2 SUB SWAP1 RETURN JUMPDEST CALLVALUE DUP1 ISZERO PUSH2 0x93A JUMPI PUSH1 0x0 DUP1 REVERT JUMPDEST POP PUSH2 0x943 PUSH2 0x1F9C JUMP JUMPDEST PUSH1 0x40 MLOAD PUSH2 0x950 SWAP2 SWAP1 PUSH2 0x3FE6 JUMP JUMPDEST PUSH1 0x40 MLOAD DUP1 SWAP2 SUB SWAP1 RETURN JUMPDEST CALLVALUE DUP1 ISZERO PUSH2 0x965 JUMPI PUSH1 0x0 DUP1 REVERT JUMPDEST POP PUSH2 0x980 PUSH1 0x4 DUP1 CALLDATASIZE SUB DUP2 ADD SWAP1 PUSH2 0x97B SWAP2 SWAP1 PUSH2 0x3D87 JUMP JUMPDEST PUSH2 0x1FC2 JUMP JUMPDEST STOP JUMPDEST CALLVALUE DUP1 ISZERO PUSH2 0x98E JUMPI PUSH1 0x0 DUP1 REVERT JUMPDEST POP PUSH2 0x9A9 PUSH1 0x4 DUP1 CALLDATASIZE SUB DUP2 ADD SWAP1 PUSH2 0x9A4 SWAP2 SWAP1 PUSH2 0x40A2 JUMP JUMPDEST PUSH2 0x2145 JUMP JUMPDEST STOP JUMPDEST CALLVALUE DUP1 ISZERO PUSH2 0x9B7 JUMPI PUSH1 0x0 DUP1 REVERT JUMPDEST POP PUSH2 0x9C0 PUSH2 0x21A7 JUMP JUMPDEST PUSH1 0x40 MLOAD PUSH2 0x9CD SWAP2 SWAP1 PUSH2 0x3C10 JUMP JUMPDEST PUSH1 0x40 MLOAD DUP1 SWAP2 SUB SWAP1 RETURN JUMPDEST CALLVALUE DUP1 ISZERO PUSH2 0x9E2 JUMPI PUSH1 0x0 DUP1 REVERT JUMPDEST POP PUSH2 0x9FD PUSH1 0x4 DUP1 CALLDATASIZE SUB DUP2 ADD SWAP1 PUSH2 0x9F8 SWAP2 SWAP1 PUSH2 0x3C68 JUMP JUMPDEST PUSH2 0x2235 JUMP JUMPDEST PUSH1 0x40 MLOAD PUSH2 0xA0A SWAP2 SWAP1 PUSH2 0x3C10 JUMP JUMPDEST PUSH1 0x40 MLOAD DUP1 SWAP2 SUB SWAP1 RETURN JUMPDEST CALLVALUE DUP1 ISZERO PUSH2 0xA1F JUMPI PUSH1 0x0 DUP1 REVERT JUMPDEST POP PUSH2 0xA28 PUSH2 0x23A1 JUMP JUMPDEST PUSH1 0x40 MLOAD PUSH2 0xA35 SWAP2 SWAP1 PUSH2 0x3D6C JUMP JUMPDEST PUSH1 0x40 MLOAD DUP1 SWAP2 SUB SWAP1 RETURN JUMPDEST CALLVALUE DUP1 ISZERO PUSH2 0xA4A JUMPI PUSH1 0x0 DUP1 REVERT JUMPDEST POP PUSH2 0xA65 PUSH1 0x4 DUP1 CALLDATASIZE SUB DUP2 ADD SWAP1 PUSH2 0xA60 SWAP2 SWAP1 PUSH2 0x3D87 JUMP JUMPDEST PUSH2 0x23A7 JUMP JUMPDEST PUSH1 0x40 MLOAD PUSH2 0xA72 SWAP2 SWAP1 PUSH2 0x3B03 JUMP JUMPDEST PUSH1 0x40 MLOAD DUP1 SWAP2 SUB SWAP1 RETURN JUMPDEST CALLVALUE DUP1 ISZERO PUSH2 0xA87 JUMPI PUSH1 0x0 DUP1 REVERT JUMPDEST POP PUSH2 0xAA2 PUSH1 0x4 DUP1 CALLDATASIZE SUB DUP2 ADD SWAP1 PUSH2 0xA9D SWAP2 SWAP1 PUSH2 0x3F3C JUMP JUMPDEST PUSH2 0x23C7 JUMP JUMPDEST STOP JUMPDEST CALLVALUE DUP1 ISZERO PUSH2 0xAB0 JUMPI PUSH1 0x0 DUP1 REVERT JUMPDEST POP PUSH2 0xAB9 PUSH2 0x245D JUMP JUMPDEST PUSH1 0x40 MLOAD PUSH2 0xAC6 SWAP2 SWAP1 PUSH2 0x3D6C JUMP JUMPDEST PUSH1 0x40 MLOAD DUP1 SWAP2 SUB SWAP1 RETURN JUMPDEST CALLVALUE DUP1 ISZERO PUSH2 0xADB JUMPI PUSH1 0x0 DUP1 REVERT JUMPDEST POP PUSH2 0xAF6 PUSH1 0x4 DUP1 CALLDATASIZE SUB DUP2 ADD SWAP1 PUSH2 0xAF1 SWAP2 SWAP1 PUSH2 0x4125 JUMP JUMPDEST PUSH2 0x2571 JUMP JUMPDEST PUSH1 0x40 MLOAD PUSH2 0xB03 SWAP2 SWAP1 PUSH2 0x3B03 JUMP JUMPDEST PUSH1 0x40 MLOAD DUP1 SWAP2 SUB SWAP1 RETURN JUMPDEST CALLVALUE DUP1 ISZERO PUSH2 0xB18 JUMPI PUSH1 0x0 DUP1 REVERT JUMPDEST POP PUSH2 0xB33 PUSH1 0x4 DUP1 CALLDATASIZE SUB DUP2 ADD SWAP1 PUSH2 0xB2E SWAP2 SWAP1 PUSH2 0x3F3C JUMP JUMPDEST PUSH2 0x2605 JUMP JUMPDEST STOP JUMPDEST CALLVALUE DUP1 ISZERO PUSH2 0xB41 JUMPI PUSH1 0x0 DUP1 REVERT JUMPDEST POP PUSH2 0xB5C PUSH1 0x4 DUP1 CALLDATASIZE SUB DUP2 ADD SWAP1 PUSH2 0xB57 SWAP2 SWAP1 PUSH2 0x3D87 JUMP JUMPDEST PUSH2 0x269B JUMP JUMPDEST STOP JUMPDEST PUSH1 0x0 PUSH32 0x780E9D6300000000000000000000000000000000000000000000000000000000 PUSH28 0xFFFFFFFFFFFFFFFFFFFFFFFFFFFFFFFFFFFFFFFFFFFFFFFFFFFFFFFF NOT AND DUP3 PUSH28 0xFFFFFFFFFFFFFFFFFFFFFFFFFFFFFFFFFFFFFFFFFFFFFFFFFFFFFFFF NOT AND EQ DUP1 PUSH2 0xBD1 JUMPI POP PUSH2 0xBD0 DUP3 PUSH2 0x2793 JUMP JUMPDEST JUMPDEST SWAP1 POP SWAP2 SWAP1 POP JUMP JUMPDEST PUSH2 0xBE0 PUSH2 0x2875 JUMP JUMPDEST PUSH20 0xFFFFFFFFFFFFFFFFFFFFFFFFFFFFFFFFFFFFFFFF AND PUSH2 0xBFE PUSH2 0x1AA1 JUMP JUMPDEST PUSH20 0xFFFFFFFFFFFFFFFFFFFFFFFFFFFFFFFFFFFFFFFF AND EQ PUSH2 0xC54 JUMPI PUSH1 0x40 MLOAD PUSH32 0x8C379A000000000000000000000000000000000000000000000000000000000 DUP2 MSTORE PUSH1 0x4 ADD PUSH2 0xC4B SWAP1 PUSH2 0x41B1 JUMP JUMPDEST PUSH1 0x40 MLOAD DUP1 SWAP2 SUB SWAP1 REVERT JUMPDEST DUP1 PUSH1 0x15 PUSH1 0x0 PUSH2 0x100 EXP DUP2 SLOAD DUP2 PUSH1 0xFF MUL NOT AND SWAP1 DUP4 ISZERO ISZERO MUL OR SWAP1 SSTORE POP POP JUMP JUMPDEST PUSH1 0x60 PUSH1 0x0 DUP1 SLOAD PUSH2 0xC80 SWAP1 PUSH2 0x4200 JUMP JUMPDEST DUP1 PUSH1 0x1F ADD PUSH1 0x20 DUP1 SWAP2 DIV MUL PUSH1 0x20 ADD PUSH1 0x40 MLOAD SWAP1 DUP2 ADD PUSH1 0x40 MSTORE DUP1 SWAP3 SWAP2 SWAP1 DUP2 DUP2 MSTORE PUSH1 0x20 ADD DUP3 DUP1 SLOAD PUSH2 0xCAC SWAP1 PUSH2 0x4200 JUMP JUMPDEST DUP1 ISZERO PUSH2 0xCF9 JUMPI DUP1 PUSH1 0x1F LT PUSH2 0xCCE JUMPI PUSH2 0x100 DUP1 DUP4 SLOAD DIV MUL DUP4 MSTORE SWAP2 PUSH1 0x20 ADD SWAP2 PUSH2 0xCF9 JUMP JUMPDEST DUP3 ADD SWAP2 SWAP1 PUSH1 0x0 MSTORE PUSH1 0x20 PUSH1 0x0 KECCAK256 SWAP1 JUMPDEST DUP2 SLOAD DUP2 MSTORE SWAP1 PUSH1 0x1 ADD SWAP1 PUSH1 0x20 ADD DUP1 DUP4 GT PUSH2 0xCDC JUMPI DUP3 SWAP1 SUB PUSH1 0x1F AND DUP3 ADD SWAP2 JUMPDEST POP POP POP POP POP SWAP1 POP SWAP1 JUMP JUMPDEST PUSH1 0x0 PUSH2 0xD0E DUP3 PUSH2 0x287D JUMP JUMPDEST PUSH2 0xD4D JUMPI PUSH1 0x40 MLOAD PUSH32 0x8C379A000000000000000000000000000000000000000000000000000000000 DUP2 MSTORE PUSH1 0x4 ADD PUSH2 0xD44 SWAP1 PUSH2 0x42A4 JUMP JUMPDEST PUSH1 0x40 MLOAD DUP1 SWAP2 SUB SWAP1 REVERT JUMPDEST PUSH1 0x4 PUSH1 0x0 DUP4 DUP2 MSTORE PUSH1 0x20 ADD SWAP1 DUP2 MSTORE PUSH1 0x20 ADD PUSH1 0x0 KECCAK256 PUSH1 0x0 SWAP1 SLOAD SWAP1 PUSH2 0x100 EXP SWAP1 DIV PUSH20 0xFFFFFFFFFFFFFFFFFFFFFFFFFFFFFFFFFFFFFFFF AND SWAP1 POP SWAP2 SWAP1 POP JUMP JUMPDEST PUSH1 0x0 PUSH2 0xD93 DUP3 PUSH2 0x16E7 JUMP JUMPDEST SWAP1 POP DUP1 PUSH20 0xFFFFFFFFFFFFFFFFFFFFFFFFFFFFFFFFFFFFFFFF AND DUP4 PUSH20 0xFFFFFFFFFFFFFFFFFFFFFFFFFFFFFFFFFFFFFFFF AND EQ ISZERO PUSH2 0xE04 JUMPI PUSH1 0x40 MLOAD PUSH32 0x8C379A000000000000000000000000000000000000000000000000000000000 DUP2 MSTORE PUSH1 0x4 ADD PUSH2 0xDFB SWAP1 PUSH2 0x4336 JUMP JUMPDEST PUSH1 0x40 MLOAD DUP1 SWAP2 SUB SWAP1 REVERT JUMPDEST DUP1 PUSH20 0xFFFFFFFFFFFFFFFFFFFFFFFFFFFFFFFFFFFFFFFF AND PUSH2 0xE23 PUSH2 0x2875 JUMP JUMPDEST PUSH20 0xFFFFFFFFFFFFFFFFFFFFFFFFFFFFFFFFFFFFFFFF AND EQ DUP1 PUSH2 0xE52 JUMPI POP PUSH2 0xE51 DUP2 PUSH2 0xE4C PUSH2 0x2875 JUMP JUMPDEST PUSH2 0x2571 JUMP JUMPDEST JUMPDEST PUSH2 0xE91 JUMPI PUSH1 0x40 MLOAD PUSH32 0x8C379A000000000000000000000000000000000000000000000000000000000 DUP2 MSTORE PUSH1 0x4 ADD PUSH2 0xE88 SWAP1 PUSH2 0x43C8 JUMP JUMPDEST PUSH1 0x40 MLOAD DUP1 SWAP2 SUB SWAP1 REVERT JUMPDEST PUSH2 0xE9B DUP4 DUP4 PUSH2 0x28E9 JUMP JUMPDEST POP POP POP JUMP JUMPDEST PUSH2 0xEA8 PUSH2 0x2875 JUMP JUMPDEST PUSH20 0xFFFFFFFFFFFFFFFFFFFFFFFFFFFFFFFFFFFFFFFF AND PUSH2 0xEC6 PUSH2 0x1AA1 JUMP JUMPDEST PUSH20 0xFFFFFFFFFFFFFFFFFFFFFFFFFFFFFFFFFFFFFFFF AND EQ PUSH2 0xF1C JUMPI PUSH1 0x40 MLOAD PUSH32 0x8C379A000000000000000000000000000000000000000000000000000000000 DUP2 MSTORE PUSH1 0x4 ADD PUSH2 0xF13 SWAP1 PUSH2 0x41B1 JUMP JUMPDEST PUSH1 0x40 MLOAD DUP1 SWAP2 SUB SWAP1 REVERT JUMPDEST PUSH2 0xFB8 PUSH1 0xB PUSH1 0x0 SWAP1 SLOAD SWAP1 PUSH2 0x100 EXP SWAP1 DIV PUSH20 0xFFFFFFFFFFFFFFFFFFFFFFFFFFFFFFFFFFFFFFFF AND PUSH20 0xFFFFFFFFFFFFFFFFFFFFFFFFFFFFFFFFFFFFFFFF AND PUSH4 0x7390C786 PUSH1 0x40 MLOAD DUP2 PUSH4 0xFFFFFFFF AND PUSH1 0xE0 SHL DUP2 MSTORE PUSH1 0x4 ADD PUSH1 0x20 PUSH1 0x40 MLOAD DUP1 DUP4 SUB DUP2 DUP7 GAS STATICCALL ISZERO DUP1 ISZERO PUSH2 0xF8C JUMPI RETURNDATASIZE PUSH1 0x0 DUP1 RETURNDATACOPY RETURNDATASIZE PUSH1 0x0 REVERT JUMPDEST POP POP POP POP PUSH1 0x40 MLOAD RETURNDATASIZE PUSH1 0x1F NOT PUSH1 0x1F DUP3 ADD AND DUP3 ADD DUP1 PUSH1 0x40 MSTORE POP DUP2 ADD SWAP1 PUSH2 0xFB0 SWAP2 SWAP1 PUSH2 0x43FD JUMP JUMPDEST PUSH1 0x12 SLOAD PUSH2 0x29A2 JUMP JUMPDEST JUMP JUMPDEST PUSH1 0x14 SLOAD DUP2 JUMP JUMPDEST PUSH1 0x0 PUSH1 0x8 DUP1 SLOAD SWAP1 POP SWAP1 POP SWAP1 JUMP JUMPDEST PUSH1 0x19 PUSH1 0x20 MSTORE DUP1 PUSH1 0x0 MSTORE PUSH1 0x40 PUSH1 0x0 KECCAK256 PUSH1 0x0 SWAP2 POP SWAP1 POP SLOAD DUP2 JUMP JUMPDEST PUSH1 0x13 SLOAD DUP2 JUMP JUMPDEST PUSH2 0xFFC PUSH2 0xFF6 PUSH2 0x2875 JUMP JUMPDEST DUP3 PUSH2 0x2AF2 JUMP JUMPDEST PUSH2 0x103B JUMPI PUSH1 0x40 MLOAD PUSH32 0x8C379A000000000000000000000000000000000000000000000000000000000 DUP2 MSTORE PUSH1 0x4 ADD PUSH2 0x1032 SWAP1 PUSH2 0x449C JUMP JUMPDEST PUSH1 0x40 MLOAD DUP1 SWAP2 SUB SWAP1 REVERT JUMPDEST PUSH2 0x1046 DUP4 DUP4 DUP4 PUSH2 0x2BD0 JUMP JUMPDEST POP POP POP JUMP JUMPDEST PUSH1 0xD PUSH1 0x20 MSTORE DUP1 PUSH1 0x0 MSTORE PUSH1 0x40 PUSH1 0x0 KECCAK256 PUSH1 0x0 SWAP2 POP SWAP1 POP SLOAD DUP2 JUMP JUMPDEST PUSH2 0x106B PUSH2 0x2875 JUMP JUMPDEST PUSH20 0xFFFFFFFFFFFFFFFFFFFFFFFFFFFFFFFFFFFFFFFF AND PUSH2 0x1089 PUSH2 0x1AA1 JUMP JUMPDEST PUSH20 0xFFFFFFFFFFFFFFFFFFFFFFFFFFFFFFFFFFFFFFFF AND EQ PUSH2 0x10DF JUMPI PUSH1 0x40 MLOAD PUSH32 0x8C379A000000000000000000000000000000000000000000000000000000000 DUP2 MSTORE PUSH1 0x4 ADD PUSH2 0x10D6 SWAP1 PUSH2 0x41B1 JUMP JUMPDEST PUSH1 0x40 MLOAD DUP1 SWAP2 SUB SWAP1 REVERT JUMPDEST DUP1 PUSH1 0x15 PUSH1 0x1 PUSH2 0x100 EXP DUP2 SLOAD DUP2 PUSH1 0xFF MUL NOT AND SWAP1 DUP4 ISZERO ISZERO MUL OR SWAP1 SSTORE POP POP JUMP JUMPDEST PUSH2 0x1104 PUSH2 0x2875 JUMP JUMPDEST PUSH20 0xFFFFFFFFFFFFFFFFFFFFFFFFFFFFFFFFFFFFFFFF AND PUSH2 0x1122 PUSH2 0x1AA1 JUMP JUMPDEST PUSH20 0xFFFFFFFFFFFFFFFFFFFFFFFFFFFFFFFFFFFFFFFF AND EQ PUSH2 0x1178 JUMPI PUSH1 0x40 MLOAD PUSH32 0x8C379A000000000000000000000000000000000000000000000000000000000 DUP2 MSTORE PUSH1 0x4 ADD PUSH2 0x116F SWAP1 PUSH2 0x41B1 JUMP JUMPDEST PUSH1 0x40 MLOAD DUP1 SWAP2 SUB SWAP1 REVERT JUMPDEST PUSH1 0x0 CALLER PUSH20 0xFFFFFFFFFFFFFFFFFFFFFFFFFFFFFFFFFFFFFFFF AND DUP3 PUSH1 0x40 MLOAD PUSH2 0x119E SWAP1 PUSH2 0x44ED JUMP JUMPDEST PUSH1 0x0 PUSH1 0x40 MLOAD DUP1 DUP4 SUB DUP2 DUP6 DUP8 GAS CALL SWAP3 POP POP POP RETURNDATASIZE DUP1 PUSH1 0x0 DUP2 EQ PUSH2 0x11DB JUMPI PUSH1 0x40 MLOAD SWAP2 POP PUSH1 0x1F NOT PUSH1 0x3F RETURNDATASIZE ADD AND DUP3 ADD PUSH1 0x40 MSTORE RETURNDATASIZE DUP3 MSTORE RETURNDATASIZE PUSH1 0x0 PUSH1 0x20 DUP5 ADD RETURNDATACOPY PUSH2 0x11E0 JUMP JUMPDEST PUSH1 0x60 SWAP2 POP JUMPDEST POP POP SWAP1 POP DUP1 PUSH2 0x1224 JUMPI PUSH1 0x40 MLOAD PUSH32 0x8C379A000000000000000000000000000000000000000000000000000000000 DUP2 MSTORE PUSH1 0x4 ADD PUSH2 0x121B SWAP1 PUSH2 0x454E JUMP JUMPDEST PUSH1 0x40 MLOAD DUP1 SWAP2 SUB SWAP1 REVERT JUMPDEST POP POP JUMP JUMPDEST PUSH1 0x0 PUSH2 0x1233 DUP4 PUSH2 0x184D JUMP JUMPDEST DUP3 LT PUSH2 0x1274 JUMPI PUSH1 0x40 MLOAD PUSH32 0x8C379A000000000000000000000000000000000000000000000000000000000 DUP2 MSTORE PUSH1 0x4 ADD PUSH2 0x126B SWAP1 PUSH2 0x45E0 JUMP JUMPDEST PUSH1 0x40 MLOAD DUP1 SWAP2 SUB SWAP1 REVERT JUMPDEST PUSH1 0x6 PUSH1 0x0 DUP5 PUSH20 0xFFFFFFFFFFFFFFFFFFFFFFFFFFFFFFFFFFFFFFFF AND PUSH20 0xFFFFFFFFFFFFFFFFFFFFFFFFFFFFFFFFFFFFFFFF AND DUP2 MSTORE PUSH1 0x20 ADD SWAP1 DUP2 MSTORE PUSH1 0x20 ADD PUSH1 0x0 KECCAK256 PUSH1 0x0 DUP4 DUP2 MSTORE PUSH1 0x20 ADD SWAP1 DUP2 MSTORE PUSH1 0x20 ADD PUSH1 0x0 KECCAK256 SLOAD SWAP1 POP SWAP3 SWAP2 POP POP JUMP JUMPDEST PUSH2 0x12D5 PUSH2 0x2875 JUMP JUMPDEST PUSH20 0xFFFFFFFFFFFFFFFFFFFFFFFFFFFFFFFFFFFFFFFF AND PUSH2 0x12F3 PUSH2 0x1AA1 JUMP JUMPDEST PUSH20 0xFFFFFFFFFFFFFFFFFFFFFFFFFFFFFFFFFFFFFFFF AND EQ PUSH2 0x1349 JUMPI PUSH1 0x40 MLOAD PUSH32 0x8C379A000000000000000000000000000000000000000000000000000000000 DUP2 MSTORE PUSH1 0x4 ADD PUSH2 0x1340 SWAP1 PUSH2 0x41B1 JUMP JUMPDEST PUSH1 0x40 MLOAD DUP1 SWAP2 SUB SWAP1 REVERT JUMPDEST PUSH1 0x0 PUSH1 0x16 PUSH1 0x0 DUP4 PUSH20 0xFFFFFFFFFFFFFFFFFFFFFFFFFFFFFFFFFFFFFFFF AND PUSH20 0xFFFFFFFFFFFFFFFFFFFFFFFFFFFFFFFFFFFFFFFF AND DUP2 MSTORE PUSH1 0x20 ADD SWAP1 DUP2 MSTORE PUSH1 0x20 ADD PUSH1 0x0 KECCAK256 PUSH1 0x0 PUSH2 0x100 EXP DUP2 SLOAD DUP2 PUSH1 0xFF MUL NOT AND SWAP1 DUP4 ISZERO ISZERO MUL OR SWAP1 SSTORE POP POP JUMP JUMPDEST PUSH2 0x13AC PUSH2 0x2875 JUMP JUMPDEST PUSH20 0xFFFFFFFFFFFFFFFFFFFFFFFFFFFFFFFFFFFFFFFF AND PUSH2 0x13CA PUSH2 0x1AA1 JUMP JUMPDEST PUSH20 0xFFFFFFFFFFFFFFFFFFFFFFFFFFFFFFFFFFFFFFFF AND EQ PUSH2 0x1420 JUMPI PUSH1 0x40 MLOAD PUSH32 0x8C379A000000000000000000000000000000000000000000000000000000000 DUP2 MSTORE PUSH1 0x4 ADD PUSH2 0x1417 SWAP1 PUSH2 0x41B1 JUMP JUMPDEST PUSH1 0x40 MLOAD DUP1 SWAP2 SUB SWAP1 REVERT JUMPDEST DUP1 PUSH1 0x15 PUSH1 0x2 PUSH2 0x100 EXP DUP2 SLOAD DUP2 PUSH1 0xFF MUL NOT AND SWAP1 DUP4 ISZERO ISZERO MUL OR SWAP1 SSTORE POP POP JUMP JUMPDEST PUSH2 0x1458 DUP4 DUP4 DUP4 PUSH1 0x40 MLOAD DUP1 PUSH1 0x20 ADD PUSH1 0x40 MSTORE DUP1 PUSH1 0x0 DUP2 MSTORE POP PUSH2 0x2145 JUMP JUMPDEST POP POP POP JUMP JUMPDEST PUSH2 0x1465 PUSH2 0x2875 JUMP JUMPDEST PUSH20 0xFFFFFFFFFFFFFFFFFFFFFFFFFFFFFFFFFFFFFFFF AND PUSH2 0x1483 PUSH2 0x1AA1 JUMP JUMPDEST PUSH20 0xFFFFFFFFFFFFFFFFFFFFFFFFFFFFFFFFFFFFFFFF AND EQ PUSH2 0x14D9 JUMPI PUSH1 0x40 MLOAD PUSH32 0x8C379A000000000000000000000000000000000000000000000000000000000 DUP2 MSTORE PUSH1 0x4 ADD PUSH2 0x14D0 SWAP1 PUSH2 0x41B1 JUMP JUMPDEST PUSH1 0x40 MLOAD DUP1 SWAP2 SUB SWAP1 REVERT JUMPDEST DUP1 PUSH1 0x14 DUP2 SWAP1 SSTORE POP POP JUMP JUMPDEST PUSH2 0x14EB PUSH2 0x2875 JUMP JUMPDEST PUSH20 0xFFFFFFFFFFFFFFFFFFFFFFFFFFFFFFFFFFFFFFFF AND PUSH2 0x1509 PUSH2 0x1AA1 JUMP JUMPDEST PUSH20 0xFFFFFFFFFFFFFFFFFFFFFFFFFFFFFFFFFFFFFFFF AND EQ PUSH2 0x155F JUMPI PUSH1 0x40 MLOAD PUSH32 0x8C379A000000000000000000000000000000000000000000000000000000000 DUP2 MSTORE PUSH1 0x4 ADD PUSH2 0x1556 SWAP1 PUSH2 0x41B1 JUMP JUMPDEST PUSH1 0x40 MLOAD DUP1 SWAP2 SUB SWAP1 REVERT JUMPDEST PUSH1 0x1 PUSH1 0x16 PUSH1 0x0 DUP4 PUSH20 0xFFFFFFFFFFFFFFFFFFFFFFFFFFFFFFFFFFFFFFFF AND PUSH20 0xFFFFFFFFFFFFFFFFFFFFFFFFFFFFFFFFFFFFFFFF AND DUP2 MSTORE PUSH1 0x20 ADD SWAP1 DUP2 MSTORE PUSH1 0x20 ADD PUSH1 0x0 KECCAK256 PUSH1 0x0 PUSH2 0x100 EXP DUP2 SLOAD DUP2 PUSH1 0xFF MUL NOT AND SWAP1 DUP4 ISZERO ISZERO MUL OR SWAP1 SSTORE POP POP JUMP JUMPDEST PUSH1 0x0 PUSH2 0x15C4 PUSH2 0xFC0 JUMP JUMPDEST DUP3 LT PUSH2 0x1605 JUMPI PUSH1 0x40 MLOAD PUSH32 0x8C379A000000000000000000000000000000000000000000000000000000000 DUP2 MSTORE PUSH1 0x4 ADD PUSH2 0x15FC SWAP1 PUSH2 0x4672 JUMP JUMPDEST PUSH1 0x40 MLOAD DUP1 SWAP2 SUB SWAP1 REVERT JUMPDEST PUSH1 0x8 DUP3 DUP2 SLOAD DUP2 LT PUSH2 0x1619 JUMPI PUSH2 0x1618 PUSH2 0x4692 JUMP JUMPDEST JUMPDEST SWAP1 PUSH1 0x0 MSTORE PUSH1 0x20 PUSH1 0x0 KECCAK256 ADD SLOAD SWAP1 POP SWAP2 SWAP1 POP JUMP JUMPDEST PUSH1 0x15 PUSH1 0x1 SWAP1 SLOAD SWAP1 PUSH2 0x100 EXP SWAP1 DIV PUSH1 0xFF AND DUP2 JUMP JUMPDEST PUSH2 0x1646 PUSH2 0x2875 JUMP JUMPDEST PUSH20 0xFFFFFFFFFFFFFFFFFFFFFFFFFFFFFFFFFFFFFFFF AND PUSH2 0x1664 PUSH2 0x1AA1 JUMP JUMPDEST PUSH20 0xFFFFFFFFFFFFFFFFFFFFFFFFFFFFFFFFFFFFFFFF AND EQ PUSH2 0x16BA JUMPI PUSH1 0x40 MLOAD PUSH32 0x8C379A000000000000000000000000000000000000000000000000000000000 DUP2 MSTORE PUSH1 0x4 ADD PUSH2 0x16B1 SWAP1 PUSH2 0x41B1 JUMP JUMPDEST PUSH1 0x40 MLOAD DUP1 SWAP2 SUB SWAP1 REVERT JUMPDEST DUP1 PUSH1 0xF SWAP1 DUP1 MLOAD SWAP1 PUSH1 0x20 ADD SWAP1 PUSH2 0x16D0 SWAP3 SWAP2 SWAP1 PUSH2 0x39AC JUMP JUMPDEST POP POP JUMP JUMPDEST PUSH1 0x15 PUSH1 0x0 SWAP1 SLOAD SWAP1 PUSH2 0x100 EXP SWAP1 DIV PUSH1 0xFF AND DUP2 JUMP JUMPDEST PUSH1 0x0 DUP1 PUSH1 0x2 PUSH1 0x0 DUP5 DUP2 MSTORE PUSH1 0x20 ADD SWAP1 DUP2 MSTORE PUSH1 0x20 ADD PUSH1 0x0 KECCAK256 PUSH1 0x0 SWAP1 SLOAD SWAP1 PUSH2 0x100 EXP SWAP1 DIV PUSH20 0xFFFFFFFFFFFFFFFFFFFFFFFFFFFFFFFFFFFFFFFF AND SWAP1 POP PUSH1 0x0 PUSH20 0xFFFFFFFFFFFFFFFFFFFFFFFFFFFFFFFFFFFFFFFF AND DUP2 PUSH20 0xFFFFFFFFFFFFFFFFFFFFFFFFFFFFFFFFFFFFFFFF AND EQ ISZERO PUSH2 0x1790 JUMPI PUSH1 0x40 MLOAD PUSH32 0x8C379A000000000000000000000000000000000000000000000000000000000 DUP2 MSTORE PUSH1 0x4 ADD PUSH2 0x1787 SWAP1 PUSH2 0x4733 JUMP JUMPDEST PUSH1 0x40 MLOAD DUP1 SWAP2 SUB SWAP1 REVERT JUMPDEST DUP1 SWAP2 POP POP SWAP2 SWAP1 POP JUMP JUMPDEST PUSH1 0xC PUSH1 0x0 SWAP1 SLOAD SWAP1 PUSH2 0x100 EXP SWAP1 DIV PUSH20 0xFFFFFFFFFFFFFFFFFFFFFFFFFFFFFFFFFFFFFFFF AND DUP2 JUMP JUMPDEST PUSH1 0xF DUP1 SLOAD PUSH2 0x17CC SWAP1 PUSH2 0x4200 JUMP JUMPDEST DUP1 PUSH1 0x1F ADD PUSH1 0x20 DUP1 SWAP2 DIV MUL PUSH1 0x20 ADD PUSH1 0x40 MLOAD SWAP1 DUP2 ADD PUSH1 0x40 MSTORE DUP1 SWAP3 SWAP2 SWAP1 DUP2 DUP2 MSTORE PUSH1 0x20 ADD DUP3 DUP1 SLOAD PUSH2 0x17F8 SWAP1 PUSH2 0x4200 JUMP JUMPDEST DUP1 ISZERO PUSH2 0x1845 JUMPI DUP1 PUSH1 0x1F LT PUSH2 0x181A JUMPI PUSH2 0x100 DUP1 DUP4 SLOAD DIV MUL DUP4 MSTORE SWAP2 PUSH1 0x20 ADD SWAP2 PUSH2 0x1845 JUMP JUMPDEST DUP3 ADD SWAP2 SWAP1 PUSH1 0x0 MSTORE PUSH1 0x20 PUSH1 0x0 KECCAK256 SWAP1 JUMPDEST DUP2 SLOAD DUP2 MSTORE SWAP1 PUSH1 0x1 ADD SWAP1 PUSH1 0x20 ADD DUP1 DUP4 GT PUSH2 0x1828 JUMPI DUP3 SWAP1 SUB PUSH1 0x1F AND DUP3 ADD SWAP2 JUMPDEST POP POP POP POP POP DUP2 JUMP JUMPDEST PUSH1 0x0 DUP1 PUSH20 0xFFFFFFFFFFFFFFFFFFFFFFFFFFFFFFFFFFFFFFFF AND DUP3 PUSH20 0xFFFFFFFFFFFFFFFFFFFFFFFFFFFFFFFFFFFFFFFF AND EQ ISZERO PUSH2 0x18BE JUMPI PUSH1 0x40 MLOAD PUSH32 0x8C379A000000000000000000000000000000000000000000000000000000000 DUP2 MSTORE PUSH1 0x4 ADD PUSH2 0x18B5 SWAP1 PUSH2 0x47C5 JUMP JUMPDEST PUSH1 0x40 MLOAD DUP1 SWAP2 SUB SWAP1 REVERT JUMPDEST PUSH1 0x3 PUSH1 0x0 DUP4 PUSH20 0xFFFFFFFFFFFFFFFFFFFFFFFFFFFFFFFFFFFFFFFF AND PUSH20 0xFFFFFFFFFFFFFFFFFFFFFFFFFFFFFFFFFFFFFFFF AND DUP2 MSTORE PUSH1 0x20 ADD SWAP1 DUP2 MSTORE PUSH1 0x20 ADD PUSH1 0x0 KECCAK256 SLOAD SWAP1 POP SWAP2 SWAP1 POP JUMP JUMPDEST PUSH2 0x190D PUSH2 0x2875 JUMP JUMPDEST PUSH20 0xFFFFFFFFFFFFFFFFFFFFFFFFFFFFFFFFFFFFFFFF AND PUSH2 0x192B PUSH2 0x1AA1 JUMP JUMPDEST PUSH20 0xFFFFFFFFFFFFFFFFFFFFFFFFFFFFFFFFFFFFFFFF AND EQ PUSH2 0x1981 JUMPI PUSH1 0x40 MLOAD PUSH32 0x8C379A000000000000000000000000000000000000000000000000000000000 DUP2 MSTORE PUSH1 0x4 ADD PUSH2 0x1978 SWAP1 PUSH2 0x41B1 JUMP JUMPDEST PUSH1 0x40 MLOAD DUP1 SWAP2 SUB SWAP1 REVERT JUMPDEST PUSH2 0x198B PUSH1 0x0 PUSH2 0x2E2C JUMP JUMPDEST JUMP JUMPDEST PUSH1 0x11 DUP1 SLOAD PUSH2 0x199A SWAP1 PUSH2 0x4200 JUMP JUMPDEST DUP1 PUSH1 0x1F ADD PUSH1 0x20 DUP1 SWAP2 DIV MUL PUSH1 0x20 ADD PUSH1 0x40 MLOAD SWAP1 DUP2 ADD PUSH1 0x40 MSTORE DUP1 SWAP3 SWAP2 SWAP1 DUP2 DUP2 MSTORE PUSH1 0x20 ADD DUP3 DUP1 SLOAD PUSH2 0x19C6 SWAP1 PUSH2 0x4200 JUMP JUMPDEST DUP1 ISZERO PUSH2 0x1A13 JUMPI DUP1 PUSH1 0x1F LT PUSH2 0x19E8 JUMPI PUSH2 0x100 DUP1 DUP4 SLOAD DIV MUL DUP4 MSTORE SWAP2 PUSH1 0x20 ADD SWAP2 PUSH2 0x1A13 JUMP JUMPDEST DUP3 ADD SWAP2 SWAP1 PUSH1 0x0 MSTORE PUSH1 0x20 PUSH1 0x0 KECCAK256 SWAP1 JUMPDEST DUP2 SLOAD DUP2 MSTORE SWAP1 PUSH1 0x1 ADD SWAP1 PUSH1 0x20 ADD DUP1 DUP4 GT PUSH2 0x19F6 JUMPI DUP3 SWAP1 SUB PUSH1 0x1F AND DUP3 ADD SWAP2 JUMPDEST POP POP POP POP POP DUP2 JUMP JUMPDEST PUSH2 0x1A23 PUSH2 0x2875 JUMP JUMPDEST PUSH20 0xFFFFFFFFFFFFFFFFFFFFFFFFFFFFFFFFFFFFFFFF AND PUSH2 0x1A41 PUSH2 0x1AA1 JUMP JUMPDEST PUSH20 0xFFFFFFFFFFFFFFFFFFFFFFFFFFFFFFFFFFFFFFFF AND EQ PUSH2 0x1A97 JUMPI PUSH1 0x40 MLOAD PUSH32 0x8C379A000000000000000000000000000000000000000000000000000000000 DUP2 MSTORE PUSH1 0x4 ADD PUSH2 0x1A8E SWAP1 PUSH2 0x41B1 JUMP JUMPDEST PUSH1 0x40 MLOAD DUP1 SWAP2 SUB SWAP1 REVERT JUMPDEST DUP1 PUSH1 0x13 DUP2 SWAP1 SSTORE POP POP JUMP JUMPDEST PUSH1 0x0 PUSH1 0xA PUSH1 0x0 SWAP1 SLOAD SWAP1 PUSH2 0x100 EXP SWAP1 DIV PUSH20 0xFFFFFFFFFFFFFFFFFFFFFFFFFFFFFFFFFFFFFFFF AND SWAP1 POP SWAP1 JUMP JUMPDEST PUSH1 0x60 PUSH1 0x1 DUP1 SLOAD PUSH2 0x1ADA SWAP1 PUSH2 0x4200 JUMP JUMPDEST DUP1 PUSH1 0x1F ADD PUSH1 0x20 DUP1 SWAP2 DIV MUL PUSH1 0x20 ADD PUSH1 0x40 MLOAD SWAP1 DUP2 ADD PUSH1 0x40 MSTORE DUP1 SWAP3 SWAP2 SWAP1 DUP2 DUP2 MSTORE PUSH1 0x20 ADD DUP3 DUP1 SLOAD PUSH2 0x1B06 SWAP1 PUSH2 0x4200 JUMP JUMPDEST DUP1 ISZERO PUSH2 0x1B53 JUMPI DUP1 PUSH1 0x1F LT PUSH2 0x1B28 JUMPI PUSH2 0x100 DUP1 DUP4 SLOAD DIV MUL DUP4 MSTORE SWAP2 PUSH1 0x20 ADD SWAP2 PUSH2 0x1B53 JUMP JUMPDEST DUP3 ADD SWAP2 SWAP1 PUSH1 0x0 MSTORE PUSH1 0x20 PUSH1 0x0 KECCAK256 SWAP1 JUMPDEST DUP2 SLOAD DUP2 MSTORE SWAP1 PUSH1 0x1 ADD SWAP1 PUSH1 0x20 ADD DUP1 DUP4 GT PUSH2 0x1B36 JUMPI DUP3 SWAP1 SUB PUSH1 0x1F AND DUP3 ADD SWAP2 JUMPDEST POP POP POP POP POP SWAP1 POP SWAP1 JUMP JUMPDEST PUSH1 0x15 PUSH1 0x2 SWAP1 SLOAD SWAP1 PUSH2 0x100 EXP SWAP1 DIV PUSH1 0xFF AND DUP2 JUMP JUMPDEST PUSH1 0x15 PUSH1 0x0 SWAP1 SLOAD SWAP1 PUSH2 0x100 EXP SWAP1 DIV PUSH1 0xFF AND ISZERO PUSH2 0x1BC0 JUMPI PUSH1 0x40 MLOAD PUSH32 0x8C379A000000000000000000000000000000000000000000000000000000000 DUP2 MSTORE PUSH1 0x4 ADD PUSH2 0x1BB7 SWAP1 PUSH2 0x4831 JUMP JUMPDEST PUSH1 0x40 MLOAD DUP1 SWAP2 SUB SWAP1 REVERT JUMPDEST PUSH1 0x0 PUSH2 0x1BCA PUSH2 0xFC0 JUMP JUMPDEST SWAP1 POP PUSH1 0x0 DUP3 GT PUSH2 0x1C0F JUMPI PUSH1 0x40 MLOAD PUSH32 0x8C379A000000000000000000000000000000000000000000000000000000000 DUP2 MSTORE PUSH1 0x4 ADD PUSH2 0x1C06 SWAP1 PUSH2 0x48C3 JUMP JUMPDEST PUSH1 0x40 MLOAD DUP1 SWAP2 SUB SWAP1 REVERT JUMPDEST PUSH1 0x1 PUSH1 0x12 SLOAD PUSH2 0x1C1E SWAP2 SWAP1 PUSH2 0x4912 JUMP JUMPDEST DUP3 DUP3 PUSH2 0x1C2A SWAP2 SWAP1 PUSH2 0x4912 JUMP JUMPDEST LT PUSH2 0x1C6A JUMPI PUSH1 0x40 MLOAD PUSH32 0x8C379A000000000000000000000000000000000000000000000000000000000 DUP2 MSTORE PUSH1 0x4 ADD PUSH2 0x1C61 SWAP1 PUSH2 0x49B4 JUMP JUMPDEST PUSH1 0x40 MLOAD DUP1 SWAP2 SUB SWAP1 REVERT JUMPDEST PUSH2 0x1C72 PUSH2 0x1AA1 JUMP JUMPDEST PUSH20 0xFFFFFFFFFFFFFFFFFFFFFFFFFFFFFFFFFFFFFFFF AND CALLER PUSH20 0xFFFFFFFFFFFFFFFFFFFFFFFFFFFFFFFFFFFFFFFF AND EQ PUSH2 0x1D3A JUMPI PUSH1 0x13 SLOAD DUP3 GT ISZERO PUSH2 0x1CE9 JUMPI PUSH1 0x40 MLOAD PUSH32 0x8C379A000000000000000000000000000000000000000000000000000000000 DUP2 MSTORE PUSH1 0x4 ADD PUSH2 0x1CE0 SWAP1 PUSH2 0x4A46 JUMP JUMPDEST PUSH1 0x40 MLOAD DUP1 SWAP2 SUB SWAP1 REVERT JUMPDEST DUP2 PUSH1 0x14 SLOAD PUSH2 0x1CF7 SWAP2 SWAP1 PUSH2 0x4A66 JUMP JUMPDEST CALLVALUE LT ISZERO PUSH2 0x1D39 JUMPI PUSH1 0x40 MLOAD PUSH32 0x8C379A000000000000000000000000000000000000000000000000000000000 DUP2 MSTORE PUSH1 0x4 ADD PUSH2 0x1D30 SWAP1 PUSH2 0x4B0C JUMP JUMPDEST PUSH1 0x40 MLOAD DUP1 SWAP2 SUB SWAP1 REVERT JUMPDEST JUMPDEST PUSH1 0x0 JUMPDEST DUP3 DUP2 LT ISZERO PUSH2 0x1DCD JUMPI PUSH2 0x1D5B CALLER PUSH1 0x1 DUP5 PUSH2 0x1D56 SWAP2 SWAP1 PUSH2 0x4912 JUMP JUMPDEST PUSH2 0x2EF2 JUMP JUMPDEST PUSH1 0x19 PUSH1 0x0 CALLER PUSH20 0xFFFFFFFFFFFFFFFFFFFFFFFFFFFFFFFFFFFFFFFF AND PUSH20 0xFFFFFFFFFFFFFFFFFFFFFFFFFFFFFFFFFFFFFFFF AND DUP2 MSTORE PUSH1 0x20 ADD SWAP1 DUP2 MSTORE PUSH1 0x20 ADD PUSH1 0x0 KECCAK256 PUSH1 0x0 DUP2 SLOAD DUP1 SWAP3 SWAP2 SWAP1 PUSH2 0x1DAB SWAP1 PUSH2 0x4B2C JUMP JUMPDEST SWAP2 SWAP1 POP SSTORE POP PUSH2 0x1DB8 PUSH2 0xFC0 JUMP JUMPDEST SWAP2 POP DUP1 DUP1 PUSH2 0x1DC5 SWAP1 PUSH2 0x4B2C JUMP JUMPDEST SWAP2 POP POP PUSH2 0x1D3D JUMP JUMPDEST POP POP POP JUMP JUMPDEST PUSH2 0x1DDA PUSH2 0x2875 JUMP JUMPDEST PUSH20 0xFFFFFFFFFFFFFFFFFFFFFFFFFFFFFFFFFFFFFFFF AND DUP3 PUSH20 0xFFFFFFFFFFFFFFFFFFFFFFFFFFFFFFFFFFFFFFFF AND EQ ISZERO PUSH2 0x1E48 JUMPI PUSH1 0x40 MLOAD PUSH32 0x8C379A000000000000000000000000000000000000000000000000000000000 DUP2 MSTORE PUSH1 0x4 ADD PUSH2 0x1E3F SWAP1 PUSH2 0x4BC1 JUMP JUMPDEST PUSH1 0x40 MLOAD DUP1 SWAP2 SUB SWAP1 REVERT JUMPDEST DUP1 PUSH1 0x5 PUSH1 0x0 PUSH2 0x1E55 PUSH2 0x2875 JUMP JUMPDEST PUSH20 0xFFFFFFFFFFFFFFFFFFFFFFFFFFFFFFFFFFFFFFFF AND PUSH20 0xFFFFFFFFFFFFFFFFFFFFFFFFFFFFFFFFFFFFFFFF AND DUP2 MSTORE PUSH1 0x20 ADD SWAP1 DUP2 MSTORE PUSH1 0x20 ADD PUSH1 0x0 KECCAK256 PUSH1 0x0 DUP5 PUSH20 0xFFFFFFFFFFFFFFFFFFFFFFFFFFFFFFFFFFFFFFFF AND PUSH20 0xFFFFFFFFFFFFFFFFFFFFFFFFFFFFFFFFFFFFFFFF AND DUP2 MSTORE PUSH1 0x20 ADD SWAP1 DUP2 MSTORE PUSH1 0x20 ADD PUSH1 0x0 KECCAK256 PUSH1 0x0 PUSH2 0x100 EXP DUP2 SLOAD DUP2 PUSH1 0xFF MUL NOT AND SWAP1 DUP4 ISZERO ISZERO MUL OR SWAP1 SSTORE POP DUP2 PUSH20 0xFFFFFFFFFFFFFFFFFFFFFFFFFFFFFFFFFFFFFFFF AND PUSH2 0x1F02 PUSH2 0x2875 JUMP JUMPDEST PUSH20 0xFFFFFFFFFFFFFFFFFFFFFFFFFFFFFFFFFFFFFFFF AND PUSH32 0x17307EAB39AB6107E8899845AD3D59BD9653F200F220920489CA2B5937696C31 DUP4 PUSH1 0x40 MLOAD PUSH2 0x1F47 SWAP2 SWAP1 PUSH2 0x3B03 JUMP JUMPDEST PUSH1 0x40 MLOAD DUP1 SWAP2 SUB SWAP1 LOG3 POP POP JUMP JUMPDEST PUSH1 0x0 PUSH1 0x19 PUSH1 0x0 DUP4 PUSH20 0xFFFFFFFFFFFFFFFFFFFFFFFFFFFFFFFFFFFFFFFF AND PUSH20 0xFFFFFFFFFFFFFFFFFFFFFFFFFFFFFFFFFFFFFFFF AND DUP2 MSTORE PUSH1 0x20 ADD SWAP1 DUP2 MSTORE PUSH1 0x20 ADD PUSH1 0x0 KECCAK256 SLOAD SWAP1 POP SWAP2 SWAP1 POP JUMP JUMPDEST PUSH1 0x1A PUSH1 0x0 SWAP1 SLOAD SWAP1 PUSH2 0x100 EXP SWAP1 DIV PUSH20 0xFFFFFFFFFFFFFFFFFFFFFFFFFFFFFFFFFFFFFFFF AND DUP2 JUMP JUMPDEST PUSH2 0x1FCA PUSH2 0x2875 JUMP JUMPDEST PUSH20 0xFFFFFFFFFFFFFFFFFFFFFFFFFFFFFFFFFFFFFFFF AND PUSH2 0x1FE8 PUSH2 0x1AA1 JUMP JUMPDEST PUSH20 0xFFFFFFFFFFFFFFFFFFFFFFFFFFFFFFFFFFFFFFFF AND EQ PUSH2 0x203E JUMPI PUSH1 0x40 MLOAD PUSH32 0x8C379A000000000000000000000000000000000000000000000000000000000 DUP2 MSTORE PUSH1 0x4 ADD PUSH2 0x2035 SWAP1 PUSH2 0x41B1 JUMP JUMPDEST PUSH1 0x40 MLOAD DUP1 SWAP2 SUB SWAP1 REVERT JUMPDEST DUP1 PUSH1 0xB PUSH1 0x0 PUSH2 0x100 EXP DUP2 SLOAD DUP2 PUSH20 0xFFFFFFFFFFFFFFFFFFFFFFFFFFFFFFFFFFFFFFFF MUL NOT AND SWAP1 DUP4 PUSH20 0xFFFFFFFFFFFFFFFFFFFFFFFFFFFFFFFFFFFFFFFF AND MUL OR SWAP1 SSTORE POP DUP1 PUSH1 0xC PUSH1 0x0 PUSH2 0x100 EXP DUP2 SLOAD DUP2 PUSH20 0xFFFFFFFFFFFFFFFFFFFFFFFFFFFFFFFFFFFFFFFF MUL NOT AND SWAP1 DUP4 PUSH20 0xFFFFFFFFFFFFFFFFFFFFFFFFFFFFFFFFFFFFFFFF AND MUL OR SWAP1 SSTORE POP PUSH1 0xB PUSH1 0x0 SWAP1 SLOAD SWAP1 PUSH2 0x100 EXP SWAP1 DIV PUSH20 0xFFFFFFFFFFFFFFFFFFFFFFFFFFFFFFFFFFFFFFFF AND PUSH20 0xFFFFFFFFFFFFFFFFFFFFFFFFFFFFFFFFFFFFFFFF AND PUSH4 0xDBDFF2C1 PUSH1 0x40 MLOAD DUP2 PUSH4 0xFFFFFFFF AND PUSH1 0xE0 SHL DUP2 MSTORE PUSH1 0x4 ADD PUSH1 0x0 PUSH1 0x40 MLOAD DUP1 DUP4 SUB DUP2 PUSH1 0x0 DUP8 DUP1 EXTCODESIZE ISZERO DUP1 ISZERO PUSH2 0x212A JUMPI PUSH1 0x0 DUP1 REVERT JUMPDEST POP GAS CALL ISZERO DUP1 ISZERO PUSH2 0x213E JUMPI RETURNDATASIZE PUSH1 0x0 DUP1 RETURNDATACOPY RETURNDATASIZE PUSH1 0x0 REVERT JUMPDEST POP POP POP POP POP JUMP JUMPDEST PUSH2 0x2156 PUSH2 0x2150 PUSH2 0x2875 JUMP JUMPDEST DUP4 PUSH2 0x2AF2 JUMP JUMPDEST PUSH2 0x2195 JUMPI PUSH1 0x40 MLOAD PUSH32 0x8C379A000000000000000000000000000000000000000000000000000000000 DUP2 MSTORE PUSH1 0x4 ADD PUSH2 0x218C SWAP1 PUSH2 0x449C JUMP JUMPDEST PUSH1 0x40 MLOAD DUP1 SWAP2 SUB SWAP1 REVERT JUMPDEST PUSH2 0x21A1 DUP5 DUP5 DUP5 DUP5 PUSH2 0x2F10 JUMP JUMPDEST POP POP POP POP JUMP JUMPDEST PUSH1 0x10 DUP1 SLOAD PUSH2 0x21B4 SWAP1 PUSH2 0x4200 JUMP JUMPDEST DUP1 PUSH1 0x1F ADD PUSH1 0x20 DUP1 SWAP2 DIV MUL PUSH1 0x20 ADD PUSH1 0x40 MLOAD SWAP1 DUP2 ADD PUSH1 0x40 MSTORE DUP1 SWAP3 SWAP2 SWAP1 DUP2 DUP2 MSTORE PUSH1 0x20 ADD DUP3 DUP1 SLOAD PUSH2 0x21E0 SWAP1 PUSH2 0x4200 JUMP JUMPDEST DUP1 ISZERO PUSH2 0x222D JUMPI DUP1 PUSH1 0x1F LT PUSH2 0x2202 JUMPI PUSH2 0x100 DUP1 DUP4 SLOAD DIV MUL DUP4 MSTORE SWAP2 PUSH1 0x20 ADD SWAP2 PUSH2 0x222D JUMP JUMPDEST DUP3 ADD SWAP2 SWAP1 PUSH1 0x0 MSTORE PUSH1 0x20 PUSH1 0x0 KECCAK256 SWAP1 JUMPDEST DUP2 SLOAD DUP2 MSTORE SWAP1 PUSH1 0x1 ADD SWAP1 PUSH1 0x20 ADD DUP1 DUP4 GT PUSH2 0x2210 JUMPI DUP3 SWAP1 SUB PUSH1 0x1F AND DUP3 ADD SWAP2 JUMPDEST POP POP POP POP POP DUP2 JUMP JUMPDEST PUSH1 0x60 PUSH2 0x2240 DUP3 PUSH2 0x287D JUMP JUMPDEST PUSH2 0x227F JUMPI PUSH1 0x40 MLOAD PUSH32 0x8C379A000000000000000000000000000000000000000000000000000000000 DUP2 MSTORE PUSH1 0x4 ADD PUSH2 0x2276 SWAP1 PUSH2 0x4C53 JUMP JUMPDEST PUSH1 0x40 MLOAD DUP1 SWAP2 SUB SWAP1 REVERT JUMPDEST PUSH1 0x0 ISZERO ISZERO PUSH1 0x15 PUSH1 0x1 SWAP1 SLOAD SWAP1 PUSH2 0x100 EXP SWAP1 DIV PUSH1 0xFF AND ISZERO ISZERO EQ ISZERO PUSH2 0x232D JUMPI PUSH1 0x11 DUP1 SLOAD PUSH2 0x22A8 SWAP1 PUSH2 0x4200 JUMP JUMPDEST DUP1 PUSH1 0x1F ADD PUSH1 0x20 DUP1 SWAP2 DIV MUL PUSH1 0x20 ADD PUSH1 0x40 MLOAD SWAP1 DUP2 ADD PUSH1 0x40 MSTORE DUP1 SWAP3 SWAP2 SWAP1 DUP2 DUP2 MSTORE PUSH1 0x20 ADD DUP3 DUP1 SLOAD PUSH2 0x22D4 SWAP1 PUSH2 0x4200 JUMP JUMPDEST DUP1 ISZERO PUSH2 0x2321 JUMPI DUP1 PUSH1 0x1F LT PUSH2 0x22F6 JUMPI PUSH2 0x100 DUP1 DUP4 SLOAD DIV MUL DUP4 MSTORE SWAP2 PUSH1 0x20 ADD SWAP2 PUSH2 0x2321 JUMP JUMPDEST DUP3 ADD SWAP2 SWAP1 PUSH1 0x0 MSTORE PUSH1 0x20 PUSH1 0x0 KECCAK256 SWAP1 JUMPDEST DUP2 SLOAD DUP2 MSTORE SWAP1 PUSH1 0x1 ADD SWAP1 PUSH1 0x20 ADD DUP1 DUP4 GT PUSH2 0x2304 JUMPI DUP3 SWAP1 SUB PUSH1 0x1F AND DUP3 ADD SWAP2 JUMPDEST POP POP POP POP POP SWAP1 POP PUSH2 0x239C JUMP JUMPDEST PUSH1 0x0 PUSH2 0x2337 PUSH2 0x2F6C JUMP JUMPDEST SWAP1 POP PUSH1 0x0 DUP2 MLOAD GT PUSH2 0x2357 JUMPI PUSH1 0x40 MLOAD DUP1 PUSH1 0x20 ADD PUSH1 0x40 MSTORE DUP1 PUSH1 0x0 DUP2 MSTORE POP PUSH2 0x2398 JUMP JUMPDEST DUP1 PUSH2 0x2374 PUSH1 0xD PUSH1 0x0 DUP7 DUP2 MSTORE PUSH1 0x20 ADD SWAP1 DUP2 MSTORE PUSH1 0x20 ADD PUSH1 0x0 KECCAK256 SLOAD PUSH2 0x2FFE JUMP JUMPDEST PUSH1 0x10 PUSH1 0x40 MLOAD PUSH1 0x20 ADD PUSH2 0x2388 SWAP4 SWAP3 SWAP2 SWAP1 PUSH2 0x4D43 JUMP JUMPDEST PUSH1 0x40 MLOAD PUSH1 0x20 DUP2 DUP4 SUB SUB DUP2 MSTORE SWAP1 PUSH1 0x40 MSTORE JUMPDEST SWAP2 POP POP JUMPDEST SWAP2 SWAP1 POP JUMP JUMPDEST PUSH1 0x12 SLOAD DUP2 JUMP JUMPDEST PUSH1 0x16 PUSH1 0x20 MSTORE DUP1 PUSH1 0x0 MSTORE PUSH1 0x40 PUSH1 0x0 KECCAK256 PUSH1 0x0 SWAP2 POP SLOAD SWAP1 PUSH2 0x100 EXP SWAP1 DIV PUSH1 0xFF AND DUP2 JUMP JUMPDEST PUSH2 0x23CF PUSH2 0x2875 JUMP JUMPDEST PUSH20 0xFFFFFFFFFFFFFFFFFFFFFFFFFFFFFFFFFFFFFFFF AND PUSH2 0x23ED PUSH2 0x1AA1 JUMP JUMPDEST PUSH20 0xFFFFFFFFFFFFFFFFFFFFFFFFFFFFFFFFFFFFFFFF AND EQ PUSH2 0x2443 JUMPI PUSH1 0x40 MLOAD PUSH32 0x8C379A000000000000000000000000000000000000000000000000000000000 DUP2 MSTORE PUSH1 0x4 ADD PUSH2 0x243A SWAP1 PUSH2 0x41B1 JUMP JUMPDEST PUSH1 0x40 MLOAD DUP1 SWAP2 SUB SWAP1 REVERT JUMPDEST DUP1 PUSH1 0x10 SWAP1 DUP1 MLOAD SWAP1 PUSH1 0x20 ADD SWAP1 PUSH2 0x2459 SWAP3 SWAP2 SWAP1 PUSH2 0x39AC JUMP JUMPDEST POP POP JUMP JUMPDEST PUSH1 0x0 PUSH2 0x2467 PUSH2 0x2875 JUMP JUMPDEST PUSH20 0xFFFFFFFFFFFFFFFFFFFFFFFFFFFFFFFFFFFFFFFF AND PUSH2 0x2485 PUSH2 0x1AA1 JUMP JUMPDEST PUSH20 0xFFFFFFFFFFFFFFFFFFFFFFFFFFFFFFFFFFFFFFFF AND EQ PUSH2 0x24DB JUMPI PUSH1 0x40 MLOAD PUSH32 0x8C379A000000000000000000000000000000000000000000000000000000000 DUP2 MSTORE PUSH1 0x4 ADD PUSH2 0x24D2 SWAP1 PUSH2 0x41B1 JUMP JUMPDEST PUSH1 0x40 MLOAD DUP1 SWAP2 SUB SWAP1 REVERT JUMPDEST PUSH1 0xB PUSH1 0x0 SWAP1 SLOAD SWAP1 PUSH2 0x100 EXP SWAP1 DIV PUSH20 0xFFFFFFFFFFFFFFFFFFFFFFFFFFFFFFFFFFFFFFFF AND PUSH20 0xFFFFFFFFFFFFFFFFFFFFFFFFFFFFFFFFFFFFFFFF AND PUSH4 0x7390C786 PUSH1 0x40 MLOAD DUP2 PUSH4 0xFFFFFFFF AND PUSH1 0xE0 SHL DUP2 MSTORE PUSH1 0x4 ADD PUSH1 0x20 PUSH1 0x40 MLOAD DUP1 DUP4 SUB DUP2 DUP7 GAS STATICCALL ISZERO DUP1 ISZERO PUSH2 0x2548 JUMPI RETURNDATASIZE PUSH1 0x0 DUP1 RETURNDATACOPY RETURNDATASIZE PUSH1 0x0 REVERT JUMPDEST POP POP POP POP PUSH1 0x40 MLOAD RETURNDATASIZE PUSH1 0x1F NOT PUSH1 0x1F DUP3 ADD AND DUP3 ADD DUP1 PUSH1 0x40 MSTORE POP DUP2 ADD SWAP1 PUSH2 0x256C SWAP2 SWAP1 PUSH2 0x43FD JUMP JUMPDEST SWAP1 POP SWAP1 JUMP JUMPDEST PUSH1 0x0 PUSH1 0x5 PUSH1 0x0 DUP5 PUSH20 0xFFFFFFFFFFFFFFFFFFFFFFFFFFFFFFFFFFFFFFFF AND PUSH20 0xFFFFFFFFFFFFFFFFFFFFFFFFFFFFFFFFFFFFFFFF AND DUP2 MSTORE PUSH1 0x20 ADD SWAP1 DUP2 MSTORE PUSH1 0x20 ADD PUSH1 0x0 KECCAK256 PUSH1 0x0 DUP4 PUSH20 0xFFFFFFFFFFFFFFFFFFFFFFFFFFFFFFFFFFFFFFFF AND PUSH20 0xFFFFFFFFFFFFFFFFFFFFFFFFFFFFFFFFFFFFFFFF AND DUP2 MSTORE PUSH1 0x20 ADD SWAP1 DUP2 MSTORE PUSH1 0x20 ADD PUSH1 0x0 KECCAK256 PUSH1 0x0 SWAP1 SLOAD SWAP1 PUSH2 0x100 EXP SWAP1 DIV PUSH1 0xFF AND SWAP1 POP SWAP3 SWAP2 POP POP JUMP JUMPDEST PUSH2 0x260D PUSH2 0x2875 JUMP JUMPDEST PUSH20 0xFFFFFFFFFFFFFFFFFFFFFFFFFFFFFFFFFFFFFFFF AND PUSH2 0x262B PUSH2 0x1AA1 JUMP JUMPDEST PUSH20 0xFFFFFFFFFFFFFFFFFFFFFFFFFFFFFFFFFFFFFFFF AND EQ PUSH2 0x2681 JUMPI PUSH1 0x40 MLOAD PUSH32 0x8C379A000000000000000000000000000000000000000000000000000000000 DUP2 MSTORE PUSH1 0x4 ADD PUSH2 0x2678 SWAP1 PUSH2 0x41B1 JUMP JUMPDEST PUSH1 0x40 MLOAD DUP1 SWAP2 SUB SWAP1 REVERT JUMPDEST DUP1 PUSH1 0x11 SWAP1 DUP1 MLOAD SWAP1 PUSH1 0x20 ADD SWAP1 PUSH2 0x2697 SWAP3 SWAP2 SWAP1 PUSH2 0x39AC JUMP JUMPDEST POP POP JUMP JUMPDEST PUSH2 0x26A3 PUSH2 0x2875 JUMP JUMPDEST PUSH20 0xFFFFFFFFFFFFFFFFFFFFFFFFFFFFFFFFFFFFFFFF AND PUSH2 0x26C1 PUSH2 0x1AA1 JUMP JUMPDEST PUSH20 0xFFFFFFFFFFFFFFFFFFFFFFFFFFFFFFFFFFFFFFFF AND EQ PUSH2 0x2717 JUMPI PUSH1 0x40 MLOAD PUSH32 0x8C379A000000000000000000000000000000000000000000000000000000000 DUP2 MSTORE PUSH1 0x4 ADD PUSH2 0x270E SWAP1 PUSH2 0x41B1 JUMP JUMPDEST PUSH1 0x40 MLOAD DUP1 SWAP2 SUB SWAP1 REVERT JUMPDEST PUSH1 0x0 PUSH20 0xFFFFFFFFFFFFFFFFFFFFFFFFFFFFFFFFFFFFFFFF AND DUP2 PUSH20 0xFFFFFFFFFFFFFFFFFFFFFFFFFFFFFFFFFFFFFFFF AND EQ ISZERO PUSH2 0x2787 JUMPI PUSH1 0x40 MLOAD PUSH32 0x8C379A000000000000000000000000000000000000000000000000000000000 DUP2 MSTORE PUSH1 0x4 ADD PUSH2 0x277E SWAP1 PUSH2 0x4DE6 JUMP JUMPDEST PUSH1 0x40 MLOAD DUP1 SWAP2 SUB SWAP1 REVERT JUMPDEST PUSH2 0x2790 DUP2 PUSH2 0x2E2C JUMP JUMPDEST POP JUMP JUMPDEST PUSH1 0x0 PUSH32 0x80AC58CD00000000000000000000000000000000000000000000000000000000 PUSH28 0xFFFFFFFFFFFFFFFFFFFFFFFFFFFFFFFFFFFFFFFFFFFFFFFFFFFFFFFF NOT AND DUP3 PUSH28 0xFFFFFFFFFFFFFFFFFFFFFFFFFFFFFFFFFFFFFFFFFFFFFFFFFFFFFFFF NOT AND EQ DUP1 PUSH2 0x285E JUMPI POP PUSH32 0x5B5E139F00000000000000000000000000000000000000000000000000000000 PUSH28 0xFFFFFFFFFFFFFFFFFFFFFFFFFFFFFFFFFFFFFFFFFFFFFFFFFFFFFFFF NOT AND DUP3 PUSH28 0xFFFFFFFFFFFFFFFFFFFFFFFFFFFFFFFFFFFFFFFFFFFFFFFFFFFFFFFF NOT AND EQ JUMPDEST DUP1 PUSH2 0x286E JUMPI POP PUSH2 0x286D DUP3 PUSH2 0x315F JUMP JUMPDEST JUMPDEST SWAP1 POP SWAP2 SWAP1 POP JUMP JUMPDEST PUSH1 0x0 CALLER SWAP1 POP SWAP1 JUMP JUMPDEST PUSH1 0x0 DUP1 PUSH20 0xFFFFFFFFFFFFFFFFFFFFFFFFFFFFFFFFFFFFFFFF AND PUSH1 0x2 PUSH1 0x0 DUP5 DUP2 MSTORE PUSH1 0x20 ADD SWAP1 DUP2 MSTORE PUSH1 0x20 ADD PUSH1 0x0 KECCAK256 PUSH1 0x0 SWAP1 SLOAD SWAP1 PUSH2 0x100 EXP SWAP1 DIV PUSH20 0xFFFFFFFFFFFFFFFFFFFFFFFFFFFFFFFFFFFFFFFF AND PUSH20 0xFFFFFFFFFFFFFFFFFFFFFFFFFFFFFFFFFFFFFFFF AND EQ ISZERO SWAP1 POP SWAP2 SWAP1 POP JUMP JUMPDEST DUP2 PUSH1 0x4 PUSH1 0x0 DUP4 DUP2 MSTORE PUSH1 0x20 ADD SWAP1 DUP2 MSTORE PUSH1 0x20 ADD PUSH1 0x0 KECCAK256 PUSH1 0x0 PUSH2 0x100 EXP DUP2 SLOAD DUP2 PUSH20 0xFFFFFFFFFFFFFFFFFFFFFFFFFFFFFFFFFFFFFFFF MUL NOT AND SWAP1 DUP4 PUSH20 0xFFFFFFFFFFFFFFFFFFFFFFFFFFFFFFFFFFFFFFFF AND MUL OR SWAP1 SSTORE POP DUP1 DUP3 PUSH20 0xFFFFFFFFFFFFFFFFFFFFFFFFFFFFFFFFFFFFFFFF AND PUSH2 0x295C DUP4 PUSH2 0x16E7 JUMP JUMPDEST PUSH20 0xFFFFFFFFFFFFFFFFFFFFFFFFFFFFFFFFFFFFFFFF AND PUSH32 0x8C5BE1E5EBEC7D5BD14F71427D1E84F3DD0314C0F7B2291E5B200AC8C7C3B925 PUSH1 0x40 MLOAD PUSH1 0x40 MLOAD DUP1 SWAP2 SUB SWAP1 LOG4 POP POP JUMP JUMPDEST PUSH1 0x0 DUP3 EQ ISZERO PUSH2 0x29E6 JUMPI PUSH1 0x40 MLOAD PUSH32 0x8C379A000000000000000000000000000000000000000000000000000000000 DUP2 MSTORE PUSH1 0x4 ADD PUSH2 0x29DD SWAP1 PUSH2 0x4E78 JUMP JUMPDEST PUSH1 0x40 MLOAD DUP1 SWAP2 SUB SWAP1 REVERT JUMPDEST PUSH1 0x0 DUP2 SWAP1 POP PUSH1 0x0 DUP1 JUMPDEST DUP3 DUP2 LT ISZERO PUSH2 0x2AEB JUMPI PUSH1 0x0 DUP6 DUP3 PUSH1 0x40 MLOAD PUSH1 0x20 ADD PUSH2 0x2A0C SWAP3 SWAP2 SWAP1 PUSH2 0x4E98 JUMP JUMPDEST PUSH1 0x40 MLOAD PUSH1 0x20 DUP2 DUP4 SUB SUB DUP2 MSTORE SWAP1 PUSH1 0x40 MSTORE DUP1 MLOAD SWAP1 PUSH1 0x20 ADD KECCAK256 PUSH1 0x0 SHR SWAP1 POP PUSH1 0x1 DUP6 DUP3 PUSH2 0x2A35 SWAP2 SWAP1 PUSH2 0x4EF0 JUMP JUMPDEST PUSH2 0x2A3F SWAP2 SWAP1 PUSH2 0x4912 JUMP JUMPDEST SWAP1 POP PUSH1 0xE PUSH1 0x0 DUP3 DUP2 MSTORE PUSH1 0x20 ADD SWAP1 DUP2 MSTORE PUSH1 0x20 ADD PUSH1 0x0 KECCAK256 PUSH1 0x0 SWAP1 SLOAD SWAP1 PUSH2 0x100 EXP SWAP1 DIV PUSH1 0xFF AND PUSH2 0x2ABA JUMPI PUSH1 0x1 PUSH1 0xE PUSH1 0x0 DUP4 DUP2 MSTORE PUSH1 0x20 ADD SWAP1 DUP2 MSTORE PUSH1 0x20 ADD PUSH1 0x0 KECCAK256 PUSH1 0x0 PUSH2 0x100 EXP DUP2 SLOAD DUP2 PUSH1 0xFF MUL NOT AND SWAP1 DUP4 ISZERO ISZERO MUL OR SWAP1 SSTORE POP DUP1 PUSH1 0xD PUSH1 0x0 DUP6 DUP6 PUSH2 0x2AA3 SWAP2 SWAP1 PUSH2 0x4F21 JUMP JUMPDEST DUP2 MSTORE PUSH1 0x20 ADD SWAP1 DUP2 MSTORE PUSH1 0x20 ADD PUSH1 0x0 KECCAK256 DUP2 SWAP1 SSTORE POP PUSH2 0x2AD7 JUMP JUMPDEST DUP3 DUP1 PUSH2 0x2AC5 SWAP1 PUSH2 0x4B2C JUMP JUMPDEST SWAP4 POP POP DUP4 DUP1 PUSH2 0x2AD3 SWAP1 PUSH2 0x4B2C JUMP JUMPDEST SWAP5 POP POP JUMPDEST POP DUP1 DUP1 PUSH2 0x2AE3 SWAP1 PUSH2 0x4B2C JUMP JUMPDEST SWAP2 POP POP PUSH2 0x29EF JUMP JUMPDEST POP POP POP POP POP JUMP JUMPDEST PUSH1 0x0 PUSH2 0x2AFD DUP3 PUSH2 0x287D JUMP JUMPDEST PUSH2 0x2B3C JUMPI PUSH1 0x40 MLOAD PUSH32 0x8C379A000000000000000000000000000000000000000000000000000000000 DUP2 MSTORE PUSH1 0x4 ADD PUSH2 0x2B33 SWAP1 PUSH2 0x4FC7 JUMP JUMPDEST PUSH1 0x40 MLOAD DUP1 SWAP2 SUB SWAP1 REVERT JUMPDEST PUSH1 0x0 PUSH2 0x2B47 DUP4 PUSH2 0x16E7 JUMP JUMPDEST SWAP1 POP DUP1 PUSH20 0xFFFFFFFFFFFFFFFFFFFFFFFFFFFFFFFFFFFFFFFF AND DUP5 PUSH20 0xFFFFFFFFFFFFFFFFFFFFFFFFFFFFFFFFFFFFFFFF AND EQ DUP1 PUSH2 0x2BB6 JUMPI POP DUP4 PUSH20 0xFFFFFFFFFFFFFFFFFFFFFFFFFFFFFFFFFFFFFFFF AND PUSH2 0x2B9E DUP5 PUSH2 0xD03 JUMP JUMPDEST PUSH20 0xFFFFFFFFFFFFFFFFFFFFFFFFFFFFFFFFFFFFFFFF AND EQ JUMPDEST DUP1 PUSH2 0x2BC7 JUMPI POP PUSH2 0x2BC6 DUP2 DUP6 PUSH2 0x2571 JUMP JUMPDEST JUMPDEST SWAP2 POP POP SWAP3 SWAP2 POP POP JUMP JUMPDEST DUP3 PUSH20 0xFFFFFFFFFFFFFFFFFFFFFFFFFFFFFFFFFFFFFFFF AND PUSH2 0x2BF0 DUP3 PUSH2 0x16E7 JUMP JUMPDEST PUSH20 0xFFFFFFFFFFFFFFFFFFFFFFFFFFFFFFFFFFFFFFFF AND EQ PUSH2 0x2C46 JUMPI PUSH1 0x40 MLOAD PUSH32 0x8C379A000000000000000000000000000000000000000000000000000000000 DUP2 MSTORE PUSH1 0x4 ADD PUSH2 0x2C3D SWAP1 PUSH2 0x5059 JUMP JUMPDEST PUSH1 0x40 MLOAD DUP1 SWAP2 SUB SWAP1 REVERT JUMPDEST PUSH1 0x0 PUSH20 0xFFFFFFFFFFFFFFFFFFFFFFFFFFFFFFFFFFFFFFFF AND DUP3 PUSH20 0xFFFFFFFFFFFFFFFFFFFFFFFFFFFFFFFFFFFFFFFF AND EQ ISZERO PUSH2 0x2CB6 JUMPI PUSH1 0x40 MLOAD PUSH32 0x8C379A000000000000000000000000000000000000000000000000000000000 DUP2 MSTORE PUSH1 0x4 ADD PUSH2 0x2CAD SWAP1 PUSH2 0x50EB JUMP JUMPDEST PUSH1 0x40 MLOAD DUP1 SWAP2 SUB SWAP1 REVERT JUMPDEST PUSH2 0x2CC1 DUP4 DUP4 DUP4 PUSH2 0x31C9 JUMP JUMPDEST PUSH2 0x2CCC PUSH1 0x0 DUP3 PUSH2 0x28E9 JUMP JUMPDEST PUSH1 0x1 PUSH1 0x3 PUSH1 0x0 DUP6 PUSH20 0xFFFFFFFFFFFFFFFFFFFFFFFFFFFFFFFFFFFFFFFF AND PUSH20 0xFFFFFFFFFFFFFFFFFFFFFFFFFFFFFFFFFFFFFFFF AND DUP2 MSTORE PUSH1 0x20 ADD SWAP1 DUP2 MSTORE PUSH1 0x20 ADD PUSH1 0x0 KECCAK256 PUSH1 0x0 DUP3 DUP3 SLOAD PUSH2 0x2D1C SWAP2 SWAP1 PUSH2 0x4F21 JUMP JUMPDEST SWAP3 POP POP DUP2 SWAP1 SSTORE POP PUSH1 0x1 PUSH1 0x3 PUSH1 0x0 DUP5 PUSH20 0xFFFFFFFFFFFFFFFFFFFFFFFFFFFFFFFFFFFFFFFF AND PUSH20 0xFFFFFFFFFFFFFFFFFFFFFFFFFFFFFFFFFFFFFFFF AND DUP2 MSTORE PUSH1 0x20 ADD SWAP1 DUP2 MSTORE PUSH1 0x20 ADD PUSH1 0x0 KECCAK256 PUSH1 0x0 DUP3 DUP3 SLOAD PUSH2 0x2D73 SWAP2 SWAP1 PUSH2 0x4912 JUMP JUMPDEST SWAP3 POP POP DUP2 SWAP1 SSTORE POP DUP2 PUSH1 0x2 PUSH1 0x0 DUP4 DUP2 MSTORE PUSH1 0x20 ADD SWAP1 DUP2 MSTORE PUSH1 0x20 ADD PUSH1 0x0 KECCAK256 PUSH1 0x0 PUSH2 0x100 EXP DUP2 SLOAD DUP2 PUSH20 0xFFFFFFFFFFFFFFFFFFFFFFFFFFFFFFFFFFFFFFFF MUL NOT AND SWAP1 DUP4 PUSH20 0xFFFFFFFFFFFFFFFFFFFFFFFFFFFFFFFFFFFFFFFF AND MUL OR SWAP1 SSTORE POP DUP1 DUP3 PUSH20 0xFFFFFFFFFFFFFFFFFFFFFFFFFFFFFFFFFFFFFFFF AND DUP5 PUSH20 0xFFFFFFFFFFFFFFFFFFFFFFFFFFFFFFFFFFFFFFFF AND PUSH32 0xDDF252AD1BE2C89B69C2B068FC378DAA952BA7F163C4A11628F55A4DF523B3EF PUSH1 0x40 MLOAD PUSH1 0x40 MLOAD DUP1 SWAP2 SUB SWAP1 LOG4 POP POP POP JUMP JUMPDEST PUSH1 0x0 PUSH1 0xA PUSH1 0x0 SWAP1 SLOAD SWAP1 PUSH2 0x100 EXP SWAP1 DIV PUSH20 0xFFFFFFFFFFFFFFFFFFFFFFFFFFFFFFFFFFFFFFFF AND SWAP1 POP DUP2 PUSH1 0xA PUSH1 0x0 PUSH2 0x100 EXP DUP2 SLOAD DUP2 PUSH20 0xFFFFFFFFFFFFFFFFFFFFFFFFFFFFFFFFFFFFFFFF MUL NOT AND SWAP1 DUP4 PUSH20 0xFFFFFFFFFFFFFFFFFFFFFFFFFFFFFFFFFFFFFFFF AND MUL OR SWAP1 SSTORE POP DUP2 PUSH20 0xFFFFFFFFFFFFFFFFFFFFFFFFFFFFFFFFFFFFFFFF AND DUP2 PUSH20 0xFFFFFFFFFFFFFFFFFFFFFFFFFFFFFFFFFFFFFFFF AND PUSH32 0x8BE0079C531659141344CD1FD0A4F28419497F9722A3DAAFE3B4186F6B6457E0 PUSH1 0x40 MLOAD PUSH1 0x40 MLOAD DUP1 SWAP2 SUB SWAP1 LOG3 POP POP JUMP JUMPDEST PUSH2 0x2F0C DUP3 DUP3 PUSH1 0x40 MLOAD DUP1 PUSH1 0x20 ADD PUSH1 0x40 MSTORE DUP1 PUSH1 0x0 DUP2 MSTORE POP PUSH2 0x32DD JUMP JUMPDEST POP POP JUMP JUMPDEST PUSH2 0x2F1B DUP5 DUP5 DUP5 PUSH2 0x2BD0 JUMP JUMPDEST PUSH2 0x2F27 DUP5 DUP5 DUP5 DUP5 PUSH2 0x3338 JUMP JUMPDEST PUSH2 0x2F66 JUMPI PUSH1 0x40 MLOAD PUSH32 0x8C379A000000000000000000000000000000000000000000000000000000000 DUP2 MSTORE PUSH1 0x4 ADD PUSH2 0x2F5D SWAP1 PUSH2 0x517D JUMP JUMPDEST PUSH1 0x40 MLOAD DUP1 SWAP2 SUB SWAP1 REVERT JUMPDEST POP POP POP POP JUMP JUMPDEST PUSH1 0x60 PUSH1 0xF DUP1 SLOAD PUSH2 0x2F7B SWAP1 PUSH2 0x4200 JUMP JUMPDEST DUP1 PUSH1 0x1F ADD PUSH1 0x20 DUP1 SWAP2 DIV MUL PUSH1 0x20 ADD PUSH1 0x40 MLOAD SWAP1 DUP2 ADD PUSH1 0x40 MSTORE DUP1 SWAP3 SWAP2 SWAP1 DUP2 DUP2 MSTORE PUSH1 0x20 ADD DUP3 DUP1 SLOAD PUSH2 0x2FA7 SWAP1 PUSH2 0x4200 JUMP JUMPDEST DUP1 ISZERO PUSH2 0x2FF4 JUMPI DUP1 PUSH1 0x1F LT PUSH2 0x2FC9 JUMPI PUSH2 0x100 DUP1 DUP4 SLOAD DIV MUL DUP4 MSTORE SWAP2 PUSH1 0x20 ADD SWAP2 PUSH2 0x2FF4 JUMP JUMPDEST DUP3 ADD SWAP2 SWAP1 PUSH1 0x0 MSTORE PUSH1 0x20 PUSH1 0x0 KECCAK256 SWAP1 JUMPDEST DUP2 SLOAD DUP2 MSTORE SWAP1 PUSH1 0x1 ADD SWAP1 PUSH1 0x20 ADD DUP1 DUP4 GT PUSH2 0x2FD7 JUMPI DUP3 SWAP1 SUB PUSH1 0x1F AND DUP3 ADD SWAP2 JUMPDEST POP POP POP POP POP SWAP1 POP SWAP1 JUMP JUMPDEST PUSH1 0x60 PUSH1 0x0 DUP3 EQ ISZERO PUSH2 0x3046 JUMPI PUSH1 0x40 MLOAD DUP1 PUSH1 0x40 ADD PUSH1 0x40 MSTORE DUP1 PUSH1 0x1 DUP2 MSTORE PUSH1 0x20 ADD PUSH32 0x3000000000000000000000000000000000000000000000000000000000000000 DUP2 MSTORE POP SWAP1 POP PUSH2 0x315A JUMP JUMPDEST PUSH1 0x0 DUP3 SWAP1 POP PUSH1 0x0 JUMPDEST PUSH1 0x0 DUP3 EQ PUSH2 0x3078 JUMPI DUP1 DUP1 PUSH2 0x3061 SWAP1 PUSH2 0x4B2C JUMP JUMPDEST SWAP2 POP POP PUSH1 0xA DUP3 PUSH2 0x3071 SWAP2 SWAP1 PUSH2 0x519D JUMP JUMPDEST SWAP2 POP PUSH2 0x304E JUMP JUMPDEST PUSH1 0x0 DUP2 PUSH8 0xFFFFFFFFFFFFFFFF DUP2 GT ISZERO PUSH2 0x3094 JUMPI PUSH2 0x3093 PUSH2 0x3E11 JUMP JUMPDEST JUMPDEST PUSH1 0x40 MLOAD SWAP1 DUP1 DUP3 MSTORE DUP1 PUSH1 0x1F ADD PUSH1 0x1F NOT AND PUSH1 0x20 ADD DUP3 ADD PUSH1 0x40 MSTORE DUP1 ISZERO PUSH2 0x30C6 JUMPI DUP2 PUSH1 0x20 ADD PUSH1 0x1 DUP3 MUL DUP1 CALLDATASIZE DUP4 CALLDATACOPY DUP1 DUP3 ADD SWAP2 POP POP SWAP1 POP JUMPDEST POP SWAP1 POP JUMPDEST PUSH1 0x0 DUP6 EQ PUSH2 0x3153 JUMPI PUSH1 0x1 DUP3 PUSH2 0x30DF SWAP2 SWAP1 PUSH2 0x4F21 JUMP JUMPDEST SWAP2 POP PUSH1 0xA DUP6 PUSH2 0x30EE SWAP2 SWAP1 PUSH2 0x4EF0 JUMP JUMPDEST PUSH1 0x30 PUSH2 0x30FA SWAP2 SWAP1 PUSH2 0x4912 JUMP JUMPDEST PUSH1 0xF8 SHL DUP2 DUP4 DUP2 MLOAD DUP2 LT PUSH2 0x3110 JUMPI PUSH2 0x310F PUSH2 0x4692 JUMP JUMPDEST JUMPDEST PUSH1 0x20 ADD ADD SWAP1 PUSH31 0xFFFFFFFFFFFFFFFFFFFFFFFFFFFFFFFFFFFFFFFFFFFFFFFFFFFFFFFFFFFFFF NOT AND SWAP1 DUP2 PUSH1 0x0 BYTE SWAP1 MSTORE8 POP PUSH1 0xA DUP6 PUSH2 0x314C SWAP2 SWAP1 PUSH2 0x519D JUMP JUMPDEST SWAP5 POP PUSH2 0x30CA JUMP JUMPDEST DUP1 SWAP4 POP POP POP POP JUMPDEST SWAP2 SWAP1 POP JUMP JUMPDEST PUSH1 0x0 PUSH32 0x1FFC9A700000000000000000000000000000000000000000000000000000000 PUSH28 0xFFFFFFFFFFFFFFFFFFFFFFFFFFFFFFFFFFFFFFFFFFFFFFFFFFFFFFFF NOT AND DUP3 PUSH28 0xFFFFFFFFFFFFFFFFFFFFFFFFFFFFFFFFFFFFFFFFFFFFFFFFFFFFFFFF NOT AND EQ SWAP1 POP SWAP2 SWAP1 POP JUMP JUMPDEST PUSH2 0x31D4 DUP4 DUP4 DUP4 PUSH2 0x34C0 JUMP JUMPDEST PUSH1 0x0 PUSH20 0xFFFFFFFFFFFFFFFFFFFFFFFFFFFFFFFFFFFFFFFF AND DUP4 PUSH20 0xFFFFFFFFFFFFFFFFFFFFFFFFFFFFFFFFFFFFFFFF AND EQ ISZERO PUSH2 0x3217 JUMPI PUSH2 0x3212 DUP2 PUSH2 0x34C5 JUMP JUMPDEST PUSH2 0x3256 JUMP JUMPDEST DUP2 PUSH20 0xFFFFFFFFFFFFFFFFFFFFFFFFFFFFFFFFFFFFFFFF AND DUP4 PUSH20 0xFFFFFFFFFFFFFFFFFFFFFFFFFFFFFFFFFFFFFFFF AND EQ PUSH2 0x3255 JUMPI PUSH2 0x3254 DUP4 DUP3 PUSH2 0x350E JUMP JUMPDEST JUMPDEST JUMPDEST PUSH1 0x0 PUSH20 0xFFFFFFFFFFFFFFFFFFFFFFFFFFFFFFFFFFFFFFFF AND DUP3 PUSH20 0xFFFFFFFFFFFFFFFFFFFFFFFFFFFFFFFFFFFFFFFF AND EQ ISZERO PUSH2 0x3299 JUMPI PUSH2 0x3294 DUP2 PUSH2 0x367B JUMP JUMPDEST PUSH2 0x32D8 JUMP JUMPDEST DUP3 PUSH20 0xFFFFFFFFFFFFFFFFFFFFFFFFFFFFFFFFFFFFFFFF AND DUP3 PUSH20 0xFFFFFFFFFFFFFFFFFFFFFFFFFFFFFFFFFFFFFFFF AND EQ PUSH2 0x32D7 JUMPI PUSH2 0x32D6 DUP3 DUP3 PUSH2 0x374C JUMP JUMPDEST JUMPDEST JUMPDEST POP POP POP JUMP JUMPDEST PUSH2 0x32E7 DUP4 DUP4 PUSH2 0x37CB JUMP JUMPDEST PUSH2 0x32F4 PUSH1 0x0 DUP5 DUP5 DUP5 PUSH2 0x3338 JUMP JUMPDEST PUSH2 0x3333 JUMPI PUSH1 0x40 MLOAD PUSH32 0x8C379A000000000000000000000000000000000000000000000000000000000 DUP2 MSTORE PUSH1 0x4 ADD PUSH2 0x332A SWAP1 PUSH2 0x517D JUMP JUMPDEST PUSH1 0x40 MLOAD DUP1 SWAP2 SUB SWAP1 REVERT JUMPDEST POP POP POP JUMP JUMPDEST PUSH1 0x0 PUSH2 0x3359 DUP5 PUSH20 0xFFFFFFFFFFFFFFFFFFFFFFFFFFFFFFFFFFFFFFFF AND PUSH2 0x3999 JUMP JUMPDEST ISZERO PUSH2 0x34B3 JUMPI DUP4 PUSH20 0xFFFFFFFFFFFFFFFFFFFFFFFFFFFFFFFFFFFFFFFF AND PUSH4 0x150B7A02 PUSH2 0x3382 PUSH2 0x2875 JUMP JUMPDEST DUP8 DUP7 DUP7 PUSH1 0x40 MLOAD DUP6 PUSH4 0xFFFFFFFF AND PUSH1 0xE0 SHL DUP2 MSTORE PUSH1 0x4 ADD PUSH2 0x33A4 SWAP5 SWAP4 SWAP3 SWAP2 SWAP1 PUSH2 0x5223 JUMP JUMPDEST PUSH1 0x20 PUSH1 0x40 MLOAD DUP1 DUP4 SUB DUP2 PUSH1 0x0 DUP8 GAS CALL SWAP3 POP POP POP DUP1 ISZERO PUSH2 0x33E0 JUMPI POP PUSH1 0x40 MLOAD RETURNDATASIZE PUSH1 0x1F NOT PUSH1 0x1F DUP3 ADD AND DUP3 ADD DUP1 PUSH1 0x40 MSTORE POP DUP2 ADD SWAP1 PUSH2 0x33DD SWAP2 SWAP1 PUSH2 0x5284 JUMP JUMPDEST PUSH1 0x1 JUMPDEST PUSH2 0x3463 JUMPI RETURNDATASIZE DUP1 PUSH1 0x0 DUP2 EQ PUSH2 0x3410 JUMPI PUSH1 0x40 MLOAD SWAP2 POP PUSH1 0x1F NOT PUSH1 0x3F RETURNDATASIZE ADD AND DUP3 ADD PUSH1 0x40 MSTORE RETURNDATASIZE DUP3 MSTORE RETURNDATASIZE PUSH1 0x0 PUSH1 0x20 DUP5 ADD RETURNDATACOPY PUSH2 0x3415 JUMP JUMPDEST PUSH1 0x60 SWAP2 POP JUMPDEST POP PUSH1 0x0 DUP2 MLOAD EQ ISZERO PUSH2 0x345B JUMPI PUSH1 0x40 MLOAD PUSH32 0x8C379A000000000000000000000000000000000000000000000000000000000 DUP2 MSTORE PUSH1 0x4 ADD PUSH2 0x3452 SWAP1 PUSH2 0x517D JUMP JUMPDEST PUSH1 0x40 MLOAD DUP1 SWAP2 SUB SWAP1 REVERT JUMPDEST DUP1 MLOAD DUP2 PUSH1 0x20 ADD REVERT JUMPDEST PUSH4 0x150B7A02 PUSH1 0xE0 SHL PUSH28 0xFFFFFFFFFFFFFFFFFFFFFFFFFFFFFFFFFFFFFFFFFFFFFFFFFFFFFFFF NOT AND DUP2 PUSH28 0xFFFFFFFFFFFFFFFFFFFFFFFFFFFFFFFFFFFFFFFFFFFFFFFFFFFFFFFF NOT AND EQ SWAP2 POP POP PUSH2 0x34B8 JUMP JUMPDEST PUSH1 0x1 SWAP1 POP JUMPDEST SWAP5 SWAP4 POP POP POP POP JUMP JUMPDEST POP POP POP JUMP JUMPDEST PUSH1 0x8 DUP1 SLOAD SWAP1 POP PUSH1 0x9 PUSH1 0x0 DUP4 DUP2 MSTORE PUSH1 0x20 ADD SWAP1 DUP2 MSTORE PUSH1 0x20 ADD PUSH1 0x0 KECCAK256 DUP2 SWAP1 SSTORE POP PUSH1 0x8 DUP2 SWAP1 DUP1 PUSH1 0x1 DUP2 SLOAD ADD DUP1 DUP3 SSTORE DUP1 SWAP2 POP POP PUSH1 0x1 SWAP1 SUB SWAP1 PUSH1 0x0 MSTORE PUSH1 0x20 PUSH1 0x0 KECCAK256 ADD PUSH1 0x0 SWAP1 SWAP2 SWAP1 SWAP2 SWAP1 SWAP2 POP SSTORE POP JUMP JUMPDEST PUSH1 0x0 PUSH1 0x1 PUSH2 0x351B DUP5 PUSH2 0x184D JUMP JUMPDEST PUSH2 0x3525 SWAP2 SWAP1 PUSH2 0x4F21 JUMP JUMPDEST SWAP1 POP PUSH1 0x0 PUSH1 0x7 PUSH1 0x0 DUP5 DUP2 MSTORE PUSH1 0x20 ADD SWAP1 DUP2 MSTORE PUSH1 0x20 ADD PUSH1 0x0 KECCAK256 SLOAD SWAP1 POP DUP2 DUP2 EQ PUSH2 0x360A JUMPI PUSH1 0x0 PUSH1 0x6 PUSH1 0x0 DUP7 PUSH20 0xFFFFFFFFFFFFFFFFFFFFFFFFFFFFFFFFFFFFFFFF AND PUSH20 0xFFFFFFFFFFFFFFFFFFFFFFFFFFFFFFFFFFFFFFFF AND DUP2 MSTORE PUSH1 0x20 ADD SWAP1 DUP2 MSTORE PUSH1 0x20 ADD PUSH1 0x0 KECCAK256 PUSH1 0x0 DUP5 DUP2 MSTORE PUSH1 0x20 ADD SWAP1 DUP2 MSTORE PUSH1 0x20 ADD PUSH1 0x0 KECCAK256 SLOAD SWAP1 POP DUP1 PUSH1 0x6 PUSH1 0x0 DUP8 PUSH20 0xFFFFFFFFFFFFFFFFFFFFFFFFFFFFFFFFFFFFFFFF AND PUSH20 0xFFFFFFFFFFFFFFFFFFFFFFFFFFFFFFFFFFFFFFFF AND DUP2 MSTORE PUSH1 0x20 ADD SWAP1 DUP2 MSTORE PUSH1 0x20 ADD PUSH1 0x0 KECCAK256 PUSH1 0x0 DUP5 DUP2 MSTORE PUSH1 0x20 ADD SWAP1 DUP2 MSTORE PUSH1 0x20 ADD PUSH1 0x0 KECCAK256 DUP2 SWAP1 SSTORE POP DUP2 PUSH1 0x7 PUSH1 0x0 DUP4 DUP2 MSTORE PUSH1 0x20 ADD SWAP1 DUP2 MSTORE PUSH1 0x20 ADD PUSH1 0x0 KECCAK256 DUP2 SWAP1 SSTORE POP POP JUMPDEST PUSH1 0x7 PUSH1 0x0 DUP5 DUP2 MSTORE PUSH1 0x20 ADD SWAP1 DUP2 MSTORE PUSH1 0x20 ADD PUSH1 0x0 KECCAK256 PUSH1 0x0 SWAP1 SSTORE PUSH1 0x6 PUSH1 0x0 DUP6 PUSH20 0xFFFFFFFFFFFFFFFFFFFFFFFFFFFFFFFFFFFFFFFF AND PUSH20 0xFFFFFFFFFFFFFFFFFFFFFFFFFFFFFFFFFFFFFFFF AND DUP2 MSTORE PUSH1 0x20 ADD SWAP1 DUP2 MSTORE PUSH1 0x20 ADD PUSH1 0x0 KECCAK256 PUSH1 0x0 DUP4 DUP2 MSTORE PUSH1 0x20 ADD SWAP1 DUP2 MSTORE PUSH1 0x20 ADD PUSH1 0x0 KECCAK256 PUSH1 0x0 SWAP1 SSTORE POP POP POP POP JUMP JUMPDEST PUSH1 0x0 PUSH1 0x1 PUSH1 0x8 DUP1 SLOAD SWAP1 POP PUSH2 0x368F SWAP2 SWAP1 PUSH2 0x4F21 JUMP JUMPDEST SWAP1 POP PUSH1 0x0 PUSH1 0x9 PUSH1 0x0 DUP5 DUP2 MSTORE PUSH1 0x20 ADD SWAP1 DUP2 MSTORE PUSH1 0x20 ADD PUSH1 0x0 KECCAK256 SLOAD SWAP1 POP PUSH1 0x0 PUSH1 0x8 DUP4 DUP2 SLOAD DUP2 LT PUSH2 0x36BF JUMPI PUSH2 0x36BE PUSH2 0x4692 JUMP JUMPDEST JUMPDEST SWAP1 PUSH1 0x0 MSTORE PUSH1 0x20 PUSH1 0x0 KECCAK256 ADD SLOAD SWAP1 POP DUP1 PUSH1 0x8 DUP4 DUP2 SLOAD DUP2 LT PUSH2 0x36E1 JUMPI PUSH2 0x36E0 PUSH2 0x4692 JUMP JUMPDEST JUMPDEST SWAP1 PUSH1 0x0 MSTORE PUSH1 0x20 PUSH1 0x0 KECCAK256 ADD DUP2 SWAP1 SSTORE POP DUP2 PUSH1 0x9 PUSH1 0x0 DUP4 DUP2 MSTORE PUSH1 0x20 ADD SWAP1 DUP2 MSTORE PUSH1 0x20 ADD PUSH1 0x0 KECCAK256 DUP2 SWAP1 SSTORE POP PUSH1 0x9 PUSH1 0x0 DUP6 DUP2 MSTORE PUSH1 0x20 ADD SWAP1 DUP2 MSTORE PUSH1 0x20 ADD PUSH1 0x0 KECCAK256 PUSH1 0x0 SWAP1 SSTORE PUSH1 0x8 DUP1 SLOAD DUP1 PUSH2 0x3730 JUMPI PUSH2 0x372F PUSH2 0x52B1 JUMP JUMPDEST JUMPDEST PUSH1 0x1 SWAP1 SUB DUP2 DUP2 SWAP1 PUSH1 0x0 MSTORE PUSH1 0x20 PUSH1 0x0 KECCAK256 ADD PUSH1 0x0 SWAP1 SSTORE SWAP1 SSTORE POP POP POP POP JUMP JUMPDEST PUSH1 0x0 PUSH2 0x3757 DUP4 PUSH2 0x184D JUMP JUMPDEST SWAP1 POP DUP2 PUSH1 0x6 PUSH1 0x0 DUP6 PUSH20 0xFFFFFFFFFFFFFFFFFFFFFFFFFFFFFFFFFFFFFFFF AND PUSH20 0xFFFFFFFFFFFFFFFFFFFFFFFFFFFFFFFFFFFFFFFF AND DUP2 MSTORE PUSH1 0x20 ADD SWAP1 DUP2 MSTORE PUSH1 0x20 ADD PUSH1 0x0 KECCAK256 PUSH1 0x0 DUP4 DUP2 MSTORE PUSH1 0x20 ADD SWAP1 DUP2 MSTORE PUSH1 0x20 ADD PUSH1 0x0 KECCAK256 DUP2 SWAP1 SSTORE POP DUP1 PUSH1 0x7 PUSH1 0x0 DUP5 DUP2 MSTORE PUSH1 0x20 ADD SWAP1 DUP2 MSTORE PUSH1 0x20 ADD PUSH1 0x0 KECCAK256 DUP2 SWAP1 SSTORE POP POP POP POP JUMP JUMPDEST PUSH1 0x0 PUSH20 0xFFFFFFFFFFFFFFFFFFFFFFFFFFFFFFFFFFFFFFFF AND DUP3 PUSH20 0xFFFFFFFFFFFFFFFFFFFFFFFFFFFFFFFFFFFFFFFF AND EQ ISZERO PUSH2 0x383B JUMPI PUSH1 0x40 MLOAD PUSH32 0x8C379A000000000000000000000000000000000000000000000000000000000 DUP2 MSTORE PUSH1 0x4 ADD PUSH2 0x3832 SWAP1 PUSH2 0x532C JUMP JUMPDEST PUSH1 0x40 MLOAD DUP1 SWAP2 SUB SWAP1 REVERT JUMPDEST PUSH2 0x3844 DUP2 PUSH2 0x287D JUMP JUMPDEST ISZERO PUSH2 0x3884 JUMPI PUSH1 0x40 MLOAD PUSH32 0x8C379A000000000000000000000000000000000000000000000000000000000 DUP2 MSTORE PUSH1 0x4 ADD PUSH2 0x387B SWAP1 PUSH2 0x5398 JUMP JUMPDEST PUSH1 0x40 MLOAD DUP1 SWAP2 SUB SWAP1 REVERT JUMPDEST PUSH2 0x3890 PUSH1 0x0 DUP4 DUP4 PUSH2 0x31C9 JUMP JUMPDEST PUSH1 0x1 PUSH1 0x3 PUSH1 0x0 DUP5 PUSH20 0xFFFFFFFFFFFFFFFFFFFFFFFFFFFFFFFFFFFFFFFF AND PUSH20 0xFFFFFFFFFFFFFFFFFFFFFFFFFFFFFFFFFFFFFFFF AND DUP2 MSTORE PUSH1 0x20 ADD SWAP1 DUP2 MSTORE PUSH1 0x20 ADD PUSH1 0x0 KECCAK256 PUSH1 0x0 DUP3 DUP3 SLOAD PUSH2 0x38E0 SWAP2 SWAP1 PUSH2 0x4912 JUMP JUMPDEST SWAP3 POP POP DUP2 SWAP1 SSTORE POP DUP2 PUSH1 0x2 PUSH1 0x0 DUP4 DUP2 MSTORE PUSH1 0x20 ADD SWAP1 DUP2 MSTORE PUSH1 0x20 ADD PUSH1 0x0 KECCAK256 PUSH1 0x0 PUSH2 0x100 EXP DUP2 SLOAD DUP2 PUSH20 0xFFFFFFFFFFFFFFFFFFFFFFFFFFFFFFFFFFFFFFFF MUL NOT AND SWAP1 DUP4 PUSH20 0xFFFFFFFFFFFFFFFFFFFFFFFFFFFFFFFFFFFFFFFF AND MUL OR SWAP1 SSTORE POP DUP1 DUP3 PUSH20 0xFFFFFFFFFFFFFFFFFFFFFFFFFFFFFFFFFFFFFFFF AND PUSH1 0x0 PUSH20 0xFFFFFFFFFFFFFFFFFFFFFFFFFFFFFFFFFFFFFFFF AND PUSH32 0xDDF252AD1BE2C89B69C2B068FC378DAA952BA7F163C4A11628F55A4DF523B3EF PUSH1 0x40 MLOAD PUSH1 0x40 MLOAD DUP1 SWAP2 SUB SWAP1 LOG4 POP POP JUMP JUMPDEST PUSH1 0x0 DUP1 DUP3 EXTCODESIZE SWAP1 POP PUSH1 0x0 DUP2 GT SWAP2 POP POP SWAP2 SWAP1 POP JUMP JUMPDEST DUP3 DUP1 SLOAD PUSH2 0x39B8 SWAP1 PUSH2 0x4200 JUMP JUMPDEST SWAP1 PUSH1 0x0 MSTORE PUSH1 0x20 PUSH1 0x0 KECCAK256 SWAP1 PUSH1 0x1F ADD PUSH1 0x20 SWAP1 DIV DUP2 ADD SWAP3 DUP3 PUSH2 0x39DA JUMPI PUSH1 0x0 DUP6 SSTORE PUSH2 0x3A21 JUMP JUMPDEST DUP3 PUSH1 0x1F LT PUSH2 0x39F3 JUMPI DUP1 MLOAD PUSH1 0xFF NOT AND DUP4 DUP1 ADD OR DUP6 SSTORE PUSH2 0x3A21 JUMP JUMPDEST DUP3 DUP1 ADD PUSH1 0x1 ADD DUP6 SSTORE DUP3 ISZERO PUSH2 0x3A21 JUMPI SWAP2 DUP3 ADD JUMPDEST DUP3 DUP2 GT ISZERO PUSH2 0x3A20 JUMPI DUP3 MLOAD DUP3 SSTORE SWAP2 PUSH1 0x20 ADD SWAP2 SWAP1 PUSH1 0x1 ADD SWAP1 PUSH2 0x3A05 JUMP JUMPDEST JUMPDEST POP SWAP1 POP PUSH2 0x3A2E SWAP2 SWAP1 PUSH2 0x3A32 JUMP JUMPDEST POP SWAP1 JUMP JUMPDEST JUMPDEST DUP1 DUP3 GT ISZERO PUSH2 0x3A4B JUMPI PUSH1 0x0 DUP2 PUSH1 0x0 SWAP1 SSTORE POP PUSH1 0x1 ADD PUSH2 0x3A33 JUMP JUMPDEST POP SWAP1 JUMP JUMPDEST PUSH1 0x0 PUSH1 0x40 MLOAD SWAP1 POP SWAP1 JUMP JUMPDEST PUSH1 0x0 DUP1 REVERT JUMPDEST PUSH1 0x0 DUP1 REVERT JUMPDEST PUSH1 0x0 PUSH32 0xFFFFFFFF00000000000000000000000000000000000000000000000000000000 DUP3 AND SWAP1 POP SWAP2 SWAP1 POP JUMP JUMPDEST PUSH2 0x3A98 DUP2 PUSH2 0x3A63 JUMP JUMPDEST DUP2 EQ PUSH2 0x3AA3 JUMPI PUSH1 0x0 DUP1 REVERT JUMPDEST POP JUMP JUMPDEST PUSH1 0x0 DUP2 CALLDATALOAD SWAP1 POP PUSH2 0x3AB5 DUP2 PUSH2 0x3A8F JUMP JUMPDEST SWAP3 SWAP2 POP POP JUMP JUMPDEST PUSH1 0x0 PUSH1 0x20 DUP3 DUP5 SUB SLT ISZERO PUSH2 0x3AD1 JUMPI PUSH2 0x3AD0 PUSH2 0x3A59 JUMP JUMPDEST JUMPDEST PUSH1 0x0 PUSH2 0x3ADF DUP5 DUP3 DUP6 ADD PUSH2 0x3AA6 JUMP JUMPDEST SWAP2 POP POP SWAP3 SWAP2 POP POP JUMP JUMPDEST PUSH1 0x0 DUP2 ISZERO ISZERO SWAP1 POP SWAP2 SWAP1 POP JUMP JUMPDEST PUSH2 0x3AFD DUP2 PUSH2 0x3AE8 JUMP JUMPDEST DUP3 MSTORE POP POP JUMP JUMPDEST PUSH1 0x0 PUSH1 0x20 DUP3 ADD SWAP1 POP PUSH2 0x3B18 PUSH1 0x0 DUP4 ADD DUP5 PUSH2 0x3AF4 JUMP JUMPDEST SWAP3 SWAP2 POP POP JUMP JUMPDEST PUSH2 0x3B27 DUP2 PUSH2 0x3AE8 JUMP JUMPDEST DUP2 EQ PUSH2 0x3B32 JUMPI PUSH1 0x0 DUP1 REVERT JUMPDEST POP JUMP JUMPDEST PUSH1 0x0 DUP2 CALLDATALOAD SWAP1 POP PUSH2 0x3B44 DUP2 PUSH2 0x3B1E JUMP JUMPDEST SWAP3 SWAP2 POP POP JUMP JUMPDEST PUSH1 0x0 PUSH1 0x20 DUP3 DUP5 SUB SLT ISZERO PUSH2 0x3B60 JUMPI PUSH2 0x3B5F PUSH2 0x3A59 JUMP JUMPDEST JUMPDEST PUSH1 0x0 PUSH2 0x3B6E DUP5 DUP3 DUP6 ADD PUSH2 0x3B35 JUMP JUMPDEST SWAP2 POP POP SWAP3 SWAP2 POP POP JUMP JUMPDEST PUSH1 0x0 DUP2 MLOAD SWAP1 POP SWAP2 SWAP1 POP JUMP JUMPDEST PUSH1 0x0 DUP3 DUP3 MSTORE PUSH1 0x20 DUP3 ADD SWAP1 POP SWAP3 SWAP2 POP POP JUMP JUMPDEST PUSH1 0x0 JUMPDEST DUP4 DUP2 LT ISZERO PUSH2 0x3BB1 JUMPI DUP1 DUP3 ADD MLOAD DUP2 DUP5 ADD MSTORE PUSH1 0x20 DUP2 ADD SWAP1 POP PUSH2 0x3B96 JUMP JUMPDEST DUP4 DUP2 GT ISZERO PUSH2 0x3BC0 JUMPI PUSH1 0x0 DUP5 DUP5 ADD MSTORE JUMPDEST POP POP POP POP JUMP JUMPDEST PUSH1 0x0 PUSH1 0x1F NOT PUSH1 0x1F DUP4 ADD AND SWAP1 POP SWAP2 SWAP1 POP JUMP JUMPDEST PUSH1 0x0 PUSH2 0x3BE2 DUP3 PUSH2 0x3B77 JUMP JUMPDEST PUSH2 0x3BEC DUP2 DUP6 PUSH2 0x3B82 JUMP JUMPDEST SWAP4 POP PUSH2 0x3BFC DUP2 DUP6 PUSH1 0x20 DUP7 ADD PUSH2 0x3B93 JUMP JUMPDEST PUSH2 0x3C05 DUP2 PUSH2 0x3BC6 JUMP JUMPDEST DUP5 ADD SWAP2 POP POP SWAP3 SWAP2 POP POP JUMP JUMPDEST PUSH1 0x0 PUSH1 0x20 DUP3 ADD SWAP1 POP DUP2 DUP2 SUB PUSH1 0x0 DUP4 ADD MSTORE PUSH2 0x3C2A DUP2 DUP5 PUSH2 0x3BD7 JUMP JUMPDEST SWAP1 POP SWAP3 SWAP2 POP POP JUMP JUMPDEST PUSH1 0x0 DUP2 SWAP1 POP SWAP2 SWAP1 POP JUMP JUMPDEST PUSH2 0x3C45 DUP2 PUSH2 0x3C32 JUMP JUMPDEST DUP2 EQ PUSH2 0x3C50 JUMPI PUSH1 0x0 DUP1 REVERT JUMPDEST POP JUMP JUMPDEST PUSH1 0x0 DUP2 CALLDATALOAD SWAP1 POP PUSH2 0x3C62 DUP2 PUSH2 0x3C3C JUMP JUMPDEST SWAP3 SWAP2 POP POP JUMP JUMPDEST PUSH1 0x0 PUSH1 0x20 DUP3 DUP5 SUB SLT ISZERO PUSH2 0x3C7E JUMPI PUSH2 0x3C7D PUSH2 0x3A59 JUMP JUMPDEST JUMPDEST PUSH1 0x0 PUSH2 0x3C8C DUP5 DUP3 DUP6 ADD PUSH2 0x3C53 JUMP JUMPDEST SWAP2 POP POP SWAP3 SWAP2 POP POP JUMP JUMPDEST PUSH1 0x0 PUSH20 0xFFFFFFFFFFFFFFFFFFFFFFFFFFFFFFFFFFFFFFFF DUP3 AND SWAP1 POP SWAP2 SWAP1 POP JUMP JUMPDEST PUSH1 0x0 PUSH2 0x3CC0 DUP3 PUSH2 0x3C95 JUMP JUMPDEST SWAP1 POP SWAP2 SWAP1 POP JUMP JUMPDEST PUSH2 0x3CD0 DUP2 PUSH2 0x3CB5 JUMP JUMPDEST DUP3 MSTORE POP POP JUMP JUMPDEST PUSH1 0x0 PUSH1 0x20 DUP3 ADD SWAP1 POP PUSH2 0x3CEB PUSH1 0x0 DUP4 ADD DUP5 PUSH2 0x3CC7 JUMP JUMPDEST SWAP3 SWAP2 POP POP JUMP JUMPDEST PUSH2 0x3CFA DUP2 PUSH2 0x3CB5 JUMP JUMPDEST DUP2 EQ PUSH2 0x3D05 JUMPI PUSH1 0x0 DUP1 REVERT JUMPDEST POP JUMP JUMPDEST PUSH1 0x0 DUP2 CALLDATALOAD SWAP1 POP PUSH2 0x3D17 DUP2 PUSH2 0x3CF1 JUMP JUMPDEST SWAP3 SWAP2 POP POP JUMP JUMPDEST PUSH1 0x0 DUP1 PUSH1 0x40 DUP4 DUP6 SUB SLT ISZERO PUSH2 0x3D34 JUMPI PUSH2 0x3D33 PUSH2 0x3A59 JUMP JUMPDEST JUMPDEST PUSH1 0x0 PUSH2 0x3D42 DUP6 DUP3 DUP7 ADD PUSH2 0x3D08 JUMP JUMPDEST SWAP3 POP POP PUSH1 0x20 PUSH2 0x3D53 DUP6 DUP3 DUP7 ADD PUSH2 0x3C53 JUMP JUMPDEST SWAP2 POP POP SWAP3 POP SWAP3 SWAP1 POP JUMP JUMPDEST PUSH2 0x3D66 DUP2 PUSH2 0x3C32 JUMP JUMPDEST DUP3 MSTORE POP POP JUMP JUMPDEST PUSH1 0x0 PUSH1 0x20 DUP3 ADD SWAP1 POP PUSH2 0x3D81 PUSH1 0x0 DUP4 ADD DUP5 PUSH2 0x3D5D JUMP JUMPDEST SWAP3 SWAP2 POP POP JUMP JUMPDEST PUSH1 0x0 PUSH1 0x20 DUP3 DUP5 SUB SLT ISZERO PUSH2 0x3D9D JUMPI PUSH2 0x3D9C PUSH2 0x3A59 JUMP JUMPDEST JUMPDEST PUSH1 0x0 PUSH2 0x3DAB DUP5 DUP3 DUP6 ADD PUSH2 0x3D08 JUMP JUMPDEST SWAP2 POP POP SWAP3 SWAP2 POP POP JUMP JUMPDEST PUSH1 0x0 DUP1 PUSH1 0x0 PUSH1 0x60 DUP5 DUP7 SUB SLT ISZERO PUSH2 0x3DCD JUMPI PUSH2 0x3DCC PUSH2 0x3A59 JUMP JUMPDEST JUMPDEST PUSH1 0x0 PUSH2 0x3DDB DUP7 DUP3 DUP8 ADD PUSH2 0x3D08 JUMP JUMPDEST SWAP4 POP POP PUSH1 0x20 PUSH2 0x3DEC DUP7 DUP3 DUP8 ADD PUSH2 0x3D08 JUMP JUMPDEST SWAP3 POP POP PUSH1 0x40 PUSH2 0x3DFD DUP7 DUP3 DUP8 ADD PUSH2 0x3C53 JUMP JUMPDEST SWAP2 POP POP SWAP3 POP SWAP3 POP SWAP3 JUMP JUMPDEST PUSH1 0x0 DUP1 REVERT JUMPDEST PUSH1 0x0 DUP1 REVERT JUMPDEST PUSH32 0x4E487B7100000000000000000000000000000000000000000000000000000000 PUSH1 0x0 MSTORE PUSH1 0x41 PUSH1 0x4 MSTORE PUSH1 0x24 PUSH1 0x0 REVERT JUMPDEST PUSH2 0x3E49 DUP3 PUSH2 0x3BC6 JUMP JUMPDEST DUP2 ADD DUP2 DUP2 LT PUSH8 0xFFFFFFFFFFFFFFFF DUP3 GT OR ISZERO PUSH2 0x3E68 JUMPI PUSH2 0x3E67 PUSH2 0x3E11 JUMP JUMPDEST JUMPDEST DUP1 PUSH1 0x40 MSTORE POP POP POP JUMP JUMPDEST PUSH1 0x0 PUSH2 0x3E7B PUSH2 0x3A4F JUMP JUMPDEST SWAP1 POP PUSH2 0x3E87 DUP3 DUP3 PUSH2 0x3E40 JUMP JUMPDEST SWAP2 SWAP1 POP JUMP JUMPDEST PUSH1 0x0 PUSH8 0xFFFFFFFFFFFFFFFF DUP3 GT ISZERO PUSH2 0x3EA7 JUMPI PUSH2 0x3EA6 PUSH2 0x3E11 JUMP JUMPDEST JUMPDEST PUSH2 0x3EB0 DUP3 PUSH2 0x3BC6 JUMP JUMPDEST SWAP1 POP PUSH1 0x20 DUP2 ADD SWAP1 POP SWAP2 SWAP1 POP JUMP JUMPDEST DUP3 DUP2 DUP4 CALLDATACOPY PUSH1 0x0 DUP4 DUP4 ADD MSTORE POP POP POP JUMP JUMPDEST PUSH1 0x0 PUSH2 0x3EDF PUSH2 0x3EDA DUP5 PUSH2 0x3E8C JUMP JUMPDEST PUSH2 0x3E71 JUMP JUMPDEST SWAP1 POP DUP3 DUP2 MSTORE PUSH1 0x20 DUP2 ADD DUP5 DUP5 DUP5 ADD GT ISZERO PUSH2 0x3EFB JUMPI PUSH2 0x3EFA PUSH2 0x3E0C JUMP JUMPDEST JUMPDEST PUSH2 0x3F06 DUP5 DUP3 DUP6 PUSH2 0x3EBD JUMP JUMPDEST POP SWAP4 SWAP3 POP POP POP JUMP JUMPDEST PUSH1 0x0 DUP3 PUSH1 0x1F DUP4 ADD SLT PUSH2 0x3F23 JUMPI PUSH2 0x3F22 PUSH2 0x3E07 JUMP JUMPDEST JUMPDEST DUP2 CALLDATALOAD PUSH2 0x3F33 DUP5 DUP3 PUSH1 0x20 DUP7 ADD PUSH2 0x3ECC JUMP JUMPDEST SWAP2 POP POP SWAP3 SWAP2 POP POP JUMP JUMPDEST PUSH1 0x0 PUSH1 0x20 DUP3 DUP5 SUB SLT ISZERO PUSH2 0x3F52 JUMPI PUSH2 0x3F51 PUSH2 0x3A59 JUMP JUMPDEST JUMPDEST PUSH1 0x0 DUP3 ADD CALLDATALOAD PUSH8 0xFFFFFFFFFFFFFFFF DUP2 GT ISZERO PUSH2 0x3F70 JUMPI PUSH2 0x3F6F PUSH2 0x3A5E JUMP JUMPDEST JUMPDEST PUSH2 0x3F7C DUP5 DUP3 DUP6 ADD PUSH2 0x3F0E JUMP JUMPDEST SWAP2 POP POP SWAP3 SWAP2 POP POP JUMP JUMPDEST PUSH1 0x0 DUP1 PUSH1 0x40 DUP4 DUP6 SUB SLT ISZERO PUSH2 0x3F9C JUMPI PUSH2 0x3F9B PUSH2 0x3A59 JUMP JUMPDEST JUMPDEST PUSH1 0x0 PUSH2 0x3FAA DUP6 DUP3 DUP7 ADD PUSH2 0x3D08 JUMP JUMPDEST SWAP3 POP POP PUSH1 0x20 PUSH2 0x3FBB DUP6 DUP3 DUP7 ADD PUSH2 0x3B35 JUMP JUMPDEST SWAP2 POP POP SWAP3 POP SWAP3 SWAP1 POP JUMP JUMPDEST PUSH1 0x0 PUSH2 0x3FD0 DUP3 PUSH2 0x3C95 JUMP JUMPDEST SWAP1 POP SWAP2 SWAP1 POP JUMP JUMPDEST PUSH2 0x3FE0 DUP2 PUSH2 0x3FC5 JUMP JUMPDEST DUP3 MSTORE POP POP JUMP JUMPDEST PUSH1 0x0 PUSH1 0x20 DUP3 ADD SWAP1 POP PUSH2 0x3FFB PUSH1 0x0 DUP4 ADD DUP5 PUSH2 0x3FD7 JUMP JUMPDEST SWAP3 SWAP2 POP POP JUMP JUMPDEST PUSH1 0x0 PUSH8 0xFFFFFFFFFFFFFFFF DUP3 GT ISZERO PUSH2 0x401C JUMPI PUSH2 0x401B PUSH2 0x3E11 JUMP JUMPDEST JUMPDEST PUSH2 0x4025 DUP3 PUSH2 0x3BC6 JUMP JUMPDEST SWAP1 POP PUSH1 0x20 DUP2 ADD SWAP1 POP SWAP2 SWAP1 POP JUMP JUMPDEST PUSH1 0x0 PUSH2 0x4045 PUSH2 0x4040 DUP5 PUSH2 0x4001 JUMP JUMPDEST PUSH2 0x3E71 JUMP JUMPDEST SWAP1 POP DUP3 DUP2 MSTORE PUSH1 0x20 DUP2 ADD DUP5 DUP5 DUP5 ADD GT ISZERO PUSH2 0x4061 JUMPI PUSH2 0x4060 PUSH2 0x3E0C JUMP JUMPDEST JUMPDEST PUSH2 0x406C DUP5 DUP3 DUP6 PUSH2 0x3EBD JUMP JUMPDEST POP SWAP4 SWAP3 POP POP POP JUMP JUMPDEST PUSH1 0x0 DUP3 PUSH1 0x1F DUP4 ADD SLT PUSH2 0x4089 JUMPI PUSH2 0x4088 PUSH2 0x3E07 JUMP JUMPDEST JUMPDEST DUP2 CALLDATALOAD PUSH2 0x4099 DUP5 DUP3 PUSH1 0x20 DUP7 ADD PUSH2 0x4032 JUMP JUMPDEST SWAP2 POP POP SWAP3 SWAP2 POP POP JUMP JUMPDEST PUSH1 0x0 DUP1 PUSH1 0x0 DUP1 PUSH1 0x80 DUP6 DUP8 SUB SLT ISZERO PUSH2 0x40BC JUMPI PUSH2 0x40BB PUSH2 0x3A59 JUMP JUMPDEST JUMPDEST PUSH1 0x0 PUSH2 0x40CA DUP8 DUP3 DUP9 ADD PUSH2 0x3D08 JUMP JUMPDEST SWAP5 POP POP PUSH1 0x20 PUSH2 0x40DB DUP8 DUP3 DUP9 ADD PUSH2 0x3D08 JUMP JUMPDEST SWAP4 POP POP PUSH1 0x40 PUSH2 0x40EC DUP8 DUP3 DUP9 ADD PUSH2 0x3C53 JUMP JUMPDEST SWAP3 POP POP PUSH1 0x60 DUP6 ADD CALLDATALOAD PUSH8 0xFFFFFFFFFFFFFFFF DUP2 GT ISZERO PUSH2 0x410D JUMPI PUSH2 0x410C PUSH2 0x3A5E JUMP JUMPDEST JUMPDEST PUSH2 0x4119 DUP8 DUP3 DUP9 ADD PUSH2 0x4074 JUMP JUMPDEST SWAP2 POP POP SWAP3 SWAP6 SWAP2 SWAP5 POP SWAP3 POP JUMP JUMPDEST PUSH1 0x0 DUP1 PUSH1 0x40 DUP4 DUP6 SUB SLT ISZERO PUSH2 0x413C JUMPI PUSH2 0x413B PUSH2 0x3A59 JUMP JUMPDEST JUMPDEST PUSH1 0x0 PUSH2 0x414A DUP6 DUP3 DUP7 ADD PUSH2 0x3D08 JUMP JUMPDEST SWAP3 POP POP PUSH1 0x20 PUSH2 0x415B DUP6 DUP3 DUP7 ADD PUSH2 0x3D08 JUMP JUMPDEST SWAP2 POP POP SWAP3 POP SWAP3 SWAP1 POP JUMP JUMPDEST PUSH32 0x4F776E61626C653A2063616C6C6572206973206E6F7420746865206F776E6572 PUSH1 0x0 DUP3 ADD MSTORE POP JUMP JUMPDEST PUSH1 0x0 PUSH2 0x419B PUSH1 0x20 DUP4 PUSH2 0x3B82 JUMP JUMPDEST SWAP2 POP PUSH2 0x41A6 DUP3 PUSH2 0x4165 JUMP JUMPDEST PUSH1 0x20 DUP3 ADD SWAP1 POP SWAP2 SWAP1 POP JUMP JUMPDEST PUSH1 0x0 PUSH1 0x20 DUP3 ADD SWAP1 POP DUP2 DUP2 SUB PUSH1 0x0 DUP4 ADD MSTORE PUSH2 0x41CA DUP2 PUSH2 0x418E JUMP JUMPDEST SWAP1 POP SWAP2 SWAP1 POP JUMP JUMPDEST PUSH32 0x4E487B7100000000000000000000000000000000000000000000000000000000 PUSH1 0x0 MSTORE PUSH1 0x22 PUSH1 0x4 MSTORE PUSH1 0x24 PUSH1 0x0 REVERT JUMPDEST PUSH1 0x0 PUSH1 0x2 DUP3 DIV SWAP1 POP PUSH1 0x1 DUP3 AND DUP1 PUSH2 0x4218 JUMPI PUSH1 0x7F DUP3 AND SWAP2 POP JUMPDEST PUSH1 0x20 DUP3 LT DUP2 EQ ISZERO PUSH2 0x422C JUMPI PUSH2 0x422B PUSH2 0x41D1 JUMP JUMPDEST JUMPDEST POP SWAP2 SWAP1 POP JUMP JUMPDEST PUSH32 0x4552433732313A20617070726F76656420717565727920666F72206E6F6E6578 PUSH1 0x0 DUP3 ADD MSTORE PUSH32 0x697374656E7420746F6B656E0000000000000000000000000000000000000000 PUSH1 0x20 DUP3 ADD MSTORE POP JUMP JUMPDEST PUSH1 0x0 PUSH2 0x428E PUSH1 0x2C DUP4 PUSH2 0x3B82 JUMP JUMPDEST SWAP2 POP PUSH2 0x4299 DUP3 PUSH2 0x4232 JUMP JUMPDEST PUSH1 0x40 DUP3 ADD SWAP1 POP SWAP2 SWAP1 POP JUMP JUMPDEST PUSH1 0x0 PUSH1 0x20 DUP3 ADD SWAP1 POP DUP2 DUP2 SUB PUSH1 0x0 DUP4 ADD MSTORE PUSH2 0x42BD DUP2 PUSH2 0x4281 JUMP JUMPDEST SWAP1 POP SWAP2 SWAP1 POP JUMP JUMPDEST PUSH32 0x4552433732313A20617070726F76616C20746F2063757272656E74206F776E65 PUSH1 0x0 DUP3 ADD MSTORE PUSH32 0x7200000000000000000000000000000000000000000000000000000000000000 PUSH1 0x20 DUP3 ADD MSTORE POP JUMP JUMPDEST PUSH1 0x0 PUSH2 0x4320 PUSH1 0x21 DUP4 PUSH2 0x3B82 JUMP JUMPDEST SWAP2 POP PUSH2 0x432B DUP3 PUSH2 0x42C4 JUMP JUMPDEST PUSH1 0x40 DUP3 ADD SWAP1 POP SWAP2 SWAP1 POP JUMP JUMPDEST PUSH1 0x0 PUSH1 0x20 DUP3 ADD SWAP1 POP DUP2 DUP2 SUB PUSH1 0x0 DUP4 ADD MSTORE PUSH2 0x434F DUP2 PUSH2 0x4313 JUMP JUMPDEST SWAP1 POP SWAP2 SWAP1 POP JUMP JUMPDEST PUSH32 0x4552433732313A20617070726F76652063616C6C6572206973206E6F74206F77 PUSH1 0x0 DUP3 ADD MSTORE PUSH32 0x6E6572206E6F7220617070726F76656420666F7220616C6C0000000000000000 PUSH1 0x20 DUP3 ADD MSTORE POP JUMP JUMPDEST PUSH1 0x0 PUSH2 0x43B2 PUSH1 0x38 DUP4 PUSH2 0x3B82 JUMP JUMPDEST SWAP2 POP PUSH2 0x43BD DUP3 PUSH2 0x4356 JUMP JUMPDEST PUSH1 0x40 DUP3 ADD SWAP1 POP SWAP2 SWAP1 POP JUMP JUMPDEST PUSH1 0x0 PUSH1 0x20 DUP3 ADD SWAP1 POP DUP2 DUP2 SUB PUSH1 0x0 DUP4 ADD MSTORE PUSH2 0x43E1 DUP2 PUSH2 0x43A5 JUMP JUMPDEST SWAP1 POP SWAP2 SWAP1 POP JUMP JUMPDEST PUSH1 0x0 DUP2 MLOAD SWAP1 POP PUSH2 0x43F7 DUP2 PUSH2 0x3C3C JUMP JUMPDEST SWAP3 SWAP2 POP POP JUMP JUMPDEST PUSH1 0x0 PUSH1 0x20 DUP3 DUP5 SUB SLT ISZERO PUSH2 0x4413 JUMPI PUSH2 0x4412 PUSH2 0x3A59 JUMP JUMPDEST JUMPDEST PUSH1 0x0 PUSH2 0x4421 DUP5 DUP3 DUP6 ADD PUSH2 0x43E8 JUMP JUMPDEST SWAP2 POP POP SWAP3 SWAP2 POP POP JUMP JUMPDEST PUSH32 0x4552433732313A207472616E736665722063616C6C6572206973206E6F74206F PUSH1 0x0 DUP3 ADD MSTORE PUSH32 0x776E6572206E6F7220617070726F766564000000000000000000000000000000 PUSH1 0x20 DUP3 ADD MSTORE POP JUMP JUMPDEST PUSH1 0x0 PUSH2 0x4486 PUSH1 0x31 DUP4 PUSH2 0x3B82 JUMP JUMPDEST SWAP2 POP PUSH2 0x4491 DUP3 PUSH2 0x442A JUMP JUMPDEST PUSH1 0x40 DUP3 ADD SWAP1 POP SWAP2 SWAP1 POP JUMP JUMPDEST PUSH1 0x0 PUSH1 0x20 DUP3 ADD SWAP1 POP DUP2 DUP2 SUB PUSH1 0x0 DUP4 ADD MSTORE PUSH2 0x44B5 DUP2 PUSH2 0x4479 JUMP JUMPDEST SWAP1 POP SWAP2 SWAP1 POP JUMP JUMPDEST PUSH1 0x0 DUP2 SWAP1 POP SWAP3 SWAP2 POP POP JUMP JUMPDEST POP JUMP JUMPDEST PUSH1 0x0 PUSH2 0x44D7 PUSH1 0x0 DUP4 PUSH2 0x44BC JUMP JUMPDEST SWAP2 POP PUSH2 0x44E2 DUP3 PUSH2 0x44C7 JUMP JUMPDEST PUSH1 0x0 DUP3 ADD SWAP1 POP SWAP2 SWAP1 POP JUMP JUMPDEST PUSH1 0x0 PUSH2 0x44F8 DUP3 PUSH2 0x44CA JUMP JUMPDEST SWAP2 POP DUP2 SWAP1 POP SWAP2 SWAP1 POP JUMP JUMPDEST PUSH32 0x4661696C656420746F2073656E64206574680000000000000000000000000000 PUSH1 0x0 DUP3 ADD MSTORE POP JUMP JUMPDEST PUSH1 0x0 PUSH2 0x4538 PUSH1 0x12 DUP4 PUSH2 0x3B82 JUMP JUMPDEST SWAP2 POP PUSH2 0x4543 DUP3 PUSH2 0x4502 JUMP JUMPDEST PUSH1 0x20 DUP3 ADD SWAP1 POP SWAP2 SWAP1 POP JUMP JUMPDEST PUSH1 0x0 PUSH1 0x20 DUP3 ADD SWAP1 POP DUP2 DUP2 SUB PUSH1 0x0 DUP4 ADD MSTORE PUSH2 0x4567 DUP2 PUSH2 0x452B JUMP JUMPDEST SWAP1 POP SWAP2 SWAP1 POP JUMP JUMPDEST PUSH32 0x455243373231456E756D657261626C653A206F776E657220696E646578206F75 PUSH1 0x0 DUP3 ADD MSTORE PUSH32 0x74206F6620626F756E6473000000000000000000000000000000000000000000 PUSH1 0x20 DUP3 ADD MSTORE POP JUMP JUMPDEST PUSH1 0x0 PUSH2 0x45CA PUSH1 0x2B DUP4 PUSH2 0x3B82 JUMP JUMPDEST SWAP2 POP PUSH2 0x45D5 DUP3 PUSH2 0x456E JUMP JUMPDEST PUSH1 0x40 DUP3 ADD SWAP1 POP SWAP2 SWAP1 POP JUMP JUMPDEST PUSH1 0x0 PUSH1 0x20 DUP3 ADD SWAP1 POP DUP2 DUP2 SUB PUSH1 0x0 DUP4 ADD MSTORE PUSH2 0x45F9 DUP2 PUSH2 0x45BD JUMP JUMPDEST SWAP1 POP SWAP2 SWAP1 POP JUMP JUMPDEST PUSH32 0x455243373231456E756D657261626C653A20676C6F62616C20696E646578206F PUSH1 0x0 DUP3 ADD MSTORE PUSH32 0x7574206F6620626F756E64730000000000000000000000000000000000000000 PUSH1 0x20 DUP3 ADD MSTORE POP JUMP JUMPDEST PUSH1 0x0 PUSH2 0x465C PUSH1 0x2C DUP4 PUSH2 0x3B82 JUMP JUMPDEST SWAP2 POP PUSH2 0x4667 DUP3 PUSH2 0x4600 JUMP JUMPDEST PUSH1 0x40 DUP3 ADD SWAP1 POP SWAP2 SWAP1 POP JUMP JUMPDEST PUSH1 0x0 PUSH1 0x20 DUP3 ADD SWAP1 POP DUP2 DUP2 SUB PUSH1 0x0 DUP4 ADD MSTORE PUSH2 0x468B DUP2 PUSH2 0x464F JUMP JUMPDEST SWAP1 POP SWAP2 SWAP1 POP JUMP JUMPDEST PUSH32 0x4E487B7100000000000000000000000000000000000000000000000000000000 PUSH1 0x0 MSTORE PUSH1 0x32 PUSH1 0x4 MSTORE PUSH1 0x24 PUSH1 0x0 REVERT JUMPDEST PUSH32 0x4552433732313A206F776E657220717565727920666F72206E6F6E6578697374 PUSH1 0x0 DUP3 ADD MSTORE PUSH32 0x656E7420746F6B656E0000000000000000000000000000000000000000000000 PUSH1 0x20 DUP3 ADD MSTORE POP JUMP JUMPDEST PUSH1 0x0 PUSH2 0x471D PUSH1 0x29 DUP4 PUSH2 0x3B82 JUMP JUMPDEST SWAP2 POP PUSH2 0x4728 DUP3 PUSH2 0x46C1 JUMP JUMPDEST PUSH1 0x40 DUP3 ADD SWAP1 POP SWAP2 SWAP1 POP JUMP JUMPDEST PUSH1 0x0 PUSH1 0x20 DUP3 ADD SWAP1 POP DUP2 DUP2 SUB PUSH1 0x0 DUP4 ADD MSTORE PUSH2 0x474C DUP2 PUSH2 0x4710 JUMP JUMPDEST SWAP1 POP SWAP2 SWAP1 POP JUMP JUMPDEST PUSH32 0x4552433732313A2062616C616E636520717565727920666F7220746865207A65 PUSH1 0x0 DUP3 ADD MSTORE PUSH32 0x726F206164647265737300000000000000000000000000000000000000000000 PUSH1 0x20 DUP3 ADD MSTORE POP JUMP JUMPDEST PUSH1 0x0 PUSH2 0x47AF PUSH1 0x2A DUP4 PUSH2 0x3B82 JUMP JUMPDEST SWAP2 POP PUSH2 0x47BA DUP3 PUSH2 0x4753 JUMP JUMPDEST PUSH1 0x40 DUP3 ADD SWAP1 POP SWAP2 SWAP1 POP JUMP JUMPDEST PUSH1 0x0 PUSH1 0x20 DUP3 ADD SWAP1 POP DUP2 DUP2 SUB PUSH1 0x0 DUP4 ADD MSTORE PUSH2 0x47DE DUP2 PUSH2 0x47A2 JUMP JUMPDEST SWAP1 POP SWAP2 SWAP1 POP JUMP JUMPDEST PUSH32 0x54686520636F6E74726163742069732070617573656400000000000000000000 PUSH1 0x0 DUP3 ADD MSTORE POP JUMP JUMPDEST PUSH1 0x0 PUSH2 0x481B PUSH1 0x16 DUP4 PUSH2 0x3B82 JUMP JUMPDEST SWAP2 POP PUSH2 0x4826 DUP3 PUSH2 0x47E5 JUMP JUMPDEST PUSH1 0x20 DUP3 ADD SWAP1 POP SWAP2 SWAP1 POP JUMP JUMPDEST PUSH1 0x0 PUSH1 0x20 DUP3 ADD SWAP1 POP DUP2 DUP2 SUB PUSH1 0x0 DUP4 ADD MSTORE PUSH2 0x484A DUP2 PUSH2 0x480E JUMP JUMPDEST SWAP1 POP SWAP2 SWAP1 POP JUMP JUMPDEST PUSH32 0x596F752063616E6E6F74206D696E74206C657373207468656E2031204E465427 PUSH1 0x0 DUP3 ADD MSTORE PUSH32 0x7300000000000000000000000000000000000000000000000000000000000000 PUSH1 0x20 DUP3 ADD MSTORE POP JUMP JUMPDEST PUSH1 0x0 PUSH2 0x48AD PUSH1 0x21 DUP4 PUSH2 0x3B82 JUMP JUMPDEST SWAP2 POP PUSH2 0x48B8 DUP3 PUSH2 0x4851 JUMP JUMPDEST PUSH1 0x40 DUP3 ADD SWAP1 POP SWAP2 SWAP1 POP JUMP JUMPDEST PUSH1 0x0 PUSH1 0x20 DUP3 ADD SWAP1 POP DUP2 DUP2 SUB PUSH1 0x0 DUP4 ADD MSTORE PUSH2 0x48DC DUP2 PUSH2 0x48A0 JUMP JUMPDEST SWAP1 POP SWAP2 SWAP1 POP JUMP JUMPDEST PUSH32 0x4E487B7100000000000000000000000000000000000000000000000000000000 PUSH1 0x0 MSTORE PUSH1 0x11 PUSH1 0x4 MSTORE PUSH1 0x24 PUSH1 0x0 REVERT JUMPDEST PUSH1 0x0 PUSH2 0x491D DUP3 PUSH2 0x3C32 JUMP JUMPDEST SWAP2 POP PUSH2 0x4928 DUP4 PUSH2 0x3C32 JUMP JUMPDEST SWAP3 POP DUP3 PUSH32 0xFFFFFFFFFFFFFFFFFFFFFFFFFFFFFFFFFFFFFFFFFFFFFFFFFFFFFFFFFFFFFFFF SUB DUP3 GT ISZERO PUSH2 0x495D JUMPI PUSH2 0x495C PUSH2 0x48E3 JUMP JUMPDEST JUMPDEST DUP3 DUP3 ADD SWAP1 POP SWAP3 SWAP2 POP POP JUMP JUMPDEST PUSH32 0x416C6C204E465427732068617665206265656E206D696E746564000000000000 PUSH1 0x0 DUP3 ADD MSTORE POP JUMP JUMPDEST PUSH1 0x0 PUSH2 0x499E PUSH1 0x1A DUP4 PUSH2 0x3B82 JUMP JUMPDEST SWAP2 POP PUSH2 0x49A9 DUP3 PUSH2 0x4968 JUMP JUMPDEST PUSH1 0x20 DUP3 ADD SWAP1 POP SWAP2 SWAP1 POP JUMP JUMPDEST PUSH1 0x0 PUSH1 0x20 DUP3 ADD SWAP1 POP DUP2 DUP2 SUB PUSH1 0x0 DUP4 ADD MSTORE PUSH2 0x49CD DUP2 PUSH2 0x4991 JUMP JUMPDEST SWAP1 POP SWAP2 SWAP1 POP JUMP JUMPDEST PUSH32 0x596F752063616E6E6F74206D696E742074686174206D616E79204E4654277320 PUSH1 0x0 DUP3 ADD MSTORE PUSH32 0x696E206F6E65206D696E74000000000000000000000000000000000000000000 PUSH1 0x20 DUP3 ADD MSTORE POP JUMP JUMPDEST PUSH1 0x0 PUSH2 0x4A30 PUSH1 0x2B DUP4 PUSH2 0x3B82 JUMP JUMPDEST SWAP2 POP PUSH2 0x4A3B DUP3 PUSH2 0x49D4 JUMP JUMPDEST PUSH1 0x40 DUP3 ADD SWAP1 POP SWAP2 SWAP1 POP JUMP JUMPDEST PUSH1 0x0 PUSH1 0x20 DUP3 ADD SWAP1 POP DUP2 DUP2 SUB PUSH1 0x0 DUP4 ADD MSTORE PUSH2 0x4A5F DUP2 PUSH2 0x4A23 JUMP JUMPDEST SWAP1 POP SWAP2 SWAP1 POP JUMP JUMPDEST PUSH1 0x0 PUSH2 0x4A71 DUP3 PUSH2 0x3C32 JUMP JUMPDEST SWAP2 POP PUSH2 0x4A7C DUP4 PUSH2 0x3C32 JUMP JUMPDEST SWAP3 POP DUP2 PUSH32 0xFFFFFFFFFFFFFFFFFFFFFFFFFFFFFFFFFFFFFFFFFFFFFFFFFFFFFFFFFFFFFFFF DIV DUP4 GT DUP3 ISZERO ISZERO AND ISZERO PUSH2 0x4AB5 JUMPI PUSH2 0x4AB4 PUSH2 0x48E3 JUMP JUMPDEST JUMPDEST DUP3 DUP3 MUL SWAP1 POP SWAP3 SWAP2 POP POP JUMP JUMPDEST PUSH32 0x696E73756666696369656E742066756E64730000000000000000000000000000 PUSH1 0x0 DUP3 ADD MSTORE POP JUMP JUMPDEST PUSH1 0x0 PUSH2 0x4AF6 PUSH1 0x12 DUP4 PUSH2 0x3B82 JUMP JUMPDEST SWAP2 POP PUSH2 0x4B01 DUP3 PUSH2 0x4AC0 JUMP JUMPDEST PUSH1 0x20 DUP3 ADD SWAP1 POP SWAP2 SWAP1 POP JUMP JUMPDEST PUSH1 0x0 PUSH1 0x20 DUP3 ADD SWAP1 POP DUP2 DUP2 SUB PUSH1 0x0 DUP4 ADD MSTORE PUSH2 0x4B25 DUP2 PUSH2 0x4AE9 JUMP JUMPDEST SWAP1 POP SWAP2 SWAP1 POP JUMP JUMPDEST PUSH1 0x0 PUSH2 0x4B37 DUP3 PUSH2 0x3C32 JUMP JUMPDEST SWAP2 POP PUSH32 0xFFFFFFFFFFFFFFFFFFFFFFFFFFFFFFFFFFFFFFFFFFFFFFFFFFFFFFFFFFFFFFFF DUP3 EQ ISZERO PUSH2 0x4B6A JUMPI PUSH2 0x4B69 PUSH2 0x48E3 JUMP JUMPDEST JUMPDEST PUSH1 0x1 DUP3 ADD SWAP1 POP SWAP2 SWAP1 POP JUMP JUMPDEST PUSH32 0x4552433732313A20617070726F766520746F2063616C6C657200000000000000 PUSH1 0x0 DUP3 ADD MSTORE POP JUMP JUMPDEST PUSH1 0x0 PUSH2 0x4BAB PUSH1 0x19 DUP4 PUSH2 0x3B82 JUMP JUMPDEST SWAP2 POP PUSH2 0x4BB6 DUP3 PUSH2 0x4B75 JUMP JUMPDEST PUSH1 0x20 DUP3 ADD SWAP1 POP SWAP2 SWAP1 POP JUMP JUMPDEST PUSH1 0x0 PUSH1 0x20 DUP3 ADD SWAP1 POP DUP2 DUP2 SUB PUSH1 0x0 DUP4 ADD MSTORE PUSH2 0x4BDA DUP2 PUSH2 0x4B9E JUMP JUMPDEST SWAP1 POP SWAP2 SWAP1 POP JUMP JUMPDEST PUSH32 0x4552433732314D657461646174613A2055524920717565727920666F72206E6F PUSH1 0x0 DUP3 ADD MSTORE PUSH32 0x6E6578697374656E7420746F6B656E0000000000000000000000000000000000 PUSH1 0x20 DUP3 ADD MSTORE POP JUMP JUMPDEST PUSH1 0x0 PUSH2 0x4C3D PUSH1 0x2F DUP4 PUSH2 0x3B82 JUMP JUMPDEST SWAP2 POP PUSH2 0x4C48 DUP3 PUSH2 0x4BE1 JUMP JUMPDEST PUSH1 0x40 DUP3 ADD SWAP1 POP SWAP2 SWAP1 POP JUMP JUMPDEST PUSH1 0x0 PUSH1 0x20 DUP3 ADD SWAP1 POP DUP2 DUP2 SUB PUSH1 0x0 DUP4 ADD MSTORE PUSH2 0x4C6C DUP2 PUSH2 0x4C30 JUMP JUMPDEST SWAP1 POP SWAP2 SWAP1 POP JUMP JUMPDEST PUSH1 0x0 DUP2 SWAP1 POP SWAP3 SWAP2 POP POP JUMP JUMPDEST PUSH1 0x0 PUSH2 0x4C89 DUP3 PUSH2 0x3B77 JUMP JUMPDEST PUSH2 0x4C93 DUP2 DUP6 PUSH2 0x4C73 JUMP JUMPDEST SWAP4 POP PUSH2 0x4CA3 DUP2 DUP6 PUSH1 0x20 DUP7 ADD PUSH2 0x3B93 JUMP JUMPDEST DUP1 DUP5 ADD SWAP2 POP POP SWAP3 SWAP2 POP POP JUMP JUMPDEST PUSH1 0x0 DUP2 SWAP1 POP DUP2 PUSH1 0x0 MSTORE PUSH1 0x20 PUSH1 0x0 KECCAK256 SWAP1 POP SWAP2 SWAP1 POP JUMP JUMPDEST PUSH1 0x0 DUP2 SLOAD PUSH2 0x4CD1 DUP2 PUSH2 0x4200 JUMP JUMPDEST PUSH2 0x4CDB DUP2 DUP7 PUSH2 0x4C73 JUMP JUMPDEST SWAP5 POP PUSH1 0x1 DUP3 AND PUSH1 0x0 DUP2 EQ PUSH2 0x4CF6 JUMPI PUSH1 0x1 DUP2 EQ PUSH2 0x4D07 JUMPI PUSH2 0x4D3A JUMP JUMPDEST PUSH1 0xFF NOT DUP4 AND DUP7 MSTORE DUP2 DUP7 ADD SWAP4 POP PUSH2 0x4D3A JUMP JUMPDEST PUSH2 0x4D10 DUP6 PUSH2 0x4CAF JUMP JUMPDEST PUSH1 0x0 JUMPDEST DUP4 DUP2 LT ISZERO PUSH2 0x4D32 JUMPI DUP2 SLOAD DUP2 DUP10 ADD MSTORE PUSH1 0x1 DUP3 ADD SWAP2 POP PUSH1 0x20 DUP2 ADD SWAP1 POP PUSH2 0x4D13 JUMP JUMPDEST DUP4 DUP9 ADD SWAP6 POP POP POP JUMPDEST POP POP POP SWAP3 SWAP2 POP POP JUMP JUMPDEST PUSH1 0x0 PUSH2 0x4D4F DUP3 DUP7 PUSH2 0x4C7E JUMP JUMPDEST SWAP2 POP PUSH2 0x4D5B DUP3 DUP6 PUSH2 0x4C7E JUMP JUMPDEST SWAP2 POP PUSH2 0x4D67 DUP3 DUP5 PUSH2 0x4CC4 JUMP JUMPDEST SWAP2 POP DUP2 SWAP1 POP SWAP5 SWAP4 POP POP POP POP JUMP JUMPDEST PUSH32 0x4F776E61626C653A206E6577206F776E657220697320746865207A65726F2061 PUSH1 0x0 DUP3 ADD MSTORE PUSH32 0x6464726573730000000000000000000000000000000000000000000000000000 PUSH1 0x20 DUP3 ADD MSTORE POP JUMP JUMPDEST PUSH1 0x0 PUSH2 0x4DD0 PUSH1 0x26 DUP4 PUSH2 0x3B82 JUMP JUMPDEST SWAP2 POP PUSH2 0x4DDB DUP3 PUSH2 0x4D74 JUMP JUMPDEST PUSH1 0x40 DUP3 ADD SWAP1 POP SWAP2 SWAP1 POP JUMP JUMPDEST PUSH1 0x0 PUSH1 0x20 DUP3 ADD SWAP1 POP DUP2 DUP2 SUB PUSH1 0x0 DUP4 ADD MSTORE PUSH2 0x4DFF DUP2 PUSH2 0x4DC3 JUMP JUMPDEST SWAP1 POP SWAP2 SWAP1 POP JUMP JUMPDEST PUSH32 0x52616E646F6D526573756C74206861736E74206172726976656420796574206F PUSH1 0x0 DUP3 ADD MSTORE PUSH32 0x7220697320302E00000000000000000000000000000000000000000000000000 PUSH1 0x20 DUP3 ADD MSTORE POP JUMP JUMPDEST PUSH1 0x0 PUSH2 0x4E62 PUSH1 0x27 DUP4 PUSH2 0x3B82 JUMP JUMPDEST SWAP2 POP PUSH2 0x4E6D DUP3 PUSH2 0x4E06 JUMP JUMPDEST PUSH1 0x40 DUP3 ADD SWAP1 POP SWAP2 SWAP1 POP JUMP JUMPDEST PUSH1 0x0 PUSH1 0x20 DUP3 ADD SWAP1 POP DUP2 DUP2 SUB PUSH1 0x0 DUP4 ADD MSTORE PUSH2 0x4E91 DUP2 PUSH2 0x4E55 JUMP JUMPDEST SWAP1 POP SWAP2 SWAP1 POP JUMP JUMPDEST PUSH1 0x0 PUSH1 0x40 DUP3 ADD SWAP1 POP PUSH2 0x4EAD PUSH1 0x0 DUP4 ADD DUP6 PUSH2 0x3D5D JUMP JUMPDEST PUSH2 0x4EBA PUSH1 0x20 DUP4 ADD DUP5 PUSH2 0x3D5D JUMP JUMPDEST SWAP4 SWAP3 POP POP POP JUMP JUMPDEST PUSH32 0x4E487B7100000000000000000000000000000000000000000000000000000000 PUSH1 0x0 MSTORE PUSH1 0x12 PUSH1 0x4 MSTORE PUSH1 0x24 PUSH1 0x0 REVERT JUMPDEST PUSH1 0x0 PUSH2 0x4EFB DUP3 PUSH2 0x3C32 JUMP JUMPDEST SWAP2 POP PUSH2 0x4F06 DUP4 PUSH2 0x3C32 JUMP JUMPDEST SWAP3 POP DUP3 PUSH2 0x4F16 JUMPI PUSH2 0x4F15 PUSH2 0x4EC1 JUMP JUMPDEST JUMPDEST DUP3 DUP3 MOD SWAP1 POP SWAP3 SWAP2 POP POP JUMP JUMPDEST PUSH1 0x0 PUSH2 0x4F2C DUP3 PUSH2 0x3C32 JUMP JUMPDEST SWAP2 POP PUSH2 0x4F37 DUP4 PUSH2 0x3C32 JUMP JUMPDEST SWAP3 POP DUP3 DUP3 LT ISZERO PUSH2 0x4F4A JUMPI PUSH2 0x4F49 PUSH2 0x48E3 JUMP JUMPDEST JUMPDEST DUP3 DUP3 SUB SWAP1 POP SWAP3 SWAP2 POP POP JUMP JUMPDEST PUSH32 0x4552433732313A206F70657261746F7220717565727920666F72206E6F6E6578 PUSH1 0x0 DUP3 ADD MSTORE PUSH32 0x697374656E7420746F6B656E0000000000000000000000000000000000000000 PUSH1 0x20 DUP3 ADD MSTORE POP JUMP JUMPDEST PUSH1 0x0 PUSH2 0x4FB1 PUSH1 0x2C DUP4 PUSH2 0x3B82 JUMP JUMPDEST SWAP2 POP PUSH2 0x4FBC DUP3 PUSH2 0x4F55 JUMP JUMPDEST PUSH1 0x40 DUP3 ADD SWAP1 POP SWAP2 SWAP1 POP JUMP JUMPDEST PUSH1 0x0 PUSH1 0x20 DUP3 ADD SWAP1 POP DUP2 DUP2 SUB PUSH1 0x0 DUP4 ADD MSTORE PUSH2 0x4FE0 DUP2 PUSH2 0x4FA4 JUMP JUMPDEST SWAP1 POP SWAP2 SWAP1 POP JUMP JUMPDEST PUSH32 0x4552433732313A207472616E73666572206F6620746F6B656E20746861742069 PUSH1 0x0 DUP3 ADD MSTORE PUSH32 0x73206E6F74206F776E0000000000000000000000000000000000000000000000 PUSH1 0x20 DUP3 ADD MSTORE POP JUMP JUMPDEST PUSH1 0x0 PUSH2 0x5043 PUSH1 0x29 DUP4 PUSH2 0x3B82 JUMP JUMPDEST SWAP2 POP PUSH2 0x504E DUP3 PUSH2 0x4FE7 JUMP JUMPDEST PUSH1 0x40 DUP3 ADD SWAP1 POP SWAP2 SWAP1 POP JUMP JUMPDEST PUSH1 0x0 PUSH1 0x20 DUP3 ADD SWAP1 POP DUP2 DUP2 SUB PUSH1 0x0 DUP4 ADD MSTORE PUSH2 0x5072 DUP2 PUSH2 0x5036 JUMP JUMPDEST SWAP1 POP SWAP2 SWAP1 POP JUMP JUMPDEST PUSH32 0x4552433732313A207472616E7366657220746F20746865207A65726F20616464 PUSH1 0x0 DUP3 ADD MSTORE PUSH32 0x7265737300000000000000000000000000000000000000000000000000000000 PUSH1 0x20 DUP3 ADD MSTORE POP JUMP JUMPDEST PUSH1 0x0 PUSH2 0x50D5 PUSH1 0x24 DUP4 PUSH2 0x3B82 JUMP JUMPDEST SWAP2 POP PUSH2 0x50E0 DUP3 PUSH2 0x5079 JUMP JUMPDEST PUSH1 0x40 DUP3 ADD SWAP1 POP SWAP2 SWAP1 POP JUMP JUMPDEST PUSH1 0x0 PUSH1 0x20 DUP3 ADD SWAP1 POP DUP2 DUP2 SUB PUSH1 0x0 DUP4 ADD MSTORE PUSH2 0x5104 DUP2 PUSH2 0x50C8 JUMP JUMPDEST SWAP1 POP SWAP2 SWAP1 POP JUMP JUMPDEST PUSH32 0x4552433732313A207472616E7366657220746F206E6F6E204552433732315265 PUSH1 0x0 DUP3 ADD MSTORE PUSH32 0x63656976657220696D706C656D656E7465720000000000000000000000000000 PUSH1 0x20 DUP3 ADD MSTORE POP JUMP JUMPDEST PUSH1 0x0 PUSH2 0x5167 PUSH1 0x32 DUP4 PUSH2 0x3B82 JUMP JUMPDEST SWAP2 POP PUSH2 0x5172 DUP3 PUSH2 0x510B JUMP JUMPDEST PUSH1 0x40 DUP3 ADD SWAP1 POP SWAP2 SWAP1 POP JUMP JUMPDEST PUSH1 0x0 PUSH1 0x20 DUP3 ADD SWAP1 POP DUP2 DUP2 SUB PUSH1 0x0 DUP4 ADD MSTORE PUSH2 0x5196 DUP2 PUSH2 0x515A JUMP JUMPDEST SWAP1 POP SWAP2 SWAP1 POP JUMP JUMPDEST PUSH1 0x0 PUSH2 0x51A8 DUP3 PUSH2 0x3C32 JUMP JUMPDEST SWAP2 POP PUSH2 0x51B3 DUP4 PUSH2 0x3C32 JUMP JUMPDEST SWAP3 POP DUP3 PUSH2 0x51C3 JUMPI PUSH2 0x51C2 PUSH2 0x4EC1 JUMP JUMPDEST JUMPDEST DUP3 DUP3 DIV SWAP1 POP SWAP3 SWAP2 POP POP JUMP JUMPDEST PUSH1 0x0 DUP2 MLOAD SWAP1 POP SWAP2 SWAP1 POP JUMP JUMPDEST PUSH1 0x0 DUP3 DUP3 MSTORE PUSH1 0x20 DUP3 ADD SWAP1 POP SWAP3 SWAP2 POP POP JUMP JUMPDEST PUSH1 0x0 PUSH2 0x51F5 DUP3 PUSH2 0x51CE JUMP JUMPDEST PUSH2 0x51FF DUP2 DUP6 PUSH2 0x51D9 JUMP JUMPDEST SWAP4 POP PUSH2 0x520F DUP2 DUP6 PUSH1 0x20 DUP7 ADD PUSH2 0x3B93 JUMP JUMPDEST PUSH2 0x5218 DUP2 PUSH2 0x3BC6 JUMP JUMPDEST DUP5 ADD SWAP2 POP POP SWAP3 SWAP2 POP POP JUMP JUMPDEST PUSH1 0x0 PUSH1 0x80 DUP3 ADD SWAP1 POP PUSH2 0x5238 PUSH1 0x0 DUP4 ADD DUP8 PUSH2 0x3CC7 JUMP JUMPDEST PUSH2 0x5245 PUSH1 0x20 DUP4 ADD DUP7 PUSH2 0x3CC7 JUMP JUMPDEST PUSH2 0x5252 PUSH1 0x40 DUP4 ADD DUP6 PUSH2 0x3D5D JUMP JUMPDEST DUP2 DUP2 SUB PUSH1 0x60 DUP4 ADD MSTORE PUSH2 0x5264 DUP2 DUP5 PUSH2 0x51EA JUMP JUMPDEST SWAP1 POP SWAP6 SWAP5 POP POP POP POP POP JUMP JUMPDEST PUSH1 0x0 DUP2 MLOAD SWAP1 POP PUSH2 0x527E DUP2 PUSH2 0x3A8F JUMP JUMPDEST SWAP3 SWAP2 POP POP JUMP JUMPDEST PUSH1 0x0 PUSH1 0x20 DUP3 DUP5 SUB SLT ISZERO PUSH2 0x529A JUMPI PUSH2 0x5299 PUSH2 0x3A59 JUMP JUMPDEST JUMPDEST PUSH1 0x0 PUSH2 0x52A8 DUP5 DUP3 DUP6 ADD PUSH2 0x526F JUMP JUMPDEST SWAP2 POP POP SWAP3 SWAP2 POP POP JUMP JUMPDEST PUSH32 0x4E487B7100000000000000000000000000000000000000000000000000000000 PUSH1 0x0 MSTORE PUSH1 0x31 PUSH1 0x4 MSTORE PUSH1 0x24 PUSH1 0x0 REVERT JUMPDEST PUSH32 0x4552433732313A206D696E7420746F20746865207A65726F2061646472657373 PUSH1 0x0 DUP3 ADD MSTORE POP JUMP JUMPDEST PUSH1 0x0 PUSH2 0x5316 PUSH1 0x20 DUP4 PUSH2 0x3B82 JUMP JUMPDEST SWAP2 POP PUSH2 0x5321 DUP3 PUSH2 0x52E0 JUMP JUMPDEST PUSH1 0x20 DUP3 ADD SWAP1 POP SWAP2 SWAP1 POP JUMP JUMPDEST PUSH1 0x0 PUSH1 0x20 DUP3 ADD SWAP1 POP DUP2 DUP2 SUB PUSH1 0x0 DUP4 ADD MSTORE PUSH2 0x5345 DUP2 PUSH2 0x5309 JUMP JUMPDEST SWAP1 POP SWAP2 SWAP1 POP JUMP JUMPDEST PUSH32 0x4552433732313A20746F6B656E20616C7265616479206D696E74656400000000 PUSH1 0x0 DUP3 ADD MSTORE POP JUMP JUMPDEST PUSH1 0x0 PUSH2 0x5382 PUSH1 0x1C DUP4 PUSH2 0x3B82 JUMP JUMPDEST SWAP2 POP PUSH2 0x538D DUP3 PUSH2 0x534C JUMP JUMPDEST PUSH1 0x20 DUP3 ADD SWAP1 POP SWAP2 SWAP1 POP JUMP JUMPDEST PUSH1 0x0 PUSH1 0x20 DUP3 ADD SWAP1 POP DUP2 DUP2 SUB PUSH1 0x0 DUP4 ADD MSTORE PUSH2 0x53B1 DUP2 PUSH2 0x5375 JUMP JUMPDEST SWAP1 POP SWAP2 SWAP1 POP JUMP INVALID LOG2 PUSH5 0x6970667358 0x22 SLT KECCAK256 PUSH8 0x4236A6F8C55B12CC 0x26 0xBB PUSH1 0xA 0xC8 0x27 SELFBALANCE DUP13 0xC4 0xCA GASPRICE 0xAB EXTCODESIZE 0x1E JUMPDEST 0xCE 0xEE CALLDATACOPY 0xEC 0x21 0xB3 CODESIZE POP PUSH5 0x736F6C6343 STOP ADDMOD EXP STOP CALLER PUSH9 0x747470733A2F2F6761 PUSH21 0x657761792E70696E6174612E636C6F75642F697066 PUSH20 0x2F516D567A7544536B314A7A6557426971357842 PUSH15 0x36514C646B75475273616477343561 ORIGIN CALLDATACOPY PUSH3 0x71414C 0x4B 0x4B PUSH26 0x6E552F68747470733A2F2F676174657761792E70696E6174612E PUSH4 0x6C6F7564 0x2F PUSH10 0x7066732F516D61557733 PUSH12 0x35473536616A5443434D3733 COINBASE PUSH22 0x6E72534263574E5958757A4356626A50746678657132 PUSH8 0x4E50A26469706673 PC 0x22 SLT KECCAK256 SSTORE STOP 0x4A BYTE 0xD1 LT 0xA7 0xB7 0xAE 0x23 JUMPI 0xFB PUSH29 0xAA01D9A8767C2EEE5B5F3BFF0298BF3D6BB33264736F6C634300080A00 CALLER "
		},
		"gasEstimates": {
			"creation": {
				"codeDepositCost": "5462800",
				"executionCost": "6599",
				"totalCost": "5469399"
			},
			"external": {
				"beforeAll()": "infinite",
				"checkFailure()": "infinite",
				"checkSenderAndValue()": "infinite",
				"checkSuccess()": "infinite",
				"checkSuccess2()": "343"
			}
		},
		"methodIdentifiers": {
			"beforeAll()": "7fea0d4b",
			"checkFailure()": "36c00656",
			"checkSenderAndValue()": "9074416d",
			"checkSuccess()": "011e6492",
			"checkSuccess2()": "12d487ea"
		}
	},
	"abi": [
		{
			"inputs": [],
			"name": "beforeAll",
			"outputs": [],
			"stateMutability": "nonpayable",
			"type": "function"
		},
		{
			"inputs": [],
			"name": "checkFailure",
			"outputs": [],
			"stateMutability": "nonpayable",
			"type": "function"
		},
		{
			"inputs": [],
			"name": "checkSenderAndValue",
			"outputs": [],
			"stateMutability": "payable",
			"type": "function"
		},
		{
			"inputs": [],
			"name": "checkSuccess",
			"outputs": [],
			"stateMutability": "nonpayable",
			"type": "function"
		},
		{
			"inputs": [],
			"name": "checkSuccess2",
			"outputs": [
				{
					"internalType": "bool",
					"name": "",
					"type": "bool"
				}
			],
			"stateMutability": "pure",
			"type": "function"
		}
	]
}